{
  "abi": [
    {
      "inputs": [
        {
          "internalType": "string",
          "name": "name",
          "type": "string"
        },
        {
          "internalType": "string",
          "name": "symbol",
          "type": "string"
        }
      ],
      "stateMutability": "nonpayable",
      "type": "constructor"
    },
    {
      "anonymous": false,
      "inputs": [
        {
          "indexed": true,
          "internalType": "address",
          "name": "owner",
          "type": "address"
        },
        {
          "indexed": true,
          "internalType": "address",
          "name": "spender",
          "type": "address"
        },
        {
          "indexed": false,
          "internalType": "uint256",
          "name": "value",
          "type": "uint256"
        }
      ],
      "name": "Approval",
      "type": "event"
    },
    {
      "anonymous": false,
      "inputs": [
        {
          "indexed": true,
          "internalType": "address",
          "name": "from",
          "type": "address"
        },
        {
          "indexed": true,
          "internalType": "address",
          "name": "to",
          "type": "address"
        },
        {
          "indexed": false,
          "internalType": "uint256",
          "name": "value",
          "type": "uint256"
        }
      ],
      "name": "Transfer",
      "type": "event"
    },
    {
      "inputs": [
        {
          "internalType": "address",
          "name": "owner",
          "type": "address"
        },
        {
          "internalType": "address",
          "name": "spender",
          "type": "address"
        }
      ],
      "name": "allowance",
      "outputs": [
        {
          "internalType": "uint256",
          "name": "",
          "type": "uint256"
        }
      ],
      "stateMutability": "view",
      "type": "function"
    },
    {
      "inputs": [
        {
          "internalType": "address",
          "name": "spender",
          "type": "address"
        },
        {
          "internalType": "uint256",
          "name": "amount",
          "type": "uint256"
        }
      ],
      "name": "approve",
      "outputs": [
        {
          "internalType": "bool",
          "name": "",
          "type": "bool"
        }
      ],
      "stateMutability": "nonpayable",
      "type": "function"
    },
    {
      "inputs": [
        {
          "internalType": "address",
          "name": "account",
          "type": "address"
        }
      ],
      "name": "balanceOf",
      "outputs": [
        {
          "internalType": "uint256",
          "name": "",
          "type": "uint256"
        }
      ],
      "stateMutability": "view",
      "type": "function"
    },
    {
      "inputs": [],
      "name": "balancerPool",
      "outputs": [
        {
          "internalType": "address",
          "name": "",
          "type": "address"
        }
      ],
      "stateMutability": "view",
      "type": "function"
    },
    {
      "inputs": [],
      "name": "claimRewardsFromDelegate",
      "outputs": [],
      "stateMutability": "nonpayable",
      "type": "function"
    },
    {
      "inputs": [],
      "name": "decimals",
      "outputs": [
        {
          "internalType": "uint8",
          "name": "",
          "type": "uint8"
        }
      ],
      "stateMutability": "view",
      "type": "function"
    },
    {
      "inputs": [
        {
          "internalType": "address",
          "name": "spender",
          "type": "address"
        },
        {
          "internalType": "uint256",
          "name": "subtractedValue",
          "type": "uint256"
        }
      ],
      "name": "decreaseAllowance",
      "outputs": [
        {
          "internalType": "bool",
          "name": "",
          "type": "bool"
        }
      ],
      "stateMutability": "nonpayable",
      "type": "function"
    },
    {
      "inputs": [],
      "name": "delegatee",
      "outputs": [
        {
          "internalType": "address",
          "name": "",
          "type": "address"
        }
      ],
      "stateMutability": "view",
      "type": "function"
    },
    {
      "inputs": [
        {
          "internalType": "uint256",
          "name": "amount",
          "type": "uint256"
        },
        {
          "internalType": "bool",
          "name": "stake",
          "type": "bool"
        }
      ],
      "name": "deposit",
      "outputs": [],
      "stateMutability": "nonpayable",
      "type": "function"
    },
    {
      "inputs": [],
      "name": "endTime",
      "outputs": [
        {
          "internalType": "uint256",
          "name": "",
          "type": "uint256"
        }
      ],
      "stateMutability": "view",
      "type": "function"
    },
    {
      "inputs": [
        {
          "internalType": "address",
          "name": "spender",
          "type": "address"
        },
        {
          "internalType": "uint256",
          "name": "addedValue",
          "type": "uint256"
        }
      ],
      "name": "increaseAllowance",
      "outputs": [
        {
          "internalType": "bool",
          "name": "",
          "type": "bool"
        }
      ],
      "stateMutability": "nonpayable",
      "type": "function"
    },
    {
      "inputs": [],
      "name": "lastUpdateEndTime",
      "outputs": [
        {
          "internalType": "uint256",
          "name": "",
          "type": "uint256"
        }
      ],
      "stateMutability": "view",
      "type": "function"
    },
    {
      "inputs": [],
      "name": "name",
      "outputs": [
        {
          "internalType": "string",
          "name": "",
          "type": "string"
        }
      ],
      "stateMutability": "view",
      "type": "function"
    },
    {
      "inputs": [],
      "name": "oneInchToken",
      "outputs": [
        {
          "internalType": "contract IERC20",
          "name": "",
          "type": "address"
        }
      ],
      "stateMutability": "view",
      "type": "function"
    },
    {
      "inputs": [],
      "name": "poolInitialDeposit1UP",
      "outputs": [
        {
          "internalType": "uint256",
          "name": "",
          "type": "uint256"
        }
      ],
      "stateMutability": "view",
      "type": "function"
    },
    {
      "inputs": [],
      "name": "powerPod",
      "outputs": [
        {
          "internalType": "address",
          "name": "",
          "type": "address"
        }
      ],
      "stateMutability": "view",
      "type": "function"
    },
    {
      "inputs": [],
      "name": "resolverFarmingPod",
      "outputs": [
        {
          "internalType": "address",
          "name": "",
          "type": "address"
        }
      ],
      "stateMutability": "view",
      "type": "function"
    },
    {
      "inputs": [],
      "name": "stake1inch",
      "outputs": [
        {
          "internalType": "address",
          "name": "",
          "type": "address"
        }
      ],
      "stateMutability": "view",
      "type": "function"
    },
    {
      "inputs": [],
      "name": "stakingContract",
      "outputs": [
        {
          "internalType": "address",
          "name": "",
          "type": "address"
        }
      ],
      "stateMutability": "view",
      "type": "function"
    },
    {
      "inputs": [],
      "name": "symbol",
      "outputs": [
        {
          "internalType": "string",
          "name": "",
          "type": "string"
        }
      ],
      "stateMutability": "view",
      "type": "function"
    },
    {
      "inputs": [],
      "name": "totalStaked",
      "outputs": [
        {
          "internalType": "uint256",
          "name": "",
          "type": "uint256"
        }
      ],
      "stateMutability": "view",
      "type": "function"
    },
    {
      "inputs": [],
      "name": "totalSupply",
      "outputs": [
        {
          "internalType": "uint256",
          "name": "",
          "type": "uint256"
        }
      ],
      "stateMutability": "view",
      "type": "function"
    },
    {
      "inputs": [
        {
          "internalType": "address",
          "name": "to",
          "type": "address"
        },
        {
          "internalType": "uint256",
          "name": "amount",
          "type": "uint256"
        }
      ],
      "name": "transfer",
      "outputs": [
        {
          "internalType": "bool",
          "name": "",
          "type": "bool"
        }
      ],
      "stateMutability": "nonpayable",
      "type": "function"
    },
    {
      "inputs": [
        {
          "internalType": "address",
          "name": "from",
          "type": "address"
        },
        {
          "internalType": "address",
          "name": "to",
          "type": "address"
        },
        {
          "internalType": "uint256",
          "name": "amount",
          "type": "uint256"
        }
      ],
      "name": "transferFrom",
      "outputs": [
        {
          "internalType": "bool",
          "name": "",
          "type": "bool"
        }
      ],
      "stateMutability": "nonpayable",
      "type": "function"
    },
    {
      "inputs": [],
      "name": "vaultEnded",
      "outputs": [
        {
          "internalType": "bool",
          "name": "",
          "type": "bool"
        }
      ],
      "stateMutability": "view",
      "type": "function"
    },
    {
      "inputs": [],
      "name": "vaultStarted",
      "outputs": [
        {
          "internalType": "bool",
          "name": "",
          "type": "bool"
        }
      ],
      "stateMutability": "view",
      "type": "function"
    },
    {
      "inputs": [],
      "name": "withdraw",
      "outputs": [],
      "stateMutability": "nonpayable",
      "type": "function"
    }
  ],
  "bytecode": {
    "object": "0x61010060405273111111111117dc0aa78b770fa6a738034120c302608052739a0c8ff858d273f57072d714bca7411d717501d760a05273accfac2339e16dc80c50d2fa81b5c2b049b4f94760c052737e78a8337194c06314300d030d41eb31ed299c3960e0523480156200007257600080fd5b5060405162001b3e38038062001b3e833981016040819052620000959162000184565b81816003620000a583826200027d565b506004620000b482826200027d565b505050505062000349565b634e487b7160e01b600052604160045260246000fd5b600082601f830112620000e757600080fd5b81516001600160401b0380821115620001045762000104620000bf565b604051601f8301601f19908116603f011681019082821181831017156200012f576200012f620000bf565b816040528381526020925086838588010111156200014c57600080fd5b600091505b8382101562000170578582018301518183018401529082019062000151565b600093810190920192909252949350505050565b600080604083850312156200019857600080fd5b82516001600160401b0380821115620001b057600080fd5b620001be86838701620000d5565b93506020850151915080821115620001d557600080fd5b50620001e485828601620000d5565b9150509250929050565b600181811c908216806200020357607f821691505b6020821081036200022457634e487b7160e01b600052602260045260246000fd5b50919050565b601f8211156200027857600081815260208120601f850160051c81016020861015620002535750805b601f850160051c820191505b8181101562000274578281556001016200025f565b5050505b505050565b81516001600160401b03811115620002995762000299620000bf565b620002b181620002aa8454620001ee565b846200022a565b602080601f831160018114620002e95760008415620002d05750858301515b600019600386901b1c1916600185901b17855562000274565b600085815260208120601f198616915b828110156200031a57888601518255948401946001909101908401620002f9565b5085821015620003395787850151600019600388901b60f8161c191681555b5050505050600190811b01905550565b60805160a05160c05160e05161176e620003d06000396000818161032c01526109ef0152600081816103d9015261090301526000818161038d0152818161054c015281816107b701526107f90152600081816102cc015281816105eb0152818161073d0152818161079501528181610a7701528181610aff0152610b42015261176e6000f3fe608060405234801561001057600080fd5b50600436106101a95760003560e01c806399c03951116100f9578063cee73a7611610097578063e251574511610071578063e251574514610388578063ee99205c146103af578063f2045010146103c2578063f9b86ed4146103d457600080fd5b8063cee73a761461035f578063d3bdef371461036c578063dd62ed3e1461037557600080fd5b8063a9059cbb116100d3578063a9059cbb14610314578063bf5d6d3e14610327578063c3d06a251461034e578063c7c90d611461035757600080fd5b806399c03951146102c75780639a408321146102ee578063a457c2d71461030157600080fd5b80633197cbb61161016657806370a082311161014057806370a082311461027a578063776da470146102a3578063817b1cd2146102b657806395d89b41146102bf57600080fd5b80633197cbb614610254578063395093511461025d5780633ccfd60b1461027057600080fd5b806306fdde03146101ae578063095ea7b3146101cc57806318160ddd146101ef5780631e31d0531461020157806323b872dd14610232578063313ce56714610245575b600080fd5b6101b66103fb565b6040516101c39190611543565b60405180910390f35b6101df6101da366004611592565b61048d565b60405190151581526020016101c3565b6002545b6040519081526020016101c3565b60055461021a906201000090046001600160a01b031681565b6040516001600160a01b0390911681526020016101c3565b6101df6102403660046115bc565b6104a7565b604051601281526020016101c3565b6101f360085481565b6101df61026b366004611592565b6104cb565b6102786104ed565b005b6101f36102883660046115f8565b6001600160a01b031660009081526020819052604090205490565b60065461021a906001600160a01b031681565b6101f3600a5481565b6101b6610644565b61021a7f000000000000000000000000000000000000000000000000000000000000000081565b6102786102fc366004611628565b610653565b6101df61030f366004611592565b610964565b6101df610322366004611592565b6109df565b61021a7f000000000000000000000000000000000000000000000000000000000000000081565b6101f3600b5481565b6102786109ed565b6005546101df9060ff1681565b6101f360095481565b6101f3610383366004611658565b610bb1565b61021a7f000000000000000000000000000000000000000000000000000000000000000081565b60075461021a906001600160a01b031681565b6005546101df90610100900460ff1681565b61021a7f000000000000000000000000000000000000000000000000000000000000000081565b60606003805461040a9061168b565b80601f01602080910402602001604051908101604052809291908181526020018280546104369061168b565b80156104835780601f1061045857610100808354040283529160200191610483565b820191906000526020600020905b81548152906001019060200180831161046657829003601f168201915b5050505050905090565b60003361049b818585610bdc565b60019150505b92915050565b6000336104b5858285610d01565b6104c0858585610d7b565b506001949350505050565b60003361049b8185856104de8383610bb1565b6104e891906116c5565b610bdc565b60085442116105345760405162461bcd60e51b815260206004820152600e60248201526d1c1bdbdb081b9bdd08195b99195960921b60448201526064015b60405180910390fd5b600554600090610100900460ff1615158103610624577f00000000000000000000000000000000000000000000000000000000000000006001600160a01b0316633ccfd60b6040518163ffffffff1660e01b8152600401600060405180830381600087803b1580156105a557600080fd5b505af11580156105b9573d6000803e3d6000fd5b505050506105c76102883390565b90506105dc335b6105d733610288565b610f1f565b610612335b6001600160a01b037f000000000000000000000000000000000000000000000000000000000000000016908361104e565b6005805461ff00191661010017905550565b61062d33610288565b9050610638336105ce565b610641336105e1565b50565b60606004805461040a9061168b565b600554610100900460ff16156106995760405162461bcd60e51b815260206004820152600b60248201526a15985d5b1d08195b99195960aa1b604482015260640161052b565b60055460009060ff16151581036106fd57506005805462010000600160b01b03191675a260f8b7c8f37c2f1bc11b04c19902829de6ac8a00001790556301e1853e6106e442826116c5565b600855426009556005805460ff19166001179055610738565b60095461070d9062278d006116c5565b4211156107385762278d006008600082825461072991906116c5565b9091555050426009555062278d005b61076d7f00000000000000000000000000000000000000000000000000000000000000006001600160a01b03163330866110b1565b6107886001831515146107805733610782565b305b846110e9565b6107dc6001600160a01b037f0000000000000000000000000000000000000000000000000000000000000000167f0000000000000000000000000000000000000000000000000000000000000000856111a8565b604051631c57762b60e31b815260048101849052602481018290527f00000000000000000000000000000000000000000000000000000000000000006001600160a01b03169063e2bbb15890604401600060405180830381600087803b15801561084557600080fd5b505af1158015610859573d6000803e3d6000fd5b505050508115156001036108da576007546001600160a01b03166351746bb284336040516001600160e01b031960e085901b16815260048101929092526001600160a01b03166024820152604401600060405180830381600087803b1580156108c157600080fd5b505af11580156108d5573d6000803e3d6000fd5b505050505b6005546040516317066a5760e21b8152620100009091046001600160a01b0390811660048301527f00000000000000000000000000000000000000000000000000000000000000001690635c19a95c90602401600060405180830381600087803b15801561094757600080fd5b505af115801561095b573d6000803e3d6000fd5b50505050505050565b600033816109728286610bb1565b9050838110156109d25760405162461bcd60e51b815260206004820152602560248201527f45524332303a2064656372656173656420616c6c6f77616e63652062656c6f77604482015264207a65726f60d81b606482015260840161052b565b6104c08286868403610bdc565b60003361049b818585610d7b565b7f00000000000000000000000000000000000000000000000000000000000000006001600160a01b0316634e71d92d6040518163ffffffff1660e01b8152600401600060405180830381600087803b158015610a4857600080fd5b505af1158015610a5c573d6000803e3d6000fd5b50506040516370a0823160e01b8152306004820152600092507f00000000000000000000000000000000000000000000000000000000000000006001600160a01b031691506370a0823190602401602060405180830381865afa158015610ac7573d6000803e3d6000fd5b505050506040513d601f19601f82011682018060405250810190610aeb91906116e6565b600754909150610b28906001600160a01b037f000000000000000000000000000000000000000000000000000000000000000081169116836111a8565b60075460405163b66503cf60e01b81526001600160a01b037f000000000000000000000000000000000000000000000000000000000000000081166004830152602482018490529091169063b66503cf90604401600060405180830381600087803b158015610b9657600080fd5b505af1158015610baa573d6000803e3d6000fd5b5050505050565b6001600160a01b03918216600090815260016020908152604080832093909416825291909152205490565b6001600160a01b038316610c3e5760405162461bcd60e51b8152602060048201526024808201527f45524332303a20617070726f76652066726f6d20746865207a65726f206164646044820152637265737360e01b606482015260840161052b565b6001600160a01b038216610c9f5760405162461bcd60e51b815260206004820152602260248201527f45524332303a20617070726f766520746f20746865207a65726f206164647265604482015261737360f01b606482015260840161052b565b6001600160a01b0383811660008181526001602090815260408083209487168084529482529182902085905590518481527f8c5be1e5ebec7d5bd14f71427d1e84f3dd0314c0f7b2291e5b200ac8c7c3b92591015b60405180910390a3505050565b6000610d0d8484610bb1565b90506000198114610d755781811015610d685760405162461bcd60e51b815260206004820152601d60248201527f45524332303a20696e73756666696369656e7420616c6c6f77616e6365000000604482015260640161052b565b610d758484848403610bdc565b50505050565b6001600160a01b038316610ddf5760405162461bcd60e51b815260206004820152602560248201527f45524332303a207472616e736665722066726f6d20746865207a65726f206164604482015264647265737360d81b606482015260840161052b565b6001600160a01b038216610e415760405162461bcd60e51b815260206004820152602360248201527f45524332303a207472616e7366657220746f20746865207a65726f206164647260448201526265737360e81b606482015260840161052b565b6001600160a01b03831660009081526020819052604090205481811015610eb95760405162461bcd60e51b815260206004820152602660248201527f45524332303a207472616e7366657220616d6f756e7420657863656564732062604482015265616c616e636560d01b606482015260840161052b565b6001600160a01b03848116600081815260208181526040808320878703905593871680835291849020805487019055925185815290927fddf252ad1be2c89b69c2b068fc378daa952ba7f163c4a11628f55a4df523b3ef910160405180910390a3610d75565b6001600160a01b038216610f7f5760405162461bcd60e51b815260206004820152602160248201527f45524332303a206275726e2066726f6d20746865207a65726f206164647265736044820152607360f81b606482015260840161052b565b6001600160a01b03821660009081526020819052604090205481811015610ff35760405162461bcd60e51b815260206004820152602260248201527f45524332303a206275726e20616d6f756e7420657863656564732062616c616e604482015261636560f01b606482015260840161052b565b6001600160a01b0383166000818152602081815260408083208686039055600280548790039055518581529192917fddf252ad1be2c89b69c2b068fc378daa952ba7f163c4a11628f55a4df523b3ef9101610cf4565b505050565b6040516001600160a01b03831660248201526044810182905261104990849063a9059cbb60e01b906064015b60408051601f198184030181529190526020810180516001600160e01b03166001600160e01b0319909316929092179091526112bd565b6040516001600160a01b0380851660248301528316604482015260648101829052610d759085906323b872dd60e01b9060840161107a565b6001600160a01b03821661113f5760405162461bcd60e51b815260206004820152601f60248201527f45524332303a206d696e7420746f20746865207a65726f206164647265737300604482015260640161052b565b806002600082825461115191906116c5565b90915550506001600160a01b038216600081815260208181526040808320805486019055518481527fddf252ad1be2c89b69c2b068fc378daa952ba7f163c4a11628f55a4df523b3ef910160405180910390a35050565b8015806112225750604051636eb1769f60e11b81523060048201526001600160a01b03838116602483015284169063dd62ed3e90604401602060405180830381865afa1580156111fc573d6000803e3d6000fd5b505050506040513d601f19601f8201168201806040525081019061122091906116e6565b155b61128d5760405162461bcd60e51b815260206004820152603660248201527f5361666545524332303a20617070726f76652066726f6d206e6f6e2d7a65726f60448201527520746f206e6f6e2d7a65726f20616c6c6f77616e636560501b606482015260840161052b565b6040516001600160a01b03831660248201526044810182905261104990849063095ea7b360e01b9060640161107a565b6000611312826040518060400160405280602081526020017f5361666545524332303a206c6f772d6c6576656c2063616c6c206661696c6564815250856001600160a01b031661138f9092919063ffffffff16565b805190915015611049578080602001905181019061133091906116ff565b6110495760405162461bcd60e51b815260206004820152602a60248201527f5361666545524332303a204552433230206f7065726174696f6e20646964206e6044820152691bdd081cdd58d8d9595960b21b606482015260840161052b565b606061139e84846000856113a6565b949350505050565b6060824710156114075760405162461bcd60e51b815260206004820152602660248201527f416464726573733a20696e73756666696369656e742062616c616e636520666f6044820152651c8818d85b1b60d21b606482015260840161052b565b600080866001600160a01b03168587604051611423919061171c565b60006040518083038185875af1925050503d8060008114611460576040519150601f19603f3d011682016040523d82523d6000602084013e611465565b606091505b509150915061147687838387611481565b979650505050505050565b606083156114f05782516000036114e9576001600160a01b0385163b6114e95760405162461bcd60e51b815260206004820152601d60248201527f416464726573733a2063616c6c20746f206e6f6e2d636f6e7472616374000000604482015260640161052b565b508161139e565b61139e83838151156115055781518083602001fd5b8060405162461bcd60e51b815260040161052b9190611543565b60005b8381101561153a578181015183820152602001611522565b50506000910152565b602081526000825180602084015261156281604085016020870161151f565b601f01601f19169190910160400192915050565b80356001600160a01b038116811461158d57600080fd5b919050565b600080604083850312156115a557600080fd5b6115ae83611576565b946020939093013593505050565b6000806000606084860312156115d157600080fd5b6115da84611576565b92506115e860208501611576565b9150604084013590509250925092565b60006020828403121561160a57600080fd5b61161382611576565b9392505050565b801515811461064157600080fd5b6000806040838503121561163b57600080fd5b82359150602083013561164d8161161a565b809150509250929050565b6000806040838503121561166b57600080fd5b61167483611576565b915061168260208401611576565b90509250929050565b600181811c9082168061169f57607f821691505b6020821081036116bf57634e487b7160e01b600052602260045260246000fd5b50919050565b808201808211156104a157634e487b7160e01b600052601160045260246000fd5b6000602082840312156116f857600080fd5b5051919050565b60006020828403121561171157600080fd5b81516116138161161a565b6000825161172e81846020870161151f565b919091019291505056fea26469706673582212209654e26b650e7b57feb363a648387869567071621677c8a120b0e90b13f3aab064736f6c63430008110033",
    "linkReferences": {}
  },
  "methodIdentifiers": {
    "allowance(address,address)": "dd62ed3e",
    "approve(address,uint256)": "095ea7b3",
    "balanceOf(address)": "70a08231",
    "balancerPool()": "776da470",
    "claimRewardsFromDelegate()": "c7c90d61",
    "decimals()": "313ce567",
    "decreaseAllowance(address,uint256)": "a457c2d7",
    "delegatee()": "1e31d053",
    "deposit(uint256,bool)": "9a408321",
    "endTime()": "3197cbb6",
    "increaseAllowance(address,uint256)": "39509351",
    "lastUpdateEndTime()": "d3bdef37",
    "name()": "06fdde03",
    "oneInchToken()": "99c03951",
    "poolInitialDeposit1UP()": "c3d06a25",
    "powerPod()": "f9b86ed4",
    "resolverFarmingPod()": "bf5d6d3e",
    "stake1inch()": "e2515745",
    "stakingContract()": "ee99205c",
    "symbol()": "95d89b41",
    "totalStaked()": "817b1cd2",
    "totalSupply()": "18160ddd",
    "transfer(address,uint256)": "a9059cbb",
    "transferFrom(address,address,uint256)": "23b872dd",
    "vaultEnded()": "f2045010",
    "vaultStarted()": "cee73a76",
    "withdraw()": "3ccfd60b"
  },
  "id": 2
}