{
  "abi": [
    {
      "inputs": [
        {
          "internalType": "string",
          "name": "_name",
          "type": "string"
        },
        {
          "internalType": "string",
          "name": "_symbol",
          "type": "string"
        },
        {
          "internalType": "uint256",
          "name": "_duration",
          "type": "uint256"
        },
        {
          "internalType": "address",
          "name": "_delegatee",
          "type": "address"
        }
      ],
      "stateMutability": "nonpayable",
      "type": "constructor"
    },
    {
      "anonymous": false,
      "inputs": [
        {
          "indexed": true,
          "internalType": "address",
          "name": "owner",
          "type": "address"
        },
        {
          "indexed": true,
          "internalType": "address",
          "name": "spender",
          "type": "address"
        },
        {
          "indexed": false,
          "internalType": "uint256",
          "name": "value",
          "type": "uint256"
        }
      ],
      "name": "Approval",
      "type": "event"
    },
    {
      "anonymous": false,
      "inputs": [
        {
          "indexed": true,
          "internalType": "address",
          "name": "from",
          "type": "address"
        },
        {
          "indexed": true,
          "internalType": "address",
          "name": "to",
          "type": "address"
        },
        {
          "indexed": false,
          "internalType": "uint256",
          "name": "value",
          "type": "uint256"
        }
      ],
      "name": "Transfer",
      "type": "event"
    },
    {
      "inputs": [
        {
          "internalType": "address",
          "name": "owner",
          "type": "address"
        },
        {
          "internalType": "address",
          "name": "spender",
          "type": "address"
        }
      ],
      "name": "allowance",
      "outputs": [
        {
          "internalType": "uint256",
          "name": "",
          "type": "uint256"
        }
      ],
      "stateMutability": "view",
      "type": "function"
    },
    {
      "inputs": [
        {
          "internalType": "address",
          "name": "spender",
          "type": "address"
        },
        {
          "internalType": "uint256",
          "name": "amount",
          "type": "uint256"
        }
      ],
      "name": "approve",
      "outputs": [
        {
          "internalType": "bool",
          "name": "",
          "type": "bool"
        }
      ],
      "stateMutability": "nonpayable",
      "type": "function"
    },
    {
      "inputs": [
        {
          "internalType": "address",
          "name": "account",
          "type": "address"
        }
      ],
      "name": "balanceOf",
      "outputs": [
        {
          "internalType": "uint256",
          "name": "",
          "type": "uint256"
        }
      ],
      "stateMutability": "view",
      "type": "function"
    },
    {
      "inputs": [],
      "name": "claimRewardsFromDelegate",
      "outputs": [],
      "stateMutability": "nonpayable",
      "type": "function"
    },
    {
      "inputs": [],
      "name": "decimals",
      "outputs": [
        {
          "internalType": "uint8",
          "name": "",
          "type": "uint8"
        }
      ],
      "stateMutability": "view",
      "type": "function"
    },
    {
      "inputs": [
        {
          "internalType": "address",
          "name": "spender",
          "type": "address"
        },
        {
          "internalType": "uint256",
          "name": "subtractedValue",
          "type": "uint256"
        }
      ],
      "name": "decreaseAllowance",
      "outputs": [
        {
          "internalType": "bool",
          "name": "",
          "type": "bool"
        }
      ],
      "stateMutability": "nonpayable",
      "type": "function"
    },
    {
      "inputs": [],
      "name": "delegatee",
      "outputs": [
        {
          "internalType": "address",
          "name": "",
          "type": "address"
        }
      ],
      "stateMutability": "view",
      "type": "function"
    },
    {
      "inputs": [
        {
          "internalType": "uint256",
          "name": "amount",
          "type": "uint256"
        },
        {
          "internalType": "bool",
          "name": "stake",
          "type": "bool"
        }
      ],
      "name": "deposit",
      "outputs": [],
      "stateMutability": "nonpayable",
      "type": "function"
    },
    {
      "inputs": [],
      "name": "duration",
      "outputs": [
        {
          "internalType": "uint256",
          "name": "",
          "type": "uint256"
        }
      ],
      "stateMutability": "view",
      "type": "function"
    },
    {
      "inputs": [],
      "name": "endTime",
      "outputs": [
        {
          "internalType": "uint256",
          "name": "",
          "type": "uint256"
        }
      ],
      "stateMutability": "view",
      "type": "function"
    },
    {
      "inputs": [],
      "name": "firstDeposit",
      "outputs": [
        {
          "internalType": "bool",
          "name": "",
          "type": "bool"
        }
      ],
      "stateMutability": "view",
      "type": "function"
    },
    {
      "inputs": [
        {
          "internalType": "address",
          "name": "spender",
          "type": "address"
        },
        {
          "internalType": "uint256",
          "name": "addedValue",
          "type": "uint256"
        }
      ],
      "name": "increaseAllowance",
      "outputs": [
        {
          "internalType": "bool",
          "name": "",
          "type": "bool"
        }
      ],
      "stateMutability": "nonpayable",
      "type": "function"
    },
    {
      "inputs": [],
      "name": "lastUpdateEndTime",
      "outputs": [
        {
          "internalType": "uint256",
          "name": "",
          "type": "uint256"
        }
      ],
      "stateMutability": "view",
      "type": "function"
    },
    {
      "inputs": [],
      "name": "name",
      "outputs": [
        {
          "internalType": "string",
          "name": "",
          "type": "string"
        }
      ],
      "stateMutability": "view",
      "type": "function"
    },
    {
      "inputs": [],
      "name": "oneInchToken",
      "outputs": [
        {
          "internalType": "contract IERC20",
          "name": "",
          "type": "address"
        }
      ],
      "stateMutability": "view",
      "type": "function"
    },
    {
      "inputs": [],
      "name": "powerPod",
      "outputs": [
        {
          "internalType": "address",
          "name": "",
          "type": "address"
        }
      ],
      "stateMutability": "view",
      "type": "function"
    },
    {
      "inputs": [],
      "name": "resolverFarmingPod",
      "outputs": [
        {
          "internalType": "address",
          "name": "",
          "type": "address"
        }
      ],
      "stateMutability": "view",
      "type": "function"
    },
    {
      "inputs": [
        {
          "internalType": "uint256",
          "name": "",
          "type": "uint256"
        }
      ],
      "name": "rewardTokens",
      "outputs": [
        {
          "internalType": "address",
          "name": "",
          "type": "address"
        }
      ],
      "stateMutability": "view",
      "type": "function"
    },
    {
      "inputs": [],
      "name": "stake1inch",
      "outputs": [
        {
          "internalType": "address",
          "name": "",
          "type": "address"
        }
      ],
      "stateMutability": "view",
      "type": "function"
    },
    {
      "inputs": [],
      "name": "stakingContract",
      "outputs": [
        {
          "internalType": "contract OneUpMultiRewards",
          "name": "",
          "type": "address"
        }
      ],
      "stateMutability": "view",
      "type": "function"
    },
    {
      "inputs": [],
      "name": "symbol",
      "outputs": [
        {
          "internalType": "string",
          "name": "",
          "type": "string"
        }
      ],
      "stateMutability": "view",
      "type": "function"
    },
    {
      "inputs": [],
      "name": "totalSupply",
      "outputs": [
        {
          "internalType": "uint256",
          "name": "",
          "type": "uint256"
        }
      ],
      "stateMutability": "view",
      "type": "function"
    },
    {
      "inputs": [
        {
          "internalType": "address",
          "name": "to",
          "type": "address"
        },
        {
          "internalType": "uint256",
          "name": "amount",
          "type": "uint256"
        }
      ],
      "name": "transfer",
      "outputs": [
        {
          "internalType": "bool",
          "name": "",
          "type": "bool"
        }
      ],
      "stateMutability": "nonpayable",
      "type": "function"
    },
    {
      "inputs": [
        {
          "internalType": "address",
          "name": "from",
          "type": "address"
        },
        {
          "internalType": "address",
          "name": "to",
          "type": "address"
        },
        {
          "internalType": "uint256",
          "name": "amount",
          "type": "uint256"
        }
      ],
      "name": "transferFrom",
      "outputs": [
        {
          "internalType": "bool",
          "name": "",
          "type": "bool"
        }
      ],
      "stateMutability": "nonpayable",
      "type": "function"
    },
    {
      "inputs": [],
      "name": "vaultEnded",
      "outputs": [
        {
          "internalType": "bool",
          "name": "",
          "type": "bool"
        }
      ],
      "stateMutability": "view",
      "type": "function"
    },
    {
      "inputs": [],
      "name": "withdraw",
      "outputs": [],
      "stateMutability": "nonpayable",
      "type": "function"
    }
  ],
  "bytecode": {
    "object": "0x61010060405273111111111117dc0aa78b770fa6a738034120c302608052739a0c8ff858d273f57072d714bca7411d717501d760a05273accfac2339e16dc80c50d2fa81b5c2b049b4f94760c052737e78a8337194c06314300d030d41eb31ed299c3960e0526005805460ff60a01b1916600160a01b1790553480156200008557600080fd5b5060405162003d8a38038062003d8a833981016040819052620000a891620002df565b83836003620000b8838262000403565b506004620000c7828262000403565b505050600a829055600680546001600160a01b0319166001600160a01b038316179055426009556040513090620000fe906200020c565b6001600160a01b039091168152602001604051809103906000f0801580156200012b573d6000803e3d6000fd5b50600580546001600160a01b0319166001600160a01b03928316908117909155608051604051636876935760e11b8152921660048301523060248301526212750060448301529063d0ed26ae90606401600060405180830381600087803b1580156200019657600080fd5b505af1158015620001ab573d6000803e3d6000fd5b5050608051600780546001810182556000919091527fa66cc928b5edb82af9bd49922954155ab7b0942694bea4ce44661d9a8736c6880180546001600160a01b0319166001600160a01b0390921691909117905550620004cf945050505050565b611c9680620020f483390190565b634e487b7160e01b600052604160045260246000fd5b600082601f8301126200024257600080fd5b81516001600160401b03808211156200025f576200025f6200021a565b604051601f8301601f19908116603f011681019082821181831017156200028a576200028a6200021a565b81604052838152602092508683858801011115620002a757600080fd5b600091505b83821015620002cb5785820183015181830184015290820190620002ac565b600093810190920192909252949350505050565b60008060008060808587031215620002f657600080fd5b84516001600160401b03808211156200030e57600080fd5b6200031c8883890162000230565b955060208701519150808211156200033357600080fd5b50620003428782880162000230565b60408701516060880151919550935090506001600160a01b03811681146200036957600080fd5b939692955090935050565b600181811c908216806200038957607f821691505b602082108103620003aa57634e487b7160e01b600052602260045260246000fd5b50919050565b601f821115620003fe57600081815260208120601f850160051c81016020861015620003d95750805b601f850160051c820191505b81811015620003fa57828155600101620003e5565b5050505b505050565b81516001600160401b038111156200041f576200041f6200021a565b620004378162000430845462000374565b84620003b0565b602080601f8311600181146200046f5760008415620004565750858301515b600019600386901b1c1916600185901b178555620003fa565b600085815260208120601f198616915b82811015620004a0578886015182559484019460019091019084016200047f565b5085821015620004bf5787850151600019600388901b60f8161c191681555b5050505050600190811b01905550565b60805160a05160c05160e051611ba56200054f60003960008181610323015281816109eb01528181610a8201526114200152600081816103bc01526108fd01526000818161036e01528181610531015281816107a001526107e20152600081816102af015281816105d001528181610726015261077e0152611ba56000f3fe608060405234801561001057600080fd5b506004361061018e5760003560e01c806399c03951116100de578063c7c90d6111610097578063e251574511610071578063e251574514610369578063ee99205c14610390578063f2045010146103a3578063f9b86ed4146103b757600080fd5b8063c7c90d6114610345578063d3bdef371461034d578063dd62ed3e1461035657600080fd5b806399c03951146102aa5780639a408321146102d1578063a457c2d7146102e4578063a5f5be54146102f7578063a9059cbb1461030b578063bf5d6d3e1461031e57600080fd5b8063313ce5671161014b5780633ccfd60b116101255780633ccfd60b1461025c57806370a08231146102665780637bb7bed11461028f57806395d89b41146102a257600080fd5b8063313ce567146102315780633197cbb614610240578063395093511461024957600080fd5b806306fdde0314610193578063095ea7b3146101b15780630fb5a6b4146101d457806318160ddd146101eb5780631e31d053146101f357806323b872dd1461021e575b600080fd5b61019b6103de565b6040516101a8919061182f565b60405180910390f35b6101c46101bf366004611877565b610470565b60405190151581526020016101a8565b6101dd600a5481565b6040519081526020016101a8565b6002546101dd565b600654610206906001600160a01b031681565b6040516001600160a01b0390911681526020016101a8565b6101c461022c3660046118a3565b61048a565b604051601281526020016101a8565b6101dd60085481565b6101c4610257366004611877565b6104ae565b6102646104d0565b005b6101dd6102743660046118e4565b6001600160a01b031660009081526020819052604090205490565b61020661029d366004611908565b61062d565b61019b610657565b6102067f000000000000000000000000000000000000000000000000000000000000000081565b6102646102df36600461192f565b610666565b6101c46102f2366004611877565b610960565b6005546101c490600160a01b900460ff1681565b6101c4610319366004611877565b6109db565b6102067f000000000000000000000000000000000000000000000000000000000000000081565b6102646109e9565b6101dd60095481565b6101dd61036436600461195f565b610d0f565b6102067f000000000000000000000000000000000000000000000000000000000000000081565b600554610206906001600160a01b031681565b6005546101c490600160a81b900460ff1681565b6102067f000000000000000000000000000000000000000000000000000000000000000081565b6060600380546103ed9061198d565b80601f01602080910402602001604051908101604052809291908181526020018280546104199061198d565b80156104665780601f1061043b57610100808354040283529160200191610466565b820191906000526020600020905b81548152906001019060200180831161044957829003601f168201915b5050505050905090565b60003361047e818585610d3a565b60019150505b92915050565b600033610498858285610e5f565b6104a3858585610ed9565b506001949350505050565b60003361047e8185856104c18383610d0f565b6104cb91906119dd565b610d3a565b60085442116105175760405162461bcd60e51b815260206004820152600e60248201526d1c1bdbdb081b9bdd08195b99195960921b60448201526064015b60405180910390fd5b600554600090600160a81b900460ff161515810361060d577f00000000000000000000000000000000000000000000000000000000000000006001600160a01b0316633ccfd60b6040518163ffffffff1660e01b8152600401600060405180830381600087803b15801561058a57600080fd5b505af115801561059e573d6000803e3d6000fd5b505050506105ac6102743390565b90506105c1335b6105bc33610274565b61107d565b6105f7335b6001600160a01b037f00000000000000000000000000000000000000000000000000000000000000001690836111ac565b6005805460ff60a81b1916600160a81b17905550565b61061633610274565b9050610621336105b3565b61062a336105c6565b50565b6007818154811061063d57600080fd5b6000918252602090912001546001600160a01b0316905081565b6060600480546103ed9061198d565b600554600160a81b900460ff16156106ae5760405162461bcd60e51b815260206004820152600b60248201526a15985d5b1d08195b99195960aa1b604482015260640161050e565b600554600090600160a01b900460ff1615156001036106e65750600a546106d581426119dd565b6008556005805460ff60a01b191690555b6009546106f69062278d006119dd565b42111561072157600a5461070a90426119dd565b60085560095461071a90426119f0565b4260095590505b6107567f00000000000000000000000000000000000000000000000000000000000000006001600160a01b031633308661120f565b610771600183151514610769573361076b565b305b84611247565b6107c56001600160a01b037f0000000000000000000000000000000000000000000000000000000000000000167f000000000000000000000000000000000000000000000000000000000000000085611307565b604051631c57762b60e31b815260048101849052602481018290527f00000000000000000000000000000000000000000000000000000000000000006001600160a01b03169063e2bbb15890604401600060405180830381600087803b15801561082e57600080fd5b505af1158015610842573d6000803e3d6000fd5b505050508115156001036108db576005546108689030906001600160a01b031685611307565b6005546001600160a01b03166351746bb284336040516001600160e01b031960e085901b16815260048101929092526001600160a01b03166024820152604401600060405180830381600087803b1580156108c257600080fd5b505af11580156108d6573d6000803e3d6000fd5b505050505b6006546040516317066a5760e21b81526001600160a01b0391821660048201527f000000000000000000000000000000000000000000000000000000000000000090911690635c19a95c90602401600060405180830381600087803b15801561094357600080fd5b505af1158015610957573d6000803e3d6000fd5b50505050505050565b6000338161096e8286610d0f565b9050838110156109ce5760405162461bcd60e51b815260206004820152602560248201527f45524332303a2064656372656173656420616c6c6f77616e63652062656c6f77604482015264207a65726f60d81b606482015260840161050e565b6104a38286868403610d3a565b60003361047e818585610ed9565b7f00000000000000000000000000000000000000000000000000000000000000006001600160a01b031663cd00671b6040518163ffffffff1660e01b8152600401600060405180830381865afa158015610a47573d6000803e3d6000fd5b505050506040513d6000823e601f3d908101601f19168201604052610a6f9190810190611a29565b5160075414610a8057610a8061141c565b7f00000000000000000000000000000000000000000000000000000000000000006001600160a01b0316634e71d92d6040518163ffffffff1660e01b8152600401600060405180830381600087803b158015610adb57600080fd5b505af1158015610aef573d6000803e3d6000fd5b5050505060005b60075481101561062a57600060078281548110610b1557610b15611aee565b6000918252602090912001546040516370a0823160e01b81523060048201526001600160a01b03909116906370a0823190602401602060405180830381865afa158015610b66573d6000803e3d6000fd5b505050506040513d601f19601f82011682018060405250810190610b8a9190611b04565b1115610cfd57600060078281548110610ba557610ba5611aee565b6000918252602090912001546040516370a0823160e01b81523060048201526001600160a01b03909116906370a0823190602401602060405180830381865afa158015610bf6573d6000803e3d6000fd5b505050506040513d601f19601f82011682018060405250810190610c1a9190611b04565b9050610c65600560009054906101000a90046001600160a01b03168260078581548110610c4957610c49611aee565b6000918252602090912001546001600160a01b03169190611307565b600554600780546001600160a01b039092169163b66503cf919085908110610c8f57610c8f611aee565b60009182526020909120015460405160e083901b6001600160e01b03191681526001600160a01b03909116600482015260248101849052604401600060405180830381600087803b158015610ce357600080fd5b505af1158015610cf7573d6000803e3d6000fd5b50505050505b80610d0781611b1d565b915050610af6565b6001600160a01b03918216600090815260016020908152604080832093909416825291909152205490565b6001600160a01b038316610d9c5760405162461bcd60e51b8152602060048201526024808201527f45524332303a20617070726f76652066726f6d20746865207a65726f206164646044820152637265737360e01b606482015260840161050e565b6001600160a01b038216610dfd5760405162461bcd60e51b815260206004820152602260248201527f45524332303a20617070726f766520746f20746865207a65726f206164647265604482015261737360f01b606482015260840161050e565b6001600160a01b0383811660008181526001602090815260408083209487168084529482529182902085905590518481527f8c5be1e5ebec7d5bd14f71427d1e84f3dd0314c0f7b2291e5b200ac8c7c3b92591015b60405180910390a3505050565b6000610e6b8484610d0f565b90506000198114610ed35781811015610ec65760405162461bcd60e51b815260206004820152601d60248201527f45524332303a20696e73756666696369656e7420616c6c6f77616e6365000000604482015260640161050e565b610ed38484848403610d3a565b50505050565b6001600160a01b038316610f3d5760405162461bcd60e51b815260206004820152602560248201527f45524332303a207472616e736665722066726f6d20746865207a65726f206164604482015264647265737360d81b606482015260840161050e565b6001600160a01b038216610f9f5760405162461bcd60e51b815260206004820152602360248201527f45524332303a207472616e7366657220746f20746865207a65726f206164647260448201526265737360e81b606482015260840161050e565b6001600160a01b038316600090815260208190526040902054818110156110175760405162461bcd60e51b815260206004820152602660248201527f45524332303a207472616e7366657220616d6f756e7420657863656564732062604482015265616c616e636560d01b606482015260840161050e565b6001600160a01b03848116600081815260208181526040808320878703905593871680835291849020805487019055925185815290927fddf252ad1be2c89b69c2b068fc378daa952ba7f163c4a11628f55a4df523b3ef910160405180910390a3610ed3565b6001600160a01b0382166110dd5760405162461bcd60e51b815260206004820152602160248201527f45524332303a206275726e2066726f6d20746865207a65726f206164647265736044820152607360f81b606482015260840161050e565b6001600160a01b038216600090815260208190526040902054818110156111515760405162461bcd60e51b815260206004820152602260248201527f45524332303a206275726e20616d6f756e7420657863656564732062616c616e604482015261636560f01b606482015260840161050e565b6001600160a01b0383166000818152602081815260408083208686039055600280548790039055518581529192917fddf252ad1be2c89b69c2b068fc378daa952ba7f163c4a11628f55a4df523b3ef9101610e52565b505050565b6040516001600160a01b0383166024820152604481018290526111a790849063a9059cbb60e01b906064015b60408051601f198184030181529190526020810180516001600160e01b03166001600160e01b0319909316929092179091526115a9565b6040516001600160a01b0380851660248301528316604482015260648101829052610ed39085906323b872dd60e01b906084016111d8565b6001600160a01b03821661129d5760405162461bcd60e51b815260206004820152601f60248201527f45524332303a206d696e7420746f20746865207a65726f206164647265737300604482015260640161050e565b80600260008282546112af91906119dd565b90915550506001600160a01b038216600081815260208181526040808320805486019055518481527fddf252ad1be2c89b69c2b068fc378daa952ba7f163c4a11628f55a4df523b3ef910160405180910390a35b5050565b8015806113815750604051636eb1769f60e11b81523060048201526001600160a01b03838116602483015284169063dd62ed3e90604401602060405180830381865afa15801561135b573d6000803e3d6000fd5b505050506040513d601f19601f8201168201806040525081019061137f9190611b04565b155b6113ec5760405162461bcd60e51b815260206004820152603660248201527f5361666545524332303a20617070726f76652066726f6d206e6f6e2d7a65726f60448201527520746f206e6f6e2d7a65726f20616c6c6f77616e636560501b606482015260840161050e565b6040516001600160a01b0383166024820152604481018290526111a790849063095ea7b360e01b906064016111d8565b60007f00000000000000000000000000000000000000000000000000000000000000006001600160a01b031663cd00671b6040518163ffffffff1660e01b8152600401600060405180830381865afa15801561147c573d6000803e3d6000fd5b505050506040513d6000823e601f3d908101601f191682016040526114a49190810190611a29565b6007549091505b81518110156113035760078282815181106114c8576114c8611aee565b60209081029190910181015182546001810184556000938452919092200180546001600160a01b0319166001600160a01b0392831617905560055460078054919092169163d0ed26ae918490811061152257611522611aee565b60009182526020909120015460405160e083901b6001600160e01b03191681526001600160a01b039091166004820152306024820152621275006044820152606401600060405180830381600087803b15801561157e57600080fd5b505af1158015611592573d6000803e3d6000fd5b5050505080806115a190611b1d565b9150506114ab565b60006115fe826040518060400160405280602081526020017f5361666545524332303a206c6f772d6c6576656c2063616c6c206661696c6564815250856001600160a01b031661167b9092919063ffffffff16565b8051909150156111a7578080602001905181019061161c9190611b36565b6111a75760405162461bcd60e51b815260206004820152602a60248201527f5361666545524332303a204552433230206f7065726174696f6e20646964206e6044820152691bdd081cdd58d8d9595960b21b606482015260840161050e565b606061168a8484600085611692565b949350505050565b6060824710156116f35760405162461bcd60e51b815260206004820152602660248201527f416464726573733a20696e73756666696369656e742062616c616e636520666f6044820152651c8818d85b1b60d21b606482015260840161050e565b600080866001600160a01b0316858760405161170f9190611b53565b60006040518083038185875af1925050503d806000811461174c576040519150601f19603f3d011682016040523d82523d6000602084013e611751565b606091505b50915091506117628783838761176d565b979650505050505050565b606083156117dc5782516000036117d5576001600160a01b0385163b6117d55760405162461bcd60e51b815260206004820152601d60248201527f416464726573733a2063616c6c20746f206e6f6e2d636f6e7472616374000000604482015260640161050e565b508161168a565b61168a83838151156117f15781518083602001fd5b8060405162461bcd60e51b815260040161050e919061182f565b60005b8381101561182657818101518382015260200161180e565b50506000910152565b602081526000825180602084015261184e81604085016020870161180b565b601f01601f19169190910160400192915050565b6001600160a01b038116811461062a57600080fd5b6000806040838503121561188a57600080fd5b823561189581611862565b946020939093013593505050565b6000806000606084860312156118b857600080fd5b83356118c381611862565b925060208401356118d381611862565b929592945050506040919091013590565b6000602082840312156118f657600080fd5b813561190181611862565b9392505050565b60006020828403121561191a57600080fd5b5035919050565b801515811461062a57600080fd5b6000806040838503121561194257600080fd5b82359150602083013561195481611921565b809150509250929050565b6000806040838503121561197257600080fd5b823561197d81611862565b9150602083013561195481611862565b600181811c908216806119a157607f821691505b6020821081036119c157634e487b7160e01b600052602260045260246000fd5b50919050565b634e487b7160e01b600052601160045260246000fd5b80820180821115610484576104846119c7565b81810381811115610484576104846119c7565b634e487b7160e01b600052604160045260246000fd5b8051611a2481611862565b919050565b60006020808385031215611a3c57600080fd5b825167ffffffffffffffff80821115611a5457600080fd5b818501915085601f830112611a6857600080fd5b815181811115611a7a57611a7a611a03565b8060051b604051601f19603f83011681018181108582111715611a9f57611a9f611a03565b604052918252848201925083810185019188831115611abd57600080fd5b938501935b82851015611ae257611ad385611a19565b84529385019392850192611ac2565b98975050505050505050565b634e487b7160e01b600052603260045260246000fd5b600060208284031215611b1657600080fd5b5051919050565b600060018201611b2f57611b2f6119c7565b5060010190565b600060208284031215611b4857600080fd5b815161190181611921565b60008251611b6581846020870161180b565b919091019291505056fea2646970667358221220d753def170e1bc443a3f1daefe672466b9ff47bfbadc20c0e893b29f3efd555364736f6c6343000811003360806040523480156200001157600080fd5b5060405162001c9638038062001c968339810160408190526200003491620001a4565b6001600055620000443362000071565b600280546001600160a01b0319166001600160a01b0383161790556200006a81620000c3565b50620001d6565b600180546001600160a01b038381166001600160a01b0319831681179093556040519116919082907f8be0079c531659141344cd1fd0a4f28419497f9722a3daafe3b4186f6b6457e090600090a35050565b620000cd62000146565b6001600160a01b038116620001385760405162461bcd60e51b815260206004820152602660248201527f4f776e61626c653a206e6577206f776e657220697320746865207a65726f206160448201526564647265737360d01b60648201526084015b60405180910390fd5b620001438162000071565b50565b6001546001600160a01b03163314620001a25760405162461bcd60e51b815260206004820181905260248201527f4f776e61626c653a2063616c6c6572206973206e6f7420746865206f776e657260448201526064016200012f565b565b600060208284031215620001b757600080fd5b81516001600160a01b0381168114620001cf57600080fd5b9392505050565b611ab080620001e66000396000f3fe608060405234801561001057600080fd5b50600436106101585760003560e01c806372f702f3116100c3578063bcd110141161007c578063bcd110141461035b578063d0ed26ae1461036e578063e70b9e2714610381578063e9fad8ee146103ac578063f1229777146103b4578063f2fde38b146103c757600080fd5b806372f702f3146102d35780637bb7bed1146102fe5780638980f11f146103115780638da5cb5b14610324578063a694fc3a14610335578063b66503cf1461034857600080fd5b806348e5d9f81161011557806348e5d9f8146101ca57806351746bb214610251578063638634ee146102645780637035ab981461027757806370a08231146102a2578063715018a6146102cb57600080fd5b806318160ddd1461015d578063211dc32d146101745780632378bea6146101875780632e1a7d4d1461019c5780633d18b912146101af5780633f695b45146101b7575b600080fd5b6007545b6040519081526020015b60405180910390f35b61016161018236600461184a565b6103da565b61019a61019536600461187d565b610475565b005b61019a6101aa3660046118a7565b6105b6565b61019a610796565b61019a6101c536600461184a565b610987565b61021a6101d83660046118c0565b60036020819052600091825260409091208054600182015460028301549383015460048401546005909401546001600160a01b03909316949193919290919086565b604080516001600160a01b0390971687526020870195909552938501929092526060840152608083015260a082015260c00161016b565b61019a61025f3660046118db565b6109bd565b6101616102723660046118c0565b610bb2565b61016161028536600461184a565b600560209081526000928352604080842090915290825290205481565b6101616102b03660046118c0565b6001600160a01b031660009081526008602052604090205490565b61019a610bd9565b6002546102e6906001600160a01b031681565b6040516001600160a01b03909116815260200161016b565b6102e661030c3660046118a7565b610beb565b61019a61031f36600461187d565b610c15565b6001546001600160a01b03166102e6565b61019a6103433660046118a7565b610d49565b61019a61035636600461187d565b610f15565b6101616103693660046118c0565b6111da565b61019a61037c3660046118fe565b611205565b61016161038f36600461184a565b600660209081526000928352604080842090915290825290205481565b61019a6112a1565b6101616103c23660046118c0565b6112c2565b61019a6103d53660046118c0565b611365565b6001600160a01b03808316600081815260066020908152604080832094861680845294825280832054938352600582528083209483529390529182205461046c919061046690670de0b6b3a764000090610460906104419061043b896112c2565b906113db565b6001600160a01b038916600090815260086020526040902054906113e7565b906113f3565b906113ff565b90505b92915050565b6001600160a01b03821660009081526003602052604090206002015442116104e45760405162461bcd60e51b815260206004820152601a60248201527f52657761726420706572696f64207374696c6c2061637469766500000000000060448201526064015b60405180910390fd5b6001600160a01b0382811660009081526003602052604090205416331461050a57600080fd5b6000811161055a5760405162461bcd60e51b815260206004820181905260248201527f526577617264206475726174696f6e206d757374206265206e6f6e2d7a65726f60448201526064016104db565b6001600160a01b038216600081815260036020908152604091829020600101849055815192835282018390527fad2f86b01ed93b4b3a150d448c61a4f5d8d38075d3c0c64cc0a26fd6e1f4954591015b60405180910390a15050565b6105be61140b565b3360005b6004548110156106b7576000600482815481106105e1576105e161193a565b6000918252602090912001546001600160a01b03169050610601816112c2565b6001600160a01b03821660009081526003602052604090206005015561062681610bb2565b6001600160a01b038083166000908152600360205260409020600401919091558316156106a45761065783826103da565b6001600160a01b0380851660008181526006602090815260408083209487168084529482528083209590955560038152848220600590810154938352815284822093825292909252919020555b50806106af81611966565b9150506105c2565b50600082116106fc5760405162461bcd60e51b8152602060048201526011602482015270043616e6e6f74207769746864726177203607c1b60448201526064016104db565b60075461070990836113db565b6007553360009081526008602052604090205461072690836113db565b33600081815260086020526040902091909155600254610752916001600160a01b039091169084611464565b60405182815233907f7084f5476618d8e60b11ef0d7d3f06914655adb8793e28ff7f018d4c76d505d5906020015b60405180910390a2506107936001600055565b50565b61079e61140b565b3360005b600454811015610897576000600482815481106107c1576107c161193a565b6000918252602090912001546001600160a01b031690506107e1816112c2565b6001600160a01b03821660009081526003602052604090206005015561080681610bb2565b6001600160a01b038083166000908152600360205260409020600401919091558316156108845761083783826103da565b6001600160a01b0380851660008181526006602090815260408083209487168084529482528083209590955560038152848220600590810154938352815284822093825292909252919020555b508061088f81611966565b9150506107a2565b5060005b600454811015610979576000600482815481106108ba576108ba61193a565b60009182526020808320909101543383526006825260408084206001600160a01b03909216808552919092529120549091508015610964573360008181526006602090815260408083206001600160a01b03871680855292528220919091556109239183611464565b6040518181526001600160a01b0383169033907f540798df468d7b23d11f156fdb954cb19ad414d150722a7b6d55ba369dea792e9060200160405180910390a35b5050808061097190611966565b91505061089b565b50506109856001600055565b565b61098f6114cc565b6001600160a01b03918216600090815260036020526040902080546001600160a01b03191691909216179055565b6109c561140b565b8060005b600454811015610abe576000600482815481106109e8576109e861193a565b6000918252602090912001546001600160a01b03169050610a08816112c2565b6001600160a01b038216600090815260036020526040902060050155610a2d81610bb2565b6001600160a01b03808316600090815260036020526040902060040191909155831615610aab57610a5e83826103da565b6001600160a01b0380851660008181526006602090815260408083209487168084529482528083209590955560038152848220600590810154938352815284822093825292909252919020555b5080610ab681611966565b9150506109c9565b5060008311610b005760405162461bcd60e51b815260206004820152600e60248201526d043616e6e6f74207374616b6520360941b60448201526064016104db565b600754610b0d90846113ff565b6007556001600160a01b038216600090815260086020526040902054610b3390846113ff565b6001600160a01b03808416600090815260086020526040902091909155600254610b609116333086611526565b816001600160a01b03167f9e71bc8eea02a63969f509818f2dafb9254532904319f9dbda79b67bd34a5f3d84604051610b9b91815260200190565b60405180910390a250610bae6001600055565b5050565b6001600160a01b03811660009081526003602052604081206002015461046f904290611564565b610be16114cc565b610985600061157a565b60048181548110610bfb57600080fd5b6000918252602090912001546001600160a01b0316905081565b610c1d6114cc565b6002546001600160a01b0390811690831603610c7b5760405162461bcd60e51b815260206004820152601d60248201527f43616e6e6f74207769746864726177207374616b696e6720746f6b656e00000060448201526064016104db565b6001600160a01b03821660009081526003602052604090206004015415610ce45760405162461bcd60e51b815260206004820152601c60248201527f43616e6e6f742077697468647261772072657761726420746f6b656e0000000060448201526064016104db565b610d0a610cf96001546001600160a01b031690565b6001600160a01b0384169083611464565b604080516001600160a01b0384168152602081018390527f8c1256b8896378cd5044f80c202f9772b9d77dc85c8a6eb51967210b09bfaa2891016105aa565b610d5161140b565b3360005b600454811015610e4a57600060048281548110610d7457610d7461193a565b6000918252602090912001546001600160a01b03169050610d94816112c2565b6001600160a01b038216600090815260036020526040902060050155610db981610bb2565b6001600160a01b03808316600090815260036020526040902060040191909155831615610e3757610dea83826103da565b6001600160a01b0380851660008181526006602090815260408083209487168084529482528083209590955560038152848220600590810154938352815284822093825292909252919020555b5080610e4281611966565b915050610d55565b5060008211610e8c5760405162461bcd60e51b815260206004820152600e60248201526d043616e6e6f74207374616b6520360941b60448201526064016104db565b600754610e9990836113ff565b60075533600090815260086020526040902054610eb690836113ff565b33600081815260086020526040902091909155600254610ee3916001600160a01b03909116903085611526565b60405182815233907f9e71bc8eea02a63969f509818f2dafb9254532904319f9dbda79b67bd34a5f3d90602001610780565b6000805b60045481101561100e57600060048281548110610f3857610f3861193a565b6000918252602090912001546001600160a01b03169050610f58816112c2565b6001600160a01b038216600090815260036020526040902060050155610f7d81610bb2565b6001600160a01b03808316600090815260036020526040902060040191909155831615610ffb57610fae83826103da565b6001600160a01b0380851660008181526006602090815260408083209487168084529482528083209590955560038152848220600590810154938352815284822093825292909252919020555b508061100681611966565b915050610f19565b506001600160a01b0383811660009081526003602052604090205416331461103557600080fd5b61104a6001600160a01b038416333085611526565b6001600160a01b03831660009081526003602052604090206002015442106110b5576001600160a01b0383166000908152600360205260409020600101546110939083906113f3565b6001600160a01b03841660009081526003602081905260409091200155611153565b6001600160a01b0383166000908152600360205260408120600201546110db90426113db565b6001600160a01b038516600090815260036020819052604082200154919250906111069083906113e7565b6001600160a01b0386166000908152600360205260409020600101549091506111339061046086846113ff565b6001600160a01b0386166000908152600360208190526040909120015550505b6001600160a01b0383166000908152600360205260409020426004820181905560019091015461118391906113ff565b6001600160a01b03841660009081526003602090815260409182902060020192909255518381527fde88a922e0d3b88b24e9623efeb464919c6bf9f66857a65e2bfcf2ce87a9433d910160405180910390a1505050565b6001600160a01b03811660009081526003602081905260408220600181015491015461046f916113e7565b61120d6114cc565b6001600160a01b0383166000908152600360205260409020600101541561123357600080fd5b6004805460018181019092557f8a35acfbc15ff81a39ae7d344fd709f28e8600b4aa8c65c6b64bfe7fe36bd19b0180546001600160a01b039586166001600160a01b031991821681179092556000918252600360205260409091208054949095169316929092178355910155565b336000908152600860205260409020546112ba906105b6565b610985610796565b60006007546000036112ed57506001600160a01b031660009081526003602052604090206005015490565b6007546001600160a01b03831660009081526003602081905260409091209081015460049091015461046f9261134392909161046091670de0b6b3a76400009161133d9190829061043b8b610bb2565b906113e7565b6001600160a01b038416600090815260036020526040902060050154906113ff565b61136d6114cc565b6001600160a01b0381166113d25760405162461bcd60e51b815260206004820152602660248201527f4f776e61626c653a206e6577206f776e657220697320746865207a65726f206160448201526564647265737360d01b60648201526084016104db565b6107938161157a565b600061046c828461197f565b600061046c8284611992565b600061046c82846119a9565b600061046c82846119cb565b60026000540361145d5760405162461bcd60e51b815260206004820152601f60248201527f5265656e7472616e637947756172643a207265656e7472616e742063616c6c0060448201526064016104db565b6002600055565b6040516001600160a01b0383166024820152604481018290526114c790849063a9059cbb60e01b906064015b60408051601f198184030181529190526020810180516001600160e01b03166001600160e01b0319909316929092179091526115cc565b505050565b6001546001600160a01b031633146109855760405162461bcd60e51b815260206004820181905260248201527f4f776e61626c653a2063616c6c6572206973206e6f7420746865206f776e657260448201526064016104db565b6040516001600160a01b038085166024830152831660448201526064810182905261155e9085906323b872dd60e01b90608401611490565b50505050565b6000818310611573578161046c565b5090919050565b600180546001600160a01b038381166001600160a01b0319831681179093556040519116919082907f8be0079c531659141344cd1fd0a4f28419497f9722a3daafe3b4186f6b6457e090600090a35050565b6000611621826040518060400160405280602081526020017f5361666545524332303a206c6f772d6c6576656c2063616c6c206661696c6564815250856001600160a01b031661169e9092919063ffffffff16565b8051909150156114c7578080602001905181019061163f91906119de565b6114c75760405162461bcd60e51b815260206004820152602a60248201527f5361666545524332303a204552433230206f7065726174696f6e20646964206e6044820152691bdd081cdd58d8d9595960b21b60648201526084016104db565b60606116ad84846000856116b5565b949350505050565b6060824710156117165760405162461bcd60e51b815260206004820152602660248201527f416464726573733a20696e73756666696369656e742062616c616e636520666f6044820152651c8818d85b1b60d21b60648201526084016104db565b600080866001600160a01b031685876040516117329190611a2b565b60006040518083038185875af1925050503d806000811461176f576040519150601f19603f3d011682016040523d82523d6000602084013e611774565b606091505b509150915061178587838387611790565b979650505050505050565b606083156117ff5782516000036117f8576001600160a01b0385163b6117f85760405162461bcd60e51b815260206004820152601d60248201527f416464726573733a2063616c6c20746f206e6f6e2d636f6e747261637400000060448201526064016104db565b50816116ad565b6116ad83838151156118145781518083602001fd5b8060405162461bcd60e51b81526004016104db9190611a47565b80356001600160a01b038116811461184557600080fd5b919050565b6000806040838503121561185d57600080fd5b6118668361182e565b91506118746020840161182e565b90509250929050565b6000806040838503121561189057600080fd5b6118998361182e565b946020939093013593505050565b6000602082840312156118b957600080fd5b5035919050565b6000602082840312156118d257600080fd5b61046c8261182e565b600080604083850312156118ee57600080fd5b823591506118746020840161182e565b60008060006060848603121561191357600080fd5b61191c8461182e565b925061192a6020850161182e565b9150604084013590509250925092565b634e487b7160e01b600052603260045260246000fd5b634e487b7160e01b600052601160045260246000fd5b60006001820161197857611978611950565b5060010190565b8181038181111561046f5761046f611950565b808202811582820484141761046f5761046f611950565b6000826119c657634e487b7160e01b600052601260045260246000fd5b500490565b8082018082111561046f5761046f611950565b6000602082840312156119f057600080fd5b81518015158114611a0057600080fd5b9392505050565b60005b83811015611a22578181015183820152602001611a0a565b50506000910152565b60008251611a3d818460208701611a07565b9190910192915050565b6020815260008251806020840152611a66816040850160208701611a07565b601f01601f1916919091016040019291505056fea2646970667358221220e405f9f388364adbf3572b6ebdbae2cf8e494acc729469ca5d7d668c9ec5980664736f6c63430008110033",
    "linkReferences": {}
  },
  "methodIdentifiers": {
    "allowance(address,address)": "dd62ed3e",
    "approve(address,uint256)": "095ea7b3",
    "balanceOf(address)": "70a08231",
    "claimRewardsFromDelegate()": "c7c90d61",
    "decimals()": "313ce567",
    "decreaseAllowance(address,uint256)": "a457c2d7",
    "delegatee()": "1e31d053",
    "deposit(uint256,bool)": "9a408321",
    "duration()": "0fb5a6b4",
    "endTime()": "3197cbb6",
    "firstDeposit()": "a5f5be54",
    "increaseAllowance(address,uint256)": "39509351",
    "lastUpdateEndTime()": "d3bdef37",
    "name()": "06fdde03",
    "oneInchToken()": "99c03951",
    "powerPod()": "f9b86ed4",
    "resolverFarmingPod()": "bf5d6d3e",
    "rewardTokens(uint256)": "7bb7bed1",
    "stake1inch()": "e2515745",
    "stakingContract()": "ee99205c",
    "symbol()": "95d89b41",
    "totalSupply()": "18160ddd",
    "transfer(address,uint256)": "a9059cbb",
    "transferFrom(address,address,uint256)": "23b872dd",
    "vaultEnded()": "f2045010",
    "withdraw()": "3ccfd60b"
  },
  "id": 1
}