{
  "abi": [
    {
      "inputs": [
        {
          "internalType": "string",
          "name": "_name",
          "type": "string"
        },
        {
          "internalType": "string",
          "name": "_symbol",
          "type": "string"
        },
        {
          "internalType": "uint256",
          "name": "_duration",
          "type": "uint256"
        },
        {
          "internalType": "address",
          "name": "_delegatee",
          "type": "address"
        }
      ],
      "stateMutability": "nonpayable",
      "type": "constructor"
    },
    {
      "anonymous": false,
      "inputs": [
        {
          "indexed": true,
          "internalType": "address",
          "name": "owner",
          "type": "address"
        },
        {
          "indexed": true,
          "internalType": "address",
          "name": "spender",
          "type": "address"
        },
        {
          "indexed": false,
          "internalType": "uint256",
          "name": "value",
          "type": "uint256"
        }
      ],
      "name": "Approval",
      "type": "event"
    },
    {
      "anonymous": false,
      "inputs": [
        {
          "indexed": true,
          "internalType": "address",
          "name": "from",
          "type": "address"
        },
        {
          "indexed": true,
          "internalType": "address",
          "name": "to",
          "type": "address"
        },
        {
          "indexed": false,
          "internalType": "uint256",
          "name": "value",
          "type": "uint256"
        }
      ],
      "name": "Transfer",
      "type": "event"
    },
    {
      "inputs": [
        {
          "internalType": "address",
          "name": "owner",
          "type": "address"
        },
        {
          "internalType": "address",
          "name": "spender",
          "type": "address"
        }
      ],
      "name": "allowance",
      "outputs": [
        {
          "internalType": "uint256",
          "name": "",
          "type": "uint256"
        }
      ],
      "stateMutability": "view",
      "type": "function"
    },
    {
      "inputs": [
        {
          "internalType": "address",
          "name": "spender",
          "type": "address"
        },
        {
          "internalType": "uint256",
          "name": "amount",
          "type": "uint256"
        }
      ],
      "name": "approve",
      "outputs": [
        {
          "internalType": "bool",
          "name": "",
          "type": "bool"
        }
      ],
      "stateMutability": "nonpayable",
      "type": "function"
    },
    {
      "inputs": [
        {
          "internalType": "address",
          "name": "account",
          "type": "address"
        }
      ],
      "name": "balanceOf",
      "outputs": [
        {
          "internalType": "uint256",
          "name": "",
          "type": "uint256"
        }
      ],
      "stateMutability": "view",
      "type": "function"
    },
    {
      "inputs": [],
      "name": "claimRewardsFromDelegate",
      "outputs": [],
      "stateMutability": "nonpayable",
      "type": "function"
    },
    {
      "inputs": [],
      "name": "decimals",
      "outputs": [
        {
          "internalType": "uint8",
          "name": "",
          "type": "uint8"
        }
      ],
      "stateMutability": "view",
      "type": "function"
    },
    {
      "inputs": [
        {
          "internalType": "address",
          "name": "spender",
          "type": "address"
        },
        {
          "internalType": "uint256",
          "name": "subtractedValue",
          "type": "uint256"
        }
      ],
      "name": "decreaseAllowance",
      "outputs": [
        {
          "internalType": "bool",
          "name": "",
          "type": "bool"
        }
      ],
      "stateMutability": "nonpayable",
      "type": "function"
    },
    {
      "inputs": [],
      "name": "delegatee",
      "outputs": [
        {
          "internalType": "address",
          "name": "",
          "type": "address"
        }
      ],
      "stateMutability": "view",
      "type": "function"
    },
    {
      "inputs": [
        {
          "internalType": "uint256",
          "name": "amount",
          "type": "uint256"
        },
        {
          "internalType": "bool",
          "name": "stake",
          "type": "bool"
        }
      ],
      "name": "deposit",
      "outputs": [],
      "stateMutability": "nonpayable",
      "type": "function"
    },
    {
      "inputs": [],
      "name": "duration",
      "outputs": [
        {
          "internalType": "uint256",
          "name": "",
          "type": "uint256"
        }
      ],
      "stateMutability": "view",
      "type": "function"
    },
    {
      "inputs": [],
      "name": "endTime",
      "outputs": [
        {
          "internalType": "uint256",
          "name": "",
          "type": "uint256"
        }
      ],
      "stateMutability": "view",
      "type": "function"
    },
    {
      "inputs": [],
      "name": "firstDeposit",
      "outputs": [
        {
          "internalType": "bool",
          "name": "",
          "type": "bool"
        }
      ],
      "stateMutability": "view",
      "type": "function"
    },
    {
      "inputs": [
        {
          "internalType": "address",
          "name": "spender",
          "type": "address"
        },
        {
          "internalType": "uint256",
          "name": "addedValue",
          "type": "uint256"
        }
      ],
      "name": "increaseAllowance",
      "outputs": [
        {
          "internalType": "bool",
          "name": "",
          "type": "bool"
        }
      ],
      "stateMutability": "nonpayable",
      "type": "function"
    },
    {
      "inputs": [],
      "name": "lastUpdateEndTime",
      "outputs": [
        {
          "internalType": "uint256",
          "name": "",
          "type": "uint256"
        }
      ],
      "stateMutability": "view",
      "type": "function"
    },
    {
      "inputs": [],
      "name": "name",
      "outputs": [
        {
          "internalType": "string",
          "name": "",
          "type": "string"
        }
      ],
      "stateMutability": "view",
      "type": "function"
    },
    {
      "inputs": [],
      "name": "oneInchToken",
      "outputs": [
        {
          "internalType": "contract IERC20",
          "name": "",
          "type": "address"
        }
      ],
      "stateMutability": "view",
      "type": "function"
    },
    {
      "inputs": [],
      "name": "powerPod",
      "outputs": [
        {
          "internalType": "address",
          "name": "",
          "type": "address"
        }
      ],
      "stateMutability": "view",
      "type": "function"
    },
    {
      "inputs": [],
      "name": "resolverFarmingPod",
      "outputs": [
        {
          "internalType": "address",
          "name": "",
          "type": "address"
        }
      ],
      "stateMutability": "view",
      "type": "function"
    },
    {
      "inputs": [],
      "name": "stake1inch",
      "outputs": [
        {
          "internalType": "address",
          "name": "",
          "type": "address"
        }
      ],
      "stateMutability": "view",
      "type": "function"
    },
    {
      "inputs": [],
      "name": "stakingContract",
      "outputs": [
        {
          "internalType": "address",
          "name": "",
          "type": "address"
        }
      ],
      "stateMutability": "view",
      "type": "function"
    },
    {
      "inputs": [],
      "name": "symbol",
      "outputs": [
        {
          "internalType": "string",
          "name": "",
          "type": "string"
        }
      ],
      "stateMutability": "view",
      "type": "function"
    },
    {
      "inputs": [],
      "name": "totalSupply",
      "outputs": [
        {
          "internalType": "uint256",
          "name": "",
          "type": "uint256"
        }
      ],
      "stateMutability": "view",
      "type": "function"
    },
    {
      "inputs": [
        {
          "internalType": "address",
          "name": "to",
          "type": "address"
        },
        {
          "internalType": "uint256",
          "name": "amount",
          "type": "uint256"
        }
      ],
      "name": "transfer",
      "outputs": [
        {
          "internalType": "bool",
          "name": "",
          "type": "bool"
        }
      ],
      "stateMutability": "nonpayable",
      "type": "function"
    },
    {
      "inputs": [
        {
          "internalType": "address",
          "name": "from",
          "type": "address"
        },
        {
          "internalType": "address",
          "name": "to",
          "type": "address"
        },
        {
          "internalType": "uint256",
          "name": "amount",
          "type": "uint256"
        }
      ],
      "name": "transferFrom",
      "outputs": [
        {
          "internalType": "bool",
          "name": "",
          "type": "bool"
        }
      ],
      "stateMutability": "nonpayable",
      "type": "function"
    },
    {
      "inputs": [],
      "name": "vaultEnded",
      "outputs": [
        {
          "internalType": "bool",
          "name": "",
          "type": "bool"
        }
      ],
      "stateMutability": "view",
      "type": "function"
    },
    {
      "inputs": [],
      "name": "withdraw",
      "outputs": [],
      "stateMutability": "nonpayable",
      "type": "function"
    }
  ],
  "bytecode": {
    "object": "0x61010060405273111111111117dc0aa78b770fa6a738034120c302608052739a0c8ff858d273f57072d714bca7411d717501d760a05273accfac2339e16dc80c50d2fa81b5c2b049b4f94760c052737e78a8337194c06314300d030d41eb31ed299c3960e0526005805460ff191660011790553480156200007f57600080fd5b506040516200362238038062003622833981016040819052620000a29162000238565b83836003620000b283826200035c565b506004620000c182826200035c565b5050506009829055600680546001600160a01b0319166001600160a01b038316179055620000f0824262000428565b600755426008556040513090620001079062000165565b6001600160a01b039091168152602001604051809103906000f08015801562000134573d6000803e3d6000fd5b50600560026101000a8154816001600160a01b0302191690836001600160a01b031602179055505050505062000450565b611a608062001bc283390190565b634e487b7160e01b600052604160045260246000fd5b600082601f8301126200019b57600080fd5b81516001600160401b0380821115620001b857620001b862000173565b604051601f8301601f19908116603f01168101908282118183101715620001e357620001e362000173565b816040528381526020925086838588010111156200020057600080fd5b600091505b8382101562000224578582018301518183018401529082019062000205565b600093810190920192909252949350505050565b600080600080608085870312156200024f57600080fd5b84516001600160401b03808211156200026757600080fd5b620002758883890162000189565b955060208701519150808211156200028c57600080fd5b506200029b8782880162000189565b60408701516060880151919550935090506001600160a01b0381168114620002c257600080fd5b939692955090935050565b600181811c90821680620002e257607f821691505b6020821081036200030357634e487b7160e01b600052602260045260246000fd5b50919050565b601f8211156200035757600081815260208120601f850160051c81016020861015620003325750805b601f850160051c820191505b8181101562000353578281556001016200033e565b5050505b505050565b81516001600160401b0381111562000378576200037862000173565b6200039081620003898454620002cd565b8462000309565b602080601f831160018114620003c85760008415620003af5750858301515b600019600386901b1c1916600185901b17855562000353565b600085815260208120601f198616915b82811015620003f957888601518255948401946001909101908401620003d8565b5085821015620004185787850151600019600388901b60f8161c191681555b5050505050600190811b01905550565b808201808211156200044a57634e487b7160e01b600052601160045260246000fd5b92915050565b60805160a05160c05160e0516116eb620004d7600039600081816102ee015261095f01526000818161038b0152610871015260008181610339015281816104fe0152818161072601526107680152600081816102810152818161059d015281816106ac01528181610704015281816109e701528181610a6f0152610ab801526116eb6000f3fe608060405234801561001057600080fd5b50600436106101735760003560e01c806399c03951116100de578063c7c90d6111610097578063e251574511610071578063e251574514610334578063ee99205c1461035b578063f204501014610374578063f9b86ed41461038657600080fd5b8063c7c90d6114610310578063d3bdef3714610318578063dd62ed3e1461032157600080fd5b806399c039511461027c5780639a408321146102a3578063a457c2d7146102b6578063a5f5be54146102c9578063a9059cbb146102d6578063bf5d6d3e146102e957600080fd5b8063313ce56711610130578063313ce567146102165780633197cbb614610225578063395093511461022e5780633ccfd60b1461024157806370a082311461024b57806395d89b411461027457600080fd5b806306fdde0314610178578063095ea7b3146101965780630fb5a6b4146101b957806318160ddd146101d05780631e31d053146101d857806323b872dd14610203575b600080fd5b6101806103ad565b60405161018d91906114c0565b60405180910390f35b6101a96101a436600461150f565b61043f565b604051901515815260200161018d565b6101c260095481565b60405190815260200161018d565b6002546101c2565b6006546101eb906001600160a01b031681565b6040516001600160a01b03909116815260200161018d565b6101a9610211366004611539565b610459565b6040516012815260200161018d565b6101c260075481565b6101a961023c36600461150f565b61047d565b61024961049f565b005b6101c2610259366004611575565b6001600160a01b031660009081526020819052604090205490565b6101806105f6565b6101eb7f000000000000000000000000000000000000000000000000000000000000000081565b6102496102b13660046115a5565b610605565b6101a96102c436600461150f565b6108d4565b6005546101a99060ff1681565b6101a96102e436600461150f565b61094f565b6101eb7f000000000000000000000000000000000000000000000000000000000000000081565b61024961095d565b6101c260085481565b6101c261032f3660046115d5565b610b2e565b6101eb7f000000000000000000000000000000000000000000000000000000000000000081565b6005546101eb906201000090046001600160a01b031681565b6005546101a990610100900460ff1681565b6101eb7f000000000000000000000000000000000000000000000000000000000000000081565b6060600380546103bc90611608565b80601f01602080910402602001604051908101604052809291908181526020018280546103e890611608565b80156104355780601f1061040a57610100808354040283529160200191610435565b820191906000526020600020905b81548152906001019060200180831161041857829003601f168201915b5050505050905090565b60003361044d818585610b59565b60019150505b92915050565b600033610467858285610c7e565b610472858585610cf8565b506001949350505050565b60003361044d8185856104908383610b2e565b61049a9190611642565b610b59565b60075442116104e65760405162461bcd60e51b815260206004820152600e60248201526d1c1bdbdb081b9bdd08195b99195960921b60448201526064015b60405180910390fd5b600554600090610100900460ff16151581036105d6577f00000000000000000000000000000000000000000000000000000000000000006001600160a01b0316633ccfd60b6040518163ffffffff1660e01b8152600401600060405180830381600087803b15801561055757600080fd5b505af115801561056b573d6000803e3d6000fd5b505050506105796102593390565b905061058e335b61058933610259565b610e9c565b6105c4335b6001600160a01b037f0000000000000000000000000000000000000000000000000000000000000000169083610fcb565b6005805461ff00191661010017905550565b6105df33610259565b90506105ea33610580565b6105f333610593565b50565b6060600480546103bc90611608565b600554610100900460ff161561064b5760405162461bcd60e51b815260206004820152600b60248201526a15985d5b1d08195b99195960aa1b60448201526064016104dd565b60055460009060ff16151560010361066c57506009546005805460ff191690555b60085461067c9062278d00611642565b4211156106a75762278d00600760008282546106989190611642565b9091555050426008555062278d005b6106dc7f00000000000000000000000000000000000000000000000000000000000000006001600160a01b031633308661102e565b6106f76001831515146106ef57336106f1565b305b84611066565b61074b6001600160a01b037f0000000000000000000000000000000000000000000000000000000000000000167f000000000000000000000000000000000000000000000000000000000000000085611125565b604051631c57762b60e31b815260048101849052602481018290527f00000000000000000000000000000000000000000000000000000000000000006001600160a01b03169063e2bbb15890604401600060405180830381600087803b1580156107b457600080fd5b505af11580156107c8573d6000803e3d6000fd5b5050505081151560010361084f576005546201000090046001600160a01b03166351746bb284336040516001600160e01b031960e085901b16815260048101929092526001600160a01b03166024820152604401600060405180830381600087803b15801561083657600080fd5b505af115801561084a573d6000803e3d6000fd5b505050505b6006546040516317066a5760e21b81526001600160a01b0391821660048201527f000000000000000000000000000000000000000000000000000000000000000090911690635c19a95c90602401600060405180830381600087803b1580156108b757600080fd5b505af11580156108cb573d6000803e3d6000fd5b50505050505050565b600033816108e28286610b2e565b9050838110156109425760405162461bcd60e51b815260206004820152602560248201527f45524332303a2064656372656173656420616c6c6f77616e63652062656c6f77604482015264207a65726f60d81b60648201526084016104dd565b6104728286868403610b59565b60003361044d818585610cf8565b7f00000000000000000000000000000000000000000000000000000000000000006001600160a01b0316634e71d92d6040518163ffffffff1660e01b8152600401600060405180830381600087803b1580156109b857600080fd5b505af11580156109cc573d6000803e3d6000fd5b50506040516370a0823160e01b8152306004820152600092507f00000000000000000000000000000000000000000000000000000000000000006001600160a01b031691506370a0823190602401602060405180830381865afa158015610a37573d6000803e3d6000fd5b505050506040513d601f19601f82011682018060405250810190610a5b9190611663565b600554909150610a9e906001600160a01b037f00000000000000000000000000000000000000000000000000000000000000008116916201000090041683611125565b60055460405163b66503cf60e01b81526001600160a01b037f00000000000000000000000000000000000000000000000000000000000000008116600483015260248201849052620100009092049091169063b66503cf90604401600060405180830381600087803b158015610b1357600080fd5b505af1158015610b27573d6000803e3d6000fd5b5050505050565b6001600160a01b03918216600090815260016020908152604080832093909416825291909152205490565b6001600160a01b038316610bbb5760405162461bcd60e51b8152602060048201526024808201527f45524332303a20617070726f76652066726f6d20746865207a65726f206164646044820152637265737360e01b60648201526084016104dd565b6001600160a01b038216610c1c5760405162461bcd60e51b815260206004820152602260248201527f45524332303a20617070726f766520746f20746865207a65726f206164647265604482015261737360f01b60648201526084016104dd565b6001600160a01b0383811660008181526001602090815260408083209487168084529482529182902085905590518481527f8c5be1e5ebec7d5bd14f71427d1e84f3dd0314c0f7b2291e5b200ac8c7c3b92591015b60405180910390a3505050565b6000610c8a8484610b2e565b90506000198114610cf25781811015610ce55760405162461bcd60e51b815260206004820152601d60248201527f45524332303a20696e73756666696369656e7420616c6c6f77616e636500000060448201526064016104dd565b610cf28484848403610b59565b50505050565b6001600160a01b038316610d5c5760405162461bcd60e51b815260206004820152602560248201527f45524332303a207472616e736665722066726f6d20746865207a65726f206164604482015264647265737360d81b60648201526084016104dd565b6001600160a01b038216610dbe5760405162461bcd60e51b815260206004820152602360248201527f45524332303a207472616e7366657220746f20746865207a65726f206164647260448201526265737360e81b60648201526084016104dd565b6001600160a01b03831660009081526020819052604090205481811015610e365760405162461bcd60e51b815260206004820152602660248201527f45524332303a207472616e7366657220616d6f756e7420657863656564732062604482015265616c616e636560d01b60648201526084016104dd565b6001600160a01b03848116600081815260208181526040808320878703905593871680835291849020805487019055925185815290927fddf252ad1be2c89b69c2b068fc378daa952ba7f163c4a11628f55a4df523b3ef910160405180910390a3610cf2565b6001600160a01b038216610efc5760405162461bcd60e51b815260206004820152602160248201527f45524332303a206275726e2066726f6d20746865207a65726f206164647265736044820152607360f81b60648201526084016104dd565b6001600160a01b03821660009081526020819052604090205481811015610f705760405162461bcd60e51b815260206004820152602260248201527f45524332303a206275726e20616d6f756e7420657863656564732062616c616e604482015261636560f01b60648201526084016104dd565b6001600160a01b0383166000818152602081815260408083208686039055600280548790039055518581529192917fddf252ad1be2c89b69c2b068fc378daa952ba7f163c4a11628f55a4df523b3ef9101610c71565b505050565b6040516001600160a01b038316602482015260448101829052610fc690849063a9059cbb60e01b906064015b60408051601f198184030181529190526020810180516001600160e01b03166001600160e01b03199093169290921790915261123a565b6040516001600160a01b0380851660248301528316604482015260648101829052610cf29085906323b872dd60e01b90608401610ff7565b6001600160a01b0382166110bc5760405162461bcd60e51b815260206004820152601f60248201527f45524332303a206d696e7420746f20746865207a65726f20616464726573730060448201526064016104dd565b80600260008282546110ce9190611642565b90915550506001600160a01b038216600081815260208181526040808320805486019055518481527fddf252ad1be2c89b69c2b068fc378daa952ba7f163c4a11628f55a4df523b3ef910160405180910390a35050565b80158061119f5750604051636eb1769f60e11b81523060048201526001600160a01b03838116602483015284169063dd62ed3e90604401602060405180830381865afa158015611179573d6000803e3d6000fd5b505050506040513d601f19601f8201168201806040525081019061119d9190611663565b155b61120a5760405162461bcd60e51b815260206004820152603660248201527f5361666545524332303a20617070726f76652066726f6d206e6f6e2d7a65726f60448201527520746f206e6f6e2d7a65726f20616c6c6f77616e636560501b60648201526084016104dd565b6040516001600160a01b038316602482015260448101829052610fc690849063095ea7b360e01b90606401610ff7565b600061128f826040518060400160405280602081526020017f5361666545524332303a206c6f772d6c6576656c2063616c6c206661696c6564815250856001600160a01b031661130c9092919063ffffffff16565b805190915015610fc657808060200190518101906112ad919061167c565b610fc65760405162461bcd60e51b815260206004820152602a60248201527f5361666545524332303a204552433230206f7065726174696f6e20646964206e6044820152691bdd081cdd58d8d9595960b21b60648201526084016104dd565b606061131b8484600085611323565b949350505050565b6060824710156113845760405162461bcd60e51b815260206004820152602660248201527f416464726573733a20696e73756666696369656e742062616c616e636520666f6044820152651c8818d85b1b60d21b60648201526084016104dd565b600080866001600160a01b031685876040516113a09190611699565b60006040518083038185875af1925050503d80600081146113dd576040519150601f19603f3d011682016040523d82523d6000602084013e6113e2565b606091505b50915091506113f3878383876113fe565b979650505050505050565b6060831561146d578251600003611466576001600160a01b0385163b6114665760405162461bcd60e51b815260206004820152601d60248201527f416464726573733a2063616c6c20746f206e6f6e2d636f6e747261637400000060448201526064016104dd565b508161131b565b61131b83838151156114825781518083602001fd5b8060405162461bcd60e51b81526004016104dd91906114c0565b60005b838110156114b757818101518382015260200161149f565b50506000910152565b60208152600082518060208401526114df81604085016020870161149c565b601f01601f19169190910160400192915050565b80356001600160a01b038116811461150a57600080fd5b919050565b6000806040838503121561152257600080fd5b61152b836114f3565b946020939093013593505050565b60008060006060848603121561154e57600080fd5b611557846114f3565b9250611565602085016114f3565b9150604084013590509250925092565b60006020828403121561158757600080fd5b611590826114f3565b9392505050565b80151581146105f357600080fd5b600080604083850312156115b857600080fd5b8235915060208301356115ca81611597565b809150509250929050565b600080604083850312156115e857600080fd5b6115f1836114f3565b91506115ff602084016114f3565b90509250929050565b600181811c9082168061161c57607f821691505b60208210810361163c57634e487b7160e01b600052602260045260246000fd5b50919050565b8082018082111561045357634e487b7160e01b600052601160045260246000fd5b60006020828403121561167557600080fd5b5051919050565b60006020828403121561168e57600080fd5b815161159081611597565b600082516116ab81846020870161149c565b919091019291505056fea26469706673582212202d7d1e5fa4257a3f9577691cbd62732e4bfd91b8e9401d21cdf380294c2052bb64736f6c6343000811003360806040523480156200001157600080fd5b5060405162001a6038038062001a608339810160408190526200003491620001a4565b6001600055620000443362000071565b600280546001600160a01b0319166001600160a01b0383161790556200006a81620000c3565b50620001d6565b600180546001600160a01b038381166001600160a01b0319831681179093556040519116919082907f8be0079c531659141344cd1fd0a4f28419497f9722a3daafe3b4186f6b6457e090600090a35050565b620000cd62000146565b6001600160a01b038116620001385760405162461bcd60e51b815260206004820152602660248201527f4f776e61626c653a206e6577206f776e657220697320746865207a65726f206160448201526564647265737360d01b60648201526084015b60405180910390fd5b620001438162000071565b50565b6001546001600160a01b03163314620001a25760405162461bcd60e51b815260206004820181905260248201527f4f776e61626c653a2063616c6c6572206973206e6f7420746865206f776e657260448201526064016200012f565b565b600060208284031215620001b757600080fd5b81516001600160a01b0381168114620001cf57600080fd5b9392505050565b61187a80620001e66000396000f3fe608060405234801561001057600080fd5b506004361061014d5760003560e01c806372f702f3116100c3578063bcd110141161007c578063bcd110141461033d578063d0ed26ae14610350578063e70b9e2714610363578063e9fad8ee1461038e578063f122977714610396578063f2fde38b146103a957600080fd5b806372f702f3146102b55780637bb7bed1146102e05780638980f11f146102f35780638da5cb5b14610306578063a694fc3a14610317578063b66503cf1461032a57600080fd5b80633f695b45116101155780633f695b45146101ac57806348e5d9f8146101bf578063638634ee146102465780637035ab981461025957806370a0823114610284578063715018a6146102ad57600080fd5b806318160ddd14610152578063211dc32d146101695780632378bea61461017c5780632e1a7d4d146101915780633d18b912146101a4575b600080fd5b6007545b6040519081526020015b60405180910390f35b610156610177366004611637565b6103bc565b61018f61018a36600461166a565b610457565b005b61018f61019f366004611694565b610598565b61018f610778565b61018f6101ba366004611637565b610969565b61020f6101cd3660046116ad565b60036020819052600091825260409091208054600182015460028301549383015460048401546005909401546001600160a01b03909316949193919290919086565b604080516001600160a01b0390971687526020870195909552938501929092526060840152608083015260a082015260c001610160565b6101566102543660046116ad565b61099f565b610156610267366004611637565b600560209081526000928352604080842090915290825290205481565b6101566102923660046116ad565b6001600160a01b031660009081526008602052604090205490565b61018f6109c6565b6002546102c8906001600160a01b031681565b6040516001600160a01b039091168152602001610160565b6102c86102ee366004611694565b6109d8565b61018f61030136600461166a565b610a02565b6001546001600160a01b03166102c8565b61018f610325366004611694565b610b36565b61018f61033836600461166a565b610d02565b61015661034b3660046116ad565b610fc7565b61018f61035e3660046116c8565b610ff2565b610156610371366004611637565b600660209081526000928352604080842090915290825290205481565b61018f61108e565b6101566103a43660046116ad565b6110af565b61018f6103b73660046116ad565b611152565b6001600160a01b03808316600081815260066020908152604080832094861680845294825280832054938352600582528083209483529390529182205461044e919061044890670de0b6b3a764000090610442906104239061041d896110af565b906111c8565b6001600160a01b038916600090815260086020526040902054906111d4565b906111e0565b906111ec565b90505b92915050565b6001600160a01b03821660009081526003602052604090206002015442116104c65760405162461bcd60e51b815260206004820152601a60248201527f52657761726420706572696f64207374696c6c2061637469766500000000000060448201526064015b60405180910390fd5b6001600160a01b038281166000908152600360205260409020541633146104ec57600080fd5b6000811161053c5760405162461bcd60e51b815260206004820181905260248201527f526577617264206475726174696f6e206d757374206265206e6f6e2d7a65726f60448201526064016104bd565b6001600160a01b038216600081815260036020908152604091829020600101849055815192835282018390527fad2f86b01ed93b4b3a150d448c61a4f5d8d38075d3c0c64cc0a26fd6e1f4954591015b60405180910390a15050565b6105a06111f8565b3360005b600454811015610699576000600482815481106105c3576105c3611704565b6000918252602090912001546001600160a01b031690506105e3816110af565b6001600160a01b0382166000908152600360205260409020600501556106088161099f565b6001600160a01b038083166000908152600360205260409020600401919091558316156106865761063983826103bc565b6001600160a01b0380851660008181526006602090815260408083209487168084529482528083209590955560038152848220600590810154938352815284822093825292909252919020555b508061069181611730565b9150506105a4565b50600082116106de5760405162461bcd60e51b8152602060048201526011602482015270043616e6e6f74207769746864726177203607c1b60448201526064016104bd565b6007546106eb90836111c8565b6007553360009081526008602052604090205461070890836111c8565b33600081815260086020526040902091909155600254610734916001600160a01b039091169084611251565b60405182815233907f7084f5476618d8e60b11ef0d7d3f06914655adb8793e28ff7f018d4c76d505d5906020015b60405180910390a2506107756001600055565b50565b6107806111f8565b3360005b600454811015610879576000600482815481106107a3576107a3611704565b6000918252602090912001546001600160a01b031690506107c3816110af565b6001600160a01b0382166000908152600360205260409020600501556107e88161099f565b6001600160a01b038083166000908152600360205260409020600401919091558316156108665761081983826103bc565b6001600160a01b0380851660008181526006602090815260408083209487168084529482528083209590955560038152848220600590810154938352815284822093825292909252919020555b508061087181611730565b915050610784565b5060005b60045481101561095b5760006004828154811061089c5761089c611704565b60009182526020808320909101543383526006825260408084206001600160a01b03909216808552919092529120549091508015610946573360008181526006602090815260408083206001600160a01b03871680855292528220919091556109059183611251565b6040518181526001600160a01b0383169033907f540798df468d7b23d11f156fdb954cb19ad414d150722a7b6d55ba369dea792e9060200160405180910390a35b5050808061095390611730565b91505061087d565b50506109676001600055565b565b6109716112b9565b6001600160a01b03918216600090815260036020526040902080546001600160a01b03191691909216179055565b6001600160a01b038116600090815260036020526040812060020154610451904290611313565b6109ce6112b9565b6109676000611329565b600481815481106109e857600080fd5b6000918252602090912001546001600160a01b0316905081565b610a0a6112b9565b6002546001600160a01b0390811690831603610a685760405162461bcd60e51b815260206004820152601d60248201527f43616e6e6f74207769746864726177207374616b696e6720746f6b656e00000060448201526064016104bd565b6001600160a01b03821660009081526003602052604090206004015415610ad15760405162461bcd60e51b815260206004820152601c60248201527f43616e6e6f742077697468647261772072657761726420746f6b656e0000000060448201526064016104bd565b610af7610ae66001546001600160a01b031690565b6001600160a01b0384169083611251565b604080516001600160a01b0384168152602081018390527f8c1256b8896378cd5044f80c202f9772b9d77dc85c8a6eb51967210b09bfaa28910161058c565b610b3e6111f8565b3360005b600454811015610c3757600060048281548110610b6157610b61611704565b6000918252602090912001546001600160a01b03169050610b81816110af565b6001600160a01b038216600090815260036020526040902060050155610ba68161099f565b6001600160a01b03808316600090815260036020526040902060040191909155831615610c2457610bd783826103bc565b6001600160a01b0380851660008181526006602090815260408083209487168084529482528083209590955560038152848220600590810154938352815284822093825292909252919020555b5080610c2f81611730565b915050610b42565b5060008211610c795760405162461bcd60e51b815260206004820152600e60248201526d043616e6e6f74207374616b6520360941b60448201526064016104bd565b600754610c8690836111ec565b60075533600090815260086020526040902054610ca390836111ec565b33600081815260086020526040902091909155600254610cd0916001600160a01b0390911690308561137b565b60405182815233907f9e71bc8eea02a63969f509818f2dafb9254532904319f9dbda79b67bd34a5f3d90602001610762565b6000805b600454811015610dfb57600060048281548110610d2557610d25611704565b6000918252602090912001546001600160a01b03169050610d45816110af565b6001600160a01b038216600090815260036020526040902060050155610d6a8161099f565b6001600160a01b03808316600090815260036020526040902060040191909155831615610de857610d9b83826103bc565b6001600160a01b0380851660008181526006602090815260408083209487168084529482528083209590955560038152848220600590810154938352815284822093825292909252919020555b5080610df381611730565b915050610d06565b506001600160a01b03838116600090815260036020526040902054163314610e2257600080fd5b610e376001600160a01b03841633308561137b565b6001600160a01b0383166000908152600360205260409020600201544210610ea2576001600160a01b038316600090815260036020526040902060010154610e809083906111e0565b6001600160a01b03841660009081526003602081905260409091200155610f40565b6001600160a01b038316600090815260036020526040812060020154610ec890426111c8565b6001600160a01b03851660009081526003602081905260408220015491925090610ef39083906111d4565b6001600160a01b038616600090815260036020526040902060010154909150610f209061044286846111ec565b6001600160a01b0386166000908152600360208190526040909120015550505b6001600160a01b03831660009081526003602052604090204260048201819055600190910154610f7091906111ec565b6001600160a01b03841660009081526003602090815260409182902060020192909255518381527fde88a922e0d3b88b24e9623efeb464919c6bf9f66857a65e2bfcf2ce87a9433d910160405180910390a1505050565b6001600160a01b038116600090815260036020819052604082206001810154910154610451916111d4565b610ffa6112b9565b6001600160a01b0383166000908152600360205260409020600101541561102057600080fd5b6004805460018181019092557f8a35acfbc15ff81a39ae7d344fd709f28e8600b4aa8c65c6b64bfe7fe36bd19b0180546001600160a01b039586166001600160a01b031991821681179092556000918252600360205260409091208054949095169316929092178355910155565b336000908152600860205260409020546110a790610598565b610967610778565b60006007546000036110da57506001600160a01b031660009081526003602052604090206005015490565b6007546001600160a01b0383166000908152600360208190526040909120908101546004909101546104519261113092909161044291670de0b6b3a76400009161112a9190829061041d8b61099f565b906111d4565b6001600160a01b038416600090815260036020526040902060050154906111ec565b61115a6112b9565b6001600160a01b0381166111bf5760405162461bcd60e51b815260206004820152602660248201527f4f776e61626c653a206e6577206f776e657220697320746865207a65726f206160448201526564647265737360d01b60648201526084016104bd565b61077581611329565b600061044e8284611749565b600061044e828461175c565b600061044e8284611773565b600061044e8284611795565b60026000540361124a5760405162461bcd60e51b815260206004820152601f60248201527f5265656e7472616e637947756172643a207265656e7472616e742063616c6c0060448201526064016104bd565b6002600055565b6040516001600160a01b0383166024820152604481018290526112b490849063a9059cbb60e01b906064015b60408051601f198184030181529190526020810180516001600160e01b03166001600160e01b0319909316929092179091526113b9565b505050565b6001546001600160a01b031633146109675760405162461bcd60e51b815260206004820181905260248201527f4f776e61626c653a2063616c6c6572206973206e6f7420746865206f776e657260448201526064016104bd565b6000818310611322578161044e565b5090919050565b600180546001600160a01b038381166001600160a01b0319831681179093556040519116919082907f8be0079c531659141344cd1fd0a4f28419497f9722a3daafe3b4186f6b6457e090600090a35050565b6040516001600160a01b03808516602483015283166044820152606481018290526113b39085906323b872dd60e01b9060840161127d565b50505050565b600061140e826040518060400160405280602081526020017f5361666545524332303a206c6f772d6c6576656c2063616c6c206661696c6564815250856001600160a01b031661148b9092919063ffffffff16565b8051909150156112b4578080602001905181019061142c91906117a8565b6112b45760405162461bcd60e51b815260206004820152602a60248201527f5361666545524332303a204552433230206f7065726174696f6e20646964206e6044820152691bdd081cdd58d8d9595960b21b60648201526084016104bd565b606061149a84846000856114a2565b949350505050565b6060824710156115035760405162461bcd60e51b815260206004820152602660248201527f416464726573733a20696e73756666696369656e742062616c616e636520666f6044820152651c8818d85b1b60d21b60648201526084016104bd565b600080866001600160a01b0316858760405161151f91906117f5565b60006040518083038185875af1925050503d806000811461155c576040519150601f19603f3d011682016040523d82523d6000602084013e611561565b606091505b50915091506115728783838761157d565b979650505050505050565b606083156115ec5782516000036115e5576001600160a01b0385163b6115e55760405162461bcd60e51b815260206004820152601d60248201527f416464726573733a2063616c6c20746f206e6f6e2d636f6e747261637400000060448201526064016104bd565b508161149a565b61149a83838151156116015781518083602001fd5b8060405162461bcd60e51b81526004016104bd9190611811565b80356001600160a01b038116811461163257600080fd5b919050565b6000806040838503121561164a57600080fd5b6116538361161b565b91506116616020840161161b565b90509250929050565b6000806040838503121561167d57600080fd5b6116868361161b565b946020939093013593505050565b6000602082840312156116a657600080fd5b5035919050565b6000602082840312156116bf57600080fd5b61044e8261161b565b6000806000606084860312156116dd57600080fd5b6116e68461161b565b92506116f46020850161161b565b9150604084013590509250925092565b634e487b7160e01b600052603260045260246000fd5b634e487b7160e01b600052601160045260246000fd5b6000600182016117425761174261171a565b5060010190565b818103818111156104515761045161171a565b80820281158282048414176104515761045161171a565b60008261179057634e487b7160e01b600052601260045260246000fd5b500490565b808201808211156104515761045161171a565b6000602082840312156117ba57600080fd5b815180151581146117ca57600080fd5b9392505050565b60005b838110156117ec5781810151838201526020016117d4565b50506000910152565b600082516118078184602087016117d1565b9190910192915050565b60208152600082518060208401526118308160408501602087016117d1565b601f01601f1916919091016040019291505056fea2646970667358221220a6b8484bd8458f040005879048445023018f8212c393548f6ab648b7fd9eb7bb64736f6c63430008110033",
    "linkReferences": {}
  },
  "methodIdentifiers": {
    "allowance(address,address)": "dd62ed3e",
    "approve(address,uint256)": "095ea7b3",
    "balanceOf(address)": "70a08231",
    "claimRewardsFromDelegate()": "c7c90d61",
    "decimals()": "313ce567",
    "decreaseAllowance(address,uint256)": "a457c2d7",
    "delegatee()": "1e31d053",
    "deposit(uint256,bool)": "9a408321",
    "duration()": "0fb5a6b4",
    "endTime()": "3197cbb6",
    "firstDeposit()": "a5f5be54",
    "increaseAllowance(address,uint256)": "39509351",
    "lastUpdateEndTime()": "d3bdef37",
    "name()": "06fdde03",
    "oneInchToken()": "99c03951",
    "powerPod()": "f9b86ed4",
    "resolverFarmingPod()": "bf5d6d3e",
    "stake1inch()": "e2515745",
    "stakingContract()": "ee99205c",
    "symbol()": "95d89b41",
    "totalSupply()": "18160ddd",
    "transfer(address,uint256)": "a9059cbb",
    "transferFrom(address,address,uint256)": "23b872dd",
    "vaultEnded()": "f2045010",
    "withdraw()": "3ccfd60b"
  },
  "id": 1
}