{
  "abi": [
    {
      "inputs": [],
      "stateMutability": "nonpayable",
      "type": "constructor"
    },
    {
      "anonymous": false,
      "inputs": [
        {
          "indexed": true,
          "internalType": "address",
          "name": "owner",
          "type": "address"
        },
        {
          "indexed": true,
          "internalType": "address",
          "name": "spender",
          "type": "address"
        },
        {
          "indexed": false,
          "internalType": "uint256",
          "name": "value",
          "type": "uint256"
        }
      ],
      "name": "Approval",
      "type": "event"
    },
    {
      "anonymous": false,
      "inputs": [
        {
          "indexed": true,
          "internalType": "address",
          "name": "sender",
          "type": "address"
        },
        {
          "indexed": true,
          "internalType": "address",
          "name": "owner",
          "type": "address"
        },
        {
          "indexed": false,
          "internalType": "uint256",
          "name": "assets",
          "type": "uint256"
        },
        {
          "indexed": false,
          "internalType": "uint256",
          "name": "shares",
          "type": "uint256"
        }
      ],
      "name": "Deposit",
      "type": "event"
    },
    {
      "anonymous": false,
      "inputs": [
        {
          "indexed": true,
          "internalType": "address",
          "name": "from",
          "type": "address"
        },
        {
          "indexed": true,
          "internalType": "address",
          "name": "to",
          "type": "address"
        },
        {
          "indexed": false,
          "internalType": "uint256",
          "name": "value",
          "type": "uint256"
        }
      ],
      "name": "Transfer",
      "type": "event"
    },
    {
      "anonymous": false,
      "inputs": [
        {
          "indexed": true,
          "internalType": "address",
          "name": "sender",
          "type": "address"
        },
        {
          "indexed": true,
          "internalType": "address",
          "name": "receiver",
          "type": "address"
        },
        {
          "indexed": true,
          "internalType": "address",
          "name": "owner",
          "type": "address"
        },
        {
          "indexed": false,
          "internalType": "uint256",
          "name": "assets",
          "type": "uint256"
        },
        {
          "indexed": false,
          "internalType": "uint256",
          "name": "shares",
          "type": "uint256"
        }
      ],
      "name": "Withdraw",
      "type": "event"
    },
    {
      "inputs": [
        {
          "internalType": "address",
          "name": "owner",
          "type": "address"
        },
        {
          "internalType": "address",
          "name": "spender",
          "type": "address"
        }
      ],
      "name": "allowance",
      "outputs": [
        {
          "internalType": "uint256",
          "name": "",
          "type": "uint256"
        }
      ],
      "stateMutability": "view",
      "type": "function"
    },
    {
      "inputs": [
        {
          "internalType": "address",
          "name": "spender",
          "type": "address"
        },
        {
          "internalType": "uint256",
          "name": "amount",
          "type": "uint256"
        }
      ],
      "name": "approve",
      "outputs": [
        {
          "internalType": "bool",
          "name": "",
          "type": "bool"
        }
      ],
      "stateMutability": "nonpayable",
      "type": "function"
    },
    {
      "inputs": [],
      "name": "asset",
      "outputs": [
        {
          "internalType": "address",
          "name": "",
          "type": "address"
        }
      ],
      "stateMutability": "view",
      "type": "function"
    },
    {
      "inputs": [
        {
          "internalType": "address",
          "name": "account",
          "type": "address"
        }
      ],
      "name": "balanceOf",
      "outputs": [
        {
          "internalType": "uint256",
          "name": "",
          "type": "uint256"
        }
      ],
      "stateMutability": "view",
      "type": "function"
    },
    {
      "inputs": [],
      "name": "balancerPool",
      "outputs": [
        {
          "internalType": "address",
          "name": "",
          "type": "address"
        }
      ],
      "stateMutability": "view",
      "type": "function"
    },
    {
      "inputs": [],
      "name": "balancerPoolSet",
      "outputs": [
        {
          "internalType": "bool",
          "name": "",
          "type": "bool"
        }
      ],
      "stateMutability": "view",
      "type": "function"
    },
    {
      "inputs": [],
      "name": "claimRewardsFromDelegate",
      "outputs": [],
      "stateMutability": "nonpayable",
      "type": "function"
    },
    {
      "inputs": [
        {
          "internalType": "uint256",
          "name": "shares",
          "type": "uint256"
        }
      ],
      "name": "convertToAssets",
      "outputs": [
        {
          "internalType": "uint256",
          "name": "assets",
          "type": "uint256"
        }
      ],
      "stateMutability": "view",
      "type": "function"
    },
    {
      "inputs": [
        {
          "internalType": "uint256",
          "name": "assets",
          "type": "uint256"
        }
      ],
      "name": "convertToShares",
      "outputs": [
        {
          "internalType": "uint256",
          "name": "shares",
          "type": "uint256"
        }
      ],
      "stateMutability": "view",
      "type": "function"
    },
    {
      "inputs": [],
      "name": "decimals",
      "outputs": [
        {
          "internalType": "uint8",
          "name": "",
          "type": "uint8"
        }
      ],
      "stateMutability": "view",
      "type": "function"
    },
    {
      "inputs": [
        {
          "internalType": "address",
          "name": "spender",
          "type": "address"
        },
        {
          "internalType": "uint256",
          "name": "subtractedValue",
          "type": "uint256"
        }
      ],
      "name": "decreaseAllowance",
      "outputs": [
        {
          "internalType": "bool",
          "name": "",
          "type": "bool"
        }
      ],
      "stateMutability": "nonpayable",
      "type": "function"
    },
    {
      "inputs": [],
      "name": "delegatee",
      "outputs": [
        {
          "internalType": "address",
          "name": "",
          "type": "address"
        }
      ],
      "stateMutability": "view",
      "type": "function"
    },
    {
      "inputs": [
        {
          "internalType": "uint256",
          "name": "assets",
          "type": "uint256"
        },
        {
          "internalType": "address",
          "name": "receiver",
          "type": "address"
        }
      ],
      "name": "deposit",
      "outputs": [
        {
          "internalType": "uint256",
          "name": "",
          "type": "uint256"
        }
      ],
      "stateMutability": "nonpayable",
      "type": "function"
    },
    {
      "inputs": [],
      "name": "endTime",
      "outputs": [
        {
          "internalType": "uint256",
          "name": "",
          "type": "uint256"
        }
      ],
      "stateMutability": "view",
      "type": "function"
    },
    {
      "inputs": [
        {
          "internalType": "address",
          "name": "spender",
          "type": "address"
        },
        {
          "internalType": "uint256",
          "name": "addedValue",
          "type": "uint256"
        }
      ],
      "name": "increaseAllowance",
      "outputs": [
        {
          "internalType": "bool",
          "name": "",
          "type": "bool"
        }
      ],
      "stateMutability": "nonpayable",
      "type": "function"
    },
    {
      "inputs": [],
      "name": "initialDepositCurve",
      "outputs": [
        {
          "internalType": "bool",
          "name": "",
          "type": "bool"
        }
      ],
      "stateMutability": "view",
      "type": "function"
    },
    {
      "inputs": [],
      "name": "lastUpdateEndTime",
      "outputs": [
        {
          "internalType": "uint256",
          "name": "",
          "type": "uint256"
        }
      ],
      "stateMutability": "view",
      "type": "function"
    },
    {
      "inputs": [
        {
          "internalType": "address",
          "name": "",
          "type": "address"
        }
      ],
      "name": "maxDeposit",
      "outputs": [
        {
          "internalType": "uint256",
          "name": "",
          "type": "uint256"
        }
      ],
      "stateMutability": "view",
      "type": "function"
    },
    {
      "inputs": [
        {
          "internalType": "address",
          "name": "",
          "type": "address"
        }
      ],
      "name": "maxMint",
      "outputs": [
        {
          "internalType": "uint256",
          "name": "",
          "type": "uint256"
        }
      ],
      "stateMutability": "view",
      "type": "function"
    },
    {
      "inputs": [
        {
          "internalType": "address",
          "name": "owner",
          "type": "address"
        }
      ],
      "name": "maxRedeem",
      "outputs": [
        {
          "internalType": "uint256",
          "name": "",
          "type": "uint256"
        }
      ],
      "stateMutability": "view",
      "type": "function"
    },
    {
      "inputs": [
        {
          "internalType": "address",
          "name": "owner",
          "type": "address"
        }
      ],
      "name": "maxWithdraw",
      "outputs": [
        {
          "internalType": "uint256",
          "name": "",
          "type": "uint256"
        }
      ],
      "stateMutability": "view",
      "type": "function"
    },
    {
      "inputs": [
        {
          "internalType": "uint256",
          "name": "shares",
          "type": "uint256"
        },
        {
          "internalType": "address",
          "name": "receiver",
          "type": "address"
        }
      ],
      "name": "mint",
      "outputs": [
        {
          "internalType": "uint256",
          "name": "",
          "type": "uint256"
        }
      ],
      "stateMutability": "nonpayable",
      "type": "function"
    },
    {
      "inputs": [],
      "name": "name",
      "outputs": [
        {
          "internalType": "string",
          "name": "",
          "type": "string"
        }
      ],
      "stateMutability": "view",
      "type": "function"
    },
    {
      "inputs": [],
      "name": "oneInchToken",
      "outputs": [
        {
          "internalType": "contract IERC20",
          "name": "",
          "type": "address"
        }
      ],
      "stateMutability": "view",
      "type": "function"
    },
    {
      "inputs": [],
      "name": "powerPod",
      "outputs": [
        {
          "internalType": "address",
          "name": "",
          "type": "address"
        }
      ],
      "stateMutability": "view",
      "type": "function"
    },
    {
      "inputs": [
        {
          "internalType": "uint256",
          "name": "assets",
          "type": "uint256"
        }
      ],
      "name": "previewDeposit",
      "outputs": [
        {
          "internalType": "uint256",
          "name": "",
          "type": "uint256"
        }
      ],
      "stateMutability": "view",
      "type": "function"
    },
    {
      "inputs": [
        {
          "internalType": "uint256",
          "name": "shares",
          "type": "uint256"
        }
      ],
      "name": "previewMint",
      "outputs": [
        {
          "internalType": "uint256",
          "name": "",
          "type": "uint256"
        }
      ],
      "stateMutability": "view",
      "type": "function"
    },
    {
      "inputs": [
        {
          "internalType": "uint256",
          "name": "shares",
          "type": "uint256"
        }
      ],
      "name": "previewRedeem",
      "outputs": [
        {
          "internalType": "uint256",
          "name": "",
          "type": "uint256"
        }
      ],
      "stateMutability": "view",
      "type": "function"
    },
    {
      "inputs": [
        {
          "internalType": "uint256",
          "name": "assets",
          "type": "uint256"
        }
      ],
      "name": "previewWithdraw",
      "outputs": [
        {
          "internalType": "uint256",
          "name": "",
          "type": "uint256"
        }
      ],
      "stateMutability": "view",
      "type": "function"
    },
    {
      "inputs": [
        {
          "internalType": "uint256",
          "name": "shares",
          "type": "uint256"
        },
        {
          "internalType": "address",
          "name": "receiver",
          "type": "address"
        },
        {
          "internalType": "address",
          "name": "owner",
          "type": "address"
        }
      ],
      "name": "redeem",
      "outputs": [
        {
          "internalType": "uint256",
          "name": "",
          "type": "uint256"
        }
      ],
      "stateMutability": "nonpayable",
      "type": "function"
    },
    {
      "inputs": [],
      "name": "resolverFarmingPod",
      "outputs": [
        {
          "internalType": "address",
          "name": "",
          "type": "address"
        }
      ],
      "stateMutability": "view",
      "type": "function"
    },
    {
      "inputs": [
        {
          "internalType": "address",
          "name": "_balancerPool",
          "type": "address"
        }
      ],
      "name": "setBalancerPool",
      "outputs": [],
      "stateMutability": "nonpayable",
      "type": "function"
    },
    {
      "inputs": [],
      "name": "stake1inch",
      "outputs": [
        {
          "internalType": "address",
          "name": "",
          "type": "address"
        }
      ],
      "stateMutability": "view",
      "type": "function"
    },
    {
      "inputs": [],
      "name": "symbol",
      "outputs": [
        {
          "internalType": "string",
          "name": "",
          "type": "string"
        }
      ],
      "stateMutability": "view",
      "type": "function"
    },
    {
      "inputs": [],
      "name": "totalAssets",
      "outputs": [
        {
          "internalType": "uint256",
          "name": "",
          "type": "uint256"
        }
      ],
      "stateMutability": "view",
      "type": "function"
    },
    {
      "inputs": [],
      "name": "totalStaked",
      "outputs": [
        {
          "internalType": "uint256",
          "name": "",
          "type": "uint256"
        }
      ],
      "stateMutability": "view",
      "type": "function"
    },
    {
      "inputs": [],
      "name": "totalSupply",
      "outputs": [
        {
          "internalType": "uint256",
          "name": "",
          "type": "uint256"
        }
      ],
      "stateMutability": "view",
      "type": "function"
    },
    {
      "inputs": [
        {
          "internalType": "address",
          "name": "to",
          "type": "address"
        },
        {
          "internalType": "uint256",
          "name": "amount",
          "type": "uint256"
        }
      ],
      "name": "transfer",
      "outputs": [
        {
          "internalType": "bool",
          "name": "",
          "type": "bool"
        }
      ],
      "stateMutability": "nonpayable",
      "type": "function"
    },
    {
      "inputs": [
        {
          "internalType": "address",
          "name": "from",
          "type": "address"
        },
        {
          "internalType": "address",
          "name": "to",
          "type": "address"
        },
        {
          "internalType": "uint256",
          "name": "amount",
          "type": "uint256"
        }
      ],
      "name": "transferFrom",
      "outputs": [
        {
          "internalType": "bool",
          "name": "",
          "type": "bool"
        }
      ],
      "stateMutability": "nonpayable",
      "type": "function"
    },
    {
      "inputs": [],
      "name": "vaultStarted",
      "outputs": [
        {
          "internalType": "bool",
          "name": "",
          "type": "bool"
        }
      ],
      "stateMutability": "view",
      "type": "function"
    },
    {
      "inputs": [
        {
          "internalType": "uint256",
          "name": "assets",
          "type": "uint256"
        },
        {
          "internalType": "address",
          "name": "receiver",
          "type": "address"
        },
        {
          "internalType": "address",
          "name": "owner",
          "type": "address"
        }
      ],
      "name": "withdraw",
      "outputs": [
        {
          "internalType": "uint256",
          "name": "",
          "type": "uint256"
        }
      ],
      "stateMutability": "nonpayable",
      "type": "function"
    }
  ],
  "bytecode": {
    "object": "0x61014060405273111111111117dc0aa78b770fa6a738034120c30260c052739a0c8ff858d273f57072d714bca7411d717501d760e05273accfac2339e16dc80c50d2fa81b5c2b049b4f94761010052737e78a8337194c06314300d030d41eb31ed299c39610120523480156200007457600080fd5b5060c0516040518060400160405280600581526020016406f6e6555560dc1b8152506040518060400160405280600381526020016203155560ec1b8152508160039081620000c39190620002b9565b506004620000d28282620002b9565b505050600080620000e9836200012a60201b60201c565b91509150816200010e57620001086200020f60201b62000e881760201c565b62000110565b805b60ff1660a05250506001600160a01b0316608052620003d0565b60408051600481526024810182526020810180516001600160e01b031663313ce56760e01b17905290516000918291829182916001600160a01b03871691620001739162000385565b600060405180830381855afa9150503d8060008114620001b0576040519150601f19603f3d011682016040523d82523d6000602084013e620001b5565b606091505b5091509150818015620001ca57506020815110155b156200020257600081806020019051810190620001e89190620003b6565b905060ff811162000200576001969095509350505050565b505b5060009485945092505050565b601290565b634e487b7160e01b600052604160045260246000fd5b600181811c908216806200023f57607f821691505b6020821081036200026057634e487b7160e01b600052602260045260246000fd5b50919050565b601f821115620002b457600081815260208120601f850160051c810160208610156200028f5750805b601f850160051c820191505b81811015620002b0578281556001016200029b565b5050505b505050565b81516001600160401b03811115620002d557620002d562000214565b620002ed81620002e684546200022a565b8462000266565b602080601f8311600181146200032557600084156200030c5750858301515b600019600386901b1c1916600185901b178555620002b0565b600085815260208120601f198616915b82811015620003565788860151825594840194600190910190840162000335565b5085821015620003755787850151600019600388901b60f8161c191681555b5050505050600190811b01905550565b6000825160005b81811015620003a857602081860181015185830152016200038c565b506000920191825250919050565b600060208284031215620003c957600080fd5b5051919050565b60805160a05160c05160e0516101005161012051611d3762000458600039600081816104dc0152610da80152600081816105a90152610b0501526000818161058201528181610a370152610a79015260008181610441015281816106f80152610a150152600061032501526000818161035a0152818161124f015261145c0152611d376000f3fe608060405234801561001057600080fd5b50600436106102535760003560e01c806395c4728f11610146578063c63d75b6116100c3578063d3bdef3711610087578063d3bdef371461054e578063d905777e14610557578063dd62ed3e1461056a578063e25157451461057d578063ef8b30f714610513578063f9b86ed4146105a457600080fd5b8063c63d75b6146104fe578063c6e6f59214610513578063c7c90d6114610526578063ce96cb771461052e578063cee73a761461054157600080fd5b8063a9059cbb1161010a578063a9059cbb1461048b578063b3d7f6b91461049e578063b460af94146104b1578063ba087652146104c4578063bf5d6d3e146104d757600080fd5b806395c4728f1461042257806395d89b411461043457806399c039511461043c578063a457c2d714610463578063a88b68b41461047657600080fd5b806338d52e0f116101d45780636e553f65116101985780636e553f65146103b757806370a08231146103ca578063776da470146103f3578063817b1cd21461040657806394bf804d1461040f57600080fd5b806338d52e0f14610358578063395093511461037e578063402d267d146103915780634cdad50614610288578063594d2b0e146103a457600080fd5b806318160ddd1161021b57806318160ddd146102d15780631e31d053146102d957806323b872dd1461030b578063313ce5671461031e5780633197cbb61461034f57600080fd5b806301e1d1141461025857806306fdde031461027357806307a2d13a14610288578063095ea7b31461029b5780630a28a477146102be575b600080fd5b6102606105cb565b6040519081526020015b60405180910390f35b61027b6107b4565b60405161026a9190611a67565b610260610296366004611a9a565b610846565b6102ae6102a9366004611acf565b610859565b604051901515815260200161026a565b6102606102cc366004611a9a565b610871565b600254610260565b6005546102f390630100000090046001600160a01b031681565b6040516001600160a01b03909116815260200161026a565b6102ae610319366004611af9565b61087e565b60405160ff7f000000000000000000000000000000000000000000000000000000000000000016815260200161026a565b61026060075481565b7f00000000000000000000000000000000000000000000000000000000000000006102f3565b6102ae61038c366004611acf565b6108a4565b61026061039f366004611b35565b6108c6565b6005546102ae9062010000900460ff1681565b6102606103c5366004611b50565b6108e4565b6102606103d8366004611b35565b6001600160a01b031660009081526020819052604090205490565b6006546102f3906001600160a01b031681565b61026060095481565b61026061041d366004611b50565b610b6c565b6005546102ae90610100900460ff1681565b61027b610b86565b6102f37f000000000000000000000000000000000000000000000000000000000000000081565b6102ae610471366004611acf565b610b95565b610489610484366004611b35565b610c1b565b005b6102ae610499366004611acf565b610c8e565b6102606104ac366004611a9a565b610c9c565b6102606104bf366004611b7c565b610ca9565b6102606104d2366004611b7c565b610d25565b6102f37f000000000000000000000000000000000000000000000000000000000000000081565b61026061050c366004611b35565b5060001990565b610260610521366004611a9a565b610d99565b610489610da6565b61026061053c366004611b35565b610e1b565b6005546102ae9060ff1681565b61026060085481565b610260610565366004611b35565b610e3f565b610260610578366004611bb8565b610e5d565b6102f37f000000000000000000000000000000000000000000000000000000000000000081565b6102f37f000000000000000000000000000000000000000000000000000000000000000081565b6006546040516370a0823160e01b815230600482015260009182916001600160a01b03909116906370a0823190602401602060405180830381865afa158015610618573d6000803e3d6000fd5b505050506040513d601f19601f8201168201806040525081019061063c9190611be2565b90506000600660009054906101000a90046001600160a01b03166001600160a01b03166318160ddd6040518163ffffffff1660e01b8152600401602060405180830381865afa158015610693573d6000803e3d6000fd5b505050506040513d601f19601f820116820180604052508101906106b79190611be2565b6006546001600160a01b0316600090815260208190526040812054919250906006546040516370a0823160e01b81526001600160a01b0391821660048201527f0000000000000000000000000000000000000000000000000000000000000000909116906370a0823190602401602060405180830381865afa158015610741573d6000803e3d6000fd5b505050506040513d601f19601f820116820180604052508101906107659190611be2565b61076f9190611c11565b90508160000361078457600954935050505090565b6000826107918386611c24565b61079b9190611c51565b9050600954816107ab9190611c11565b94505050505090565b6060600380546107c390611c73565b80601f01602080910402602001604051908101604052809291908181526020018280546107ef90611c73565b801561083c5780601f106108115761010080835404028352916020019161083c565b820191906000526020600020905b81548152906001019060200180831161081f57829003601f168201915b5050505050905090565b6000610853826000610e8d565b92915050565b600033610867818585610ec0565b5060019392505050565b6000610853826001610fe4565b60003361088c858285611016565b61089785858561108a565b60019150505b9392505050565b6000336108678185856108b78383610e5d565b6108c19190611c11565b610ec0565b60006108d061122e565b6108db576000610853565b60001992915050565b60006108ef826108c6565b8311156109435760405162461bcd60e51b815260206004820152601e60248201527f455243343632363a206465706f736974206d6f7265207468616e206d6178000060448201526064015b60405180910390fd5b60055460009060ff161515810361099c5750600580546301000000600160b81b03191676a260f8b7c8f37c2f1bc11b04c19902829de6ac8a0000001790556301e1853e6109904282611c11565b600755426008556109d7565b6008546109ac9062278d00611c11565b4211156109d75762278d00600760008282546109c89190611c11565b9091555050426008555062278d005b60006109e285610d99565b905084600960008282546109f69190611c11565b90915550610a0890503385878461124a565b610a5c6001600160a01b037f0000000000000000000000000000000000000000000000000000000000000000167f0000000000000000000000000000000000000000000000000000000000000000876112dc565b604051631c57762b60e31b815260048101869052602481018390527f00000000000000000000000000000000000000000000000000000000000000006001600160a01b03169063e2bbb15890604401600060405180830381600087803b158015610ac557600080fd5b505af1158015610ad9573d6000803e3d6000fd5b50506005546040516317066a5760e21b815263010000009091046001600160a01b0390811660048301527f0000000000000000000000000000000000000000000000000000000000000000169250635c19a95c9150602401600060405180830381600087803b158015610b4b57600080fd5b505af1158015610b5f573d6000803e3d6000fd5b5092979650505050505050565b600080610b7884610c9c565b905061089d3384838761124a565b6060600480546107c390611c73565b60003381610ba38286610e5d565b905083811015610c035760405162461bcd60e51b815260206004820152602560248201527f45524332303a2064656372656173656420616c6c6f77616e63652062656c6f77604482015264207a65726f60d81b606482015260840161093a565b610c108286868403610ec0565b506001949350505050565b600554610100900460ff1615610c6c5760405162461bcd60e51b815260206004820152601660248201527510dd5c9d99481c1bdbdb08185b1c9958591e481cd95d60521b604482015260640161093a565b600680546001600160a01b0319166001600160a01b0392909216919091179055565b60003361086781858561108a565b6000610853826001610e8d565b6000610cb482610e1b565b841115610d035760405162461bcd60e51b815260206004820152601f60248201527f455243343632363a207769746864726177206d6f7265207468616e206d617800604482015260640161093a565b6000610d0e85610871565b9050610d1d3385858885611429565b949350505050565b6000610d3082610e3f565b841115610d7f5760405162461bcd60e51b815260206004820152601d60248201527f455243343632363a2072656465656d206d6f7265207468616e206d6178000000604482015260640161093a565b6000610d8a85610846565b9050610d1d3385858489611429565b6000610853826000610fe4565b7f00000000000000000000000000000000000000000000000000000000000000006001600160a01b0316634e71d92d6040518163ffffffff1660e01b8152600401600060405180830381600087803b158015610e0157600080fd5b505af1158015610e15573d6000803e3d6000fd5b50505050565b6001600160a01b038116600090815260208190526040812054610853906000610e8d565b6001600160a01b038116600090815260208190526040812054610853565b6001600160a01b03918216600090815260016020908152604080832093909416825291909152205490565b601290565b600080610e9960025490565b90508015610eba57610eb5610eac6105cb565b859083866114e9565b610d1d565b83610d1d565b6001600160a01b038316610f225760405162461bcd60e51b8152602060048201526024808201527f45524332303a20617070726f76652066726f6d20746865207a65726f206164646044820152637265737360e01b606482015260840161093a565b6001600160a01b038216610f835760405162461bcd60e51b815260206004820152602260248201527f45524332303a20617070726f766520746f20746865207a65726f206164647265604482015261737360f01b606482015260840161093a565b6001600160a01b0383811660008181526001602090815260408083209487168084529482529182902085905590518481527f8c5be1e5ebec7d5bd14f71427d1e84f3dd0314c0f7b2291e5b200ac8c7c3b925910160405180910390a3505050565b600080610ff060025490565b9050831580610ffd575080155b610eba57610eb58161100d6105cb565b869190866114e9565b60006110228484610e5d565b90506000198114610e15578181101561107d5760405162461bcd60e51b815260206004820152601d60248201527f45524332303a20696e73756666696369656e7420616c6c6f77616e6365000000604482015260640161093a565b610e158484848403610ec0565b6001600160a01b0383166110ee5760405162461bcd60e51b815260206004820152602560248201527f45524332303a207472616e736665722066726f6d20746865207a65726f206164604482015264647265737360d81b606482015260840161093a565b6001600160a01b0382166111505760405162461bcd60e51b815260206004820152602360248201527f45524332303a207472616e7366657220746f20746865207a65726f206164647260448201526265737360e81b606482015260840161093a565b6001600160a01b038316600090815260208190526040902054818110156111c85760405162461bcd60e51b815260206004820152602660248201527f45524332303a207472616e7366657220616d6f756e7420657863656564732062604482015265616c616e636560d01b606482015260840161093a565b6001600160a01b03848116600081815260208181526040808320878703905593871680835291849020805487019055925185815290927fddf252ad1be2c89b69c2b068fc378daa952ba7f163c4a11628f55a4df523b3ef910160405180910390a3610e15565b6000806112396105cb565b11806112455750600254155b905090565b6112767f0000000000000000000000000000000000000000000000000000000000000000853085611546565b611280838261157e565b826001600160a01b0316846001600160a01b03167fdcbc1c05240f31ff3ad067ef1ee35ce4997762752e3a095284754544f4c709d784846040516112ce929190918252602082015260400190565b60405180910390a350505050565b8015806113565750604051636eb1769f60e11b81523060048201526001600160a01b03838116602483015284169063dd62ed3e90604401602060405180830381865afa158015611330573d6000803e3d6000fd5b505050506040513d601f19601f820116820180604052508101906113549190611be2565b155b6113c15760405162461bcd60e51b815260206004820152603660248201527f5361666545524332303a20617070726f76652066726f6d206e6f6e2d7a65726f60448201527520746f206e6f6e2d7a65726f20616c6c6f77616e636560501b606482015260840161093a565b6040516001600160a01b03831660248201526044810182905261142490849063095ea7b360e01b906064015b60408051601f198184030181529190526020810180516001600160e01b03166001600160e01b03199093169290921790915261163d565b505050565b826001600160a01b0316856001600160a01b03161461144d5761144d838683611016565b611457838261170f565b6114827f00000000000000000000000000000000000000000000000000000000000000008584611841565b826001600160a01b0316846001600160a01b0316866001600160a01b03167ffbde797d201c681b91056529119e0b02407c7bb96a4a2c75c01fc9667232c8db85856040516114da929190918252602082015260400190565b60405180910390a45050505050565b6000806114f7868686611871565b9050600183600281111561150d5761150d611cad565b14801561152a57506000848061152557611525611c3b565b868809115b1561153d5761153a600182611c11565b90505b95945050505050565b6040516001600160a01b0380851660248301528316604482015260648101829052610e159085906323b872dd60e01b906084016113ed565b6001600160a01b0382166115d45760405162461bcd60e51b815260206004820152601f60248201527f45524332303a206d696e7420746f20746865207a65726f206164647265737300604482015260640161093a565b80600260008282546115e69190611c11565b90915550506001600160a01b038216600081815260208181526040808320805486019055518481527fddf252ad1be2c89b69c2b068fc378daa952ba7f163c4a11628f55a4df523b3ef910160405180910390a35050565b6000611692826040518060400160405280602081526020017f5361666545524332303a206c6f772d6c6576656c2063616c6c206661696c6564815250856001600160a01b03166119209092919063ffffffff16565b80519091501561142457808060200190518101906116b09190611cc3565b6114245760405162461bcd60e51b815260206004820152602a60248201527f5361666545524332303a204552433230206f7065726174696f6e20646964206e6044820152691bdd081cdd58d8d9595960b21b606482015260840161093a565b6001600160a01b03821661176f5760405162461bcd60e51b815260206004820152602160248201527f45524332303a206275726e2066726f6d20746865207a65726f206164647265736044820152607360f81b606482015260840161093a565b6001600160a01b038216600090815260208190526040902054818110156117e35760405162461bcd60e51b815260206004820152602260248201527f45524332303a206275726e20616d6f756e7420657863656564732062616c616e604482015261636560f01b606482015260840161093a565b6001600160a01b0383166000818152602081815260408083208686039055600280548790039055518581529192917fddf252ad1be2c89b69c2b068fc378daa952ba7f163c4a11628f55a4df523b3ef910160405180910390a3505050565b6040516001600160a01b03831660248201526044810182905261142490849063a9059cbb60e01b906064016113ed565b60008080600019858709858702925082811083820303915050806000036118ab578382816118a1576118a1611c3b565b049250505061089d565b8084116118b757600080fd5b60008486880960026001871981018816978890046003810283188082028403028082028403028082028403028082028403028082028403029081029092039091026000889003889004909101858311909403939093029303949094049190911702949350505050565b6060610d1d848460008585600080866001600160a01b031685876040516119479190611ce5565b60006040518083038185875af1925050503d8060008114611984576040519150601f19603f3d011682016040523d82523d6000602084013e611989565b606091505b509150915061199a878383876119a5565b979650505050505050565b60608315611a14578251600003611a0d576001600160a01b0385163b611a0d5760405162461bcd60e51b815260206004820152601d60248201527f416464726573733a2063616c6c20746f206e6f6e2d636f6e7472616374000000604482015260640161093a565b5081610d1d565b610d1d8383815115611a295781518083602001fd5b8060405162461bcd60e51b815260040161093a9190611a67565b60005b83811015611a5e578181015183820152602001611a46565b50506000910152565b6020815260008251806020840152611a86816040850160208701611a43565b601f01601f19169190910160400192915050565b600060208284031215611aac57600080fd5b5035919050565b80356001600160a01b0381168114611aca57600080fd5b919050565b60008060408385031215611ae257600080fd5b611aeb83611ab3565b946020939093013593505050565b600080600060608486031215611b0e57600080fd5b611b1784611ab3565b9250611b2560208501611ab3565b9150604084013590509250925092565b600060208284031215611b4757600080fd5b61089d82611ab3565b60008060408385031215611b6357600080fd5b82359150611b7360208401611ab3565b90509250929050565b600080600060608486031215611b9157600080fd5b83359250611ba160208501611ab3565b9150611baf60408501611ab3565b90509250925092565b60008060408385031215611bcb57600080fd5b611bd483611ab3565b9150611b7360208401611ab3565b600060208284031215611bf457600080fd5b5051919050565b634e487b7160e01b600052601160045260246000fd5b8082018082111561085357610853611bfb565b808202811582820484141761085357610853611bfb565b634e487b7160e01b600052601260045260246000fd5b600082611c6e57634e487b7160e01b600052601260045260246000fd5b500490565b600181811c90821680611c8757607f821691505b602082108103611ca757634e487b7160e01b600052602260045260246000fd5b50919050565b634e487b7160e01b600052602160045260246000fd5b600060208284031215611cd557600080fd5b8151801515811461089d57600080fd5b60008251611cf7818460208701611a43565b919091019291505056fea2646970667358221220d3daaf678adc068d61d454febdea1db18b9ed667f0e0bb49559fbc4c04008c3664736f6c63430008110033",
    "linkReferences": {}
  },
  "methodIdentifiers": {
    "allowance(address,address)": "dd62ed3e",
    "approve(address,uint256)": "095ea7b3",
    "asset()": "38d52e0f",
    "balanceOf(address)": "70a08231",
    "balancerPool()": "776da470",
    "balancerPoolSet()": "95c4728f",
    "claimRewardsFromDelegate()": "c7c90d61",
    "convertToAssets(uint256)": "07a2d13a",
    "convertToShares(uint256)": "c6e6f592",
    "decimals()": "313ce567",
    "decreaseAllowance(address,uint256)": "a457c2d7",
    "delegatee()": "1e31d053",
    "deposit(uint256,address)": "6e553f65",
    "endTime()": "3197cbb6",
    "increaseAllowance(address,uint256)": "39509351",
    "initialDepositCurve()": "594d2b0e",
    "lastUpdateEndTime()": "d3bdef37",
    "maxDeposit(address)": "402d267d",
    "maxMint(address)": "c63d75b6",
    "maxRedeem(address)": "d905777e",
    "maxWithdraw(address)": "ce96cb77",
    "mint(uint256,address)": "94bf804d",
    "name()": "06fdde03",
    "oneInchToken()": "99c03951",
    "powerPod()": "f9b86ed4",
    "previewDeposit(uint256)": "ef8b30f7",
    "previewMint(uint256)": "b3d7f6b9",
    "previewRedeem(uint256)": "4cdad506",
    "previewWithdraw(uint256)": "0a28a477",
    "redeem(uint256,address,address)": "ba087652",
    "resolverFarmingPod()": "bf5d6d3e",
    "setBalancerPool(address)": "a88b68b4",
    "stake1inch()": "e2515745",
    "symbol()": "95d89b41",
    "totalAssets()": "01e1d114",
    "totalStaked()": "817b1cd2",
    "totalSupply()": "18160ddd",
    "transfer(address,uint256)": "a9059cbb",
    "transferFrom(address,address,uint256)": "23b872dd",
    "vaultStarted()": "cee73a76",
    "withdraw(uint256,address,address)": "b460af94"
  },
  "id": 0
}