{
  "abi": [
    {
      "inputs": [],
      "stateMutability": "nonpayable",
      "type": "constructor"
    },
    {
      "anonymous": false,
      "inputs": [
        {
          "indexed": true,
          "internalType": "address",
          "name": "owner",
          "type": "address"
        },
        {
          "indexed": true,
          "internalType": "address",
          "name": "spender",
          "type": "address"
        },
        {
          "indexed": false,
          "internalType": "uint256",
          "name": "value",
          "type": "uint256"
        }
      ],
      "name": "Approval",
      "type": "event"
    },
    {
      "anonymous": false,
      "inputs": [
        {
          "indexed": true,
          "internalType": "address",
          "name": "sender",
          "type": "address"
        },
        {
          "indexed": true,
          "internalType": "address",
          "name": "owner",
          "type": "address"
        },
        {
          "indexed": false,
          "internalType": "uint256",
          "name": "assets",
          "type": "uint256"
        },
        {
          "indexed": false,
          "internalType": "uint256",
          "name": "shares",
          "type": "uint256"
        }
      ],
      "name": "Deposit",
      "type": "event"
    },
    {
      "anonymous": false,
      "inputs": [
        {
          "indexed": true,
          "internalType": "address",
          "name": "from",
          "type": "address"
        },
        {
          "indexed": true,
          "internalType": "address",
          "name": "to",
          "type": "address"
        },
        {
          "indexed": false,
          "internalType": "uint256",
          "name": "value",
          "type": "uint256"
        }
      ],
      "name": "Transfer",
      "type": "event"
    },
    {
      "anonymous": false,
      "inputs": [
        {
          "indexed": true,
          "internalType": "address",
          "name": "sender",
          "type": "address"
        },
        {
          "indexed": true,
          "internalType": "address",
          "name": "receiver",
          "type": "address"
        },
        {
          "indexed": true,
          "internalType": "address",
          "name": "owner",
          "type": "address"
        },
        {
          "indexed": false,
          "internalType": "uint256",
          "name": "assets",
          "type": "uint256"
        },
        {
          "indexed": false,
          "internalType": "uint256",
          "name": "shares",
          "type": "uint256"
        }
      ],
      "name": "Withdraw",
      "type": "event"
    },
    {
      "inputs": [
        {
          "internalType": "address",
          "name": "owner",
          "type": "address"
        },
        {
          "internalType": "address",
          "name": "spender",
          "type": "address"
        }
      ],
      "name": "allowance",
      "outputs": [
        {
          "internalType": "uint256",
          "name": "",
          "type": "uint256"
        }
      ],
      "stateMutability": "view",
      "type": "function"
    },
    {
      "inputs": [
        {
          "internalType": "address",
          "name": "spender",
          "type": "address"
        },
        {
          "internalType": "uint256",
          "name": "amount",
          "type": "uint256"
        }
      ],
      "name": "approve",
      "outputs": [
        {
          "internalType": "bool",
          "name": "",
          "type": "bool"
        }
      ],
      "stateMutability": "nonpayable",
      "type": "function"
    },
    {
      "inputs": [],
      "name": "asset",
      "outputs": [
        {
          "internalType": "address",
          "name": "",
          "type": "address"
        }
      ],
      "stateMutability": "view",
      "type": "function"
    },
    {
      "inputs": [
        {
          "internalType": "address",
          "name": "account",
          "type": "address"
        }
      ],
      "name": "balanceOf",
      "outputs": [
        {
          "internalType": "uint256",
          "name": "",
          "type": "uint256"
        }
      ],
      "stateMutability": "view",
      "type": "function"
    },
    {
      "inputs": [],
      "name": "balancerPool",
      "outputs": [
        {
          "internalType": "address",
          "name": "",
          "type": "address"
        }
      ],
      "stateMutability": "view",
      "type": "function"
    },
    {
      "inputs": [],
      "name": "balancerPoolCreationHelper",
      "outputs": [
        {
          "internalType": "address",
          "name": "",
          "type": "address"
        }
      ],
      "stateMutability": "view",
      "type": "function"
    },
    {
      "inputs": [],
      "name": "balancerPoolSet",
      "outputs": [
        {
          "internalType": "bool",
          "name": "",
          "type": "bool"
        }
      ],
      "stateMutability": "view",
      "type": "function"
    },
    {
      "inputs": [],
      "name": "claimRewardsFromDelegate",
      "outputs": [],
      "stateMutability": "nonpayable",
      "type": "function"
    },
    {
      "inputs": [
        {
          "internalType": "uint256",
          "name": "shares",
          "type": "uint256"
        }
      ],
      "name": "convertToAssets",
      "outputs": [
        {
          "internalType": "uint256",
          "name": "assets",
          "type": "uint256"
        }
      ],
      "stateMutability": "view",
      "type": "function"
    },
    {
      "inputs": [
        {
          "internalType": "uint256",
          "name": "assets",
          "type": "uint256"
        }
      ],
      "name": "convertToShares",
      "outputs": [
        {
          "internalType": "uint256",
          "name": "shares",
          "type": "uint256"
        }
      ],
      "stateMutability": "view",
      "type": "function"
    },
    {
      "inputs": [],
      "name": "decimals",
      "outputs": [
        {
          "internalType": "uint8",
          "name": "",
          "type": "uint8"
        }
      ],
      "stateMutability": "view",
      "type": "function"
    },
    {
      "inputs": [
        {
          "internalType": "address",
          "name": "spender",
          "type": "address"
        },
        {
          "internalType": "uint256",
          "name": "subtractedValue",
          "type": "uint256"
        }
      ],
      "name": "decreaseAllowance",
      "outputs": [
        {
          "internalType": "bool",
          "name": "",
          "type": "bool"
        }
      ],
      "stateMutability": "nonpayable",
      "type": "function"
    },
    {
      "inputs": [],
      "name": "delegatee",
      "outputs": [
        {
          "internalType": "address",
          "name": "",
          "type": "address"
        }
      ],
      "stateMutability": "view",
      "type": "function"
    },
    {
      "inputs": [
        {
          "internalType": "uint256",
          "name": "assets",
          "type": "uint256"
        },
        {
          "internalType": "address",
          "name": "receiver",
          "type": "address"
        }
      ],
      "name": "deposit",
      "outputs": [
        {
          "internalType": "uint256",
          "name": "",
          "type": "uint256"
        }
      ],
      "stateMutability": "nonpayable",
      "type": "function"
    },
    {
      "inputs": [],
      "name": "endTime",
      "outputs": [
        {
          "internalType": "uint256",
          "name": "",
          "type": "uint256"
        }
      ],
      "stateMutability": "view",
      "type": "function"
    },
    {
      "inputs": [
        {
          "internalType": "address",
          "name": "spender",
          "type": "address"
        },
        {
          "internalType": "uint256",
          "name": "addedValue",
          "type": "uint256"
        }
      ],
      "name": "increaseAllowance",
      "outputs": [
        {
          "internalType": "bool",
          "name": "",
          "type": "bool"
        }
      ],
      "stateMutability": "nonpayable",
      "type": "function"
    },
    {
      "inputs": [],
      "name": "initialDepositCurve",
      "outputs": [
        {
          "internalType": "bool",
          "name": "",
          "type": "bool"
        }
      ],
      "stateMutability": "view",
      "type": "function"
    },
    {
      "inputs": [],
      "name": "lastUpdateEndTime",
      "outputs": [
        {
          "internalType": "uint256",
          "name": "",
          "type": "uint256"
        }
      ],
      "stateMutability": "view",
      "type": "function"
    },
    {
      "inputs": [
        {
          "internalType": "address",
          "name": "",
          "type": "address"
        }
      ],
      "name": "maxDeposit",
      "outputs": [
        {
          "internalType": "uint256",
          "name": "",
          "type": "uint256"
        }
      ],
      "stateMutability": "view",
      "type": "function"
    },
    {
      "inputs": [
        {
          "internalType": "address",
          "name": "",
          "type": "address"
        }
      ],
      "name": "maxMint",
      "outputs": [
        {
          "internalType": "uint256",
          "name": "",
          "type": "uint256"
        }
      ],
      "stateMutability": "view",
      "type": "function"
    },
    {
      "inputs": [
        {
          "internalType": "address",
          "name": "owner",
          "type": "address"
        }
      ],
      "name": "maxRedeem",
      "outputs": [
        {
          "internalType": "uint256",
          "name": "",
          "type": "uint256"
        }
      ],
      "stateMutability": "view",
      "type": "function"
    },
    {
      "inputs": [
        {
          "internalType": "address",
          "name": "owner",
          "type": "address"
        }
      ],
      "name": "maxWithdraw",
      "outputs": [
        {
          "internalType": "uint256",
          "name": "",
          "type": "uint256"
        }
      ],
      "stateMutability": "view",
      "type": "function"
    },
    {
      "inputs": [
        {
          "internalType": "uint256",
          "name": "shares",
          "type": "uint256"
        },
        {
          "internalType": "address",
          "name": "receiver",
          "type": "address"
        }
      ],
      "name": "mint",
      "outputs": [
        {
          "internalType": "uint256",
          "name": "",
          "type": "uint256"
        }
      ],
      "stateMutability": "nonpayable",
      "type": "function"
    },
    {
      "inputs": [],
      "name": "name",
      "outputs": [
        {
          "internalType": "string",
          "name": "",
          "type": "string"
        }
      ],
      "stateMutability": "view",
      "type": "function"
    },
    {
      "inputs": [],
      "name": "oneInchToken",
      "outputs": [
        {
          "internalType": "contract IERC20",
          "name": "",
          "type": "address"
        }
      ],
      "stateMutability": "view",
      "type": "function"
    },
    {
      "inputs": [],
      "name": "powerPod",
      "outputs": [
        {
          "internalType": "address",
          "name": "",
          "type": "address"
        }
      ],
      "stateMutability": "view",
      "type": "function"
    },
    {
      "inputs": [
        {
          "internalType": "uint256",
          "name": "assets",
          "type": "uint256"
        }
      ],
      "name": "previewDeposit",
      "outputs": [
        {
          "internalType": "uint256",
          "name": "",
          "type": "uint256"
        }
      ],
      "stateMutability": "view",
      "type": "function"
    },
    {
      "inputs": [
        {
          "internalType": "uint256",
          "name": "shares",
          "type": "uint256"
        }
      ],
      "name": "previewMint",
      "outputs": [
        {
          "internalType": "uint256",
          "name": "",
          "type": "uint256"
        }
      ],
      "stateMutability": "view",
      "type": "function"
    },
    {
      "inputs": [
        {
          "internalType": "uint256",
          "name": "shares",
          "type": "uint256"
        }
      ],
      "name": "previewRedeem",
      "outputs": [
        {
          "internalType": "uint256",
          "name": "",
          "type": "uint256"
        }
      ],
      "stateMutability": "view",
      "type": "function"
    },
    {
      "inputs": [
        {
          "internalType": "uint256",
          "name": "assets",
          "type": "uint256"
        }
      ],
      "name": "previewWithdraw",
      "outputs": [
        {
          "internalType": "uint256",
          "name": "",
          "type": "uint256"
        }
      ],
      "stateMutability": "view",
      "type": "function"
    },
    {
      "inputs": [
        {
          "internalType": "uint256",
          "name": "shares",
          "type": "uint256"
        },
        {
          "internalType": "address",
          "name": "receiver",
          "type": "address"
        },
        {
          "internalType": "address",
          "name": "owner",
          "type": "address"
        }
      ],
      "name": "redeem",
      "outputs": [
        {
          "internalType": "uint256",
          "name": "",
          "type": "uint256"
        }
      ],
      "stateMutability": "nonpayable",
      "type": "function"
    },
    {
      "inputs": [],
      "name": "resolverFarmingPod",
      "outputs": [
        {
          "internalType": "address",
          "name": "",
          "type": "address"
        }
      ],
      "stateMutability": "view",
      "type": "function"
    },
    {
      "inputs": [
        {
          "internalType": "address",
          "name": "_balancerPool",
          "type": "address"
        },
        {
          "internalType": "uint256[]",
          "name": "amounts",
          "type": "uint256[]"
        }
      ],
      "name": "setBalancerPoolAndInit",
      "outputs": [],
      "stateMutability": "nonpayable",
      "type": "function"
    },
    {
      "inputs": [],
      "name": "stake1inch",
      "outputs": [
        {
          "internalType": "address",
          "name": "",
          "type": "address"
        }
      ],
      "stateMutability": "view",
      "type": "function"
    },
    {
      "inputs": [],
      "name": "symbol",
      "outputs": [
        {
          "internalType": "string",
          "name": "",
          "type": "string"
        }
      ],
      "stateMutability": "view",
      "type": "function"
    },
    {
      "inputs": [],
      "name": "totalAssets",
      "outputs": [
        {
          "internalType": "uint256",
          "name": "",
          "type": "uint256"
        }
      ],
      "stateMutability": "view",
      "type": "function"
    },
    {
      "inputs": [],
      "name": "totalStaked",
      "outputs": [
        {
          "internalType": "uint256",
          "name": "",
          "type": "uint256"
        }
      ],
      "stateMutability": "view",
      "type": "function"
    },
    {
      "inputs": [],
      "name": "totalSupply",
      "outputs": [
        {
          "internalType": "uint256",
          "name": "",
          "type": "uint256"
        }
      ],
      "stateMutability": "view",
      "type": "function"
    },
    {
      "inputs": [
        {
          "internalType": "address",
          "name": "to",
          "type": "address"
        },
        {
          "internalType": "uint256",
          "name": "amount",
          "type": "uint256"
        }
      ],
      "name": "transfer",
      "outputs": [
        {
          "internalType": "bool",
          "name": "",
          "type": "bool"
        }
      ],
      "stateMutability": "nonpayable",
      "type": "function"
    },
    {
      "inputs": [
        {
          "internalType": "address",
          "name": "from",
          "type": "address"
        },
        {
          "internalType": "address",
          "name": "to",
          "type": "address"
        },
        {
          "internalType": "uint256",
          "name": "amount",
          "type": "uint256"
        }
      ],
      "name": "transferFrom",
      "outputs": [
        {
          "internalType": "bool",
          "name": "",
          "type": "bool"
        }
      ],
      "stateMutability": "nonpayable",
      "type": "function"
    },
    {
      "inputs": [],
      "name": "vaultStarted",
      "outputs": [
        {
          "internalType": "bool",
          "name": "",
          "type": "bool"
        }
      ],
      "stateMutability": "view",
      "type": "function"
    },
    {
      "inputs": [
        {
          "internalType": "uint256",
          "name": "assets",
          "type": "uint256"
        },
        {
          "internalType": "address",
          "name": "receiver",
          "type": "address"
        },
        {
          "internalType": "address",
          "name": "owner",
          "type": "address"
        }
      ],
      "name": "withdraw",
      "outputs": [
        {
          "internalType": "uint256",
          "name": "",
          "type": "uint256"
        }
      ],
      "stateMutability": "nonpayable",
      "type": "function"
    }
  ],
  "bytecode": {
    "object": "0x61016060405273111111111117dc0aa78b770fa6a738034120c30260c052739a0c8ff858d273f57072d714bca7411d717501d760e05273accfac2339e16dc80c50d2fa81b5c2b049b4f94761010052737e78a8337194c06314300d030d41eb31ed299c396101205273a289a03f46f144faadd9fc51b006d7322ecc9b04610140523480156200008d57600080fd5b5060c0516040518060400160405280600581526020016406f6e6555560dc1b8152506040518060400160405280600381526020016203155560ec1b8152508160039081620000dc9190620002d2565b506004620000eb8282620002d2565b50505060008062000102836200014360201b60201c565b91509150816200012757620001216200022860201b620011661760201c565b62000129565b805b60ff1660a05250506001600160a01b0316608052620003e9565b60408051600481526024810182526020810180516001600160e01b031663313ce56760e01b17905290516000918291829182916001600160a01b038716916200018c916200039e565b600060405180830381855afa9150503d8060008114620001c9576040519150601f19603f3d011682016040523d82523d6000602084013e620001ce565b606091505b5091509150818015620001e357506020815110155b156200021b57600081806020019051810190620002019190620003cf565b905060ff811162000219576001969095509350505050565b505b5060009485945092505050565b601290565b634e487b7160e01b600052604160045260246000fd5b600181811c908216806200025857607f821691505b6020821081036200027957634e487b7160e01b600052602260045260246000fd5b50919050565b601f821115620002cd57600081815260208120601f850160051c81016020861015620002a85750805b601f850160051c820191505b81811015620002c957828155600101620002b4565b5050505b505050565b81516001600160401b03811115620002ee57620002ee6200022d565b6200030681620002ff845462000243565b846200027f565b602080601f8311600181146200033e5760008415620003255750858301515b600019600386901b1c1916600185901b178555620002c9565b600085815260208120601f198616915b828110156200036f578886015182559484019460019091019084016200034e565b50858210156200038e5787850151600019600388901b60f8161c191681555b5050505050600190811b01905550565b6000825160005b81811015620003c15760208186018101518583015201620003a5565b506000920191825250919050565b600060208284031215620003e257600080fd5b5051919050565b60805160a05160c05160e0516101005161012051610140516121ab62000491600039600081816103c701526110a90152600081816104f90152610d670152600081816105db0152610b370152600081816105b401528181610a690152610aab0152600081816104730152818161072a01528181610a4701528181610f910152611031015260006103300152600081816103650152818161152d015261173a01526121ab6000f3fe608060405234801561001057600080fd5b506004361061025e5760003560e01c806395c4728f11610146578063c6e6f592116100c3578063d62490be11610087578063d62490be14610576578063d905777e14610589578063dd62ed3e1461059c578063e2515745146105af578063ef8b30f714610530578063f9b86ed4146105d657600080fd5b8063c6e6f59214610530578063c7c90d6114610543578063ce96cb771461054d578063cee73a7614610560578063d3bdef371461056d57600080fd5b8063b3d7f6b91161010a578063b3d7f6b9146104bb578063b460af94146104ce578063ba087652146104e1578063bf5d6d3e146104f4578063c63d75b61461051b57600080fd5b806395c4728f1461045457806395d89b411461046657806399c039511461046e578063a457c2d714610495578063a9059cbb146104a857600080fd5b806338d52e0f116101df57806368753753116101a357806368753753146103c25780636e553f65146103e957806370a08231146103fc578063776da47014610425578063817b1cd21461043857806394bf804d1461044157600080fd5b806338d52e0f146103635780633950935114610389578063402d267d1461039c5780634cdad50614610293578063594d2b0e146103af57600080fd5b806318160ddd1161022657806318160ddd146102dc5780631e31d053146102e457806323b872dd14610316578063313ce567146103295780633197cbb61461035a57600080fd5b806301e1d1141461026357806306fdde031461027e57806307a2d13a14610293578063095ea7b3146102a65780630a28a477146102c9575b600080fd5b61026b6105fd565b6040519081526020015b60405180910390f35b6102866107e6565b6040516102759190611d45565b61026b6102a1366004611d78565b610878565b6102b96102b4366004611dad565b61088b565b6040519015158152602001610275565b61026b6102d7366004611d78565b6108a3565b60025461026b565b6005546102fe90630100000090046001600160a01b031681565b6040516001600160a01b039091168152602001610275565b6102b9610324366004611dd7565b6108b0565b60405160ff7f0000000000000000000000000000000000000000000000000000000000000000168152602001610275565b61026b60075481565b7f00000000000000000000000000000000000000000000000000000000000000006102fe565b6102b9610397366004611dad565b6108d6565b61026b6103aa366004611e13565b6108f8565b6005546102b99062010000900460ff1681565b6102fe7f000000000000000000000000000000000000000000000000000000000000000081565b61026b6103f7366004611e2e565b610916565b61026b61040a366004611e13565b6001600160a01b031660009081526020819052604090205490565b6006546102fe906001600160a01b031681565b61026b60095481565b61026b61044f366004611e2e565b610b9e565b6005546102b990610100900460ff1681565b610286610bb8565b6102fe7f000000000000000000000000000000000000000000000000000000000000000081565b6102b96104a3366004611dad565b610bc7565b6102b96104b6366004611dad565b610c4d565b61026b6104c9366004611d78565b610c5b565b61026b6104dc366004611e5a565b610c68565b61026b6104ef366004611e5a565b610ce4565b6102fe7f000000000000000000000000000000000000000000000000000000000000000081565b61026b610529366004611e13565b5060001990565b61026b61053e366004611d78565b610d58565b61054b610d65565b005b61026b61055b366004611e13565b610dda565b6005546102b99060ff1681565b61026b60085481565b61054b610584366004611eac565b610dfe565b61026b610597366004611e13565b61111d565b61026b6105aa366004611f7d565b61113b565b6102fe7f000000000000000000000000000000000000000000000000000000000000000081565b6102fe7f000000000000000000000000000000000000000000000000000000000000000081565b6006546040516370a0823160e01b815230600482015260009182916001600160a01b03909116906370a0823190602401602060405180830381865afa15801561064a573d6000803e3d6000fd5b505050506040513d601f19601f8201168201806040525081019061066e9190611fa7565b90506000600660009054906101000a90046001600160a01b03166001600160a01b03166318160ddd6040518163ffffffff1660e01b8152600401602060405180830381865afa1580156106c5573d6000803e3d6000fd5b505050506040513d601f19601f820116820180604052508101906106e99190611fa7565b6006546001600160a01b0316600090815260208190526040812054919250906006546040516370a0823160e01b81526001600160a01b0391821660048201527f0000000000000000000000000000000000000000000000000000000000000000909116906370a0823190602401602060405180830381865afa158015610773573d6000803e3d6000fd5b505050506040513d601f19601f820116820180604052508101906107979190611fa7565b6107a19190611fd6565b9050816000036107b657600954935050505090565b6000826107c38386611fe9565b6107cd9190612016565b9050600954816107dd9190611fd6565b94505050505090565b6060600380546107f590612038565b80601f016020809104026020016040519081016040528092919081815260200182805461082190612038565b801561086e5780601f106108435761010080835404028352916020019161086e565b820191906000526020600020905b81548152906001019060200180831161085157829003601f168201915b5050505050905090565b600061088582600061116b565b92915050565b60003361089981858561119e565b5060019392505050565b60006108858260016112c2565b6000336108be8582856112f4565b6108c9858585611368565b60019150505b9392505050565b6000336108998185856108e9838361113b565b6108f39190611fd6565b61119e565b600061090261150c565b61090d576000610885565b60001992915050565b6000610921826108f8565b8311156109755760405162461bcd60e51b815260206004820152601e60248201527f455243343632363a206465706f736974206d6f7265207468616e206d6178000060448201526064015b60405180910390fd5b60055460009060ff16151581036109ce5750600580546301000000600160b81b03191676a260f8b7c8f37c2f1bc11b04c19902829de6ac8a0000001790556301e1853e6109c24282611fd6565b60075542600855610a09565b6008546109de9062278d00611fd6565b421115610a095762278d00600760008282546109fa9190611fd6565b9091555050426008555062278d005b6000610a1485610d58565b90508460096000828254610a289190611fd6565b90915550610a3a905033858784611528565b610a8e6001600160a01b037f0000000000000000000000000000000000000000000000000000000000000000167f0000000000000000000000000000000000000000000000000000000000000000876115ba565b604051631c57762b60e31b815260048101869052602481018390527f00000000000000000000000000000000000000000000000000000000000000006001600160a01b03169063e2bbb15890604401600060405180830381600087803b158015610af757600080fd5b505af1158015610b0b573d6000803e3d6000fd5b50506005546040516317066a5760e21b815263010000009091046001600160a01b0390811660048301527f0000000000000000000000000000000000000000000000000000000000000000169250635c19a95c9150602401600060405180830381600087803b158015610b7d57600080fd5b505af1158015610b91573d6000803e3d6000fd5b5092979650505050505050565b600080610baa84610c5b565b90506108cf33848387611528565b6060600480546107f590612038565b60003381610bd5828661113b565b905083811015610c355760405162461bcd60e51b815260206004820152602560248201527f45524332303a2064656372656173656420616c6c6f77616e63652062656c6f77604482015264207a65726f60d81b606482015260840161096c565b610c42828686840361119e565b506001949350505050565b600033610899818585611368565b600061088582600161116b565b6000610c7382610dda565b841115610cc25760405162461bcd60e51b815260206004820152601f60248201527f455243343632363a207769746864726177206d6f7265207468616e206d617800604482015260640161096c565b6000610ccd856108a3565b9050610cdc3385858885611707565b949350505050565b6000610cef8261111d565b841115610d3e5760405162461bcd60e51b815260206004820152601d60248201527f455243343632363a2072656465656d206d6f7265207468616e206d6178000000604482015260640161096c565b6000610d4985610878565b9050610cdc3385858489611707565b60006108858260006112c2565b7f00000000000000000000000000000000000000000000000000000000000000006001600160a01b0316634e71d92d6040518163ffffffff1660e01b8152600401600060405180830381600087803b158015610dc057600080fd5b505af1158015610dd4573d6000803e3d6000fd5b50505050565b6001600160a01b03811660009081526020819052604081205461088590600061116b565b600554610100900460ff1615610e4f5760405162461bcd60e51b815260206004820152601660248201527510dd5c9d99481c1bdbdb08185b1c9958591e481cd95d60521b604482015260640161096c565b683635c9adc5dea0000081600081518110610e6c57610e6c612072565b602002602001015110158015610ea55750683635c9adc5dea0000081600181518110610e9a57610e9a612072565b602002602001015110155b610ee85760405162461bcd60e51b8152602060048201526014602482015273696e73756666696369656e7420616d6f756e747360601b604482015260640161096c565b600680546001600160a01b0319166001600160a01b0384169081179091556040805163038fff2d60e41b81529051600092916338fff2d0916004808301926020929190829003018187875af1158015610f45573d6000803e3d6000fd5b505050506040513d601f19601f82011682018060405250810190610f699190611fa7565b60408051600280825260608201835292935060009290916020830190803683370190505090507f000000000000000000000000000000000000000000000000000000000000000081600081518110610fc357610fc3612072565b60200260200101906001600160a01b031690816001600160a01b0316815250503081600181518110610ff757610ff7612072565b6001600160a01b039092166020928302919091019091015261106933308560008151811061102757611027612072565b60200260200101517f00000000000000000000000000000000000000000000000000000000000000006001600160a01b03166117c7909392919063ffffffff16565b61108e33308560018151811061108157611081612072565b60200260200101516108b0565b50600654604051632af9495960e11b81526001600160a01b037f00000000000000000000000000000000000000000000000000000000000000008116926355f292b2926110e5928792169086908990600401612088565b600060405180830381600087803b1580156110ff57600080fd5b505af1158015611113573d6000803e3d6000fd5b5050505050505050565b6001600160a01b038116600090815260208190526040812054610885565b6001600160a01b03918216600090815260016020908152604080832093909416825291909152205490565b601290565b60008061117760025490565b905080156111985761119361118a6105fd565b859083866117ff565b610cdc565b83610cdc565b6001600160a01b0383166112005760405162461bcd60e51b8152602060048201526024808201527f45524332303a20617070726f76652066726f6d20746865207a65726f206164646044820152637265737360e01b606482015260840161096c565b6001600160a01b0382166112615760405162461bcd60e51b815260206004820152602260248201527f45524332303a20617070726f766520746f20746865207a65726f206164647265604482015261737360f01b606482015260840161096c565b6001600160a01b0383811660008181526001602090815260408083209487168084529482529182902085905590518481527f8c5be1e5ebec7d5bd14f71427d1e84f3dd0314c0f7b2291e5b200ac8c7c3b925910160405180910390a3505050565b6000806112ce60025490565b90508315806112db575080155b61119857611193816112eb6105fd565b869190866117ff565b6000611300848461113b565b90506000198114610dd4578181101561135b5760405162461bcd60e51b815260206004820152601d60248201527f45524332303a20696e73756666696369656e7420616c6c6f77616e6365000000604482015260640161096c565b610dd4848484840361119e565b6001600160a01b0383166113cc5760405162461bcd60e51b815260206004820152602560248201527f45524332303a207472616e736665722066726f6d20746865207a65726f206164604482015264647265737360d81b606482015260840161096c565b6001600160a01b03821661142e5760405162461bcd60e51b815260206004820152602360248201527f45524332303a207472616e7366657220746f20746865207a65726f206164647260448201526265737360e81b606482015260840161096c565b6001600160a01b038316600090815260208190526040902054818110156114a65760405162461bcd60e51b815260206004820152602660248201527f45524332303a207472616e7366657220616d6f756e7420657863656564732062604482015265616c616e636560d01b606482015260840161096c565b6001600160a01b03848116600081815260208181526040808320878703905593871680835291849020805487019055925185815290927fddf252ad1be2c89b69c2b068fc378daa952ba7f163c4a11628f55a4df523b3ef910160405180910390a3610dd4565b6000806115176105fd565b11806115235750600254155b905090565b6115547f00000000000000000000000000000000000000000000000000000000000000008530856117c7565b61155e838261185c565b826001600160a01b0316846001600160a01b03167fdcbc1c05240f31ff3ad067ef1ee35ce4997762752e3a095284754544f4c709d784846040516115ac929190918252602082015260400190565b60405180910390a350505050565b8015806116345750604051636eb1769f60e11b81523060048201526001600160a01b03838116602483015284169063dd62ed3e90604401602060405180830381865afa15801561160e573d6000803e3d6000fd5b505050506040513d601f19601f820116820180604052508101906116329190611fa7565b155b61169f5760405162461bcd60e51b815260206004820152603660248201527f5361666545524332303a20617070726f76652066726f6d206e6f6e2d7a65726f60448201527520746f206e6f6e2d7a65726f20616c6c6f77616e636560501b606482015260840161096c565b6040516001600160a01b03831660248201526044810182905261170290849063095ea7b360e01b906064015b60408051601f198184030181529190526020810180516001600160e01b03166001600160e01b03199093169290921790915261191b565b505050565b826001600160a01b0316856001600160a01b03161461172b5761172b8386836112f4565b61173583826119ed565b6117607f00000000000000000000000000000000000000000000000000000000000000008584611b1f565b826001600160a01b0316846001600160a01b0316866001600160a01b03167ffbde797d201c681b91056529119e0b02407c7bb96a4a2c75c01fc9667232c8db85856040516117b8929190918252602082015260400190565b60405180910390a45050505050565b6040516001600160a01b0380851660248301528316604482015260648101829052610dd49085906323b872dd60e01b906084016116cb565b60008061180d868686611b4f565b9050600183600281111561182357611823612121565b14801561184057506000848061183b5761183b612000565b868809115b1561185357611850600182611fd6565b90505b95945050505050565b6001600160a01b0382166118b25760405162461bcd60e51b815260206004820152601f60248201527f45524332303a206d696e7420746f20746865207a65726f206164647265737300604482015260640161096c565b80600260008282546118c49190611fd6565b90915550506001600160a01b038216600081815260208181526040808320805486019055518481527fddf252ad1be2c89b69c2b068fc378daa952ba7f163c4a11628f55a4df523b3ef910160405180910390a35050565b6000611970826040518060400160405280602081526020017f5361666545524332303a206c6f772d6c6576656c2063616c6c206661696c6564815250856001600160a01b0316611bfe9092919063ffffffff16565b805190915015611702578080602001905181019061198e9190612137565b6117025760405162461bcd60e51b815260206004820152602a60248201527f5361666545524332303a204552433230206f7065726174696f6e20646964206e6044820152691bdd081cdd58d8d9595960b21b606482015260840161096c565b6001600160a01b038216611a4d5760405162461bcd60e51b815260206004820152602160248201527f45524332303a206275726e2066726f6d20746865207a65726f206164647265736044820152607360f81b606482015260840161096c565b6001600160a01b03821660009081526020819052604090205481811015611ac15760405162461bcd60e51b815260206004820152602260248201527f45524332303a206275726e20616d6f756e7420657863656564732062616c616e604482015261636560f01b606482015260840161096c565b6001600160a01b0383166000818152602081815260408083208686039055600280548790039055518581529192917fddf252ad1be2c89b69c2b068fc378daa952ba7f163c4a11628f55a4df523b3ef910160405180910390a3505050565b6040516001600160a01b03831660248201526044810182905261170290849063a9059cbb60e01b906064016116cb565b6000808060001985870985870292508281108382030391505080600003611b8957838281611b7f57611b7f612000565b04925050506108cf565b808411611b9557600080fd5b60008486880960026001871981018816978890046003810283188082028403028082028403028082028403028082028403028082028403029081029092039091026000889003889004909101858311909403939093029303949094049190911702949350505050565b6060610cdc848460008585600080866001600160a01b03168587604051611c259190612159565b60006040518083038185875af1925050503d8060008114611c62576040519150601f19603f3d011682016040523d82523d6000602084013e611c67565b606091505b5091509150611c7887838387611c83565b979650505050505050565b60608315611cf2578251600003611ceb576001600160a01b0385163b611ceb5760405162461bcd60e51b815260206004820152601d60248201527f416464726573733a2063616c6c20746f206e6f6e2d636f6e7472616374000000604482015260640161096c565b5081610cdc565b610cdc8383815115611d075781518083602001fd5b8060405162461bcd60e51b815260040161096c9190611d45565b60005b83811015611d3c578181015183820152602001611d24565b50506000910152565b6020815260008251806020840152611d64816040850160208701611d21565b601f01601f19169190910160400192915050565b600060208284031215611d8a57600080fd5b5035919050565b80356001600160a01b0381168114611da857600080fd5b919050565b60008060408385031215611dc057600080fd5b611dc983611d91565b946020939093013593505050565b600080600060608486031215611dec57600080fd5b611df584611d91565b9250611e0360208501611d91565b9150604084013590509250925092565b600060208284031215611e2557600080fd5b6108cf82611d91565b60008060408385031215611e4157600080fd5b82359150611e5160208401611d91565b90509250929050565b600080600060608486031215611e6f57600080fd5b83359250611e7f60208501611d91565b9150611e8d60408501611d91565b90509250925092565b634e487b7160e01b600052604160045260246000fd5b60008060408385031215611ebf57600080fd5b611ec883611d91565b915060208084013567ffffffffffffffff80821115611ee657600080fd5b818601915086601f830112611efa57600080fd5b813581811115611f0c57611f0c611e96565b8060051b604051601f19603f83011681018181108582111715611f3157611f31611e96565b604052918252848201925083810185019189831115611f4f57600080fd5b938501935b82851015611f6d57843584529385019392850192611f54565b8096505050505050509250929050565b60008060408385031215611f9057600080fd5b611f9983611d91565b9150611e5160208401611d91565b600060208284031215611fb957600080fd5b5051919050565b634e487b7160e01b600052601160045260246000fd5b8082018082111561088557610885611fc0565b808202811582820484141761088557610885611fc0565b634e487b7160e01b600052601260045260246000fd5b60008261203357634e487b7160e01b600052601260045260246000fd5b500490565b600181811c9082168061204c57607f821691505b60208210810361206c57634e487b7160e01b600052602260045260246000fd5b50919050565b634e487b7160e01b600052603260045260246000fd5b600060808201868352602060018060a01b03808816828601526080604086015282875180855260a087019150838901945060005b818110156120da5785518416835294840194918401916001016120bc565b5050858103606087015286518082529083019350905081860160005b82811015612112578151855293830193908301906001016120f6565b50929998505050505050505050565b634e487b7160e01b600052602160045260246000fd5b60006020828403121561214957600080fd5b815180151581146108cf57600080fd5b6000825161216b818460208701611d21565b919091019291505056fea26469706673582212208a996b9baa6facb6da995136e0f069e644f6207bb46d58463edc99bd6ed1b8ab64736f6c63430008110033",
    "linkReferences": {}
  },
  "methodIdentifiers": {
    "allowance(address,address)": "dd62ed3e",
    "approve(address,uint256)": "095ea7b3",
    "asset()": "38d52e0f",
    "balanceOf(address)": "70a08231",
    "balancerPool()": "776da470",
    "balancerPoolCreationHelper()": "68753753",
    "balancerPoolSet()": "95c4728f",
    "claimRewardsFromDelegate()": "c7c90d61",
    "convertToAssets(uint256)": "07a2d13a",
    "convertToShares(uint256)": "c6e6f592",
    "decimals()": "313ce567",
    "decreaseAllowance(address,uint256)": "a457c2d7",
    "delegatee()": "1e31d053",
    "deposit(uint256,address)": "6e553f65",
    "endTime()": "3197cbb6",
    "increaseAllowance(address,uint256)": "39509351",
    "initialDepositCurve()": "594d2b0e",
    "lastUpdateEndTime()": "d3bdef37",
    "maxDeposit(address)": "402d267d",
    "maxMint(address)": "c63d75b6",
    "maxRedeem(address)": "d905777e",
    "maxWithdraw(address)": "ce96cb77",
    "mint(uint256,address)": "94bf804d",
    "name()": "06fdde03",
    "oneInchToken()": "99c03951",
    "powerPod()": "f9b86ed4",
    "previewDeposit(uint256)": "ef8b30f7",
    "previewMint(uint256)": "b3d7f6b9",
    "previewRedeem(uint256)": "4cdad506",
    "previewWithdraw(uint256)": "0a28a477",
    "redeem(uint256,address,address)": "ba087652",
    "resolverFarmingPod()": "bf5d6d3e",
    "setBalancerPoolAndInit(address,uint256[])": "d62490be",
    "stake1inch()": "e2515745",
    "symbol()": "95d89b41",
    "totalAssets()": "01e1d114",
    "totalStaked()": "817b1cd2",
    "totalSupply()": "18160ddd",
    "transfer(address,uint256)": "a9059cbb",
    "transferFrom(address,address,uint256)": "23b872dd",
    "vaultStarted()": "cee73a76",
    "withdraw(uint256,address,address)": "b460af94"
  },
  "id": 0
}