{
  "abi": [
    {
      "inputs": [],
      "stateMutability": "nonpayable",
      "type": "constructor"
    },
    {
      "anonymous": false,
      "inputs": [
        {
          "indexed": true,
          "internalType": "address",
          "name": "owner",
          "type": "address"
        },
        {
          "indexed": true,
          "internalType": "address",
          "name": "spender",
          "type": "address"
        },
        {
          "indexed": false,
          "internalType": "uint256",
          "name": "value",
          "type": "uint256"
        }
      ],
      "name": "Approval",
      "type": "event"
    },
    {
      "anonymous": false,
      "inputs": [
        {
          "indexed": true,
          "internalType": "address",
          "name": "sender",
          "type": "address"
        },
        {
          "indexed": true,
          "internalType": "address",
          "name": "owner",
          "type": "address"
        },
        {
          "indexed": false,
          "internalType": "uint256",
          "name": "assets",
          "type": "uint256"
        },
        {
          "indexed": false,
          "internalType": "uint256",
          "name": "shares",
          "type": "uint256"
        }
      ],
      "name": "Deposit",
      "type": "event"
    },
    {
      "anonymous": false,
      "inputs": [
        {
          "indexed": true,
          "internalType": "address",
          "name": "from",
          "type": "address"
        },
        {
          "indexed": true,
          "internalType": "address",
          "name": "to",
          "type": "address"
        },
        {
          "indexed": false,
          "internalType": "uint256",
          "name": "value",
          "type": "uint256"
        }
      ],
      "name": "Transfer",
      "type": "event"
    },
    {
      "anonymous": false,
      "inputs": [
        {
          "indexed": true,
          "internalType": "address",
          "name": "sender",
          "type": "address"
        },
        {
          "indexed": true,
          "internalType": "address",
          "name": "receiver",
          "type": "address"
        },
        {
          "indexed": true,
          "internalType": "address",
          "name": "owner",
          "type": "address"
        },
        {
          "indexed": false,
          "internalType": "uint256",
          "name": "assets",
          "type": "uint256"
        },
        {
          "indexed": false,
          "internalType": "uint256",
          "name": "shares",
          "type": "uint256"
        }
      ],
      "name": "Withdraw",
      "type": "event"
    },
    {
      "inputs": [
        {
          "internalType": "address",
          "name": "owner",
          "type": "address"
        },
        {
          "internalType": "address",
          "name": "spender",
          "type": "address"
        }
      ],
      "name": "allowance",
      "outputs": [
        {
          "internalType": "uint256",
          "name": "",
          "type": "uint256"
        }
      ],
      "stateMutability": "view",
      "type": "function"
    },
    {
      "inputs": [
        {
          "internalType": "address",
          "name": "spender",
          "type": "address"
        },
        {
          "internalType": "uint256",
          "name": "amount",
          "type": "uint256"
        }
      ],
      "name": "approve",
      "outputs": [
        {
          "internalType": "bool",
          "name": "",
          "type": "bool"
        }
      ],
      "stateMutability": "nonpayable",
      "type": "function"
    },
    {
      "inputs": [],
      "name": "asset",
      "outputs": [
        {
          "internalType": "address",
          "name": "",
          "type": "address"
        }
      ],
      "stateMutability": "view",
      "type": "function"
    },
    {
      "inputs": [
        {
          "internalType": "address",
          "name": "account",
          "type": "address"
        }
      ],
      "name": "balanceOf",
      "outputs": [
        {
          "internalType": "uint256",
          "name": "",
          "type": "uint256"
        }
      ],
      "stateMutability": "view",
      "type": "function"
    },
    {
      "inputs": [],
      "name": "balancerPool",
      "outputs": [
        {
          "internalType": "address",
          "name": "",
          "type": "address"
        }
      ],
      "stateMutability": "view",
      "type": "function"
    },
    {
      "inputs": [],
      "name": "balancerPoolCreationHelper",
      "outputs": [
        {
          "internalType": "address",
          "name": "",
          "type": "address"
        }
      ],
      "stateMutability": "view",
      "type": "function"
    },
    {
      "inputs": [],
      "name": "balancerPoolSet",
      "outputs": [
        {
          "internalType": "bool",
          "name": "",
          "type": "bool"
        }
      ],
      "stateMutability": "view",
      "type": "function"
    },
    {
      "inputs": [],
      "name": "balancerVault",
      "outputs": [
        {
          "internalType": "address",
          "name": "",
          "type": "address"
        }
      ],
      "stateMutability": "view",
      "type": "function"
    },
    {
      "inputs": [],
      "name": "claimRewardsFromDelegate",
      "outputs": [],
      "stateMutability": "nonpayable",
      "type": "function"
    },
    {
      "inputs": [
        {
          "internalType": "uint256",
          "name": "shares",
          "type": "uint256"
        }
      ],
      "name": "convertToAssets",
      "outputs": [
        {
          "internalType": "uint256",
          "name": "assets",
          "type": "uint256"
        }
      ],
      "stateMutability": "view",
      "type": "function"
    },
    {
      "inputs": [
        {
          "internalType": "uint256",
          "name": "assets",
          "type": "uint256"
        }
      ],
      "name": "convertToShares",
      "outputs": [
        {
          "internalType": "uint256",
          "name": "shares",
          "type": "uint256"
        }
      ],
      "stateMutability": "view",
      "type": "function"
    },
    {
      "inputs": [],
      "name": "decimals",
      "outputs": [
        {
          "internalType": "uint8",
          "name": "",
          "type": "uint8"
        }
      ],
      "stateMutability": "view",
      "type": "function"
    },
    {
      "inputs": [
        {
          "internalType": "address",
          "name": "spender",
          "type": "address"
        },
        {
          "internalType": "uint256",
          "name": "subtractedValue",
          "type": "uint256"
        }
      ],
      "name": "decreaseAllowance",
      "outputs": [
        {
          "internalType": "bool",
          "name": "",
          "type": "bool"
        }
      ],
      "stateMutability": "nonpayable",
      "type": "function"
    },
    {
      "inputs": [],
      "name": "delegatee",
      "outputs": [
        {
          "internalType": "address",
          "name": "",
          "type": "address"
        }
      ],
      "stateMutability": "view",
      "type": "function"
    },
    {
      "inputs": [
        {
          "internalType": "uint256",
          "name": "assets",
          "type": "uint256"
        },
        {
          "internalType": "address",
          "name": "receiver",
          "type": "address"
        }
      ],
      "name": "deposit",
      "outputs": [
        {
          "internalType": "uint256",
          "name": "",
          "type": "uint256"
        }
      ],
      "stateMutability": "nonpayable",
      "type": "function"
    },
    {
      "inputs": [],
      "name": "endTime",
      "outputs": [
        {
          "internalType": "uint256",
          "name": "",
          "type": "uint256"
        }
      ],
      "stateMutability": "view",
      "type": "function"
    },
    {
      "inputs": [
        {
          "internalType": "address",
          "name": "spender",
          "type": "address"
        },
        {
          "internalType": "uint256",
          "name": "addedValue",
          "type": "uint256"
        }
      ],
      "name": "increaseAllowance",
      "outputs": [
        {
          "internalType": "bool",
          "name": "",
          "type": "bool"
        }
      ],
      "stateMutability": "nonpayable",
      "type": "function"
    },
    {
      "inputs": [
        {
          "internalType": "uint256[]",
          "name": "amounts",
          "type": "uint256[]"
        }
      ],
      "name": "initBalancerPool",
      "outputs": [],
      "stateMutability": "nonpayable",
      "type": "function"
    },
    {
      "inputs": [],
      "name": "lastUpdateEndTime",
      "outputs": [
        {
          "internalType": "uint256",
          "name": "",
          "type": "uint256"
        }
      ],
      "stateMutability": "view",
      "type": "function"
    },
    {
      "inputs": [
        {
          "internalType": "address",
          "name": "",
          "type": "address"
        }
      ],
      "name": "maxDeposit",
      "outputs": [
        {
          "internalType": "uint256",
          "name": "",
          "type": "uint256"
        }
      ],
      "stateMutability": "view",
      "type": "function"
    },
    {
      "inputs": [
        {
          "internalType": "address",
          "name": "",
          "type": "address"
        }
      ],
      "name": "maxMint",
      "outputs": [
        {
          "internalType": "uint256",
          "name": "",
          "type": "uint256"
        }
      ],
      "stateMutability": "view",
      "type": "function"
    },
    {
      "inputs": [
        {
          "internalType": "address",
          "name": "owner",
          "type": "address"
        }
      ],
      "name": "maxRedeem",
      "outputs": [
        {
          "internalType": "uint256",
          "name": "",
          "type": "uint256"
        }
      ],
      "stateMutability": "view",
      "type": "function"
    },
    {
      "inputs": [
        {
          "internalType": "address",
          "name": "owner",
          "type": "address"
        }
      ],
      "name": "maxWithdraw",
      "outputs": [
        {
          "internalType": "uint256",
          "name": "",
          "type": "uint256"
        }
      ],
      "stateMutability": "view",
      "type": "function"
    },
    {
      "inputs": [
        {
          "internalType": "uint256",
          "name": "shares",
          "type": "uint256"
        },
        {
          "internalType": "address",
          "name": "receiver",
          "type": "address"
        }
      ],
      "name": "mint",
      "outputs": [
        {
          "internalType": "uint256",
          "name": "",
          "type": "uint256"
        }
      ],
      "stateMutability": "nonpayable",
      "type": "function"
    },
    {
      "inputs": [],
      "name": "name",
      "outputs": [
        {
          "internalType": "string",
          "name": "",
          "type": "string"
        }
      ],
      "stateMutability": "view",
      "type": "function"
    },
    {
      "inputs": [],
      "name": "oneInchToken",
      "outputs": [
        {
          "internalType": "contract IERC20",
          "name": "",
          "type": "address"
        }
      ],
      "stateMutability": "view",
      "type": "function"
    },
    {
      "inputs": [],
      "name": "poolInitialDeposit1UP",
      "outputs": [
        {
          "internalType": "uint256",
          "name": "",
          "type": "uint256"
        }
      ],
      "stateMutability": "view",
      "type": "function"
    },
    {
      "inputs": [],
      "name": "poolInitialized",
      "outputs": [
        {
          "internalType": "bool",
          "name": "",
          "type": "bool"
        }
      ],
      "stateMutability": "view",
      "type": "function"
    },
    {
      "inputs": [],
      "name": "powerPod",
      "outputs": [
        {
          "internalType": "address",
          "name": "",
          "type": "address"
        }
      ],
      "stateMutability": "view",
      "type": "function"
    },
    {
      "inputs": [
        {
          "internalType": "uint256",
          "name": "assets",
          "type": "uint256"
        }
      ],
      "name": "previewDeposit",
      "outputs": [
        {
          "internalType": "uint256",
          "name": "",
          "type": "uint256"
        }
      ],
      "stateMutability": "view",
      "type": "function"
    },
    {
      "inputs": [
        {
          "internalType": "uint256",
          "name": "shares",
          "type": "uint256"
        }
      ],
      "name": "previewMint",
      "outputs": [
        {
          "internalType": "uint256",
          "name": "",
          "type": "uint256"
        }
      ],
      "stateMutability": "view",
      "type": "function"
    },
    {
      "inputs": [
        {
          "internalType": "uint256",
          "name": "shares",
          "type": "uint256"
        }
      ],
      "name": "previewRedeem",
      "outputs": [
        {
          "internalType": "uint256",
          "name": "",
          "type": "uint256"
        }
      ],
      "stateMutability": "view",
      "type": "function"
    },
    {
      "inputs": [
        {
          "internalType": "uint256",
          "name": "assets",
          "type": "uint256"
        }
      ],
      "name": "previewWithdraw",
      "outputs": [
        {
          "internalType": "uint256",
          "name": "",
          "type": "uint256"
        }
      ],
      "stateMutability": "view",
      "type": "function"
    },
    {
      "inputs": [
        {
          "internalType": "uint256",
          "name": "shares",
          "type": "uint256"
        },
        {
          "internalType": "address",
          "name": "receiver",
          "type": "address"
        },
        {
          "internalType": "address",
          "name": "owner",
          "type": "address"
        }
      ],
      "name": "redeem",
      "outputs": [
        {
          "internalType": "uint256",
          "name": "",
          "type": "uint256"
        }
      ],
      "stateMutability": "nonpayable",
      "type": "function"
    },
    {
      "inputs": [],
      "name": "resolverFarmingPod",
      "outputs": [
        {
          "internalType": "address",
          "name": "",
          "type": "address"
        }
      ],
      "stateMutability": "view",
      "type": "function"
    },
    {
      "inputs": [
        {
          "internalType": "address",
          "name": "_balancerPool",
          "type": "address"
        }
      ],
      "name": "setBalancerPool",
      "outputs": [],
      "stateMutability": "nonpayable",
      "type": "function"
    },
    {
      "inputs": [],
      "name": "stake1inch",
      "outputs": [
        {
          "internalType": "address",
          "name": "",
          "type": "address"
        }
      ],
      "stateMutability": "view",
      "type": "function"
    },
    {
      "inputs": [],
      "name": "symbol",
      "outputs": [
        {
          "internalType": "string",
          "name": "",
          "type": "string"
        }
      ],
      "stateMutability": "view",
      "type": "function"
    },
    {
      "inputs": [],
      "name": "totalAssets",
      "outputs": [
        {
          "internalType": "uint256",
          "name": "",
          "type": "uint256"
        }
      ],
      "stateMutability": "view",
      "type": "function"
    },
    {
      "inputs": [],
      "name": "totalStaked",
      "outputs": [
        {
          "internalType": "uint256",
          "name": "",
          "type": "uint256"
        }
      ],
      "stateMutability": "view",
      "type": "function"
    },
    {
      "inputs": [],
      "name": "totalSupply",
      "outputs": [
        {
          "internalType": "uint256",
          "name": "",
          "type": "uint256"
        }
      ],
      "stateMutability": "view",
      "type": "function"
    },
    {
      "inputs": [
        {
          "internalType": "address",
          "name": "to",
          "type": "address"
        },
        {
          "internalType": "uint256",
          "name": "amount",
          "type": "uint256"
        }
      ],
      "name": "transfer",
      "outputs": [
        {
          "internalType": "bool",
          "name": "",
          "type": "bool"
        }
      ],
      "stateMutability": "nonpayable",
      "type": "function"
    },
    {
      "inputs": [
        {
          "internalType": "address",
          "name": "from",
          "type": "address"
        },
        {
          "internalType": "address",
          "name": "to",
          "type": "address"
        },
        {
          "internalType": "uint256",
          "name": "amount",
          "type": "uint256"
        }
      ],
      "name": "transferFrom",
      "outputs": [
        {
          "internalType": "bool",
          "name": "",
          "type": "bool"
        }
      ],
      "stateMutability": "nonpayable",
      "type": "function"
    },
    {
      "inputs": [],
      "name": "vaultStarted",
      "outputs": [
        {
          "internalType": "bool",
          "name": "",
          "type": "bool"
        }
      ],
      "stateMutability": "view",
      "type": "function"
    },
    {
      "inputs": [
        {
          "internalType": "uint256",
          "name": "assets",
          "type": "uint256"
        },
        {
          "internalType": "address",
          "name": "receiver",
          "type": "address"
        },
        {
          "internalType": "address",
          "name": "owner",
          "type": "address"
        }
      ],
      "name": "withdraw",
      "outputs": [
        {
          "internalType": "uint256",
          "name": "",
          "type": "uint256"
        }
      ],
      "stateMutability": "nonpayable",
      "type": "function"
    }
  ],
  "bytecode": {
    "object": "0x61018060405273111111111117dc0aa78b770fa6a738034120c30260c052739a0c8ff858d273f57072d714bca7411d717501d760e05273accfac2339e16dc80c50d2fa81b5c2b049b4f94761010052737e78a8337194c06314300d030d41eb31ed299c396101205273a289a03f46f144faadd9fc51b006d7322ecc9b046101405273ba12222222228d8ba445958a75a0704d566bf2c861016052348015620000a657600080fd5b5060c0516040518060400160405280600581526020016406f6e6555560dc1b8152506040518060400160405280600381526020016203155560ec1b8152508160039081620000f59190620002eb565b506004620001048282620002eb565b5050506000806200011b836200015c60201b60201c565b915091508162000140576200013a6200024160201b620018221760201c565b62000142565b805b60ff1660a05250506001600160a01b031660805262000402565b60408051600481526024810182526020810180516001600160e01b031663313ce56760e01b17905290516000918291829182916001600160a01b03871691620001a591620003b7565b600060405180830381855afa9150503d8060008114620001e2576040519150601f19603f3d011682016040523d82523d6000602084013e620001e7565b606091505b5091509150818015620001fc57506020815110155b1562000234576000818060200190518101906200021a9190620003e8565b905060ff811162000232576001969095509350505050565b505b5060009485945092505050565b601290565b634e487b7160e01b600052604160045260246000fd5b600181811c908216806200027157607f821691505b6020821081036200029257634e487b7160e01b600052602260045260246000fd5b50919050565b601f821115620002e657600081815260208120601f850160051c81016020861015620002c15750805b601f850160051c820191505b81811015620002e257828155600101620002cd565b5050505b505050565b81516001600160401b0381111562000307576200030762000246565b6200031f816200031884546200025c565b8462000298565b602080601f8311600181146200035757600084156200033e5750858301515b600019600386901b1c1916600185901b178555620002e2565b600085815260208120601f198616915b82811015620003885788860151825594840194600190910190840162000367565b5085821015620003a75787850151600019600388901b60f8161c191681555b5050505050600190811b01905550565b6000825160005b81811015620003da5760208186018101518583015201620003be565b506000920191825250919050565b600060208284031215620003fb57600080fd5b5051919050565b60805160a05160c05160e05161010051610120516101405161016051612abd620004ed600039600081816103020152818161067d0152818161153001528181611703015261173f0152600081816103fc01528181610f7d01528181610ff50152611062015260008181610569015261139401526000818161063f0152610c3d01526000818161061801528181610b6f0152610bb10152600081816104bd01528181610b4d01528181610dfd01528181610e9201528181610fb9015281816114a101526116d9015260006103780152600081816103ad01528181611bef0152611e340152612abd6000f3fe608060405234801561001057600080fd5b506004361061027f5760003560e01c806395c4728f1161015c578063c3d06a25116100ce578063d3bdef3711610087578063d3bdef37146105e4578063d905777e146105ed578063dd62ed3e14610600578063e251574514610613578063ef8b30f7146105a9578063f9b86ed41461063a57600080fd5b8063c3d06a251461058b578063c63d75b614610594578063c6e6f592146105a9578063c7c90d61146105bc578063ce96cb77146105c4578063cee73a76146105d757600080fd5b8063a9059cbb11610120578063a9059cbb14610505578063b3d7f6b914610518578063b460af941461052b578063b98ad2551461053e578063ba08765214610551578063bf5d6d3e1461056457600080fd5b806395c4728f1461049e57806395d89b41146104b057806399c03951146104b8578063a457c2d7146104df578063a88b68b4146104f257600080fd5b806338d52e0f116101f55780636e553f65116101b95780636e553f651461041e57806370a082311461043157806372f450511461045a578063776da4701461046f578063817b1cd21461048257806394bf804d1461048b57600080fd5b806338d52e0f146103ab57806339509351146103d1578063402d267d146103e45780634cdad506146102b457806368753753146103f757600080fd5b8063158274a511610247578063158274a5146102fd57806318160ddd1461033c5780631e31d0531461034457806323b872dd1461035e578063313ce567146103715780633197cbb6146103a257600080fd5b806301e1d1141461028457806306fdde031461029f57806307a2d13a146102b4578063095ea7b3146102c75780630a28a477146102ea575b600080fd5b61028c610661565b6040519081526020015b60405180910390f35b6102a76108df565b6040516102969190612433565b61028c6102c2366004612446565b610971565b6102da6102d5366004612477565b610984565b6040519015158152602001610296565b61028c6102f8366004612446565b61099c565b6103247f000000000000000000000000000000000000000000000000000000000000000081565b6040516001600160a01b039091168152602001610296565b60025461028c565b60055461032490630100000090046001600160a01b031681565b6102da61036c3660046124a3565b6109a9565b60405160ff7f0000000000000000000000000000000000000000000000000000000000000000168152602001610296565b61028c60075481565b7f0000000000000000000000000000000000000000000000000000000000000000610324565b6102da6103df366004612477565b6109cf565b61028c6103f23660046124e4565b6109f1565b6103247f000000000000000000000000000000000000000000000000000000000000000081565b61028c61042c366004612501565b610a0f565b61028c61043f3660046124e4565b6001600160a01b031660009081526020819052604090205490565b61046d61046836600461259c565b610ca4565b005b600654610324906001600160a01b031681565b61028c60095481565b61028c610499366004612501565b6110d5565b6005546102da90610100900460ff1681565b6102a76110ef565b6103247f000000000000000000000000000000000000000000000000000000000000000081565b6102da6104ed366004612477565b6110fe565b61046d6105003660046124e4565b611184565b6102da610513366004612477565b6111f7565b61028c610526366004612446565b611205565b61028c610539366004612627565b611212565b6005546102da9062010000900460ff1681565b61028c61055f366004612627565b61128e565b6103247f000000000000000000000000000000000000000000000000000000000000000081565b61028c600a5481565b61028c6105a23660046124e4565b5060001990565b61028c6105b7366004612446565b611302565b61046d61130f565b61028c6105d23660046124e4565b6117b5565b6005546102da9060ff1681565b61028c60085481565b61028c6105fb3660046124e4565b6117d9565b61028c61060e366004612669565b6117f7565b6103247f000000000000000000000000000000000000000000000000000000000000000081565b6103247f000000000000000000000000000000000000000000000000000000000000000081565b60055460009062010000900460ff1615156001036108d85760007f00000000000000000000000000000000000000000000000000000000000000006001600160a01b031663f94d4668600660009054906101000a90046001600160a01b03166001600160a01b03166338fff2d06040518163ffffffff1660e01b8152600401602060405180830381865afa1580156106fd573d6000803e3d6000fd5b505050506040513d601f19601f820116820180604052508101906107219190612697565b6040518263ffffffff1660e01b815260040161073f91815260200190565b600060405180830381865afa15801561075c573d6000803e3d6000fd5b505050506040513d6000823e601f3d908101601f191682016040526107849190810190612716565b509150506000600660009054906101000a90046001600160a01b03166001600160a01b031663876f303b6040518163ffffffff1660e01b8152600401602060405180830381865afa1580156107dd573d6000803e3d6000fd5b505050506040513d601f19601f820116820180604052508101906108019190612697565b82600181518110610814576108146127e4565b60200260200101518360008151811061082f5761082f6127e4565b60200260200101516108419190612810565b6006546040516370a0823160e01b81523060048201526001600160a01b03909116906370a0823190602401602060405180830381865afa158015610889573d6000803e3d6000fd5b505050506040513d601f19601f820116820180604052508101906108ad9190612697565b6108b79190612823565b6108c19190612850565b9050600954816108d19190612810565b9250505090565b5060095490565b6060600380546108ee90612872565b80601f016020809104026020016040519081016040528092919081815260200182805461091a90612872565b80156109675780601f1061093c57610100808354040283529160200191610967565b820191906000526020600020905b81548152906001019060200180831161094a57829003601f168201915b5050505050905090565b600061097e826000611827565b92915050565b60003361099281858561185a565b5060019392505050565b600061097e82600161197e565b6000336109b78582856119b0565b6109c2858585611a2a565b60019150505b9392505050565b6000336109928185856109e283836117f7565b6109ec9190612810565b61185a565b60006109fb611bce565b610a0657600061097e565b60001992915050565b6000610a1a826109f1565b831115610a6e5760405162461bcd60e51b815260206004820152601e60248201527f455243343632363a206465706f736974206d6f7265207468616e206d6178000060448201526064015b60405180910390fd5b60055460009060ff1615158103610ac75750600580546301000000600160b81b03191676a260f8b7c8f37c2f1bc11b04c19902829de6ac8a0000001790556301e1853e610abb4282612810565b60075542600855610b02565b600854610ad79062278d00612810565b421115610b025762278d0060076000828254610af39190612810565b9091555050426008555062278d005b6005805460ff191660011790556000610b1a85611302565b90508460096000828254610b2e9190612810565b90915550610b40905033858784611bea565b610b946001600160a01b037f0000000000000000000000000000000000000000000000000000000000000000167f000000000000000000000000000000000000000000000000000000000000000087611c7c565b604051631c57762b60e31b815260048101869052602481018390527f00000000000000000000000000000000000000000000000000000000000000006001600160a01b03169063e2bbb15890604401600060405180830381600087803b158015610bfd57600080fd5b505af1158015610c11573d6000803e3d6000fd5b50506005546040516317066a5760e21b815263010000009091046001600160a01b0390811660048301527f0000000000000000000000000000000000000000000000000000000000000000169250635c19a95c9150602401600060405180830381600087803b158015610c8357600080fd5b505af1158015610c97573d6000803e3d6000fd5b5092979650505050505050565b60055462010000900460ff1615610cfd5760405162461bcd60e51b815260206004820181905260248201527f42616c616e63657220706f6f6c20616c726561647920696e7469616c697a65646044820152606401610a65565b683635c9adc5dea0000081600081518110610d1a57610d1a6127e4565b602002602001015110158015610d535750683635c9adc5dea0000081600181518110610d4857610d486127e4565b602002602001015110155b610d965760405162461bcd60e51b8152602060048201526014602482015273696e73756666696369656e7420616d6f756e747360601b6044820152606401610a65565b6005805462ff0000191662010000179055805181906001908110610dbc57610dbc6127e4565b602002602001015160096000828254610dd591906128ac565b90915550610e359050333083600081518110610df357610df36127e4565b60200260200101517f00000000000000000000000000000000000000000000000000000000000000006001600160a01b0316611dc9909392919063ffffffff16565b610e6f333083600181518110610e4d57610e4d6127e4565b6020026020010151306001600160a01b0316611dc9909392919063ffffffff16565b6040805160028082526060820183526000926020830190803683370190505090507f000000000000000000000000000000000000000000000000000000000000000081600081518110610ec457610ec46127e4565b60200260200101906001600160a01b031690816001600160a01b0316815250503081600181518110610ef857610ef86127e4565b6001600160a01b039283166020918202929092018101919091526006546040805163038fff2d60e41b8152905160009492909216926338fff2d0926004808401938290030181865afa158015610f52573d6000803e3d6000fd5b505050506040513d601f19601f82011682018060405250810190610f769190612697565b9050610ff07f000000000000000000000000000000000000000000000000000000000000000084600081518110610faf57610faf6127e4565b60200260200101517f00000000000000000000000000000000000000000000000000000000000000006001600160a01b0316611c7c9092919063ffffffff16565b6110487f000000000000000000000000000000000000000000000000000000000000000084600181518110611027576110276127e4565b6020026020010151306001600160a01b0316611c7c9092919063ffffffff16565b600654604051632af9495960e11b81526001600160a01b037f00000000000000000000000000000000000000000000000000000000000000008116926355f292b29261109e928692169087908990600401612933565b600060405180830381600087803b1580156110b857600080fd5b505af11580156110cc573d6000803e3d6000fd5b50505050505050565b6000806110e184611205565b90506109c833848387611bea565b6060600480546108ee90612872565b6000338161110c82866117f7565b90508381101561116c5760405162461bcd60e51b815260206004820152602560248201527f45524332303a2064656372656173656420616c6c6f77616e63652062656c6f77604482015264207a65726f60d81b6064820152608401610a65565b611179828686840361185a565b506001949350505050565b600554610100900460ff16156111d55760405162461bcd60e51b815260206004820152601660248201527510dd5c9d99481c1bdbdb08185b1c9958591e481cd95d60521b6044820152606401610a65565b600680546001600160a01b0319166001600160a01b0392909216919091179055565b600033610992818585611a2a565b600061097e826001611827565b600061121d826117b5565b84111561126c5760405162461bcd60e51b815260206004820152601f60248201527f455243343632363a207769746864726177206d6f7265207468616e206d6178006044820152606401610a65565b60006112778561099c565b90506112863385858885611e01565b949350505050565b6000611299826117d9565b8411156112e85760405162461bcd60e51b815260206004820152601d60248201527f455243343632363a2072656465656d206d6f7265207468616e206d61780000006044820152606401610a65565b60006112f385610971565b90506112863385858489611e01565b600061097e82600061197e565b60055462010000900460ff1615156001146113925760405162461bcd60e51b815260206004820152603c60248201527f4d616b6520616e20696e697469616c206465706f73697420746f20746865204260448201527f616c616e63657220706f6f6c206265666f726520636c61696d696e67000000006064820152608401610a65565b7f00000000000000000000000000000000000000000000000000000000000000006001600160a01b0316634e71d92d6040518163ffffffff1660e01b8152600401600060405180830381600087803b1580156113ed57600080fd5b505af1158015611401573d6000803e3d6000fd5b505050506000600660009054906101000a90046001600160a01b03166001600160a01b03166338fff2d06040518163ffffffff1660e01b8152600401602060405180830381865afa15801561145a573d6000803e3d6000fd5b505050506040513d601f19601f8201168201806040525081019061147e9190612697565b6040516370a0823160e01b81523060048201529091506000906001600160a01b037f000000000000000000000000000000000000000000000000000000000000000016906370a0823190602401602060405180830381865afa1580156114e8573d6000803e3d6000fd5b505050506040513d601f19601f8201168201806040525081019061150c9190612697565b604051631f29a8cd60e31b8152600481018490529091506000906001600160a01b037f0000000000000000000000000000000000000000000000000000000000000000169063f94d466890602401600060405180830381865afa158015611577573d6000803e3d6000fd5b505050506040513d6000823e601f3d908101601f1916820160405261159f9190810190612716565b505060408051600380825260808201909252919250600091906020820160608036833701905050905082816000815181106115dc576115dc6127e4565b6020026020010181815250506000816001815181106115fd576115fd6127e4565b60200260200101818152505060008160028151811061161e5761161e6127e4565b6020908102919091010152604080516002808252606082019092526000918160200160208202803683370190505090508382600081518110611662576116626127e4565b602002602001018181525050600082600181518110611683576116836127e4565b602002602001018181525050600060018260006040516020016116a89392919061296f565b60408051808303601f19018152608083018252600060608401528683526020830186905290820181905291506117287f00000000000000000000000000000000000000000000000000000000000000006001600160a01b03167f000000000000000000000000000000000000000000000000000000000000000088611c7c565b60405163172b958560e31b81526001600160a01b037f0000000000000000000000000000000000000000000000000000000000000000169063b95cac289061177a908a9030908190879060040161299e565b600060405180830381600087803b15801561179457600080fd5b505af11580156117a8573d6000803e3d6000fd5b5050505050505050505050565b6001600160a01b03811660009081526020819052604081205461097e906000611827565b6001600160a01b03811660009081526020819052604081205461097e565b6001600160a01b03918216600090815260016020908152604080832093909416825291909152205490565b601290565b60008061183360025490565b905080156118545761184f611846610661565b85908386611ec1565b611286565b83611286565b6001600160a01b0383166118bc5760405162461bcd60e51b8152602060048201526024808201527f45524332303a20617070726f76652066726f6d20746865207a65726f206164646044820152637265737360e01b6064820152608401610a65565b6001600160a01b03821661191d5760405162461bcd60e51b815260206004820152602260248201527f45524332303a20617070726f766520746f20746865207a65726f206164647265604482015261737360f01b6064820152608401610a65565b6001600160a01b0383811660008181526001602090815260408083209487168084529482529182902085905590518481527f8c5be1e5ebec7d5bd14f71427d1e84f3dd0314c0f7b2291e5b200ac8c7c3b925910160405180910390a3505050565b60008061198a60025490565b9050831580611997575080155b6118545761184f816119a7610661565b86919086611ec1565b60006119bc84846117f7565b90506000198114611a245781811015611a175760405162461bcd60e51b815260206004820152601d60248201527f45524332303a20696e73756666696369656e7420616c6c6f77616e63650000006044820152606401610a65565b611a24848484840361185a565b50505050565b6001600160a01b038316611a8e5760405162461bcd60e51b815260206004820152602560248201527f45524332303a207472616e736665722066726f6d20746865207a65726f206164604482015264647265737360d81b6064820152608401610a65565b6001600160a01b038216611af05760405162461bcd60e51b815260206004820152602360248201527f45524332303a207472616e7366657220746f20746865207a65726f206164647260448201526265737360e81b6064820152608401610a65565b6001600160a01b03831660009081526020819052604090205481811015611b685760405162461bcd60e51b815260206004820152602660248201527f45524332303a207472616e7366657220616d6f756e7420657863656564732062604482015265616c616e636560d01b6064820152608401610a65565b6001600160a01b03848116600081815260208181526040808320878703905593871680835291849020805487019055925185815290927fddf252ad1be2c89b69c2b068fc378daa952ba7f163c4a11628f55a4df523b3ef910160405180910390a3611a24565b600080611bd9610661565b1180611be55750600254155b905090565b611c167f0000000000000000000000000000000000000000000000000000000000000000853085611dc9565b611c208382611f1e565b826001600160a01b0316846001600160a01b03167fdcbc1c05240f31ff3ad067ef1ee35ce4997762752e3a095284754544f4c709d78484604051611c6e929190918252602082015260400190565b60405180910390a350505050565b801580611cf65750604051636eb1769f60e11b81523060048201526001600160a01b03838116602483015284169063dd62ed3e90604401602060405180830381865afa158015611cd0573d6000803e3d6000fd5b505050506040513d601f19601f82011682018060405250810190611cf49190612697565b155b611d615760405162461bcd60e51b815260206004820152603660248201527f5361666545524332303a20617070726f76652066726f6d206e6f6e2d7a65726f60448201527520746f206e6f6e2d7a65726f20616c6c6f77616e636560501b6064820152608401610a65565b6040516001600160a01b038316602482015260448101829052611dc490849063095ea7b360e01b906064015b60408051601f198184030181529190526020810180516001600160e01b03166001600160e01b031990931692909217909152611fdd565b505050565b6040516001600160a01b0380851660248301528316604482015260648101829052611a249085906323b872dd60e01b90608401611d8d565b826001600160a01b0316856001600160a01b031614611e2557611e258386836119b0565b611e2f83826120af565b611e5a7f000000000000000000000000000000000000000000000000000000000000000085846121e1565b826001600160a01b0316846001600160a01b0316866001600160a01b03167ffbde797d201c681b91056529119e0b02407c7bb96a4a2c75c01fc9667232c8db8585604051611eb2929190918252602082015260400190565b60405180910390a45050505050565b600080611ecf868686612211565b90506001836002811115611ee557611ee5612a33565b148015611f02575060008480611efd57611efd61283a565b868809115b15611f1557611f12600182612810565b90505b95945050505050565b6001600160a01b038216611f745760405162461bcd60e51b815260206004820152601f60248201527f45524332303a206d696e7420746f20746865207a65726f2061646472657373006044820152606401610a65565b8060026000828254611f869190612810565b90915550506001600160a01b038216600081815260208181526040808320805486019055518481527fddf252ad1be2c89b69c2b068fc378daa952ba7f163c4a11628f55a4df523b3ef910160405180910390a35050565b6000612032826040518060400160405280602081526020017f5361666545524332303a206c6f772d6c6576656c2063616c6c206661696c6564815250856001600160a01b03166122c09092919063ffffffff16565b805190915015611dc457808060200190518101906120509190612a49565b611dc45760405162461bcd60e51b815260206004820152602a60248201527f5361666545524332303a204552433230206f7065726174696f6e20646964206e6044820152691bdd081cdd58d8d9595960b21b6064820152608401610a65565b6001600160a01b03821661210f5760405162461bcd60e51b815260206004820152602160248201527f45524332303a206275726e2066726f6d20746865207a65726f206164647265736044820152607360f81b6064820152608401610a65565b6001600160a01b038216600090815260208190526040902054818110156121835760405162461bcd60e51b815260206004820152602260248201527f45524332303a206275726e20616d6f756e7420657863656564732062616c616e604482015261636560f01b6064820152608401610a65565b6001600160a01b0383166000818152602081815260408083208686039055600280548790039055518581529192917fddf252ad1be2c89b69c2b068fc378daa952ba7f163c4a11628f55a4df523b3ef910160405180910390a3505050565b6040516001600160a01b038316602482015260448101829052611dc490849063a9059cbb60e01b90606401611d8d565b600080806000198587098587029250828110838203039150508060000361224b578382816122415761224161283a565b04925050506109c8565b80841161225757600080fd5b60008486880960026001871981018816978890046003810283188082028403028082028403028082028403028082028403028082028403029081029092039091026000889003889004909101858311909403939093029303949094049190911702949350505050565b6060611286848460008585600080866001600160a01b031685876040516122e79190612a6b565b60006040518083038185875af1925050503d8060008114612324576040519150601f19603f3d011682016040523d82523d6000602084013e612329565b606091505b509150915061233a87838387612345565b979650505050505050565b606083156123b45782516000036123ad576001600160a01b0385163b6123ad5760405162461bcd60e51b815260206004820152601d60248201527f416464726573733a2063616c6c20746f206e6f6e2d636f6e74726163740000006044820152606401610a65565b5081611286565b61128683838151156123c95781518083602001fd5b8060405162461bcd60e51b8152600401610a659190612433565b60005b838110156123fe5781810151838201526020016123e6565b50506000910152565b6000815180845261241f8160208601602086016123e3565b601f01601f19169290920160200192915050565b6020815260006109c86020830184612407565b60006020828403121561245857600080fd5b5035919050565b6001600160a01b038116811461247457600080fd5b50565b6000806040838503121561248a57600080fd5b82356124958161245f565b946020939093013593505050565b6000806000606084860312156124b857600080fd5b83356124c38161245f565b925060208401356124d38161245f565b929592945050506040919091013590565b6000602082840312156124f657600080fd5b81356109c88161245f565b6000806040838503121561251457600080fd5b8235915060208301356125268161245f565b809150509250929050565b634e487b7160e01b600052604160045260246000fd5b604051601f8201601f1916810167ffffffffffffffff8111828210171561257057612570612531565b604052919050565b600067ffffffffffffffff82111561259257612592612531565b5060051b60200190565b600060208083850312156125af57600080fd5b823567ffffffffffffffff8111156125c657600080fd5b8301601f810185136125d757600080fd5b80356125ea6125e582612578565b612547565b81815260059190911b8201830190838101908783111561260957600080fd5b928401925b8284101561233a5783358252928401929084019061260e565b60008060006060848603121561263c57600080fd5b83359250602084013561264e8161245f565b9150604084013561265e8161245f565b809150509250925092565b6000806040838503121561267c57600080fd5b82356126878161245f565b915060208301356125268161245f565b6000602082840312156126a957600080fd5b5051919050565b600082601f8301126126c157600080fd5b815160206126d16125e583612578565b82815260059290921b840181019181810190868411156126f057600080fd5b8286015b8481101561270b57805183529183019183016126f4565b509695505050505050565b60008060006060848603121561272b57600080fd5b835167ffffffffffffffff8082111561274357600080fd5b818601915086601f83011261275757600080fd5b815160206127676125e583612578565b82815260059290921b8401810191818101908a84111561278657600080fd5b948201945b838610156127ad57855161279e8161245f565b8252948201949082019061278b565b918901519197509093505050808211156127c657600080fd5b506127d3868287016126b0565b925050604084015190509250925092565b634e487b7160e01b600052603260045260246000fd5b634e487b7160e01b600052601160045260246000fd5b8082018082111561097e5761097e6127fa565b808202811582820484141761097e5761097e6127fa565b634e487b7160e01b600052601260045260246000fd5b60008261286d57634e487b7160e01b600052601260045260246000fd5b500490565b600181811c9082168061288657607f821691505b6020821081036128a657634e487b7160e01b600052602260045260246000fd5b50919050565b8181038181111561097e5761097e6127fa565b600081518084526020808501945080840160005b838110156128f85781516001600160a01b0316875295820195908201906001016128d3565b509495945050505050565b600081518084526020808501945080840160005b838110156128f857815187529582019590820190600101612917565b8481526001600160a01b038416602082015260806040820181905260009061295d908301856128bf565b828103606084015261233a8185612903565b60ff8416815260606020820152600061298b6060830185612903565b905060ff83166040830152949350505050565b8481526001600160a01b038481166020830152831660408201526080606082018190528251818301919091526000906129db6101008401826128bf565b90506020840151607f19808584030160a08601526129f98383612903565b925060408601519150808584030160c086015250612a178282612407565b9150506060840151151560e08401528091505095945050505050565b634e487b7160e01b600052602160045260246000fd5b600060208284031215612a5b57600080fd5b815180151581146109c857600080fd5b60008251612a7d8184602087016123e3565b919091019291505056fea2646970667358221220429ce290ecb2ac8992081941b0a54fc7521a6c177b9fdb9c52e10fe24d6e91a164736f6c63430008110033",
    "linkReferences": {}
  },
  "methodIdentifiers": {
    "allowance(address,address)": "dd62ed3e",
    "approve(address,uint256)": "095ea7b3",
    "asset()": "38d52e0f",
    "balanceOf(address)": "70a08231",
    "balancerPool()": "776da470",
    "balancerPoolCreationHelper()": "68753753",
    "balancerPoolSet()": "95c4728f",
    "balancerVault()": "158274a5",
    "claimRewardsFromDelegate()": "c7c90d61",
    "convertToAssets(uint256)": "07a2d13a",
    "convertToShares(uint256)": "c6e6f592",
    "decimals()": "313ce567",
    "decreaseAllowance(address,uint256)": "a457c2d7",
    "delegatee()": "1e31d053",
    "deposit(uint256,address)": "6e553f65",
    "endTime()": "3197cbb6",
    "increaseAllowance(address,uint256)": "39509351",
    "initBalancerPool(uint256[])": "72f45051",
    "lastUpdateEndTime()": "d3bdef37",
    "maxDeposit(address)": "402d267d",
    "maxMint(address)": "c63d75b6",
    "maxRedeem(address)": "d905777e",
    "maxWithdraw(address)": "ce96cb77",
    "mint(uint256,address)": "94bf804d",
    "name()": "06fdde03",
    "oneInchToken()": "99c03951",
    "poolInitialDeposit1UP()": "c3d06a25",
    "poolInitialized()": "b98ad255",
    "powerPod()": "f9b86ed4",
    "previewDeposit(uint256)": "ef8b30f7",
    "previewMint(uint256)": "b3d7f6b9",
    "previewRedeem(uint256)": "4cdad506",
    "previewWithdraw(uint256)": "0a28a477",
    "redeem(uint256,address,address)": "ba087652",
    "resolverFarmingPod()": "bf5d6d3e",
    "setBalancerPool(address)": "a88b68b4",
    "stake1inch()": "e2515745",
    "symbol()": "95d89b41",
    "totalAssets()": "01e1d114",
    "totalStaked()": "817b1cd2",
    "totalSupply()": "18160ddd",
    "transfer(address,uint256)": "a9059cbb",
    "transferFrom(address,address,uint256)": "23b872dd",
    "vaultStarted()": "cee73a76",
    "withdraw(uint256,address,address)": "b460af94"
  },
  "id": 0
}