{
  "abi": [
    {
      "inputs": [],
      "stateMutability": "nonpayable",
      "type": "constructor"
    },
    {
      "anonymous": false,
      "inputs": [
        {
          "indexed": true,
          "internalType": "address",
          "name": "owner",
          "type": "address"
        },
        {
          "indexed": true,
          "internalType": "address",
          "name": "spender",
          "type": "address"
        },
        {
          "indexed": false,
          "internalType": "uint256",
          "name": "value",
          "type": "uint256"
        }
      ],
      "name": "Approval",
      "type": "event"
    },
    {
      "anonymous": false,
      "inputs": [
        {
          "indexed": true,
          "internalType": "address",
          "name": "sender",
          "type": "address"
        },
        {
          "indexed": true,
          "internalType": "address",
          "name": "owner",
          "type": "address"
        },
        {
          "indexed": false,
          "internalType": "uint256",
          "name": "assets",
          "type": "uint256"
        },
        {
          "indexed": false,
          "internalType": "uint256",
          "name": "shares",
          "type": "uint256"
        }
      ],
      "name": "Deposit",
      "type": "event"
    },
    {
      "anonymous": false,
      "inputs": [
        {
          "indexed": true,
          "internalType": "address",
          "name": "from",
          "type": "address"
        },
        {
          "indexed": true,
          "internalType": "address",
          "name": "to",
          "type": "address"
        },
        {
          "indexed": false,
          "internalType": "uint256",
          "name": "value",
          "type": "uint256"
        }
      ],
      "name": "Transfer",
      "type": "event"
    },
    {
      "anonymous": false,
      "inputs": [
        {
          "indexed": true,
          "internalType": "address",
          "name": "sender",
          "type": "address"
        },
        {
          "indexed": true,
          "internalType": "address",
          "name": "receiver",
          "type": "address"
        },
        {
          "indexed": true,
          "internalType": "address",
          "name": "owner",
          "type": "address"
        },
        {
          "indexed": false,
          "internalType": "uint256",
          "name": "assets",
          "type": "uint256"
        },
        {
          "indexed": false,
          "internalType": "uint256",
          "name": "shares",
          "type": "uint256"
        }
      ],
      "name": "Withdraw",
      "type": "event"
    },
    {
      "inputs": [
        {
          "internalType": "address",
          "name": "owner",
          "type": "address"
        },
        {
          "internalType": "address",
          "name": "spender",
          "type": "address"
        }
      ],
      "name": "allowance",
      "outputs": [
        {
          "internalType": "uint256",
          "name": "",
          "type": "uint256"
        }
      ],
      "stateMutability": "view",
      "type": "function"
    },
    {
      "inputs": [
        {
          "internalType": "address",
          "name": "spender",
          "type": "address"
        },
        {
          "internalType": "uint256",
          "name": "amount",
          "type": "uint256"
        }
      ],
      "name": "approve",
      "outputs": [
        {
          "internalType": "bool",
          "name": "",
          "type": "bool"
        }
      ],
      "stateMutability": "nonpayable",
      "type": "function"
    },
    {
      "inputs": [],
      "name": "asset",
      "outputs": [
        {
          "internalType": "address",
          "name": "",
          "type": "address"
        }
      ],
      "stateMutability": "view",
      "type": "function"
    },
    {
      "inputs": [
        {
          "internalType": "address",
          "name": "account",
          "type": "address"
        }
      ],
      "name": "balanceOf",
      "outputs": [
        {
          "internalType": "uint256",
          "name": "",
          "type": "uint256"
        }
      ],
      "stateMutability": "view",
      "type": "function"
    },
    {
      "inputs": [],
      "name": "balancerPool",
      "outputs": [
        {
          "internalType": "address",
          "name": "",
          "type": "address"
        }
      ],
      "stateMutability": "view",
      "type": "function"
    },
    {
      "inputs": [],
      "name": "balancerPoolCreationHelper",
      "outputs": [
        {
          "internalType": "address",
          "name": "",
          "type": "address"
        }
      ],
      "stateMutability": "view",
      "type": "function"
    },
    {
      "inputs": [],
      "name": "balancerPoolSet",
      "outputs": [
        {
          "internalType": "bool",
          "name": "",
          "type": "bool"
        }
      ],
      "stateMutability": "view",
      "type": "function"
    },
    {
      "inputs": [],
      "name": "balancerVault",
      "outputs": [
        {
          "internalType": "address",
          "name": "",
          "type": "address"
        }
      ],
      "stateMutability": "view",
      "type": "function"
    },
    {
      "inputs": [],
      "name": "claimRewardsFromDelegate",
      "outputs": [],
      "stateMutability": "nonpayable",
      "type": "function"
    },
    {
      "inputs": [
        {
          "internalType": "uint256",
          "name": "shares",
          "type": "uint256"
        }
      ],
      "name": "convertToAssets",
      "outputs": [
        {
          "internalType": "uint256",
          "name": "assets",
          "type": "uint256"
        }
      ],
      "stateMutability": "view",
      "type": "function"
    },
    {
      "inputs": [
        {
          "internalType": "uint256",
          "name": "assets",
          "type": "uint256"
        }
      ],
      "name": "convertToShares",
      "outputs": [
        {
          "internalType": "uint256",
          "name": "shares",
          "type": "uint256"
        }
      ],
      "stateMutability": "view",
      "type": "function"
    },
    {
      "inputs": [],
      "name": "decimals",
      "outputs": [
        {
          "internalType": "uint8",
          "name": "",
          "type": "uint8"
        }
      ],
      "stateMutability": "view",
      "type": "function"
    },
    {
      "inputs": [
        {
          "internalType": "address",
          "name": "spender",
          "type": "address"
        },
        {
          "internalType": "uint256",
          "name": "subtractedValue",
          "type": "uint256"
        }
      ],
      "name": "decreaseAllowance",
      "outputs": [
        {
          "internalType": "bool",
          "name": "",
          "type": "bool"
        }
      ],
      "stateMutability": "nonpayable",
      "type": "function"
    },
    {
      "inputs": [],
      "name": "delegatee",
      "outputs": [
        {
          "internalType": "address",
          "name": "",
          "type": "address"
        }
      ],
      "stateMutability": "view",
      "type": "function"
    },
    {
      "inputs": [
        {
          "internalType": "uint256",
          "name": "assets",
          "type": "uint256"
        },
        {
          "internalType": "address",
          "name": "receiver",
          "type": "address"
        }
      ],
      "name": "deposit",
      "outputs": [
        {
          "internalType": "uint256",
          "name": "",
          "type": "uint256"
        }
      ],
      "stateMutability": "nonpayable",
      "type": "function"
    },
    {
      "inputs": [],
      "name": "endTime",
      "outputs": [
        {
          "internalType": "uint256",
          "name": "",
          "type": "uint256"
        }
      ],
      "stateMutability": "view",
      "type": "function"
    },
    {
      "inputs": [
        {
          "internalType": "address",
          "name": "spender",
          "type": "address"
        },
        {
          "internalType": "uint256",
          "name": "addedValue",
          "type": "uint256"
        }
      ],
      "name": "increaseAllowance",
      "outputs": [
        {
          "internalType": "bool",
          "name": "",
          "type": "bool"
        }
      ],
      "stateMutability": "nonpayable",
      "type": "function"
    },
    {
      "inputs": [
        {
          "internalType": "uint256[]",
          "name": "amounts",
          "type": "uint256[]"
        }
      ],
      "name": "initBalancerPool",
      "outputs": [],
      "stateMutability": "nonpayable",
      "type": "function"
    },
    {
      "inputs": [],
      "name": "lastUpdateEndTime",
      "outputs": [
        {
          "internalType": "uint256",
          "name": "",
          "type": "uint256"
        }
      ],
      "stateMutability": "view",
      "type": "function"
    },
    {
      "inputs": [
        {
          "internalType": "address",
          "name": "",
          "type": "address"
        }
      ],
      "name": "maxDeposit",
      "outputs": [
        {
          "internalType": "uint256",
          "name": "",
          "type": "uint256"
        }
      ],
      "stateMutability": "view",
      "type": "function"
    },
    {
      "inputs": [
        {
          "internalType": "address",
          "name": "",
          "type": "address"
        }
      ],
      "name": "maxMint",
      "outputs": [
        {
          "internalType": "uint256",
          "name": "",
          "type": "uint256"
        }
      ],
      "stateMutability": "view",
      "type": "function"
    },
    {
      "inputs": [
        {
          "internalType": "address",
          "name": "owner",
          "type": "address"
        }
      ],
      "name": "maxRedeem",
      "outputs": [
        {
          "internalType": "uint256",
          "name": "",
          "type": "uint256"
        }
      ],
      "stateMutability": "view",
      "type": "function"
    },
    {
      "inputs": [
        {
          "internalType": "address",
          "name": "owner",
          "type": "address"
        }
      ],
      "name": "maxWithdraw",
      "outputs": [
        {
          "internalType": "uint256",
          "name": "",
          "type": "uint256"
        }
      ],
      "stateMutability": "view",
      "type": "function"
    },
    {
      "inputs": [
        {
          "internalType": "uint256",
          "name": "shares",
          "type": "uint256"
        },
        {
          "internalType": "address",
          "name": "receiver",
          "type": "address"
        }
      ],
      "name": "mint",
      "outputs": [
        {
          "internalType": "uint256",
          "name": "",
          "type": "uint256"
        }
      ],
      "stateMutability": "nonpayable",
      "type": "function"
    },
    {
      "inputs": [],
      "name": "name",
      "outputs": [
        {
          "internalType": "string",
          "name": "",
          "type": "string"
        }
      ],
      "stateMutability": "view",
      "type": "function"
    },
    {
      "inputs": [],
      "name": "oneInchToken",
      "outputs": [
        {
          "internalType": "contract IERC20",
          "name": "",
          "type": "address"
        }
      ],
      "stateMutability": "view",
      "type": "function"
    },
    {
      "inputs": [],
      "name": "poolInitialized",
      "outputs": [
        {
          "internalType": "bool",
          "name": "",
          "type": "bool"
        }
      ],
      "stateMutability": "view",
      "type": "function"
    },
    {
      "inputs": [],
      "name": "powerPod",
      "outputs": [
        {
          "internalType": "address",
          "name": "",
          "type": "address"
        }
      ],
      "stateMutability": "view",
      "type": "function"
    },
    {
      "inputs": [
        {
          "internalType": "uint256",
          "name": "assets",
          "type": "uint256"
        }
      ],
      "name": "previewDeposit",
      "outputs": [
        {
          "internalType": "uint256",
          "name": "",
          "type": "uint256"
        }
      ],
      "stateMutability": "view",
      "type": "function"
    },
    {
      "inputs": [
        {
          "internalType": "uint256",
          "name": "shares",
          "type": "uint256"
        }
      ],
      "name": "previewMint",
      "outputs": [
        {
          "internalType": "uint256",
          "name": "",
          "type": "uint256"
        }
      ],
      "stateMutability": "view",
      "type": "function"
    },
    {
      "inputs": [
        {
          "internalType": "uint256",
          "name": "shares",
          "type": "uint256"
        }
      ],
      "name": "previewRedeem",
      "outputs": [
        {
          "internalType": "uint256",
          "name": "",
          "type": "uint256"
        }
      ],
      "stateMutability": "view",
      "type": "function"
    },
    {
      "inputs": [
        {
          "internalType": "uint256",
          "name": "assets",
          "type": "uint256"
        }
      ],
      "name": "previewWithdraw",
      "outputs": [
        {
          "internalType": "uint256",
          "name": "",
          "type": "uint256"
        }
      ],
      "stateMutability": "view",
      "type": "function"
    },
    {
      "inputs": [
        {
          "internalType": "uint256",
          "name": "shares",
          "type": "uint256"
        },
        {
          "internalType": "address",
          "name": "receiver",
          "type": "address"
        },
        {
          "internalType": "address",
          "name": "owner",
          "type": "address"
        }
      ],
      "name": "redeem",
      "outputs": [
        {
          "internalType": "uint256",
          "name": "",
          "type": "uint256"
        }
      ],
      "stateMutability": "nonpayable",
      "type": "function"
    },
    {
      "inputs": [],
      "name": "resolverFarmingPod",
      "outputs": [
        {
          "internalType": "address",
          "name": "",
          "type": "address"
        }
      ],
      "stateMutability": "view",
      "type": "function"
    },
    {
      "inputs": [
        {
          "internalType": "address",
          "name": "_balancerPool",
          "type": "address"
        }
      ],
      "name": "setBalancerPool",
      "outputs": [],
      "stateMutability": "nonpayable",
      "type": "function"
    },
    {
      "inputs": [],
      "name": "stake1inch",
      "outputs": [
        {
          "internalType": "address",
          "name": "",
          "type": "address"
        }
      ],
      "stateMutability": "view",
      "type": "function"
    },
    {
      "inputs": [],
      "name": "symbol",
      "outputs": [
        {
          "internalType": "string",
          "name": "",
          "type": "string"
        }
      ],
      "stateMutability": "view",
      "type": "function"
    },
    {
      "inputs": [],
      "name": "totalAssets",
      "outputs": [
        {
          "internalType": "uint256",
          "name": "",
          "type": "uint256"
        }
      ],
      "stateMutability": "view",
      "type": "function"
    },
    {
      "inputs": [],
      "name": "totalStaked",
      "outputs": [
        {
          "internalType": "uint256",
          "name": "",
          "type": "uint256"
        }
      ],
      "stateMutability": "view",
      "type": "function"
    },
    {
      "inputs": [],
      "name": "totalSupply",
      "outputs": [
        {
          "internalType": "uint256",
          "name": "",
          "type": "uint256"
        }
      ],
      "stateMutability": "view",
      "type": "function"
    },
    {
      "inputs": [
        {
          "internalType": "address",
          "name": "to",
          "type": "address"
        },
        {
          "internalType": "uint256",
          "name": "amount",
          "type": "uint256"
        }
      ],
      "name": "transfer",
      "outputs": [
        {
          "internalType": "bool",
          "name": "",
          "type": "bool"
        }
      ],
      "stateMutability": "nonpayable",
      "type": "function"
    },
    {
      "inputs": [
        {
          "internalType": "address",
          "name": "from",
          "type": "address"
        },
        {
          "internalType": "address",
          "name": "to",
          "type": "address"
        },
        {
          "internalType": "uint256",
          "name": "amount",
          "type": "uint256"
        }
      ],
      "name": "transferFrom",
      "outputs": [
        {
          "internalType": "bool",
          "name": "",
          "type": "bool"
        }
      ],
      "stateMutability": "nonpayable",
      "type": "function"
    },
    {
      "inputs": [],
      "name": "vaultStarted",
      "outputs": [
        {
          "internalType": "bool",
          "name": "",
          "type": "bool"
        }
      ],
      "stateMutability": "view",
      "type": "function"
    },
    {
      "inputs": [
        {
          "internalType": "uint256",
          "name": "assets",
          "type": "uint256"
        },
        {
          "internalType": "address",
          "name": "receiver",
          "type": "address"
        },
        {
          "internalType": "address",
          "name": "owner",
          "type": "address"
        }
      ],
      "name": "withdraw",
      "outputs": [
        {
          "internalType": "uint256",
          "name": "",
          "type": "uint256"
        }
      ],
      "stateMutability": "nonpayable",
      "type": "function"
    }
  ],
  "bytecode": {
    "object": "0x61018060405273111111111117dc0aa78b770fa6a738034120c30260c052739a0c8ff858d273f57072d714bca7411d717501d760e05273accfac2339e16dc80c50d2fa81b5c2b049b4f94761010052737e78a8337194c06314300d030d41eb31ed299c396101205273a289a03f46f144faadd9fc51b006d7322ecc9b046101405273ba12222222228d8ba445958a75a0704d566bf2c861016052348015620000a657600080fd5b5060c0516040518060400160405280600581526020016406f6e6555560dc1b8152506040518060400160405280600381526020016203155560ec1b8152508160039081620000f59190620002eb565b506004620001048282620002eb565b5050506000806200011b836200015c60201b60201c565b915091508162000140576200013a6200024160201b620011ac1760201c565b62000142565b805b60ff1660a05250506001600160a01b031660805262000402565b60408051600481526024810182526020810180516001600160e01b031663313ce56760e01b17905290516000918291829182916001600160a01b03871691620001a591620003b7565b600060405180830381855afa9150503d8060008114620001e2576040519150601f19603f3d011682016040523d82523d6000602084013e620001e7565b606091505b5091509150818015620001fc57506020815110155b1562000234576000818060200190518101906200021a9190620003e8565b905060ff811162000232576001969095509350505050565b505b5060009485945092505050565b601290565b634e487b7160e01b600052604160045260246000fd5b600181811c908216806200027157607f821691505b6020821081036200029257634e487b7160e01b600052602260045260246000fd5b50919050565b601f821115620002e657600081815260208120601f850160051c81016020861015620002c15750805b601f850160051c820191505b81811015620002e257828155600101620002cd565b5050505b505050565b81516001600160401b0381111562000307576200030762000246565b6200031f816200031884546200025c565b8462000298565b602080601f8311600181146200035757600084156200033e5750858301515b600019600386901b1c1916600185901b178555620002e2565b600085815260208120601f198616915b82811015620003885788860151825594840194600190910190840162000367565b5085821015620003a75787850151600019600388901b60f8161c191681555b5050505050600190811b01905550565b6000825160005b81811015620003da5760208186018101518583015201620003be565b506000920191825250919050565b600060208284031215620003fb57600080fd5b5051919050565b60805160a05160c05160e0516101005161012051610140516101605161219d620004c360003960006102f70152600081816103f101528181610d3801528181610db00152610e1d01526000818161055e01526110cc01526000818161062b0152610a250152600081816106040152818161095701526109990152600081816104b20152818161093501528181610bb701528181610c4c0152610d740152600061036d0152600081816103a20152818161157301526117b8015261219d6000f3fe608060405234801561001057600080fd5b50600436106102745760003560e01c806395c4728f11610151578063c63d75b6116100c3578063d3bdef3711610087578063d3bdef37146105d0578063d905777e146105d9578063dd62ed3e146105ec578063e2515745146105ff578063ef8b30f714610595578063f9b86ed41461062657600080fd5b8063c63d75b614610580578063c6e6f59214610595578063c7c90d61146105a8578063ce96cb77146105b0578063cee73a76146105c357600080fd5b8063a9059cbb11610115578063a9059cbb146104fa578063b3d7f6b91461050d578063b460af9414610520578063b98ad25514610533578063ba08765214610546578063bf5d6d3e1461055957600080fd5b806395c4728f1461049357806395d89b41146104a557806399c03951146104ad578063a457c2d7146104d4578063a88b68b4146104e757600080fd5b806338d52e0f116101ea5780636e553f65116101ae5780636e553f651461041357806370a082311461042657806372f450511461044f578063776da47014610464578063817b1cd21461047757806394bf804d1461048057600080fd5b806338d52e0f146103a057806339509351146103c6578063402d267d146103d95780634cdad506146102a957806368753753146103ec57600080fd5b8063158274a51161023c578063158274a5146102f257806318160ddd146103315780631e31d0531461033957806323b872dd14610353578063313ce567146103665780633197cbb61461039757600080fd5b806301e1d1141461027957806306fdde031461029457806307a2d13a146102a9578063095ea7b3146102bc5780630a28a477146102df575b600080fd5b61028161064d565b6040519081526020015b60405180910390f35b61029c6106d4565b60405161028b9190611d8b565b6102816102b7366004611dbe565b610766565b6102cf6102ca366004611df3565b610779565b604051901515815260200161028b565b6102816102ed366004611dbe565b610791565b6103197f000000000000000000000000000000000000000000000000000000000000000081565b6040516001600160a01b03909116815260200161028b565b600254610281565b60055461031990630100000090046001600160a01b031681565b6102cf610361366004611e1d565b61079e565b60405160ff7f000000000000000000000000000000000000000000000000000000000000000016815260200161028b565b61028160075481565b7f0000000000000000000000000000000000000000000000000000000000000000610319565b6102cf6103d4366004611df3565b6107c4565b6102816103e7366004611e59565b6107e6565b6103197f000000000000000000000000000000000000000000000000000000000000000081565b610281610421366004611e74565b610804565b610281610434366004611e59565b6001600160a01b031660009081526020819052604090205490565b61046261045d366004611eb6565b610a8c565b005b600654610319906001600160a01b031681565b61028160095481565b61028161048e366004611e74565b610e90565b6005546102cf90610100900460ff1681565b61029c610eaa565b6103197f000000000000000000000000000000000000000000000000000000000000000081565b6102cf6104e2366004611df3565b610eb9565b6104626104f5366004611e59565b610f3f565b6102cf610508366004611df3565b610fb2565b61028161051b366004611dbe565b610fc0565b61028161052e366004611f74565b610fcd565b6005546102cf9062010000900460ff1681565b610281610554366004611f74565b611049565b6103197f000000000000000000000000000000000000000000000000000000000000000081565b61028161058e366004611e59565b5060001990565b6102816105a3366004611dbe565b6110bd565b6104626110ca565b6102816105be366004611e59565b61113f565b6005546102cf9060ff1681565b61028160085481565b6102816105e7366004611e59565b611163565b6102816105fa366004611fb0565b611181565b6103197f000000000000000000000000000000000000000000000000000000000000000081565b6103197f000000000000000000000000000000000000000000000000000000000000000081565b6006546040516370a0823160e01b815230600482015260009182916001600160a01b03909116906370a0823190602401602060405180830381865afa15801561069a573d6000803e3d6000fd5b505050506040513d601f19601f820116820180604052508101906106be9190611fda565b9050600954816106ce9190611ff3565b91505090565b6060600380546106e390612014565b80601f016020809104026020016040519081016040528092919081815260200182805461070f90612014565b801561075c5780601f106107315761010080835404028352916020019161075c565b820191906000526020600020905b81548152906001019060200180831161073f57829003601f168201915b5050505050905090565b60006107738260006111b1565b92915050565b6000336107878185856111e4565b5060019392505050565b6000610773826001611308565b6000336107ac85828561133a565b6107b78585856113ae565b60019150505b9392505050565b6000336107878185856107d78383611181565b6107e19190611ff3565b6111e4565b60006107f0611552565b6107fb576000610773565b60001992915050565b600061080f826107e6565b8311156108635760405162461bcd60e51b815260206004820152601e60248201527f455243343632363a206465706f736974206d6f7265207468616e206d6178000060448201526064015b60405180910390fd5b60055460009060ff16151581036108bc5750600580546301000000600160b81b03191676a260f8b7c8f37c2f1bc11b04c19902829de6ac8a0000001790556301e1853e6108b04282611ff3565b600755426008556108f7565b6008546108cc9062278d00611ff3565b4211156108f75762278d00600760008282546108e89190611ff3565b9091555050426008555062278d005b6000610902856110bd565b905084600960008282546109169190611ff3565b9091555061092890503385878461156e565b61097c6001600160a01b037f0000000000000000000000000000000000000000000000000000000000000000167f000000000000000000000000000000000000000000000000000000000000000087611600565b604051631c57762b60e31b815260048101869052602481018390527f00000000000000000000000000000000000000000000000000000000000000006001600160a01b03169063e2bbb15890604401600060405180830381600087803b1580156109e557600080fd5b505af11580156109f9573d6000803e3d6000fd5b50506005546040516317066a5760e21b815263010000009091046001600160a01b0390811660048301527f0000000000000000000000000000000000000000000000000000000000000000169250635c19a95c9150602401600060405180830381600087803b158015610a6b57600080fd5b505af1158015610a7f573d6000803e3d6000fd5b5092979650505050505050565b60055462010000900460ff1615610ae55760405162461bcd60e51b815260206004820181905260248201527f42616c616e63657220706f6f6c20616c726561647920696e7469616c697a6564604482015260640161085a565b683635c9adc5dea0000081600081518110610b0257610b0261204e565b602002602001015110158015610b3b5750683635c9adc5dea0000081600181518110610b3057610b3061204e565b602002602001015110155b610b7e5760405162461bcd60e51b8152602060048201526014602482015273696e73756666696369656e7420616d6f756e747360601b604482015260640161085a565b6005805462ff0000191662010000179055610bef610b993390565b3083600081518110610bad57610bad61204e565b60200260200101517f00000000000000000000000000000000000000000000000000000000000000006001600160a01b031661174d909392919063ffffffff16565b610c29333083600181518110610c0757610c0761204e565b6020026020010151306001600160a01b031661174d909392919063ffffffff16565b6040805160028082526060820183526000926020830190803683370190505090507f000000000000000000000000000000000000000000000000000000000000000081600081518110610c7e57610c7e61204e565b60200260200101906001600160a01b031690816001600160a01b0316815250503081600181518110610cb257610cb261204e565b6001600160a01b039283166020918202929092018101919091526006546040805163038fff2d60e41b8152905160009492909216926338fff2d092600480840193829003018187875af1158015610d0d573d6000803e3d6000fd5b505050506040513d601f19601f82011682018060405250810190610d319190611fda565b9050610dab7f000000000000000000000000000000000000000000000000000000000000000084600081518110610d6a57610d6a61204e565b60200260200101517f00000000000000000000000000000000000000000000000000000000000000006001600160a01b03166116009092919063ffffffff16565b610e037f000000000000000000000000000000000000000000000000000000000000000084600181518110610de257610de261204e565b6020026020010151306001600160a01b03166116009092919063ffffffff16565b600654604051632af9495960e11b81526001600160a01b037f00000000000000000000000000000000000000000000000000000000000000008116926355f292b292610e59928692169087908990600401612064565b600060405180830381600087803b158015610e7357600080fd5b505af1158015610e87573d6000803e3d6000fd5b50505050505050565b600080610e9c84610fc0565b90506107bd3384838761156e565b6060600480546106e390612014565b60003381610ec78286611181565b905083811015610f275760405162461bcd60e51b815260206004820152602560248201527f45524332303a2064656372656173656420616c6c6f77616e63652062656c6f77604482015264207a65726f60d81b606482015260840161085a565b610f3482868684036111e4565b506001949350505050565b600554610100900460ff1615610f905760405162461bcd60e51b815260206004820152601660248201527510dd5c9d99481c1bdbdb08185b1c9958591e481cd95d60521b604482015260640161085a565b600680546001600160a01b0319166001600160a01b0392909216919091179055565b6000336107878185856113ae565b60006107738260016111b1565b6000610fd88261113f565b8411156110275760405162461bcd60e51b815260206004820152601f60248201527f455243343632363a207769746864726177206d6f7265207468616e206d617800604482015260640161085a565b600061103285610791565b90506110413385858885611785565b949350505050565b600061105482611163565b8411156110a35760405162461bcd60e51b815260206004820152601d60248201527f455243343632363a2072656465656d206d6f7265207468616e206d6178000000604482015260640161085a565b60006110ae85610766565b90506110413385858489611785565b6000610773826000611308565b7f00000000000000000000000000000000000000000000000000000000000000006001600160a01b0316634e71d92d6040518163ffffffff1660e01b8152600401600060405180830381600087803b15801561112557600080fd5b505af1158015611139573d6000803e3d6000fd5b50505050565b6001600160a01b0381166000908152602081905260408120546107739060006111b1565b6001600160a01b038116600090815260208190526040812054610773565b6001600160a01b03918216600090815260016020908152604080832093909416825291909152205490565b601290565b6000806111bd60025490565b905080156111de576111d96111d061064d565b85908386611845565b611041565b83611041565b6001600160a01b0383166112465760405162461bcd60e51b8152602060048201526024808201527f45524332303a20617070726f76652066726f6d20746865207a65726f206164646044820152637265737360e01b606482015260840161085a565b6001600160a01b0382166112a75760405162461bcd60e51b815260206004820152602260248201527f45524332303a20617070726f766520746f20746865207a65726f206164647265604482015261737360f01b606482015260840161085a565b6001600160a01b0383811660008181526001602090815260408083209487168084529482529182902085905590518481527f8c5be1e5ebec7d5bd14f71427d1e84f3dd0314c0f7b2291e5b200ac8c7c3b925910160405180910390a3505050565b60008061131460025490565b9050831580611321575080155b6111de576111d98161133161064d565b86919086611845565b60006113468484611181565b9050600019811461113957818110156113a15760405162461bcd60e51b815260206004820152601d60248201527f45524332303a20696e73756666696369656e7420616c6c6f77616e6365000000604482015260640161085a565b61113984848484036111e4565b6001600160a01b0383166114125760405162461bcd60e51b815260206004820152602560248201527f45524332303a207472616e736665722066726f6d20746865207a65726f206164604482015264647265737360d81b606482015260840161085a565b6001600160a01b0382166114745760405162461bcd60e51b815260206004820152602360248201527f45524332303a207472616e7366657220746f20746865207a65726f206164647260448201526265737360e81b606482015260840161085a565b6001600160a01b038316600090815260208190526040902054818110156114ec5760405162461bcd60e51b815260206004820152602660248201527f45524332303a207472616e7366657220616d6f756e7420657863656564732062604482015265616c616e636560d01b606482015260840161085a565b6001600160a01b03848116600081815260208181526040808320878703905593871680835291849020805487019055925185815290927fddf252ad1be2c89b69c2b068fc378daa952ba7f163c4a11628f55a4df523b3ef910160405180910390a3611139565b60008061155d61064d565b11806115695750600254155b905090565b61159a7f000000000000000000000000000000000000000000000000000000000000000085308561174d565b6115a483826118a2565b826001600160a01b0316846001600160a01b03167fdcbc1c05240f31ff3ad067ef1ee35ce4997762752e3a095284754544f4c709d784846040516115f2929190918252602082015260400190565b60405180910390a350505050565b80158061167a5750604051636eb1769f60e11b81523060048201526001600160a01b03838116602483015284169063dd62ed3e90604401602060405180830381865afa158015611654573d6000803e3d6000fd5b505050506040513d601f19601f820116820180604052508101906116789190611fda565b155b6116e55760405162461bcd60e51b815260206004820152603660248201527f5361666545524332303a20617070726f76652066726f6d206e6f6e2d7a65726f60448201527520746f206e6f6e2d7a65726f20616c6c6f77616e636560501b606482015260840161085a565b6040516001600160a01b03831660248201526044810182905261174890849063095ea7b360e01b906064015b60408051601f198184030181529190526020810180516001600160e01b03166001600160e01b031990931692909217909152611961565b505050565b6040516001600160a01b03808516602483015283166044820152606481018290526111399085906323b872dd60e01b90608401611711565b826001600160a01b0316856001600160a01b0316146117a9576117a983868361133a565b6117b38382611a33565b6117de7f00000000000000000000000000000000000000000000000000000000000000008584611b65565b826001600160a01b0316846001600160a01b0316866001600160a01b03167ffbde797d201c681b91056529119e0b02407c7bb96a4a2c75c01fc9667232c8db8585604051611836929190918252602082015260400190565b60405180910390a45050505050565b600080611853868686611b95565b90506001836002811115611869576118696120fd565b14801561188657506000848061188157611881612113565b868809115b1561189957611896600182611ff3565b90505b95945050505050565b6001600160a01b0382166118f85760405162461bcd60e51b815260206004820152601f60248201527f45524332303a206d696e7420746f20746865207a65726f206164647265737300604482015260640161085a565b806002600082825461190a9190611ff3565b90915550506001600160a01b038216600081815260208181526040808320805486019055518481527fddf252ad1be2c89b69c2b068fc378daa952ba7f163c4a11628f55a4df523b3ef910160405180910390a35050565b60006119b6826040518060400160405280602081526020017f5361666545524332303a206c6f772d6c6576656c2063616c6c206661696c6564815250856001600160a01b0316611c449092919063ffffffff16565b80519091501561174857808060200190518101906119d49190612129565b6117485760405162461bcd60e51b815260206004820152602a60248201527f5361666545524332303a204552433230206f7065726174696f6e20646964206e6044820152691bdd081cdd58d8d9595960b21b606482015260840161085a565b6001600160a01b038216611a935760405162461bcd60e51b815260206004820152602160248201527f45524332303a206275726e2066726f6d20746865207a65726f206164647265736044820152607360f81b606482015260840161085a565b6001600160a01b03821660009081526020819052604090205481811015611b075760405162461bcd60e51b815260206004820152602260248201527f45524332303a206275726e20616d6f756e7420657863656564732062616c616e604482015261636560f01b606482015260840161085a565b6001600160a01b0383166000818152602081815260408083208686039055600280548790039055518581529192917fddf252ad1be2c89b69c2b068fc378daa952ba7f163c4a11628f55a4df523b3ef910160405180910390a3505050565b6040516001600160a01b03831660248201526044810182905261174890849063a9059cbb60e01b90606401611711565b6000808060001985870985870292508281108382030391505080600003611bcf57838281611bc557611bc5612113565b04925050506107bd565b808411611bdb57600080fd5b60008486880960026001871981018816978890046003810283188082028403028082028403028082028403028082028403028082028403029081029092039091026000889003889004909101858311909403939093029303949094049190911702949350505050565b6060611041848460008585600080866001600160a01b03168587604051611c6b919061214b565b60006040518083038185875af1925050503d8060008114611ca8576040519150601f19603f3d011682016040523d82523d6000602084013e611cad565b606091505b5091509150611cbe87838387611cc9565b979650505050505050565b60608315611d38578251600003611d31576001600160a01b0385163b611d315760405162461bcd60e51b815260206004820152601d60248201527f416464726573733a2063616c6c20746f206e6f6e2d636f6e7472616374000000604482015260640161085a565b5081611041565b6110418383815115611d4d5781518083602001fd5b8060405162461bcd60e51b815260040161085a9190611d8b565b60005b83811015611d82578181015183820152602001611d6a565b50506000910152565b6020815260008251806020840152611daa816040850160208701611d67565b601f01601f19169190910160400192915050565b600060208284031215611dd057600080fd5b5035919050565b80356001600160a01b0381168114611dee57600080fd5b919050565b60008060408385031215611e0657600080fd5b611e0f83611dd7565b946020939093013593505050565b600080600060608486031215611e3257600080fd5b611e3b84611dd7565b9250611e4960208501611dd7565b9150604084013590509250925092565b600060208284031215611e6b57600080fd5b6107bd82611dd7565b60008060408385031215611e8757600080fd5b82359150611e9760208401611dd7565b90509250929050565b634e487b7160e01b600052604160045260246000fd5b60006020808385031215611ec957600080fd5b823567ffffffffffffffff80821115611ee157600080fd5b818501915085601f830112611ef557600080fd5b813581811115611f0757611f07611ea0565b8060051b604051601f19603f83011681018181108582111715611f2c57611f2c611ea0565b604052918252848201925083810185019188831115611f4a57600080fd5b938501935b82851015611f6857843584529385019392850192611f4f565b98975050505050505050565b600080600060608486031215611f8957600080fd5b83359250611f9960208501611dd7565b9150611fa760408501611dd7565b90509250925092565b60008060408385031215611fc357600080fd5b611fcc83611dd7565b9150611e9760208401611dd7565b600060208284031215611fec57600080fd5b5051919050565b8082018082111561077357634e487b7160e01b600052601160045260246000fd5b600181811c9082168061202857607f821691505b60208210810361204857634e487b7160e01b600052602260045260246000fd5b50919050565b634e487b7160e01b600052603260045260246000fd5b600060808201868352602060018060a01b03808816828601526080604086015282875180855260a087019150838901945060005b818110156120b6578551841683529484019491840191600101612098565b5050858103606087015286518082529083019350905081860160005b828110156120ee578151855293830193908301906001016120d2565b50929998505050505050505050565b634e487b7160e01b600052602160045260246000fd5b634e487b7160e01b600052601260045260246000fd5b60006020828403121561213b57600080fd5b815180151581146107bd57600080fd5b6000825161215d818460208701611d67565b919091019291505056fea264697066735822122081264643a1fdc8b8ebcb0b216afc1c94dc05d43be0825d20768d90f316b9635564736f6c63430008110033",
    "linkReferences": {}
  },
  "methodIdentifiers": {
    "allowance(address,address)": "dd62ed3e",
    "approve(address,uint256)": "095ea7b3",
    "asset()": "38d52e0f",
    "balanceOf(address)": "70a08231",
    "balancerPool()": "776da470",
    "balancerPoolCreationHelper()": "68753753",
    "balancerPoolSet()": "95c4728f",
    "balancerVault()": "158274a5",
    "claimRewardsFromDelegate()": "c7c90d61",
    "convertToAssets(uint256)": "07a2d13a",
    "convertToShares(uint256)": "c6e6f592",
    "decimals()": "313ce567",
    "decreaseAllowance(address,uint256)": "a457c2d7",
    "delegatee()": "1e31d053",
    "deposit(uint256,address)": "6e553f65",
    "endTime()": "3197cbb6",
    "increaseAllowance(address,uint256)": "39509351",
    "initBalancerPool(uint256[])": "72f45051",
    "lastUpdateEndTime()": "d3bdef37",
    "maxDeposit(address)": "402d267d",
    "maxMint(address)": "c63d75b6",
    "maxRedeem(address)": "d905777e",
    "maxWithdraw(address)": "ce96cb77",
    "mint(uint256,address)": "94bf804d",
    "name()": "06fdde03",
    "oneInchToken()": "99c03951",
    "poolInitialized()": "b98ad255",
    "powerPod()": "f9b86ed4",
    "previewDeposit(uint256)": "ef8b30f7",
    "previewMint(uint256)": "b3d7f6b9",
    "previewRedeem(uint256)": "4cdad506",
    "previewWithdraw(uint256)": "0a28a477",
    "redeem(uint256,address,address)": "ba087652",
    "resolverFarmingPod()": "bf5d6d3e",
    "setBalancerPool(address)": "a88b68b4",
    "stake1inch()": "e2515745",
    "symbol()": "95d89b41",
    "totalAssets()": "01e1d114",
    "totalStaked()": "817b1cd2",
    "totalSupply()": "18160ddd",
    "transfer(address,uint256)": "a9059cbb",
    "transferFrom(address,address,uint256)": "23b872dd",
    "vaultStarted()": "cee73a76",
    "withdraw(uint256,address,address)": "b460af94"
  },
  "id": 0
}