{
  "abi": [
    {
      "inputs": [],
      "stateMutability": "nonpayable",
      "type": "constructor"
    },
    {
      "anonymous": false,
      "inputs": [
        {
          "indexed": true,
          "internalType": "address",
          "name": "owner",
          "type": "address"
        },
        {
          "indexed": true,
          "internalType": "address",
          "name": "spender",
          "type": "address"
        },
        {
          "indexed": false,
          "internalType": "uint256",
          "name": "value",
          "type": "uint256"
        }
      ],
      "name": "Approval",
      "type": "event"
    },
    {
      "anonymous": false,
      "inputs": [
        {
          "indexed": true,
          "internalType": "address",
          "name": "sender",
          "type": "address"
        },
        {
          "indexed": true,
          "internalType": "address",
          "name": "owner",
          "type": "address"
        },
        {
          "indexed": false,
          "internalType": "uint256",
          "name": "assets",
          "type": "uint256"
        },
        {
          "indexed": false,
          "internalType": "uint256",
          "name": "shares",
          "type": "uint256"
        }
      ],
      "name": "Deposit",
      "type": "event"
    },
    {
      "anonymous": false,
      "inputs": [
        {
          "indexed": true,
          "internalType": "address",
          "name": "from",
          "type": "address"
        },
        {
          "indexed": true,
          "internalType": "address",
          "name": "to",
          "type": "address"
        },
        {
          "indexed": false,
          "internalType": "uint256",
          "name": "value",
          "type": "uint256"
        }
      ],
      "name": "Transfer",
      "type": "event"
    },
    {
      "anonymous": false,
      "inputs": [
        {
          "indexed": true,
          "internalType": "address",
          "name": "sender",
          "type": "address"
        },
        {
          "indexed": true,
          "internalType": "address",
          "name": "receiver",
          "type": "address"
        },
        {
          "indexed": true,
          "internalType": "address",
          "name": "owner",
          "type": "address"
        },
        {
          "indexed": false,
          "internalType": "uint256",
          "name": "assets",
          "type": "uint256"
        },
        {
          "indexed": false,
          "internalType": "uint256",
          "name": "shares",
          "type": "uint256"
        }
      ],
      "name": "Withdraw",
      "type": "event"
    },
    {
      "inputs": [
        {
          "internalType": "address",
          "name": "owner",
          "type": "address"
        },
        {
          "internalType": "address",
          "name": "spender",
          "type": "address"
        }
      ],
      "name": "allowance",
      "outputs": [
        {
          "internalType": "uint256",
          "name": "",
          "type": "uint256"
        }
      ],
      "stateMutability": "view",
      "type": "function"
    },
    {
      "inputs": [
        {
          "internalType": "address",
          "name": "spender",
          "type": "address"
        },
        {
          "internalType": "uint256",
          "name": "amount",
          "type": "uint256"
        }
      ],
      "name": "approve",
      "outputs": [
        {
          "internalType": "bool",
          "name": "",
          "type": "bool"
        }
      ],
      "stateMutability": "nonpayable",
      "type": "function"
    },
    {
      "inputs": [],
      "name": "asset",
      "outputs": [
        {
          "internalType": "address",
          "name": "",
          "type": "address"
        }
      ],
      "stateMutability": "view",
      "type": "function"
    },
    {
      "inputs": [
        {
          "internalType": "address",
          "name": "account",
          "type": "address"
        }
      ],
      "name": "balanceOf",
      "outputs": [
        {
          "internalType": "uint256",
          "name": "",
          "type": "uint256"
        }
      ],
      "stateMutability": "view",
      "type": "function"
    },
    {
      "inputs": [],
      "name": "balancerPool",
      "outputs": [
        {
          "internalType": "address",
          "name": "",
          "type": "address"
        }
      ],
      "stateMutability": "view",
      "type": "function"
    },
    {
      "inputs": [],
      "name": "balancerPoolCreationHelper",
      "outputs": [
        {
          "internalType": "address",
          "name": "",
          "type": "address"
        }
      ],
      "stateMutability": "view",
      "type": "function"
    },
    {
      "inputs": [],
      "name": "balancerPoolSet",
      "outputs": [
        {
          "internalType": "bool",
          "name": "",
          "type": "bool"
        }
      ],
      "stateMutability": "view",
      "type": "function"
    },
    {
      "inputs": [],
      "name": "claimRewardsFromDelegate",
      "outputs": [],
      "stateMutability": "nonpayable",
      "type": "function"
    },
    {
      "inputs": [
        {
          "internalType": "uint256",
          "name": "shares",
          "type": "uint256"
        }
      ],
      "name": "convertToAssets",
      "outputs": [
        {
          "internalType": "uint256",
          "name": "assets",
          "type": "uint256"
        }
      ],
      "stateMutability": "view",
      "type": "function"
    },
    {
      "inputs": [
        {
          "internalType": "uint256",
          "name": "assets",
          "type": "uint256"
        }
      ],
      "name": "convertToShares",
      "outputs": [
        {
          "internalType": "uint256",
          "name": "shares",
          "type": "uint256"
        }
      ],
      "stateMutability": "view",
      "type": "function"
    },
    {
      "inputs": [],
      "name": "decimals",
      "outputs": [
        {
          "internalType": "uint8",
          "name": "",
          "type": "uint8"
        }
      ],
      "stateMutability": "view",
      "type": "function"
    },
    {
      "inputs": [
        {
          "internalType": "address",
          "name": "spender",
          "type": "address"
        },
        {
          "internalType": "uint256",
          "name": "subtractedValue",
          "type": "uint256"
        }
      ],
      "name": "decreaseAllowance",
      "outputs": [
        {
          "internalType": "bool",
          "name": "",
          "type": "bool"
        }
      ],
      "stateMutability": "nonpayable",
      "type": "function"
    },
    {
      "inputs": [],
      "name": "delegatee",
      "outputs": [
        {
          "internalType": "address",
          "name": "",
          "type": "address"
        }
      ],
      "stateMutability": "view",
      "type": "function"
    },
    {
      "inputs": [
        {
          "internalType": "uint256",
          "name": "assets",
          "type": "uint256"
        },
        {
          "internalType": "address",
          "name": "receiver",
          "type": "address"
        }
      ],
      "name": "deposit",
      "outputs": [
        {
          "internalType": "uint256",
          "name": "",
          "type": "uint256"
        }
      ],
      "stateMutability": "nonpayable",
      "type": "function"
    },
    {
      "inputs": [],
      "name": "endTime",
      "outputs": [
        {
          "internalType": "uint256",
          "name": "",
          "type": "uint256"
        }
      ],
      "stateMutability": "view",
      "type": "function"
    },
    {
      "inputs": [
        {
          "internalType": "address",
          "name": "spender",
          "type": "address"
        },
        {
          "internalType": "uint256",
          "name": "addedValue",
          "type": "uint256"
        }
      ],
      "name": "increaseAllowance",
      "outputs": [
        {
          "internalType": "bool",
          "name": "",
          "type": "bool"
        }
      ],
      "stateMutability": "nonpayable",
      "type": "function"
    },
    {
      "inputs": [
        {
          "internalType": "uint256[]",
          "name": "amounts",
          "type": "uint256[]"
        }
      ],
      "name": "initBalancerPool",
      "outputs": [],
      "stateMutability": "nonpayable",
      "type": "function"
    },
    {
      "inputs": [],
      "name": "lastUpdateEndTime",
      "outputs": [
        {
          "internalType": "uint256",
          "name": "",
          "type": "uint256"
        }
      ],
      "stateMutability": "view",
      "type": "function"
    },
    {
      "inputs": [
        {
          "internalType": "address",
          "name": "",
          "type": "address"
        }
      ],
      "name": "maxDeposit",
      "outputs": [
        {
          "internalType": "uint256",
          "name": "",
          "type": "uint256"
        }
      ],
      "stateMutability": "view",
      "type": "function"
    },
    {
      "inputs": [
        {
          "internalType": "address",
          "name": "",
          "type": "address"
        }
      ],
      "name": "maxMint",
      "outputs": [
        {
          "internalType": "uint256",
          "name": "",
          "type": "uint256"
        }
      ],
      "stateMutability": "view",
      "type": "function"
    },
    {
      "inputs": [
        {
          "internalType": "address",
          "name": "owner",
          "type": "address"
        }
      ],
      "name": "maxRedeem",
      "outputs": [
        {
          "internalType": "uint256",
          "name": "",
          "type": "uint256"
        }
      ],
      "stateMutability": "view",
      "type": "function"
    },
    {
      "inputs": [
        {
          "internalType": "address",
          "name": "owner",
          "type": "address"
        }
      ],
      "name": "maxWithdraw",
      "outputs": [
        {
          "internalType": "uint256",
          "name": "",
          "type": "uint256"
        }
      ],
      "stateMutability": "view",
      "type": "function"
    },
    {
      "inputs": [
        {
          "internalType": "uint256",
          "name": "shares",
          "type": "uint256"
        },
        {
          "internalType": "address",
          "name": "receiver",
          "type": "address"
        }
      ],
      "name": "mint",
      "outputs": [
        {
          "internalType": "uint256",
          "name": "",
          "type": "uint256"
        }
      ],
      "stateMutability": "nonpayable",
      "type": "function"
    },
    {
      "inputs": [],
      "name": "name",
      "outputs": [
        {
          "internalType": "string",
          "name": "",
          "type": "string"
        }
      ],
      "stateMutability": "view",
      "type": "function"
    },
    {
      "inputs": [],
      "name": "oneInchToken",
      "outputs": [
        {
          "internalType": "contract IERC20",
          "name": "",
          "type": "address"
        }
      ],
      "stateMutability": "view",
      "type": "function"
    },
    {
      "inputs": [],
      "name": "poolInitialized",
      "outputs": [
        {
          "internalType": "bool",
          "name": "",
          "type": "bool"
        }
      ],
      "stateMutability": "view",
      "type": "function"
    },
    {
      "inputs": [],
      "name": "powerPod",
      "outputs": [
        {
          "internalType": "address",
          "name": "",
          "type": "address"
        }
      ],
      "stateMutability": "view",
      "type": "function"
    },
    {
      "inputs": [
        {
          "internalType": "uint256",
          "name": "assets",
          "type": "uint256"
        }
      ],
      "name": "previewDeposit",
      "outputs": [
        {
          "internalType": "uint256",
          "name": "",
          "type": "uint256"
        }
      ],
      "stateMutability": "view",
      "type": "function"
    },
    {
      "inputs": [
        {
          "internalType": "uint256",
          "name": "shares",
          "type": "uint256"
        }
      ],
      "name": "previewMint",
      "outputs": [
        {
          "internalType": "uint256",
          "name": "",
          "type": "uint256"
        }
      ],
      "stateMutability": "view",
      "type": "function"
    },
    {
      "inputs": [
        {
          "internalType": "uint256",
          "name": "shares",
          "type": "uint256"
        }
      ],
      "name": "previewRedeem",
      "outputs": [
        {
          "internalType": "uint256",
          "name": "",
          "type": "uint256"
        }
      ],
      "stateMutability": "view",
      "type": "function"
    },
    {
      "inputs": [
        {
          "internalType": "uint256",
          "name": "assets",
          "type": "uint256"
        }
      ],
      "name": "previewWithdraw",
      "outputs": [
        {
          "internalType": "uint256",
          "name": "",
          "type": "uint256"
        }
      ],
      "stateMutability": "view",
      "type": "function"
    },
    {
      "inputs": [
        {
          "internalType": "uint256",
          "name": "shares",
          "type": "uint256"
        },
        {
          "internalType": "address",
          "name": "receiver",
          "type": "address"
        },
        {
          "internalType": "address",
          "name": "owner",
          "type": "address"
        }
      ],
      "name": "redeem",
      "outputs": [
        {
          "internalType": "uint256",
          "name": "",
          "type": "uint256"
        }
      ],
      "stateMutability": "nonpayable",
      "type": "function"
    },
    {
      "inputs": [],
      "name": "resolverFarmingPod",
      "outputs": [
        {
          "internalType": "address",
          "name": "",
          "type": "address"
        }
      ],
      "stateMutability": "view",
      "type": "function"
    },
    {
      "inputs": [
        {
          "internalType": "address",
          "name": "_balancerPool",
          "type": "address"
        }
      ],
      "name": "setBalancerPool",
      "outputs": [],
      "stateMutability": "nonpayable",
      "type": "function"
    },
    {
      "inputs": [],
      "name": "stake1inch",
      "outputs": [
        {
          "internalType": "address",
          "name": "",
          "type": "address"
        }
      ],
      "stateMutability": "view",
      "type": "function"
    },
    {
      "inputs": [],
      "name": "symbol",
      "outputs": [
        {
          "internalType": "string",
          "name": "",
          "type": "string"
        }
      ],
      "stateMutability": "view",
      "type": "function"
    },
    {
      "inputs": [],
      "name": "totalAssets",
      "outputs": [
        {
          "internalType": "uint256",
          "name": "",
          "type": "uint256"
        }
      ],
      "stateMutability": "view",
      "type": "function"
    },
    {
      "inputs": [],
      "name": "totalStaked",
      "outputs": [
        {
          "internalType": "uint256",
          "name": "",
          "type": "uint256"
        }
      ],
      "stateMutability": "view",
      "type": "function"
    },
    {
      "inputs": [],
      "name": "totalSupply",
      "outputs": [
        {
          "internalType": "uint256",
          "name": "",
          "type": "uint256"
        }
      ],
      "stateMutability": "view",
      "type": "function"
    },
    {
      "inputs": [
        {
          "internalType": "address",
          "name": "to",
          "type": "address"
        },
        {
          "internalType": "uint256",
          "name": "amount",
          "type": "uint256"
        }
      ],
      "name": "transfer",
      "outputs": [
        {
          "internalType": "bool",
          "name": "",
          "type": "bool"
        }
      ],
      "stateMutability": "nonpayable",
      "type": "function"
    },
    {
      "inputs": [
        {
          "internalType": "address",
          "name": "from",
          "type": "address"
        },
        {
          "internalType": "address",
          "name": "to",
          "type": "address"
        },
        {
          "internalType": "uint256",
          "name": "amount",
          "type": "uint256"
        }
      ],
      "name": "transferFrom",
      "outputs": [
        {
          "internalType": "bool",
          "name": "",
          "type": "bool"
        }
      ],
      "stateMutability": "nonpayable",
      "type": "function"
    },
    {
      "inputs": [],
      "name": "vaultStarted",
      "outputs": [
        {
          "internalType": "bool",
          "name": "",
          "type": "bool"
        }
      ],
      "stateMutability": "view",
      "type": "function"
    },
    {
      "inputs": [
        {
          "internalType": "uint256",
          "name": "assets",
          "type": "uint256"
        },
        {
          "internalType": "address",
          "name": "receiver",
          "type": "address"
        },
        {
          "internalType": "address",
          "name": "owner",
          "type": "address"
        }
      ],
      "name": "withdraw",
      "outputs": [
        {
          "internalType": "uint256",
          "name": "",
          "type": "uint256"
        }
      ],
      "stateMutability": "nonpayable",
      "type": "function"
    }
  ],
  "bytecode": {
    "object": "0x61016060405273111111111117dc0aa78b770fa6a738034120c30260c052739a0c8ff858d273f57072d714bca7411d717501d760e05273accfac2339e16dc80c50d2fa81b5c2b049b4f94761010052737e78a8337194c06314300d030d41eb31ed299c396101205273a289a03f46f144faadd9fc51b006d7322ecc9b04610140523480156200008d57600080fd5b5060c0516040518060400160405280600581526020016406f6e6555560dc1b8152506040518060400160405280600381526020016203155560ec1b8152508160039081620000dc9190620002d2565b506004620000eb8282620002d2565b50505060008062000102836200014360201b60201c565b91509150816200012757620001216200022860201b620012dc1760201c565b62000129565b805b60ff1660a05250506001600160a01b0316608052620003e9565b60408051600481526024810182526020810180516001600160e01b031663313ce56760e01b17905290516000918291829182916001600160a01b038716916200018c916200039e565b600060405180830381855afa9150503d8060008114620001c9576040519150601f19603f3d011682016040523d82523d6000602084013e620001ce565b606091505b5091509150818015620001e357506020815110155b156200021b57600081806020019051810190620002019190620003cf565b905060ff811162000219576001969095509350505050565b505b5060009485945092505050565b601290565b634e487b7160e01b600052604160045260246000fd5b600181811c908216806200025857607f821691505b6020821081036200027957634e487b7160e01b600052602260045260246000fd5b50919050565b601f821115620002cd57600081815260208120601f850160051c81016020861015620002a85750805b601f850160051c820191505b81811015620002c957828155600101620002b4565b5050505b505050565b81516001600160401b03811115620002ee57620002ee6200022d565b6200030681620002ff845462000243565b846200027f565b602080601f8311600181146200033e5760008415620003255750858301515b600019600386901b1c1916600185901b178555620002c9565b600085815260208120601f198616915b828110156200036f578886015182559484019460019091019084016200034e565b50858210156200038e5787850151600019600388901b60f8161c191681555b5050505050600190811b01905550565b6000825160005b81811015620003c15760208186018101518583015201620003a5565b506000920191825250919050565b600060208284031215620003e257600080fd5b5051919050565b60805160a05160c05160e05161010051610120516101405161230e620004a6600039600081816103bf01528181610e6801528181610ee00152610f4d01526000818161052c01526111fc0152600081816105f90152610b550152600081816105d201528181610a870152610ac90152600081816104800152818161074801528181610a6501528181610ce701528181610d7c0152610ea40152600061033b015260008181610370015281816116a301526118e8015261230e6000f3fe608060405234801561001057600080fd5b50600436106102695760003560e01c806395c4728f11610151578063c63d75b6116100c3578063d3bdef3711610087578063d3bdef371461059e578063d905777e146105a7578063dd62ed3e146105ba578063e2515745146105cd578063ef8b30f714610563578063f9b86ed4146105f457600080fd5b8063c63d75b61461054e578063c6e6f59214610563578063c7c90d6114610576578063ce96cb771461057e578063cee73a761461059157600080fd5b8063a9059cbb11610115578063a9059cbb146104c8578063b3d7f6b9146104db578063b460af94146104ee578063b98ad25514610501578063ba08765214610514578063bf5d6d3e1461052757600080fd5b806395c4728f1461046157806395d89b411461047357806399c039511461047b578063a457c2d7146104a2578063a88b68b4146104b557600080fd5b806338d52e0f116101ea5780636e553f65116101ae5780636e553f65146103e157806370a08231146103f457806372f450511461041d578063776da47014610432578063817b1cd21461044557806394bf804d1461044e57600080fd5b806338d52e0f1461036e5780633950935114610394578063402d267d146103a75780634cdad5061461029e57806368753753146103ba57600080fd5b806318160ddd1161023157806318160ddd146102e75780631e31d053146102ef57806323b872dd14610321578063313ce567146103345780633197cbb61461036557600080fd5b806301e1d1141461026e57806306fdde031461028957806307a2d13a1461029e578063095ea7b3146102b15780630a28a477146102d4575b600080fd5b61027661061b565b6040519081526020015b60405180910390f35b610291610804565b6040516102809190611ebb565b6102766102ac366004611eee565b610896565b6102c46102bf366004611f23565b6108a9565b6040519015158152602001610280565b6102766102e2366004611eee565b6108c1565b600254610276565b60055461030990630100000090046001600160a01b031681565b6040516001600160a01b039091168152602001610280565b6102c461032f366004611f4d565b6108ce565b60405160ff7f0000000000000000000000000000000000000000000000000000000000000000168152602001610280565b61027660075481565b7f0000000000000000000000000000000000000000000000000000000000000000610309565b6102c46103a2366004611f23565b6108f4565b6102766103b5366004611f89565b610916565b6103097f000000000000000000000000000000000000000000000000000000000000000081565b6102766103ef366004611fa4565b610934565b610276610402366004611f89565b6001600160a01b031660009081526020819052604090205490565b61043061042b366004611fe6565b610bbc565b005b600654610309906001600160a01b031681565b61027660095481565b61027661045c366004611fa4565b610fc0565b6005546102c490610100900460ff1681565b610291610fda565b6103097f000000000000000000000000000000000000000000000000000000000000000081565b6102c46104b0366004611f23565b610fe9565b6104306104c3366004611f89565b61106f565b6102c46104d6366004611f23565b6110e2565b6102766104e9366004611eee565b6110f0565b6102766104fc3660046120a4565b6110fd565b6005546102c49062010000900460ff1681565b6102766105223660046120a4565b611179565b6103097f000000000000000000000000000000000000000000000000000000000000000081565b61027661055c366004611f89565b5060001990565b610276610571366004611eee565b6111ed565b6104306111fa565b61027661058c366004611f89565b61126f565b6005546102c49060ff1681565b61027660085481565b6102766105b5366004611f89565b611293565b6102766105c83660046120e0565b6112b1565b6103097f000000000000000000000000000000000000000000000000000000000000000081565b6103097f000000000000000000000000000000000000000000000000000000000000000081565b6006546040516370a0823160e01b815230600482015260009182916001600160a01b03909116906370a0823190602401602060405180830381865afa158015610668573d6000803e3d6000fd5b505050506040513d601f19601f8201168201806040525081019061068c919061210a565b90506000600660009054906101000a90046001600160a01b03166001600160a01b03166318160ddd6040518163ffffffff1660e01b8152600401602060405180830381865afa1580156106e3573d6000803e3d6000fd5b505050506040513d601f19601f82011682018060405250810190610707919061210a565b6006546001600160a01b0316600090815260208190526040812054919250906006546040516370a0823160e01b81526001600160a01b0391821660048201527f0000000000000000000000000000000000000000000000000000000000000000909116906370a0823190602401602060405180830381865afa158015610791573d6000803e3d6000fd5b505050506040513d601f19601f820116820180604052508101906107b5919061210a565b6107bf9190612139565b9050816000036107d457600954935050505090565b6000826107e1838661214c565b6107eb9190612179565b9050600954816107fb9190612139565b94505050505090565b6060600380546108139061219b565b80601f016020809104026020016040519081016040528092919081815260200182805461083f9061219b565b801561088c5780601f106108615761010080835404028352916020019161088c565b820191906000526020600020905b81548152906001019060200180831161086f57829003601f168201915b5050505050905090565b60006108a38260006112e1565b92915050565b6000336108b7818585611314565b5060019392505050565b60006108a3826001611438565b6000336108dc85828561146a565b6108e78585856114de565b60019150505b9392505050565b6000336108b781858561090783836112b1565b6109119190612139565b611314565b6000610920611682565b61092b5760006108a3565b60001992915050565b600061093f82610916565b8311156109935760405162461bcd60e51b815260206004820152601e60248201527f455243343632363a206465706f736974206d6f7265207468616e206d6178000060448201526064015b60405180910390fd5b60055460009060ff16151581036109ec5750600580546301000000600160b81b03191676a260f8b7c8f37c2f1bc11b04c19902829de6ac8a0000001790556301e1853e6109e04282612139565b60075542600855610a27565b6008546109fc9062278d00612139565b421115610a275762278d0060076000828254610a189190612139565b9091555050426008555062278d005b6000610a32856111ed565b90508460096000828254610a469190612139565b90915550610a5890503385878461169e565b610aac6001600160a01b037f0000000000000000000000000000000000000000000000000000000000000000167f000000000000000000000000000000000000000000000000000000000000000087611730565b604051631c57762b60e31b815260048101869052602481018390527f00000000000000000000000000000000000000000000000000000000000000006001600160a01b03169063e2bbb15890604401600060405180830381600087803b158015610b1557600080fd5b505af1158015610b29573d6000803e3d6000fd5b50506005546040516317066a5760e21b815263010000009091046001600160a01b0390811660048301527f0000000000000000000000000000000000000000000000000000000000000000169250635c19a95c9150602401600060405180830381600087803b158015610b9b57600080fd5b505af1158015610baf573d6000803e3d6000fd5b5092979650505050505050565b60055462010000900460ff1615610c155760405162461bcd60e51b815260206004820181905260248201527f42616c616e63657220706f6f6c20616c726561647920696e7469616c697a6564604482015260640161098a565b683635c9adc5dea0000081600081518110610c3257610c326121d5565b602002602001015110158015610c6b5750683635c9adc5dea0000081600181518110610c6057610c606121d5565b602002602001015110155b610cae5760405162461bcd60e51b8152602060048201526014602482015273696e73756666696369656e7420616d6f756e747360601b604482015260640161098a565b6005805462ff0000191662010000179055610d1f610cc93390565b3083600081518110610cdd57610cdd6121d5565b60200260200101517f00000000000000000000000000000000000000000000000000000000000000006001600160a01b031661187d909392919063ffffffff16565b610d59333083600181518110610d3757610d376121d5565b6020026020010151306001600160a01b031661187d909392919063ffffffff16565b6040805160028082526060820183526000926020830190803683370190505090507f000000000000000000000000000000000000000000000000000000000000000081600081518110610dae57610dae6121d5565b60200260200101906001600160a01b031690816001600160a01b0316815250503081600181518110610de257610de26121d5565b6001600160a01b039283166020918202929092018101919091526006546040805163038fff2d60e41b8152905160009492909216926338fff2d092600480840193829003018187875af1158015610e3d573d6000803e3d6000fd5b505050506040513d601f19601f82011682018060405250810190610e61919061210a565b9050610edb7f000000000000000000000000000000000000000000000000000000000000000084600081518110610e9a57610e9a6121d5565b60200260200101517f00000000000000000000000000000000000000000000000000000000000000006001600160a01b03166117309092919063ffffffff16565b610f337f000000000000000000000000000000000000000000000000000000000000000084600181518110610f1257610f126121d5565b6020026020010151306001600160a01b03166117309092919063ffffffff16565b600654604051632af9495960e11b81526001600160a01b037f00000000000000000000000000000000000000000000000000000000000000008116926355f292b292610f899286921690879089906004016121eb565b600060405180830381600087803b158015610fa357600080fd5b505af1158015610fb7573d6000803e3d6000fd5b50505050505050565b600080610fcc846110f0565b90506108ed3384838761169e565b6060600480546108139061219b565b60003381610ff782866112b1565b9050838110156110575760405162461bcd60e51b815260206004820152602560248201527f45524332303a2064656372656173656420616c6c6f77616e63652062656c6f77604482015264207a65726f60d81b606482015260840161098a565b6110648286868403611314565b506001949350505050565b600554610100900460ff16156110c05760405162461bcd60e51b815260206004820152601660248201527510dd5c9d99481c1bdbdb08185b1c9958591e481cd95d60521b604482015260640161098a565b600680546001600160a01b0319166001600160a01b0392909216919091179055565b6000336108b78185856114de565b60006108a38260016112e1565b60006111088261126f565b8411156111575760405162461bcd60e51b815260206004820152601f60248201527f455243343632363a207769746864726177206d6f7265207468616e206d617800604482015260640161098a565b6000611162856108c1565b905061117133858588856118b5565b949350505050565b600061118482611293565b8411156111d35760405162461bcd60e51b815260206004820152601d60248201527f455243343632363a2072656465656d206d6f7265207468616e206d6178000000604482015260640161098a565b60006111de85610896565b905061117133858584896118b5565b60006108a3826000611438565b7f00000000000000000000000000000000000000000000000000000000000000006001600160a01b0316634e71d92d6040518163ffffffff1660e01b8152600401600060405180830381600087803b15801561125557600080fd5b505af1158015611269573d6000803e3d6000fd5b50505050565b6001600160a01b0381166000908152602081905260408120546108a39060006112e1565b6001600160a01b0381166000908152602081905260408120546108a3565b6001600160a01b03918216600090815260016020908152604080832093909416825291909152205490565b601290565b6000806112ed60025490565b9050801561130e5761130961130061061b565b85908386611975565b611171565b83611171565b6001600160a01b0383166113765760405162461bcd60e51b8152602060048201526024808201527f45524332303a20617070726f76652066726f6d20746865207a65726f206164646044820152637265737360e01b606482015260840161098a565b6001600160a01b0382166113d75760405162461bcd60e51b815260206004820152602260248201527f45524332303a20617070726f766520746f20746865207a65726f206164647265604482015261737360f01b606482015260840161098a565b6001600160a01b0383811660008181526001602090815260408083209487168084529482529182902085905590518481527f8c5be1e5ebec7d5bd14f71427d1e84f3dd0314c0f7b2291e5b200ac8c7c3b925910160405180910390a3505050565b60008061144460025490565b9050831580611451575080155b61130e576113098161146161061b565b86919086611975565b600061147684846112b1565b9050600019811461126957818110156114d15760405162461bcd60e51b815260206004820152601d60248201527f45524332303a20696e73756666696369656e7420616c6c6f77616e6365000000604482015260640161098a565b6112698484848403611314565b6001600160a01b0383166115425760405162461bcd60e51b815260206004820152602560248201527f45524332303a207472616e736665722066726f6d20746865207a65726f206164604482015264647265737360d81b606482015260840161098a565b6001600160a01b0382166115a45760405162461bcd60e51b815260206004820152602360248201527f45524332303a207472616e7366657220746f20746865207a65726f206164647260448201526265737360e81b606482015260840161098a565b6001600160a01b0383166000908152602081905260409020548181101561161c5760405162461bcd60e51b815260206004820152602660248201527f45524332303a207472616e7366657220616d6f756e7420657863656564732062604482015265616c616e636560d01b606482015260840161098a565b6001600160a01b03848116600081815260208181526040808320878703905593871680835291849020805487019055925185815290927fddf252ad1be2c89b69c2b068fc378daa952ba7f163c4a11628f55a4df523b3ef910160405180910390a3611269565b60008061168d61061b565b11806116995750600254155b905090565b6116ca7f000000000000000000000000000000000000000000000000000000000000000085308561187d565b6116d483826119d2565b826001600160a01b0316846001600160a01b03167fdcbc1c05240f31ff3ad067ef1ee35ce4997762752e3a095284754544f4c709d78484604051611722929190918252602082015260400190565b60405180910390a350505050565b8015806117aa5750604051636eb1769f60e11b81523060048201526001600160a01b03838116602483015284169063dd62ed3e90604401602060405180830381865afa158015611784573d6000803e3d6000fd5b505050506040513d601f19601f820116820180604052508101906117a8919061210a565b155b6118155760405162461bcd60e51b815260206004820152603660248201527f5361666545524332303a20617070726f76652066726f6d206e6f6e2d7a65726f60448201527520746f206e6f6e2d7a65726f20616c6c6f77616e636560501b606482015260840161098a565b6040516001600160a01b03831660248201526044810182905261187890849063095ea7b360e01b906064015b60408051601f198184030181529190526020810180516001600160e01b03166001600160e01b031990931692909217909152611a91565b505050565b6040516001600160a01b03808516602483015283166044820152606481018290526112699085906323b872dd60e01b90608401611841565b826001600160a01b0316856001600160a01b0316146118d9576118d983868361146a565b6118e38382611b63565b61190e7f00000000000000000000000000000000000000000000000000000000000000008584611c95565b826001600160a01b0316846001600160a01b0316866001600160a01b03167ffbde797d201c681b91056529119e0b02407c7bb96a4a2c75c01fc9667232c8db8585604051611966929190918252602082015260400190565b60405180910390a45050505050565b600080611983868686611cc5565b9050600183600281111561199957611999612284565b1480156119b65750600084806119b1576119b1612163565b868809115b156119c9576119c6600182612139565b90505b95945050505050565b6001600160a01b038216611a285760405162461bcd60e51b815260206004820152601f60248201527f45524332303a206d696e7420746f20746865207a65726f206164647265737300604482015260640161098a565b8060026000828254611a3a9190612139565b90915550506001600160a01b038216600081815260208181526040808320805486019055518481527fddf252ad1be2c89b69c2b068fc378daa952ba7f163c4a11628f55a4df523b3ef910160405180910390a35050565b6000611ae6826040518060400160405280602081526020017f5361666545524332303a206c6f772d6c6576656c2063616c6c206661696c6564815250856001600160a01b0316611d749092919063ffffffff16565b8051909150156118785780806020019051810190611b04919061229a565b6118785760405162461bcd60e51b815260206004820152602a60248201527f5361666545524332303a204552433230206f7065726174696f6e20646964206e6044820152691bdd081cdd58d8d9595960b21b606482015260840161098a565b6001600160a01b038216611bc35760405162461bcd60e51b815260206004820152602160248201527f45524332303a206275726e2066726f6d20746865207a65726f206164647265736044820152607360f81b606482015260840161098a565b6001600160a01b03821660009081526020819052604090205481811015611c375760405162461bcd60e51b815260206004820152602260248201527f45524332303a206275726e20616d6f756e7420657863656564732062616c616e604482015261636560f01b606482015260840161098a565b6001600160a01b0383166000818152602081815260408083208686039055600280548790039055518581529192917fddf252ad1be2c89b69c2b068fc378daa952ba7f163c4a11628f55a4df523b3ef910160405180910390a3505050565b6040516001600160a01b03831660248201526044810182905261187890849063a9059cbb60e01b90606401611841565b6000808060001985870985870292508281108382030391505080600003611cff57838281611cf557611cf5612163565b04925050506108ed565b808411611d0b57600080fd5b60008486880960026001871981018816978890046003810283188082028403028082028403028082028403028082028403028082028403029081029092039091026000889003889004909101858311909403939093029303949094049190911702949350505050565b6060611171848460008585600080866001600160a01b03168587604051611d9b91906122bc565b60006040518083038185875af1925050503d8060008114611dd8576040519150601f19603f3d011682016040523d82523d6000602084013e611ddd565b606091505b5091509150611dee87838387611df9565b979650505050505050565b60608315611e68578251600003611e61576001600160a01b0385163b611e615760405162461bcd60e51b815260206004820152601d60248201527f416464726573733a2063616c6c20746f206e6f6e2d636f6e7472616374000000604482015260640161098a565b5081611171565b6111718383815115611e7d5781518083602001fd5b8060405162461bcd60e51b815260040161098a9190611ebb565b60005b83811015611eb2578181015183820152602001611e9a565b50506000910152565b6020815260008251806020840152611eda816040850160208701611e97565b601f01601f19169190910160400192915050565b600060208284031215611f0057600080fd5b5035919050565b80356001600160a01b0381168114611f1e57600080fd5b919050565b60008060408385031215611f3657600080fd5b611f3f83611f07565b946020939093013593505050565b600080600060608486031215611f6257600080fd5b611f6b84611f07565b9250611f7960208501611f07565b9150604084013590509250925092565b600060208284031215611f9b57600080fd5b6108ed82611f07565b60008060408385031215611fb757600080fd5b82359150611fc760208401611f07565b90509250929050565b634e487b7160e01b600052604160045260246000fd5b60006020808385031215611ff957600080fd5b823567ffffffffffffffff8082111561201157600080fd5b818501915085601f83011261202557600080fd5b81358181111561203757612037611fd0565b8060051b604051601f19603f8301168101818110858211171561205c5761205c611fd0565b60405291825284820192508381018501918883111561207a57600080fd5b938501935b828510156120985784358452938501939285019261207f565b98975050505050505050565b6000806000606084860312156120b957600080fd5b833592506120c960208501611f07565b91506120d760408501611f07565b90509250925092565b600080604083850312156120f357600080fd5b6120fc83611f07565b9150611fc760208401611f07565b60006020828403121561211c57600080fd5b5051919050565b634e487b7160e01b600052601160045260246000fd5b808201808211156108a3576108a3612123565b80820281158282048414176108a3576108a3612123565b634e487b7160e01b600052601260045260246000fd5b60008261219657634e487b7160e01b600052601260045260246000fd5b500490565b600181811c908216806121af57607f821691505b6020821081036121cf57634e487b7160e01b600052602260045260246000fd5b50919050565b634e487b7160e01b600052603260045260246000fd5b600060808201868352602060018060a01b03808816828601526080604086015282875180855260a087019150838901945060005b8181101561223d57855184168352948401949184019160010161221f565b5050858103606087015286518082529083019350905081860160005b8281101561227557815185529383019390830190600101612259565b50929998505050505050505050565b634e487b7160e01b600052602160045260246000fd5b6000602082840312156122ac57600080fd5b815180151581146108ed57600080fd5b600082516122ce818460208701611e97565b919091019291505056fea26469706673582212201f1678d2cdf64b0595c87ef5a08d19da87e199fd6345fdfd39e17fe38513c42864736f6c63430008110033",
    "linkReferences": {}
  },
  "methodIdentifiers": {
    "allowance(address,address)": "dd62ed3e",
    "approve(address,uint256)": "095ea7b3",
    "asset()": "38d52e0f",
    "balanceOf(address)": "70a08231",
    "balancerPool()": "776da470",
    "balancerPoolCreationHelper()": "68753753",
    "balancerPoolSet()": "95c4728f",
    "claimRewardsFromDelegate()": "c7c90d61",
    "convertToAssets(uint256)": "07a2d13a",
    "convertToShares(uint256)": "c6e6f592",
    "decimals()": "313ce567",
    "decreaseAllowance(address,uint256)": "a457c2d7",
    "delegatee()": "1e31d053",
    "deposit(uint256,address)": "6e553f65",
    "endTime()": "3197cbb6",
    "increaseAllowance(address,uint256)": "39509351",
    "initBalancerPool(uint256[])": "72f45051",
    "lastUpdateEndTime()": "d3bdef37",
    "maxDeposit(address)": "402d267d",
    "maxMint(address)": "c63d75b6",
    "maxRedeem(address)": "d905777e",
    "maxWithdraw(address)": "ce96cb77",
    "mint(uint256,address)": "94bf804d",
    "name()": "06fdde03",
    "oneInchToken()": "99c03951",
    "poolInitialized()": "b98ad255",
    "powerPod()": "f9b86ed4",
    "previewDeposit(uint256)": "ef8b30f7",
    "previewMint(uint256)": "b3d7f6b9",
    "previewRedeem(uint256)": "4cdad506",
    "previewWithdraw(uint256)": "0a28a477",
    "redeem(uint256,address,address)": "ba087652",
    "resolverFarmingPod()": "bf5d6d3e",
    "setBalancerPool(address)": "a88b68b4",
    "stake1inch()": "e2515745",
    "symbol()": "95d89b41",
    "totalAssets()": "01e1d114",
    "totalStaked()": "817b1cd2",
    "totalSupply()": "18160ddd",
    "transfer(address,uint256)": "a9059cbb",
    "transferFrom(address,address,uint256)": "23b872dd",
    "vaultStarted()": "cee73a76",
    "withdraw(uint256,address,address)": "b460af94"
  },
  "id": 0
}