{
  "abi": [
    {
      "inputs": [],
      "stateMutability": "nonpayable",
      "type": "constructor"
    },
    {
      "anonymous": false,
      "inputs": [
        {
          "indexed": true,
          "internalType": "address",
          "name": "owner",
          "type": "address"
        },
        {
          "indexed": true,
          "internalType": "address",
          "name": "spender",
          "type": "address"
        },
        {
          "indexed": false,
          "internalType": "uint256",
          "name": "value",
          "type": "uint256"
        }
      ],
      "name": "Approval",
      "type": "event"
    },
    {
      "anonymous": false,
      "inputs": [
        {
          "indexed": true,
          "internalType": "address",
          "name": "sender",
          "type": "address"
        },
        {
          "indexed": true,
          "internalType": "address",
          "name": "owner",
          "type": "address"
        },
        {
          "indexed": false,
          "internalType": "uint256",
          "name": "assets",
          "type": "uint256"
        },
        {
          "indexed": false,
          "internalType": "uint256",
          "name": "shares",
          "type": "uint256"
        }
      ],
      "name": "Deposit",
      "type": "event"
    },
    {
      "anonymous": false,
      "inputs": [
        {
          "indexed": true,
          "internalType": "address",
          "name": "from",
          "type": "address"
        },
        {
          "indexed": true,
          "internalType": "address",
          "name": "to",
          "type": "address"
        },
        {
          "indexed": false,
          "internalType": "uint256",
          "name": "value",
          "type": "uint256"
        }
      ],
      "name": "Transfer",
      "type": "event"
    },
    {
      "anonymous": false,
      "inputs": [
        {
          "indexed": true,
          "internalType": "address",
          "name": "sender",
          "type": "address"
        },
        {
          "indexed": true,
          "internalType": "address",
          "name": "receiver",
          "type": "address"
        },
        {
          "indexed": true,
          "internalType": "address",
          "name": "owner",
          "type": "address"
        },
        {
          "indexed": false,
          "internalType": "uint256",
          "name": "assets",
          "type": "uint256"
        },
        {
          "indexed": false,
          "internalType": "uint256",
          "name": "shares",
          "type": "uint256"
        }
      ],
      "name": "Withdraw",
      "type": "event"
    },
    {
      "inputs": [
        {
          "internalType": "address",
          "name": "owner",
          "type": "address"
        },
        {
          "internalType": "address",
          "name": "spender",
          "type": "address"
        }
      ],
      "name": "allowance",
      "outputs": [
        {
          "internalType": "uint256",
          "name": "",
          "type": "uint256"
        }
      ],
      "stateMutability": "view",
      "type": "function"
    },
    {
      "inputs": [
        {
          "internalType": "address",
          "name": "spender",
          "type": "address"
        },
        {
          "internalType": "uint256",
          "name": "amount",
          "type": "uint256"
        }
      ],
      "name": "approve",
      "outputs": [
        {
          "internalType": "bool",
          "name": "",
          "type": "bool"
        }
      ],
      "stateMutability": "nonpayable",
      "type": "function"
    },
    {
      "inputs": [],
      "name": "asset",
      "outputs": [
        {
          "internalType": "address",
          "name": "",
          "type": "address"
        }
      ],
      "stateMutability": "view",
      "type": "function"
    },
    {
      "inputs": [
        {
          "internalType": "address",
          "name": "account",
          "type": "address"
        }
      ],
      "name": "balanceOf",
      "outputs": [
        {
          "internalType": "uint256",
          "name": "",
          "type": "uint256"
        }
      ],
      "stateMutability": "view",
      "type": "function"
    },
    {
      "inputs": [
        {
          "internalType": "uint256",
          "name": "shares",
          "type": "uint256"
        }
      ],
      "name": "convertToAssets",
      "outputs": [
        {
          "internalType": "uint256",
          "name": "assets",
          "type": "uint256"
        }
      ],
      "stateMutability": "view",
      "type": "function"
    },
    {
      "inputs": [
        {
          "internalType": "uint256",
          "name": "assets",
          "type": "uint256"
        }
      ],
      "name": "convertToShares",
      "outputs": [
        {
          "internalType": "uint256",
          "name": "shares",
          "type": "uint256"
        }
      ],
      "stateMutability": "view",
      "type": "function"
    },
    {
      "inputs": [],
      "name": "decimals",
      "outputs": [
        {
          "internalType": "uint8",
          "name": "",
          "type": "uint8"
        }
      ],
      "stateMutability": "view",
      "type": "function"
    },
    {
      "inputs": [
        {
          "internalType": "address",
          "name": "spender",
          "type": "address"
        },
        {
          "internalType": "uint256",
          "name": "subtractedValue",
          "type": "uint256"
        }
      ],
      "name": "decreaseAllowance",
      "outputs": [
        {
          "internalType": "bool",
          "name": "",
          "type": "bool"
        }
      ],
      "stateMutability": "nonpayable",
      "type": "function"
    },
    {
      "inputs": [],
      "name": "delegatee",
      "outputs": [
        {
          "internalType": "address",
          "name": "",
          "type": "address"
        }
      ],
      "stateMutability": "view",
      "type": "function"
    },
    {
      "inputs": [
        {
          "internalType": "uint256",
          "name": "assets",
          "type": "uint256"
        },
        {
          "internalType": "address",
          "name": "receiver",
          "type": "address"
        }
      ],
      "name": "deposit",
      "outputs": [
        {
          "internalType": "uint256",
          "name": "",
          "type": "uint256"
        }
      ],
      "stateMutability": "nonpayable",
      "type": "function"
    },
    {
      "inputs": [
        {
          "internalType": "address",
          "name": "spender",
          "type": "address"
        },
        {
          "internalType": "uint256",
          "name": "addedValue",
          "type": "uint256"
        }
      ],
      "name": "increaseAllowance",
      "outputs": [
        {
          "internalType": "bool",
          "name": "",
          "type": "bool"
        }
      ],
      "stateMutability": "nonpayable",
      "type": "function"
    },
    {
      "inputs": [
        {
          "internalType": "address",
          "name": "",
          "type": "address"
        }
      ],
      "name": "maxDeposit",
      "outputs": [
        {
          "internalType": "uint256",
          "name": "",
          "type": "uint256"
        }
      ],
      "stateMutability": "view",
      "type": "function"
    },
    {
      "inputs": [
        {
          "internalType": "address",
          "name": "",
          "type": "address"
        }
      ],
      "name": "maxMint",
      "outputs": [
        {
          "internalType": "uint256",
          "name": "",
          "type": "uint256"
        }
      ],
      "stateMutability": "view",
      "type": "function"
    },
    {
      "inputs": [
        {
          "internalType": "address",
          "name": "owner",
          "type": "address"
        }
      ],
      "name": "maxRedeem",
      "outputs": [
        {
          "internalType": "uint256",
          "name": "",
          "type": "uint256"
        }
      ],
      "stateMutability": "view",
      "type": "function"
    },
    {
      "inputs": [
        {
          "internalType": "address",
          "name": "owner",
          "type": "address"
        }
      ],
      "name": "maxWithdraw",
      "outputs": [
        {
          "internalType": "uint256",
          "name": "",
          "type": "uint256"
        }
      ],
      "stateMutability": "view",
      "type": "function"
    },
    {
      "inputs": [
        {
          "internalType": "uint256",
          "name": "shares",
          "type": "uint256"
        },
        {
          "internalType": "address",
          "name": "receiver",
          "type": "address"
        }
      ],
      "name": "mint",
      "outputs": [
        {
          "internalType": "uint256",
          "name": "",
          "type": "uint256"
        }
      ],
      "stateMutability": "nonpayable",
      "type": "function"
    },
    {
      "inputs": [],
      "name": "name",
      "outputs": [
        {
          "internalType": "string",
          "name": "",
          "type": "string"
        }
      ],
      "stateMutability": "view",
      "type": "function"
    },
    {
      "inputs": [],
      "name": "oneInchToken",
      "outputs": [
        {
          "internalType": "contract IERC20",
          "name": "",
          "type": "address"
        }
      ],
      "stateMutability": "view",
      "type": "function"
    },
    {
      "inputs": [],
      "name": "powerPod",
      "outputs": [
        {
          "internalType": "address",
          "name": "",
          "type": "address"
        }
      ],
      "stateMutability": "view",
      "type": "function"
    },
    {
      "inputs": [
        {
          "internalType": "uint256",
          "name": "assets",
          "type": "uint256"
        }
      ],
      "name": "previewDeposit",
      "outputs": [
        {
          "internalType": "uint256",
          "name": "",
          "type": "uint256"
        }
      ],
      "stateMutability": "view",
      "type": "function"
    },
    {
      "inputs": [
        {
          "internalType": "uint256",
          "name": "shares",
          "type": "uint256"
        }
      ],
      "name": "previewMint",
      "outputs": [
        {
          "internalType": "uint256",
          "name": "",
          "type": "uint256"
        }
      ],
      "stateMutability": "view",
      "type": "function"
    },
    {
      "inputs": [
        {
          "internalType": "uint256",
          "name": "shares",
          "type": "uint256"
        }
      ],
      "name": "previewRedeem",
      "outputs": [
        {
          "internalType": "uint256",
          "name": "",
          "type": "uint256"
        }
      ],
      "stateMutability": "view",
      "type": "function"
    },
    {
      "inputs": [
        {
          "internalType": "uint256",
          "name": "assets",
          "type": "uint256"
        }
      ],
      "name": "previewWithdraw",
      "outputs": [
        {
          "internalType": "uint256",
          "name": "",
          "type": "uint256"
        }
      ],
      "stateMutability": "view",
      "type": "function"
    },
    {
      "inputs": [
        {
          "internalType": "uint256",
          "name": "shares",
          "type": "uint256"
        },
        {
          "internalType": "address",
          "name": "receiver",
          "type": "address"
        },
        {
          "internalType": "address",
          "name": "owner",
          "type": "address"
        }
      ],
      "name": "redeem",
      "outputs": [
        {
          "internalType": "uint256",
          "name": "",
          "type": "uint256"
        }
      ],
      "stateMutability": "nonpayable",
      "type": "function"
    },
    {
      "inputs": [],
      "name": "stake1inch",
      "outputs": [
        {
          "internalType": "address",
          "name": "",
          "type": "address"
        }
      ],
      "stateMutability": "view",
      "type": "function"
    },
    {
      "inputs": [],
      "name": "symbol",
      "outputs": [
        {
          "internalType": "string",
          "name": "",
          "type": "string"
        }
      ],
      "stateMutability": "view",
      "type": "function"
    },
    {
      "inputs": [],
      "name": "totalAssets",
      "outputs": [
        {
          "internalType": "uint256",
          "name": "",
          "type": "uint256"
        }
      ],
      "stateMutability": "view",
      "type": "function"
    },
    {
      "inputs": [],
      "name": "totalSupply",
      "outputs": [
        {
          "internalType": "uint256",
          "name": "",
          "type": "uint256"
        }
      ],
      "stateMutability": "view",
      "type": "function"
    },
    {
      "inputs": [
        {
          "internalType": "address",
          "name": "to",
          "type": "address"
        },
        {
          "internalType": "uint256",
          "name": "amount",
          "type": "uint256"
        }
      ],
      "name": "transfer",
      "outputs": [
        {
          "internalType": "bool",
          "name": "",
          "type": "bool"
        }
      ],
      "stateMutability": "nonpayable",
      "type": "function"
    },
    {
      "inputs": [
        {
          "internalType": "address",
          "name": "from",
          "type": "address"
        },
        {
          "internalType": "address",
          "name": "to",
          "type": "address"
        },
        {
          "internalType": "uint256",
          "name": "amount",
          "type": "uint256"
        }
      ],
      "name": "transferFrom",
      "outputs": [
        {
          "internalType": "bool",
          "name": "",
          "type": "bool"
        }
      ],
      "stateMutability": "nonpayable",
      "type": "function"
    },
    {
      "inputs": [],
      "name": "vaultStarted",
      "outputs": [
        {
          "internalType": "bool",
          "name": "",
          "type": "bool"
        }
      ],
      "stateMutability": "view",
      "type": "function"
    },
    {
      "inputs": [
        {
          "internalType": "uint256",
          "name": "assets",
          "type": "uint256"
        },
        {
          "internalType": "address",
          "name": "receiver",
          "type": "address"
        },
        {
          "internalType": "address",
          "name": "owner",
          "type": "address"
        }
      ],
      "name": "withdraw",
      "outputs": [
        {
          "internalType": "uint256",
          "name": "",
          "type": "uint256"
        }
      ],
      "stateMutability": "nonpayable",
      "type": "function"
    }
  ],
  "bytecode": {
    "object": "0x61012060405273111111111117dc0aa78b770fa6a738034120c30260c052739a0c8ff858d273f57072d714bca7411d717501d760e05273accfac2339e16dc80c50d2fa81b5c2b049b4f947610100523480156200005b57600080fd5b5060c0516040518060400160405280600581526020016406f6e6555560dc1b8152506040518060400160405280600381526020016203155560ec1b8152508160039081620000aa9190620002a0565b506004620000b98282620002a0565b505050600080620000d0836200011160201b60201c565b9150915081620000f557620000ef620001f660201b62000add1760201c565b620000f7565b805b60ff1660a05250506001600160a01b0316608052620003b7565b60408051600481526024810182526020810180516001600160e01b031663313ce56760e01b17905290516000918291829182916001600160a01b038716916200015a916200036c565b600060405180830381855afa9150503d806000811462000197576040519150601f19603f3d011682016040523d82523d6000602084013e6200019c565b606091505b5091509150818015620001b157506020815110155b15620001e957600081806020019051810190620001cf91906200039d565b905060ff8111620001e7576001969095509350505050565b505b5060009485945092505050565b601290565b634e487b7160e01b600052604160045260246000fd5b600181811c908216806200022657607f821691505b6020821081036200024757634e487b7160e01b600052602260045260246000fd5b50919050565b601f8211156200029b57600081815260208120601f850160051c81016020861015620002765750805b601f850160051c820191505b81811015620002975782815560010162000282565b5050505b505050565b81516001600160401b03811115620002bc57620002bc620001fb565b620002d481620002cd845462000211565b846200024d565b602080601f8311600181146200030c5760008415620002f35750858301515b600019600386901b1c1916600185901b17855562000297565b600085815260208120601f198616915b828110156200033d578886015182559484019460019091019084016200031c565b50858210156200035c5787850151600019600388901b60f8161c191681555b5050505050600190811b01905550565b6000825160005b818110156200038f576020818601810151858301520162000373565b506000920191825250919050565b600060208284031215620003b057600080fd5b5051919050565b60805160a05160c05160e0516101005161194f6200042d600039600081816104ad01526108420152600081816104860152818161077601526107b80152600081816103920152610754015260006102c00152600081816102ec015281816104e701528181610ea801526110b5015261194f6000f3fe608060405234801561001057600080fd5b50600436106101f05760003560e01c806395d89b411161010f578063c6e6f592116100a2578063dd62ed3e11610071578063dd62ed3e1461046e578063e251574514610481578063ef8b30f714610428578063f9b86ed4146104a857600080fd5b8063c6e6f59214610428578063ce96cb771461043b578063cee73a761461044e578063d905777e1461045b57600080fd5b8063b3d7f6b9116100de578063b3d7f6b9146103da578063b460af94146103ed578063ba08765214610400578063c63d75b61461041357600080fd5b806395d89b411461038557806399c039511461038d578063a457c2d7146103b4578063a9059cbb146103c757600080fd5b8063313ce567116101875780634cdad506116101565780634cdad506146102255780636e553f651461033657806370a082311461034957806394bf804d1461037257600080fd5b8063313ce567146102b957806338d52e0f146102ea5780633950935114610310578063402d267d1461032357600080fd5b80630a28a477116101c35780630a28a4771461025b57806318160ddd1461026e5780631e31d0531461027657806323b872dd146102a657600080fd5b806301e1d114146101f557806306fdde031461021057806307a2d13a14610225578063095ea7b314610238575b600080fd5b6101fd6104cf565b6040519081526020015b60405180910390f35b61021861055f565b60405161020791906116c0565b6101fd6102333660046116f3565b6105f1565b61024b610246366004611728565b610604565b6040519015158152602001610207565b6101fd6102693660046116f3565b61061c565b6002546101fd565b60055461028e9061010090046001600160a01b031681565b6040516001600160a01b039091168152602001610207565b61024b6102b4366004611752565b610629565b60405160ff7f0000000000000000000000000000000000000000000000000000000000000000168152602001610207565b7f000000000000000000000000000000000000000000000000000000000000000061028e565b61024b61031e366004611728565b61064f565b6101fd61033136600461178e565b610671565b6101fd6103443660046117a9565b61068f565b6101fd61035736600461178e565b6001600160a01b031660009081526020819052604090205490565b6101fd6103803660046117a9565b6108a9565b6102186108c3565b61028e7f000000000000000000000000000000000000000000000000000000000000000081565b61024b6103c2366004611728565b6108d2565b61024b6103d5366004611728565b610958565b6101fd6103e83660046116f3565b610966565b6101fd6103fb3660046117d5565b610973565b6101fd61040e3660046117d5565b6109ef565b6101fd61042136600461178e565b5060001990565b6101fd6104363660046116f3565b610a63565b6101fd61044936600461178e565b610a70565b60055461024b9060ff1681565b6101fd61046936600461178e565b610a94565b6101fd61047c366004611811565b610ab2565b61028e7f000000000000000000000000000000000000000000000000000000000000000081565b61028e7f000000000000000000000000000000000000000000000000000000000000000081565b6040516370a0823160e01b81523060048201526000907f00000000000000000000000000000000000000000000000000000000000000006001600160a01b0316906370a0823190602401602060405180830381865afa158015610536573d6000803e3d6000fd5b505050506040513d601f19601f8201168201806040525081019061055a919061183b565b905090565b60606003805461056e90611854565b80601f016020809104026020016040519081016040528092919081815260200182805461059a90611854565b80156105e75780601f106105bc576101008083540402835291602001916105e7565b820191906000526020600020905b8154815290600101906020018083116105ca57829003601f168201915b5050505050905090565b60006105fe826000610ae2565b92915050565b600033610612818585610b15565b5060019392505050565b60006105fe826001610c39565b600033610637858285610c6b565b610642858585610ce5565b60019150505b9392505050565b6000336106128185856106628383610ab2565b61066c919061188e565b610b15565b600061067b610e89565b6106865760006105fe565b60001992915050565b600061069a82610671565b8311156106ee5760405162461bcd60e51b815260206004820152601e60248201527f455243343632363a206465706f736974206d6f7265207468616e206d6178000060448201526064015b60405180910390fd5b60055460009060ff161515810361072e575060058054610100600160a81b03191674a260f8b7c8f37c2f1bc11b04c19902829de6ac8a001790556301e1853e5b600061073985610a63565b905061074733858784610ea3565b61079b6001600160a01b037f0000000000000000000000000000000000000000000000000000000000000000167f000000000000000000000000000000000000000000000000000000000000000087610f35565b604051631c57762b60e31b815260048101869052602481018390527f00000000000000000000000000000000000000000000000000000000000000006001600160a01b03169063e2bbb15890604401600060405180830381600087803b15801561080457600080fd5b505af1158015610818573d6000803e3d6000fd5b50506005546040516317066a5760e21b81526101009091046001600160a01b0390811660048301527f0000000000000000000000000000000000000000000000000000000000000000169250635c19a95c9150602401600060405180830381600087803b15801561088857600080fd5b505af115801561089c573d6000803e3d6000fd5b5092979650505050505050565b6000806108b584610966565b905061064833848387610ea3565b60606004805461056e90611854565b600033816108e08286610ab2565b9050838110156109405760405162461bcd60e51b815260206004820152602560248201527f45524332303a2064656372656173656420616c6c6f77616e63652062656c6f77604482015264207a65726f60d81b60648201526084016106e5565b61094d8286868403610b15565b506001949350505050565b600033610612818585610ce5565b60006105fe826001610ae2565b600061097e82610a70565b8411156109cd5760405162461bcd60e51b815260206004820152601f60248201527f455243343632363a207769746864726177206d6f7265207468616e206d61780060448201526064016106e5565b60006109d88561061c565b90506109e73385858885611082565b949350505050565b60006109fa82610a94565b841115610a495760405162461bcd60e51b815260206004820152601d60248201527f455243343632363a2072656465656d206d6f7265207468616e206d617800000060448201526064016106e5565b6000610a54856105f1565b90506109e73385858489611082565b60006105fe826000610c39565b6001600160a01b0381166000908152602081905260408120546105fe906000610ae2565b6001600160a01b0381166000908152602081905260408120546105fe565b6001600160a01b03918216600090815260016020908152604080832093909416825291909152205490565b601290565b600080610aee60025490565b90508015610b0f57610b0a610b016104cf565b85908386611142565b6109e7565b836109e7565b6001600160a01b038316610b775760405162461bcd60e51b8152602060048201526024808201527f45524332303a20617070726f76652066726f6d20746865207a65726f206164646044820152637265737360e01b60648201526084016106e5565b6001600160a01b038216610bd85760405162461bcd60e51b815260206004820152602260248201527f45524332303a20617070726f766520746f20746865207a65726f206164647265604482015261737360f01b60648201526084016106e5565b6001600160a01b0383811660008181526001602090815260408083209487168084529482529182902085905590518481527f8c5be1e5ebec7d5bd14f71427d1e84f3dd0314c0f7b2291e5b200ac8c7c3b925910160405180910390a3505050565b600080610c4560025490565b9050831580610c52575080155b610b0f57610b0a81610c626104cf565b86919086611142565b6000610c778484610ab2565b90506000198114610cdf5781811015610cd25760405162461bcd60e51b815260206004820152601d60248201527f45524332303a20696e73756666696369656e7420616c6c6f77616e636500000060448201526064016106e5565b610cdf8484848403610b15565b50505050565b6001600160a01b038316610d495760405162461bcd60e51b815260206004820152602560248201527f45524332303a207472616e736665722066726f6d20746865207a65726f206164604482015264647265737360d81b60648201526084016106e5565b6001600160a01b038216610dab5760405162461bcd60e51b815260206004820152602360248201527f45524332303a207472616e7366657220746f20746865207a65726f206164647260448201526265737360e81b60648201526084016106e5565b6001600160a01b03831660009081526020819052604090205481811015610e235760405162461bcd60e51b815260206004820152602660248201527f45524332303a207472616e7366657220616d6f756e7420657863656564732062604482015265616c616e636560d01b60648201526084016106e5565b6001600160a01b03848116600081815260208181526040808320878703905593871680835291849020805487019055925185815290927fddf252ad1be2c89b69c2b068fc378daa952ba7f163c4a11628f55a4df523b3ef910160405180910390a3610cdf565b600080610e946104cf565b118061055a5750506002541590565b610ecf7f000000000000000000000000000000000000000000000000000000000000000085308561119f565b610ed983826111d7565b826001600160a01b0316846001600160a01b03167fdcbc1c05240f31ff3ad067ef1ee35ce4997762752e3a095284754544f4c709d78484604051610f27929190918252602082015260400190565b60405180910390a350505050565b801580610faf5750604051636eb1769f60e11b81523060048201526001600160a01b03838116602483015284169063dd62ed3e90604401602060405180830381865afa158015610f89573d6000803e3d6000fd5b505050506040513d601f19601f82011682018060405250810190610fad919061183b565b155b61101a5760405162461bcd60e51b815260206004820152603660248201527f5361666545524332303a20617070726f76652066726f6d206e6f6e2d7a65726f60448201527520746f206e6f6e2d7a65726f20616c6c6f77616e636560501b60648201526084016106e5565b6040516001600160a01b03831660248201526044810182905261107d90849063095ea7b360e01b906064015b60408051601f198184030181529190526020810180516001600160e01b03166001600160e01b031990931692909217909152611296565b505050565b826001600160a01b0316856001600160a01b0316146110a6576110a6838683610c6b565b6110b08382611368565b6110db7f0000000000000000000000000000000000000000000000000000000000000000858461149a565b826001600160a01b0316846001600160a01b0316866001600160a01b03167ffbde797d201c681b91056529119e0b02407c7bb96a4a2c75c01fc9667232c8db8585604051611133929190918252602082015260400190565b60405180910390a45050505050565b6000806111508686866114ca565b90506001836002811115611166576111666118af565b14801561118357506000848061117e5761117e6118c5565b868809115b156111965761119360018261188e565b90505b95945050505050565b6040516001600160a01b0380851660248301528316604482015260648101829052610cdf9085906323b872dd60e01b90608401611046565b6001600160a01b03821661122d5760405162461bcd60e51b815260206004820152601f60248201527f45524332303a206d696e7420746f20746865207a65726f20616464726573730060448201526064016106e5565b806002600082825461123f919061188e565b90915550506001600160a01b038216600081815260208181526040808320805486019055518481527fddf252ad1be2c89b69c2b068fc378daa952ba7f163c4a11628f55a4df523b3ef910160405180910390a35050565b60006112eb826040518060400160405280602081526020017f5361666545524332303a206c6f772d6c6576656c2063616c6c206661696c6564815250856001600160a01b03166115799092919063ffffffff16565b80519091501561107d578080602001905181019061130991906118db565b61107d5760405162461bcd60e51b815260206004820152602a60248201527f5361666545524332303a204552433230206f7065726174696f6e20646964206e6044820152691bdd081cdd58d8d9595960b21b60648201526084016106e5565b6001600160a01b0382166113c85760405162461bcd60e51b815260206004820152602160248201527f45524332303a206275726e2066726f6d20746865207a65726f206164647265736044820152607360f81b60648201526084016106e5565b6001600160a01b0382166000908152602081905260409020548181101561143c5760405162461bcd60e51b815260206004820152602260248201527f45524332303a206275726e20616d6f756e7420657863656564732062616c616e604482015261636560f01b60648201526084016106e5565b6001600160a01b0383166000818152602081815260408083208686039055600280548790039055518581529192917fddf252ad1be2c89b69c2b068fc378daa952ba7f163c4a11628f55a4df523b3ef910160405180910390a3505050565b6040516001600160a01b03831660248201526044810182905261107d90849063a9059cbb60e01b90606401611046565b6000808060001985870985870292508281108382030391505080600003611504578382816114fa576114fa6118c5565b0492505050610648565b80841161151057600080fd5b60008486880960026001871981018816978890046003810283188082028403028082028403028082028403028082028403028082028403029081029092039091026000889003889004909101858311909403939093029303949094049190911702949350505050565b60606109e7848460008585600080866001600160a01b031685876040516115a091906118fd565b60006040518083038185875af1925050503d80600081146115dd576040519150601f19603f3d011682016040523d82523d6000602084013e6115e2565b606091505b50915091506115f3878383876115fe565b979650505050505050565b6060831561166d578251600003611666576001600160a01b0385163b6116665760405162461bcd60e51b815260206004820152601d60248201527f416464726573733a2063616c6c20746f206e6f6e2d636f6e747261637400000060448201526064016106e5565b50816109e7565b6109e783838151156116825781518083602001fd5b8060405162461bcd60e51b81526004016106e591906116c0565b60005b838110156116b757818101518382015260200161169f565b50506000910152565b60208152600082518060208401526116df81604085016020870161169c565b601f01601f19169190910160400192915050565b60006020828403121561170557600080fd5b5035919050565b80356001600160a01b038116811461172357600080fd5b919050565b6000806040838503121561173b57600080fd5b6117448361170c565b946020939093013593505050565b60008060006060848603121561176757600080fd5b6117708461170c565b925061177e6020850161170c565b9150604084013590509250925092565b6000602082840312156117a057600080fd5b6106488261170c565b600080604083850312156117bc57600080fd5b823591506117cc6020840161170c565b90509250929050565b6000806000606084860312156117ea57600080fd5b833592506117fa6020850161170c565b91506118086040850161170c565b90509250925092565b6000806040838503121561182457600080fd5b61182d8361170c565b91506117cc6020840161170c565b60006020828403121561184d57600080fd5b5051919050565b600181811c9082168061186857607f821691505b60208210810361188857634e487b7160e01b600052602260045260246000fd5b50919050565b808201808211156105fe57634e487b7160e01b600052601160045260246000fd5b634e487b7160e01b600052602160045260246000fd5b634e487b7160e01b600052601260045260246000fd5b6000602082840312156118ed57600080fd5b8151801515811461064857600080fd5b6000825161190f81846020870161169c565b919091019291505056fea2646970667358221220a1119ead5ccf68b69d6d1b0b4aca207e0332feaa726c8e783c15836d1255e8ef64736f6c63430008110033",
    "linkReferences": {}
  },
  "methodIdentifiers": {
    "allowance(address,address)": "dd62ed3e",
    "approve(address,uint256)": "095ea7b3",
    "asset()": "38d52e0f",
    "balanceOf(address)": "70a08231",
    "convertToAssets(uint256)": "07a2d13a",
    "convertToShares(uint256)": "c6e6f592",
    "decimals()": "313ce567",
    "decreaseAllowance(address,uint256)": "a457c2d7",
    "delegatee()": "1e31d053",
    "deposit(uint256,address)": "6e553f65",
    "increaseAllowance(address,uint256)": "39509351",
    "maxDeposit(address)": "402d267d",
    "maxMint(address)": "c63d75b6",
    "maxRedeem(address)": "d905777e",
    "maxWithdraw(address)": "ce96cb77",
    "mint(uint256,address)": "94bf804d",
    "name()": "06fdde03",
    "oneInchToken()": "99c03951",
    "powerPod()": "f9b86ed4",
    "previewDeposit(uint256)": "ef8b30f7",
    "previewMint(uint256)": "b3d7f6b9",
    "previewRedeem(uint256)": "4cdad506",
    "previewWithdraw(uint256)": "0a28a477",
    "redeem(uint256,address,address)": "ba087652",
    "stake1inch()": "e2515745",
    "symbol()": "95d89b41",
    "totalAssets()": "01e1d114",
    "totalSupply()": "18160ddd",
    "transfer(address,uint256)": "a9059cbb",
    "transferFrom(address,address,uint256)": "23b872dd",
    "vaultStarted()": "cee73a76",
    "withdraw(uint256,address,address)": "b460af94"
  },
  "id": 0
}