{
  "abi": [
    {
      "inputs": [],
      "stateMutability": "nonpayable",
      "type": "constructor"
    },
    {
      "anonymous": false,
      "inputs": [
        {
          "indexed": true,
          "internalType": "address",
          "name": "owner",
          "type": "address"
        },
        {
          "indexed": true,
          "internalType": "address",
          "name": "spender",
          "type": "address"
        },
        {
          "indexed": false,
          "internalType": "uint256",
          "name": "value",
          "type": "uint256"
        }
      ],
      "name": "Approval",
      "type": "event"
    },
    {
      "anonymous": false,
      "inputs": [
        {
          "indexed": true,
          "internalType": "address",
          "name": "sender",
          "type": "address"
        },
        {
          "indexed": true,
          "internalType": "address",
          "name": "owner",
          "type": "address"
        },
        {
          "indexed": false,
          "internalType": "uint256",
          "name": "assets",
          "type": "uint256"
        },
        {
          "indexed": false,
          "internalType": "uint256",
          "name": "shares",
          "type": "uint256"
        }
      ],
      "name": "Deposit",
      "type": "event"
    },
    {
      "anonymous": false,
      "inputs": [
        {
          "indexed": true,
          "internalType": "address",
          "name": "from",
          "type": "address"
        },
        {
          "indexed": true,
          "internalType": "address",
          "name": "to",
          "type": "address"
        },
        {
          "indexed": false,
          "internalType": "uint256",
          "name": "value",
          "type": "uint256"
        }
      ],
      "name": "Transfer",
      "type": "event"
    },
    {
      "anonymous": false,
      "inputs": [
        {
          "indexed": true,
          "internalType": "address",
          "name": "sender",
          "type": "address"
        },
        {
          "indexed": true,
          "internalType": "address",
          "name": "receiver",
          "type": "address"
        },
        {
          "indexed": true,
          "internalType": "address",
          "name": "owner",
          "type": "address"
        },
        {
          "indexed": false,
          "internalType": "uint256",
          "name": "assets",
          "type": "uint256"
        },
        {
          "indexed": false,
          "internalType": "uint256",
          "name": "shares",
          "type": "uint256"
        }
      ],
      "name": "Withdraw",
      "type": "event"
    },
    {
      "inputs": [
        {
          "internalType": "address",
          "name": "owner",
          "type": "address"
        },
        {
          "internalType": "address",
          "name": "spender",
          "type": "address"
        }
      ],
      "name": "allowance",
      "outputs": [
        {
          "internalType": "uint256",
          "name": "",
          "type": "uint256"
        }
      ],
      "stateMutability": "view",
      "type": "function"
    },
    {
      "inputs": [
        {
          "internalType": "address",
          "name": "spender",
          "type": "address"
        },
        {
          "internalType": "uint256",
          "name": "amount",
          "type": "uint256"
        }
      ],
      "name": "approve",
      "outputs": [
        {
          "internalType": "bool",
          "name": "",
          "type": "bool"
        }
      ],
      "stateMutability": "nonpayable",
      "type": "function"
    },
    {
      "inputs": [],
      "name": "asset",
      "outputs": [
        {
          "internalType": "address",
          "name": "",
          "type": "address"
        }
      ],
      "stateMutability": "view",
      "type": "function"
    },
    {
      "inputs": [
        {
          "internalType": "address",
          "name": "account",
          "type": "address"
        }
      ],
      "name": "balanceOf",
      "outputs": [
        {
          "internalType": "uint256",
          "name": "",
          "type": "uint256"
        }
      ],
      "stateMutability": "view",
      "type": "function"
    },
    {
      "inputs": [],
      "name": "balancerPool",
      "outputs": [
        {
          "internalType": "address",
          "name": "",
          "type": "address"
        }
      ],
      "stateMutability": "view",
      "type": "function"
    },
    {
      "inputs": [],
      "name": "balancerPoolCreationHelper",
      "outputs": [
        {
          "internalType": "address",
          "name": "",
          "type": "address"
        }
      ],
      "stateMutability": "view",
      "type": "function"
    },
    {
      "inputs": [],
      "name": "balancerVault",
      "outputs": [
        {
          "internalType": "address",
          "name": "",
          "type": "address"
        }
      ],
      "stateMutability": "view",
      "type": "function"
    },
    {
      "inputs": [],
      "name": "claimRewardsFromDelegate",
      "outputs": [],
      "stateMutability": "nonpayable",
      "type": "function"
    },
    {
      "inputs": [
        {
          "internalType": "uint256",
          "name": "shares",
          "type": "uint256"
        }
      ],
      "name": "convertToAssets",
      "outputs": [
        {
          "internalType": "uint256",
          "name": "assets",
          "type": "uint256"
        }
      ],
      "stateMutability": "view",
      "type": "function"
    },
    {
      "inputs": [
        {
          "internalType": "uint256",
          "name": "assets",
          "type": "uint256"
        }
      ],
      "name": "convertToShares",
      "outputs": [
        {
          "internalType": "uint256",
          "name": "shares",
          "type": "uint256"
        }
      ],
      "stateMutability": "view",
      "type": "function"
    },
    {
      "inputs": [],
      "name": "decimals",
      "outputs": [
        {
          "internalType": "uint8",
          "name": "",
          "type": "uint8"
        }
      ],
      "stateMutability": "view",
      "type": "function"
    },
    {
      "inputs": [
        {
          "internalType": "address",
          "name": "spender",
          "type": "address"
        },
        {
          "internalType": "uint256",
          "name": "subtractedValue",
          "type": "uint256"
        }
      ],
      "name": "decreaseAllowance",
      "outputs": [
        {
          "internalType": "bool",
          "name": "",
          "type": "bool"
        }
      ],
      "stateMutability": "nonpayable",
      "type": "function"
    },
    {
      "inputs": [],
      "name": "delegatee",
      "outputs": [
        {
          "internalType": "address",
          "name": "",
          "type": "address"
        }
      ],
      "stateMutability": "view",
      "type": "function"
    },
    {
      "inputs": [
        {
          "internalType": "uint256",
          "name": "assets",
          "type": "uint256"
        },
        {
          "internalType": "address",
          "name": "receiver",
          "type": "address"
        }
      ],
      "name": "deposit",
      "outputs": [
        {
          "internalType": "uint256",
          "name": "",
          "type": "uint256"
        }
      ],
      "stateMutability": "nonpayable",
      "type": "function"
    },
    {
      "inputs": [],
      "name": "endTime",
      "outputs": [
        {
          "internalType": "uint256",
          "name": "",
          "type": "uint256"
        }
      ],
      "stateMutability": "view",
      "type": "function"
    },
    {
      "inputs": [
        {
          "internalType": "address",
          "name": "spender",
          "type": "address"
        },
        {
          "internalType": "uint256",
          "name": "addedValue",
          "type": "uint256"
        }
      ],
      "name": "increaseAllowance",
      "outputs": [
        {
          "internalType": "bool",
          "name": "",
          "type": "bool"
        }
      ],
      "stateMutability": "nonpayable",
      "type": "function"
    },
    {
      "inputs": [
        {
          "internalType": "uint256[]",
          "name": "amounts",
          "type": "uint256[]"
        }
      ],
      "name": "initBalancerPool",
      "outputs": [],
      "stateMutability": "nonpayable",
      "type": "function"
    },
    {
      "inputs": [],
      "name": "lastUpdateEndTime",
      "outputs": [
        {
          "internalType": "uint256",
          "name": "",
          "type": "uint256"
        }
      ],
      "stateMutability": "view",
      "type": "function"
    },
    {
      "inputs": [
        {
          "internalType": "address",
          "name": "",
          "type": "address"
        }
      ],
      "name": "maxDeposit",
      "outputs": [
        {
          "internalType": "uint256",
          "name": "",
          "type": "uint256"
        }
      ],
      "stateMutability": "view",
      "type": "function"
    },
    {
      "inputs": [
        {
          "internalType": "address",
          "name": "",
          "type": "address"
        }
      ],
      "name": "maxMint",
      "outputs": [
        {
          "internalType": "uint256",
          "name": "",
          "type": "uint256"
        }
      ],
      "stateMutability": "view",
      "type": "function"
    },
    {
      "inputs": [
        {
          "internalType": "address",
          "name": "owner",
          "type": "address"
        }
      ],
      "name": "maxRedeem",
      "outputs": [
        {
          "internalType": "uint256",
          "name": "",
          "type": "uint256"
        }
      ],
      "stateMutability": "view",
      "type": "function"
    },
    {
      "inputs": [
        {
          "internalType": "address",
          "name": "owner",
          "type": "address"
        }
      ],
      "name": "maxWithdraw",
      "outputs": [
        {
          "internalType": "uint256",
          "name": "",
          "type": "uint256"
        }
      ],
      "stateMutability": "view",
      "type": "function"
    },
    {
      "inputs": [
        {
          "internalType": "uint256",
          "name": "shares",
          "type": "uint256"
        },
        {
          "internalType": "address",
          "name": "receiver",
          "type": "address"
        }
      ],
      "name": "mint",
      "outputs": [
        {
          "internalType": "uint256",
          "name": "",
          "type": "uint256"
        }
      ],
      "stateMutability": "nonpayable",
      "type": "function"
    },
    {
      "inputs": [],
      "name": "name",
      "outputs": [
        {
          "internalType": "string",
          "name": "",
          "type": "string"
        }
      ],
      "stateMutability": "view",
      "type": "function"
    },
    {
      "inputs": [],
      "name": "oneInchToken",
      "outputs": [
        {
          "internalType": "contract IERC20",
          "name": "",
          "type": "address"
        }
      ],
      "stateMutability": "view",
      "type": "function"
    },
    {
      "inputs": [],
      "name": "poolAddressSet",
      "outputs": [
        {
          "internalType": "bool",
          "name": "",
          "type": "bool"
        }
      ],
      "stateMutability": "view",
      "type": "function"
    },
    {
      "inputs": [],
      "name": "poolEnded",
      "outputs": [
        {
          "internalType": "bool",
          "name": "",
          "type": "bool"
        }
      ],
      "stateMutability": "view",
      "type": "function"
    },
    {
      "inputs": [],
      "name": "poolInitialDeposit1UP",
      "outputs": [
        {
          "internalType": "uint256",
          "name": "",
          "type": "uint256"
        }
      ],
      "stateMutability": "view",
      "type": "function"
    },
    {
      "inputs": [],
      "name": "poolInitialized",
      "outputs": [
        {
          "internalType": "bool",
          "name": "",
          "type": "bool"
        }
      ],
      "stateMutability": "view",
      "type": "function"
    },
    {
      "inputs": [],
      "name": "powerPod",
      "outputs": [
        {
          "internalType": "address",
          "name": "",
          "type": "address"
        }
      ],
      "stateMutability": "view",
      "type": "function"
    },
    {
      "inputs": [
        {
          "internalType": "uint256",
          "name": "assets",
          "type": "uint256"
        }
      ],
      "name": "previewDeposit",
      "outputs": [
        {
          "internalType": "uint256",
          "name": "",
          "type": "uint256"
        }
      ],
      "stateMutability": "view",
      "type": "function"
    },
    {
      "inputs": [
        {
          "internalType": "uint256",
          "name": "shares",
          "type": "uint256"
        }
      ],
      "name": "previewMint",
      "outputs": [
        {
          "internalType": "uint256",
          "name": "",
          "type": "uint256"
        }
      ],
      "stateMutability": "view",
      "type": "function"
    },
    {
      "inputs": [
        {
          "internalType": "uint256",
          "name": "shares",
          "type": "uint256"
        }
      ],
      "name": "previewRedeem",
      "outputs": [
        {
          "internalType": "uint256",
          "name": "",
          "type": "uint256"
        }
      ],
      "stateMutability": "view",
      "type": "function"
    },
    {
      "inputs": [
        {
          "internalType": "uint256",
          "name": "assets",
          "type": "uint256"
        }
      ],
      "name": "previewWithdraw",
      "outputs": [
        {
          "internalType": "uint256",
          "name": "",
          "type": "uint256"
        }
      ],
      "stateMutability": "view",
      "type": "function"
    },
    {
      "inputs": [
        {
          "internalType": "uint256",
          "name": "shares",
          "type": "uint256"
        },
        {
          "internalType": "address",
          "name": "receiver",
          "type": "address"
        },
        {
          "internalType": "address",
          "name": "owner",
          "type": "address"
        }
      ],
      "name": "redeem",
      "outputs": [
        {
          "internalType": "uint256",
          "name": "",
          "type": "uint256"
        }
      ],
      "stateMutability": "nonpayable",
      "type": "function"
    },
    {
      "inputs": [],
      "name": "resolverFarmingPod",
      "outputs": [
        {
          "internalType": "address",
          "name": "",
          "type": "address"
        }
      ],
      "stateMutability": "view",
      "type": "function"
    },
    {
      "inputs": [
        {
          "internalType": "address",
          "name": "_balancerPool",
          "type": "address"
        }
      ],
      "name": "setBalancerPool",
      "outputs": [],
      "stateMutability": "nonpayable",
      "type": "function"
    },
    {
      "inputs": [],
      "name": "stake1inch",
      "outputs": [
        {
          "internalType": "address",
          "name": "",
          "type": "address"
        }
      ],
      "stateMutability": "view",
      "type": "function"
    },
    {
      "inputs": [],
      "name": "symbol",
      "outputs": [
        {
          "internalType": "string",
          "name": "",
          "type": "string"
        }
      ],
      "stateMutability": "view",
      "type": "function"
    },
    {
      "inputs": [],
      "name": "totalAssets",
      "outputs": [
        {
          "internalType": "uint256",
          "name": "",
          "type": "uint256"
        }
      ],
      "stateMutability": "view",
      "type": "function"
    },
    {
      "inputs": [],
      "name": "totalStaked",
      "outputs": [
        {
          "internalType": "uint256",
          "name": "",
          "type": "uint256"
        }
      ],
      "stateMutability": "view",
      "type": "function"
    },
    {
      "inputs": [],
      "name": "totalSupply",
      "outputs": [
        {
          "internalType": "uint256",
          "name": "",
          "type": "uint256"
        }
      ],
      "stateMutability": "view",
      "type": "function"
    },
    {
      "inputs": [
        {
          "internalType": "address",
          "name": "to",
          "type": "address"
        },
        {
          "internalType": "uint256",
          "name": "amount",
          "type": "uint256"
        }
      ],
      "name": "transfer",
      "outputs": [
        {
          "internalType": "bool",
          "name": "",
          "type": "bool"
        }
      ],
      "stateMutability": "nonpayable",
      "type": "function"
    },
    {
      "inputs": [
        {
          "internalType": "address",
          "name": "from",
          "type": "address"
        },
        {
          "internalType": "address",
          "name": "to",
          "type": "address"
        },
        {
          "internalType": "uint256",
          "name": "amount",
          "type": "uint256"
        }
      ],
      "name": "transferFrom",
      "outputs": [
        {
          "internalType": "bool",
          "name": "",
          "type": "bool"
        }
      ],
      "stateMutability": "nonpayable",
      "type": "function"
    },
    {
      "inputs": [],
      "name": "vaultStarted",
      "outputs": [
        {
          "internalType": "bool",
          "name": "",
          "type": "bool"
        }
      ],
      "stateMutability": "view",
      "type": "function"
    },
    {
      "inputs": [
        {
          "internalType": "uint256",
          "name": "assets",
          "type": "uint256"
        },
        {
          "internalType": "address",
          "name": "receiver",
          "type": "address"
        },
        {
          "internalType": "address",
          "name": "owner",
          "type": "address"
        }
      ],
      "name": "withdraw",
      "outputs": [
        {
          "internalType": "uint256",
          "name": "",
          "type": "uint256"
        }
      ],
      "stateMutability": "nonpayable",
      "type": "function"
    }
  ],
  "bytecode": {
    "object": "0x61018060405273111111111117dc0aa78b770fa6a738034120c30260c052739a0c8ff858d273f57072d714bca7411d717501d760e05273accfac2339e16dc80c50d2fa81b5c2b049b4f94761010052737e78a8337194c06314300d030d41eb31ed299c396101205273a289a03f46f144faadd9fc51b006d7322ecc9b046101405273ba12222222228d8ba445958a75a0704d566bf2c861016052348015620000a657600080fd5b5060c0516040518060400160405280600581526020016406f6e6555560dc1b8152506040518060400160405280600381526020016203155560ec1b8152508160039081620000f59190620002eb565b506004620001048282620002eb565b5050506000806200011b836200015c60201b60201c565b915091508162000140576200013a6200024160201b62001d3e1760201c565b62000142565b805b60ff1660a05250506001600160a01b031660805262000402565b60408051600481526024810182526020810180516001600160e01b031663313ce56760e01b17905290516000918291829182916001600160a01b03871691620001a591620003b7565b600060405180830381855afa9150503d8060008114620001e2576040519150601f19603f3d011682016040523d82523d6000602084013e620001e7565b606091505b5091509150818015620001fc57506020815110155b1562000234576000818060200190518101906200021a9190620003e8565b905060ff811162000232576001969095509350505050565b505b5060009485945092505050565b601290565b634e487b7160e01b600052604160045260246000fd5b600181811c908216806200027157607f821691505b6020821081036200029257634e487b7160e01b600052602260045260246000fd5b50919050565b601f821115620002e657600081815260208120601f850160051c81016020861015620002c15750805b601f850160051c820191505b81811015620002e257828155600101620002cd565b5050505b505050565b81516001600160401b0381111562000307576200030762000246565b6200031f816200031884546200025c565b8462000298565b602080601f8311600181146200035757600084156200033e5750858301515b600019600386901b1c1916600185901b178555620002e2565b600085815260208120601f198616915b82811015620003885788860151825594840194600190910190840162000367565b5085821015620003a75787850151600019600388901b60f8161c191681555b5050505050600190811b01905550565b6000825160005b81811015620003da5760208186018101518583015201620003be565b506000920191825250919050565b600060208284031215620003fb57600080fd5b5051919050565b60805160a05160c05160e05161010051610120516101405161016051612fdf620005096000396000818161030d015281816106b401528181611425015281816116fa01528181611a4c01528181611c1f0152611c5b015260008181610408015281816110a101528181611119015261118601526000818161057701526118b001526000818161065f0152610d6101526000818161063801528181610c9201528181610cd401526113a80152600081816104cb0152818161093a01528181610c7001528181610f2101528181610fb6015281816110dd015281816119bd0152611bf5015260006103840152600081816103b901528181612109015261234e0152612fdf6000f3fe608060405234801561001057600080fd5b506004361061028a5760003560e01c806395d89b411161015c578063c63d75b6116100ce578063d905777e11610087578063d905777e146105fb578063d9a7f64a1461060e578063dd62ed3e14610620578063e251574514610633578063ef8b30f7146105b7578063f9b86ed41461065a57600080fd5b8063c63d75b6146105a2578063c6e6f592146105b7578063c7c90d61146105ca578063ce96cb77146105d2578063cee73a76146105e5578063d3bdef37146105f257600080fd5b8063b3d7f6b911610120578063b3d7f6b914610526578063b460af9414610539578063b98ad2551461054c578063ba0876521461055f578063bf5d6d3e14610572578063c3d06a251461059957600080fd5b806395d89b41146104be57806399c03951146104c6578063a457c2d7146104ed578063a88b68b414610500578063a9059cbb1461051357600080fd5b806338d52e0f1161020057806370a08231116101b957806370a082311461043d57806372f4505114610466578063776da4701461047b578063817b1cd21461048e57806393a6e13c1461049757806394bf804d146104ab57600080fd5b806338d52e0f146103b757806339509351146103dd578063402d267d146103f05780634cdad506146102bf57806368753753146104035780636e553f651461042a57600080fd5b8063158274a511610252578063158274a51461030857806318160ddd146103475780631e31d0531461034f57806323b872dd1461036a578063313ce5671461037d5780633197cbb6146103ae57600080fd5b806301e1d1141461028f57806306fdde03146102aa57806307a2d13a146102bf578063095ea7b3146102d25780630a28a477146102f5575b600080fd5b610297610681565b6040519081526020015b60405180910390f35b6102b26109b9565b6040516102a1919061294d565b6102976102cd366004612960565b610a4b565b6102e56102e0366004612991565b610a5e565b60405190151581526020016102a1565b610297610303366004612960565b610a76565b61032f7f000000000000000000000000000000000000000000000000000000000000000081565b6040516001600160a01b0390911681526020016102a1565b600254610297565b60055461032f9064010000000090046001600160a01b031681565b6102e56103783660046129bd565b610a83565b60405160ff7f00000000000000000000000000000000000000000000000000000000000000001681526020016102a1565b61029760075481565b7f000000000000000000000000000000000000000000000000000000000000000061032f565b6102e56103eb366004612991565b610aa9565b6102976103fe3660046129fe565b610acb565b61032f7f000000000000000000000000000000000000000000000000000000000000000081565b610297610438366004612a1b565b610ae9565b61029761044b3660046129fe565b6001600160a01b031660009081526020819052604090205490565b610479610474366004612ab6565b610dc8565b005b60065461032f906001600160a01b031681565b61029760095481565b6005546102e5906301000000900460ff1681565b6102976104b9366004612a1b565b6111f9565b6102b2611213565b61032f7f000000000000000000000000000000000000000000000000000000000000000081565b6102e56104fb366004612991565b611222565b61047961050e3660046129fe565b6112a8565b6102e5610521366004612991565b61131b565b610297610534366004612960565b611329565b610297610547366004612b41565b611336565b6005546102e59062010000900460ff1681565b61029761056d366004612b41565b6117aa565b61032f7f000000000000000000000000000000000000000000000000000000000000000081565b610297600a5481565b6102976105b03660046129fe565b5060001990565b6102976105c5366004612960565b61181e565b61047961182b565b6102976105e03660046129fe565b611cd1565b6005546102e59060ff1681565b61029760085481565b6102976106093660046129fe565b611cf5565b6005546102e590610100900460ff1681565b61029761062e366004612b83565b611d13565b61032f7f000000000000000000000000000000000000000000000000000000000000000081565b61032f7f000000000000000000000000000000000000000000000000000000000000000081565b60055460009062010000900460ff16151560011480156106ab57506005546301000000900460ff16155b1561090f5760007f00000000000000000000000000000000000000000000000000000000000000006001600160a01b031663f94d4668600660009054906101000a90046001600160a01b03166001600160a01b03166338fff2d06040518163ffffffff1660e01b8152600401602060405180830381865afa158015610734573d6000803e3d6000fd5b505050506040513d601f19601f820116820180604052508101906107589190612bb1565b6040518263ffffffff1660e01b815260040161077691815260200190565b600060405180830381865afa158015610793573d6000803e3d6000fd5b505050506040513d6000823e601f3d908101601f191682016040526107bb9190810190612c30565b509150506000600660009054906101000a90046001600160a01b03166001600160a01b031663876f303b6040518163ffffffff1660e01b8152600401602060405180830381865afa158015610814573d6000803e3d6000fd5b505050506040513d601f19601f820116820180604052508101906108389190612bb1565b8260018151811061084b5761084b612cfe565b60200260200101518360008151811061086657610866612cfe565b60200260200101516108789190612d2a565b6006546040516370a0823160e01b81523060048201526001600160a01b03909116906370a0823190602401602060405180830381865afa1580156108c0573d6000803e3d6000fd5b505050506040513d601f19601f820116820180604052508101906108e49190612bb1565b6108ee9190612d3d565b6108f89190612d6a565b9050600954816109089190612d2a565b9250505090565b6005546301000000900460ff1615156001036109b2576040516370a0823160e01b81523060048201527f00000000000000000000000000000000000000000000000000000000000000006001600160a01b0316906370a0823190602401602060405180830381865afa158015610989573d6000803e3d6000fd5b505050506040513d601f19601f820116820180604052508101906109ad9190612bb1565b905090565b5060095490565b6060600380546109c890612d8c565b80601f01602080910402602001604051908101604052809291908181526020018280546109f490612d8c565b8015610a415780601f10610a1657610100808354040283529160200191610a41565b820191906000526020600020905b815481529060010190602001808311610a2457829003601f168201915b5050505050905090565b6000610a58826000611d43565b92915050565b600033610a6c818585611d76565b5060019392505050565b6000610a58826001611e9a565b600033610a91858285611ecc565b610a9c858585611f46565b60019150505b9392505050565b600033610a6c818585610abc8383611d13565b610ac69190612d2a565b611d76565b6000610ad56120ea565b610ae0576000610a58565b60001992915050565b6000610af482610acb565b831115610b485760405162461bcd60e51b815260206004820152601e60248201527f455243343632363a206465706f736974206d6f7265207468616e206d6178000060448201526064015b60405180910390fd5b6005546301000000900460ff1615610b8f5760405162461bcd60e51b815260206004820152600a602482015269141bdbdb08195b99195960b21b6044820152606401610b3f565b60055460009060ff1615158103610bea575060058054640100000000600160c01b03191677a260f8b7c8f37c2f1bc11b04c19902829de6ac8a000000001790556301e1853e610bde4282612d2a565b60075542600855610c25565b600854610bfa9062278d00612d2a565b421115610c255762278d0060076000828254610c169190612d2a565b9091555050426008555062278d005b6005805460ff191660011790556000610c3d8561181e565b90508460096000828254610c519190612d2a565b90915550610c63905033858784612104565b610cb76001600160a01b037f0000000000000000000000000000000000000000000000000000000000000000167f000000000000000000000000000000000000000000000000000000000000000087612196565b604051631c57762b60e31b815260048101869052602481018390527f00000000000000000000000000000000000000000000000000000000000000006001600160a01b03169063e2bbb15890604401600060405180830381600087803b158015610d2057600080fd5b505af1158015610d34573d6000803e3d6000fd5b50506005546040516317066a5760e21b81526401000000009091046001600160a01b0390811660048301527f0000000000000000000000000000000000000000000000000000000000000000169250635c19a95c9150602401600060405180830381600087803b158015610da757600080fd5b505af1158015610dbb573d6000803e3d6000fd5b5092979650505050505050565b60055462010000900460ff1615610e215760405162461bcd60e51b815260206004820181905260248201527f42616c616e63657220706f6f6c20616c726561647920696e7469616c697a65646044820152606401610b3f565b683635c9adc5dea0000081600081518110610e3e57610e3e612cfe565b602002602001015110158015610e775750683635c9adc5dea0000081600181518110610e6c57610e6c612cfe565b602002602001015110155b610eba5760405162461bcd60e51b8152602060048201526014602482015273696e73756666696369656e7420616d6f756e747360601b6044820152606401610b3f565b6005805462ff0000191662010000179055805181906001908110610ee057610ee0612cfe565b602002602001015160096000828254610ef99190612dc6565b90915550610f599050333083600081518110610f1757610f17612cfe565b60200260200101517f00000000000000000000000000000000000000000000000000000000000000006001600160a01b03166122e3909392919063ffffffff16565b610f93333083600181518110610f7157610f71612cfe565b6020026020010151306001600160a01b03166122e3909392919063ffffffff16565b6040805160028082526060820183526000926020830190803683370190505090507f000000000000000000000000000000000000000000000000000000000000000081600081518110610fe857610fe8612cfe565b60200260200101906001600160a01b031690816001600160a01b031681525050308160018151811061101c5761101c612cfe565b6001600160a01b039283166020918202929092018101919091526006546040805163038fff2d60e41b8152905160009492909216926338fff2d0926004808401938290030181865afa158015611076573d6000803e3d6000fd5b505050506040513d601f19601f8201168201806040525081019061109a9190612bb1565b90506111147f0000000000000000000000000000000000000000000000000000000000000000846000815181106110d3576110d3612cfe565b60200260200101517f00000000000000000000000000000000000000000000000000000000000000006001600160a01b03166121969092919063ffffffff16565b61116c7f00000000000000000000000000000000000000000000000000000000000000008460018151811061114b5761114b612cfe565b6020026020010151306001600160a01b03166121969092919063ffffffff16565b600654604051632af9495960e11b81526001600160a01b037f00000000000000000000000000000000000000000000000000000000000000008116926355f292b2926111c2928692169087908990600401612e4d565b600060405180830381600087803b1580156111dc57600080fd5b505af11580156111f0573d6000803e3d6000fd5b50505050505050565b60008061120584611329565b9050610aa233848387612104565b6060600480546109c890612d8c565b600033816112308286611d13565b9050838110156112905760405162461bcd60e51b815260206004820152602560248201527f45524332303a2064656372656173656420616c6c6f77616e63652062656c6f77604482015264207a65726f60d81b6064820152608401610b3f565b61129d8286868403611d76565b506001949350505050565b600554610100900460ff16156112f95760405162461bcd60e51b815260206004820152601660248201527510dd5c9d99481c1bdbdb08185b1c9958591e481cd95d60521b6044820152606401610b3f565b600680546001600160a01b0319166001600160a01b0392909216919091179055565b600033610a6c818585611f46565b6000610a58826001611d43565b600061134182611cd1565b8411156113905760405162461bcd60e51b815260206004820152601f60248201527f455243343632363a207769746864726177206d6f7265207468616e206d6178006044820152606401610b3f565b6005546301000000900460ff161515600003611788577f00000000000000000000000000000000000000000000000000000000000000006001600160a01b0316633ccfd60b6040518163ffffffff1660e01b8152600401600060405180830381600087803b15801561140157600080fd5b505af1158015611415573d6000803e3d6000fd5b50505050600060098190555060007f00000000000000000000000000000000000000000000000000000000000000006001600160a01b031663f94d4668600660009054906101000a90046001600160a01b03166001600160a01b03166338fff2d06040518163ffffffff1660e01b8152600401602060405180830381865afa1580156114a5573d6000803e3d6000fd5b505050506040513d601f19601f820116820180604052508101906114c99190612bb1565b6040518263ffffffff1660e01b81526004016114e791815260200190565b600060405180830381865afa158015611504573d6000803e3d6000fd5b505050506040513d6000823e601f3d908101601f1916820160405261152c9190810190612c30565b505090506000600660009054906101000a90046001600160a01b03166001600160a01b03166338fff2d06040518163ffffffff1660e01b8152600401602060405180830381865afa158015611585573d6000803e3d6000fd5b505050506040513d601f19601f820116820180604052508101906115a99190612bb1565b6040805160038082526080820190925291925060009190602082016060803683370190505090506000816000815181106115e5576115e5612cfe565b60200260200101818152505060008160018151811061160657611606612cfe565b60200260200101818152505060008160028151811061162757611627612cfe565b60209081029190910101526006546040516370a0823160e01b81523060048201526000916001916001600160a01b03909116906370a0823190602401602060405180830381865afa158015611680573d6000803e3d6000fd5b505050506040513d601f19601f820116820180604052508101906116a49190612bb1565b6040805160ff90931660208401528201526000606082015260800160408051808303601f1901815260808301825260006060840152868352602083018590528282018190529051638bdb391360e01b81529092507f00000000000000000000000000000000000000000000000000000000000000006001600160a01b031690638bdb39139061173d908790309081908790600401612eea565b600060405180830381600087803b15801561175757600080fd5b505af115801561176b573d6000803e3d6000fd5b50506005805463ff00000019166301000000179055505050505050505b600061179385610a76565b90506117a2338585888561231b565b949350505050565b60006117b582611cf5565b8411156118045760405162461bcd60e51b815260206004820152601d60248201527f455243343632363a2072656465656d206d6f7265207468616e206d61780000006044820152606401610b3f565b600061180f85610a4b565b90506117a2338585848961231b565b6000610a58826000611e9a565b60055462010000900460ff1615156001146118ae5760405162461bcd60e51b815260206004820152603c60248201527f4d616b6520616e20696e697469616c206465706f73697420746f20746865204260448201527f616c616e63657220706f6f6c206265666f726520636c61696d696e67000000006064820152608401610b3f565b7f00000000000000000000000000000000000000000000000000000000000000006001600160a01b0316634e71d92d6040518163ffffffff1660e01b8152600401600060405180830381600087803b15801561190957600080fd5b505af115801561191d573d6000803e3d6000fd5b505050506000600660009054906101000a90046001600160a01b03166001600160a01b03166338fff2d06040518163ffffffff1660e01b8152600401602060405180830381865afa158015611976573d6000803e3d6000fd5b505050506040513d601f19601f8201168201806040525081019061199a9190612bb1565b6040516370a0823160e01b81523060048201529091506000906001600160a01b037f000000000000000000000000000000000000000000000000000000000000000016906370a0823190602401602060405180830381865afa158015611a04573d6000803e3d6000fd5b505050506040513d601f19601f82011682018060405250810190611a289190612bb1565b604051631f29a8cd60e31b8152600481018490529091506000906001600160a01b037f0000000000000000000000000000000000000000000000000000000000000000169063f94d466890602401600060405180830381865afa158015611a93573d6000803e3d6000fd5b505050506040513d6000823e601f3d908101601f19168201604052611abb9190810190612c30565b50506040805160038082526080820190925291925060009190602082016060803683370190505090508281600081518110611af857611af8612cfe565b602002602001018181525050600081600181518110611b1957611b19612cfe565b602002602001018181525050600081600281518110611b3a57611b3a612cfe565b6020908102919091010152604080516002808252606082019092526000918160200160208202803683370190505090508381600081518110611b7e57611b7e612cfe565b602002602001018181525050600081600181518110611b9f57611b9f612cfe565b60200260200101818152505060006001826000604051602001611bc493929190612f26565b60408051808303601f1901815260808301825260006060840152868352602083018690529082018190529150611c447f00000000000000000000000000000000000000000000000000000000000000006001600160a01b03167f000000000000000000000000000000000000000000000000000000000000000088612196565b60405163172b958560e31b81526001600160a01b037f0000000000000000000000000000000000000000000000000000000000000000169063b95cac2890611c96908a90309081908790600401612eea565b600060405180830381600087803b158015611cb057600080fd5b505af1158015611cc4573d6000803e3d6000fd5b5050505050505050505050565b6001600160a01b038116600090815260208190526040812054610a58906000611d43565b6001600160a01b038116600090815260208190526040812054610a58565b6001600160a01b03918216600090815260016020908152604080832093909416825291909152205490565b601290565b600080611d4f60025490565b90508015611d7057611d6b611d62610681565b859083866123db565b6117a2565b836117a2565b6001600160a01b038316611dd85760405162461bcd60e51b8152602060048201526024808201527f45524332303a20617070726f76652066726f6d20746865207a65726f206164646044820152637265737360e01b6064820152608401610b3f565b6001600160a01b038216611e395760405162461bcd60e51b815260206004820152602260248201527f45524332303a20617070726f766520746f20746865207a65726f206164647265604482015261737360f01b6064820152608401610b3f565b6001600160a01b0383811660008181526001602090815260408083209487168084529482529182902085905590518481527f8c5be1e5ebec7d5bd14f71427d1e84f3dd0314c0f7b2291e5b200ac8c7c3b925910160405180910390a3505050565b600080611ea660025490565b9050831580611eb3575080155b611d7057611d6b81611ec3610681565b869190866123db565b6000611ed88484611d13565b90506000198114611f405781811015611f335760405162461bcd60e51b815260206004820152601d60248201527f45524332303a20696e73756666696369656e7420616c6c6f77616e63650000006044820152606401610b3f565b611f408484848403611d76565b50505050565b6001600160a01b038316611faa5760405162461bcd60e51b815260206004820152602560248201527f45524332303a207472616e736665722066726f6d20746865207a65726f206164604482015264647265737360d81b6064820152608401610b3f565b6001600160a01b03821661200c5760405162461bcd60e51b815260206004820152602360248201527f45524332303a207472616e7366657220746f20746865207a65726f206164647260448201526265737360e81b6064820152608401610b3f565b6001600160a01b038316600090815260208190526040902054818110156120845760405162461bcd60e51b815260206004820152602660248201527f45524332303a207472616e7366657220616d6f756e7420657863656564732062604482015265616c616e636560d01b6064820152608401610b3f565b6001600160a01b03848116600081815260208181526040808320878703905593871680835291849020805487019055925185815290927fddf252ad1be2c89b69c2b068fc378daa952ba7f163c4a11628f55a4df523b3ef910160405180910390a3611f40565b6000806120f5610681565b11806109ad5750506002541590565b6121307f00000000000000000000000000000000000000000000000000000000000000008530856122e3565b61213a8382612438565b826001600160a01b0316846001600160a01b03167fdcbc1c05240f31ff3ad067ef1ee35ce4997762752e3a095284754544f4c709d78484604051612188929190918252602082015260400190565b60405180910390a350505050565b8015806122105750604051636eb1769f60e11b81523060048201526001600160a01b03838116602483015284169063dd62ed3e90604401602060405180830381865afa1580156121ea573d6000803e3d6000fd5b505050506040513d601f19601f8201168201806040525081019061220e9190612bb1565b155b61227b5760405162461bcd60e51b815260206004820152603660248201527f5361666545524332303a20617070726f76652066726f6d206e6f6e2d7a65726f60448201527520746f206e6f6e2d7a65726f20616c6c6f77616e636560501b6064820152608401610b3f565b6040516001600160a01b0383166024820152604481018290526122de90849063095ea7b360e01b906064015b60408051601f198184030181529190526020810180516001600160e01b03166001600160e01b0319909316929092179091526124f7565b505050565b6040516001600160a01b0380851660248301528316604482015260648101829052611f409085906323b872dd60e01b906084016122a7565b826001600160a01b0316856001600160a01b03161461233f5761233f838683611ecc565b61234983826125c9565b6123747f000000000000000000000000000000000000000000000000000000000000000085846126fb565b826001600160a01b0316846001600160a01b0316866001600160a01b03167ffbde797d201c681b91056529119e0b02407c7bb96a4a2c75c01fc9667232c8db85856040516123cc929190918252602082015260400190565b60405180910390a45050505050565b6000806123e986868661272b565b905060018360028111156123ff576123ff612f55565b14801561241c57506000848061241757612417612d54565b868809115b1561242f5761242c600182612d2a565b90505b95945050505050565b6001600160a01b03821661248e5760405162461bcd60e51b815260206004820152601f60248201527f45524332303a206d696e7420746f20746865207a65726f2061646472657373006044820152606401610b3f565b80600260008282546124a09190612d2a565b90915550506001600160a01b038216600081815260208181526040808320805486019055518481527fddf252ad1be2c89b69c2b068fc378daa952ba7f163c4a11628f55a4df523b3ef910160405180910390a35050565b600061254c826040518060400160405280602081526020017f5361666545524332303a206c6f772d6c6576656c2063616c6c206661696c6564815250856001600160a01b03166127da9092919063ffffffff16565b8051909150156122de578080602001905181019061256a9190612f6b565b6122de5760405162461bcd60e51b815260206004820152602a60248201527f5361666545524332303a204552433230206f7065726174696f6e20646964206e6044820152691bdd081cdd58d8d9595960b21b6064820152608401610b3f565b6001600160a01b0382166126295760405162461bcd60e51b815260206004820152602160248201527f45524332303a206275726e2066726f6d20746865207a65726f206164647265736044820152607360f81b6064820152608401610b3f565b6001600160a01b0382166000908152602081905260409020548181101561269d5760405162461bcd60e51b815260206004820152602260248201527f45524332303a206275726e20616d6f756e7420657863656564732062616c616e604482015261636560f01b6064820152608401610b3f565b6001600160a01b0383166000818152602081815260408083208686039055600280548790039055518581529192917fddf252ad1be2c89b69c2b068fc378daa952ba7f163c4a11628f55a4df523b3ef910160405180910390a3505050565b6040516001600160a01b0383166024820152604481018290526122de90849063a9059cbb60e01b906064016122a7565b60008080600019858709858702925082811083820303915050806000036127655783828161275b5761275b612d54565b0492505050610aa2565b80841161277157600080fd5b60008486880960026001871981018816978890046003810283188082028403028082028403028082028403028082028403028082028403029081029092039091026000889003889004909101858311909403939093029303949094049190911702949350505050565b60606117a2848460008585600080866001600160a01b031685876040516128019190612f8d565b60006040518083038185875af1925050503d806000811461283e576040519150601f19603f3d011682016040523d82523d6000602084013e612843565b606091505b50915091506128548783838761285f565b979650505050505050565b606083156128ce5782516000036128c7576001600160a01b0385163b6128c75760405162461bcd60e51b815260206004820152601d60248201527f416464726573733a2063616c6c20746f206e6f6e2d636f6e74726163740000006044820152606401610b3f565b50816117a2565b6117a283838151156128e35781518083602001fd5b8060405162461bcd60e51b8152600401610b3f919061294d565b60005b83811015612918578181015183820152602001612900565b50506000910152565b600081518084526129398160208601602086016128fd565b601f01601f19169290920160200192915050565b602081526000610aa26020830184612921565b60006020828403121561297257600080fd5b5035919050565b6001600160a01b038116811461298e57600080fd5b50565b600080604083850312156129a457600080fd5b82356129af81612979565b946020939093013593505050565b6000806000606084860312156129d257600080fd5b83356129dd81612979565b925060208401356129ed81612979565b929592945050506040919091013590565b600060208284031215612a1057600080fd5b8135610aa281612979565b60008060408385031215612a2e57600080fd5b823591506020830135612a4081612979565b809150509250929050565b634e487b7160e01b600052604160045260246000fd5b604051601f8201601f1916810167ffffffffffffffff81118282101715612a8a57612a8a612a4b565b604052919050565b600067ffffffffffffffff821115612aac57612aac612a4b565b5060051b60200190565b60006020808385031215612ac957600080fd5b823567ffffffffffffffff811115612ae057600080fd5b8301601f81018513612af157600080fd5b8035612b04612aff82612a92565b612a61565b81815260059190911b82018301908381019087831115612b2357600080fd5b928401925b8284101561285457833582529284019290840190612b28565b600080600060608486031215612b5657600080fd5b833592506020840135612b6881612979565b91506040840135612b7881612979565b809150509250925092565b60008060408385031215612b9657600080fd5b8235612ba181612979565b91506020830135612a4081612979565b600060208284031215612bc357600080fd5b5051919050565b600082601f830112612bdb57600080fd5b81516020612beb612aff83612a92565b82815260059290921b84018101918181019086841115612c0a57600080fd5b8286015b84811015612c255780518352918301918301612c0e565b509695505050505050565b600080600060608486031215612c4557600080fd5b835167ffffffffffffffff80821115612c5d57600080fd5b818601915086601f830112612c7157600080fd5b81516020612c81612aff83612a92565b82815260059290921b8401810191818101908a841115612ca057600080fd5b948201945b83861015612cc7578551612cb881612979565b82529482019490820190612ca5565b91890151919750909350505080821115612ce057600080fd5b50612ced86828701612bca565b925050604084015190509250925092565b634e487b7160e01b600052603260045260246000fd5b634e487b7160e01b600052601160045260246000fd5b80820180821115610a5857610a58612d14565b8082028115828204841417610a5857610a58612d14565b634e487b7160e01b600052601260045260246000fd5b600082612d8757634e487b7160e01b600052601260045260246000fd5b500490565b600181811c90821680612da057607f821691505b602082108103612dc057634e487b7160e01b600052602260045260246000fd5b50919050565b81810381811115610a5857610a58612d14565b600081518084526020808501945080840160005b83811015612e125781516001600160a01b031687529582019590820190600101612ded565b509495945050505050565b600081518084526020808501945080840160005b83811015612e1257815187529582019590820190600101612e31565b8481526001600160a01b0384166020820152608060408201819052600090612e7790830185612dd9565b82810360608401526128548185612e1d565b6000815160808452612e9e6080850182612dd9565b905060208301518482036020860152612eb78282612e1d565b91505060408301518482036040860152612ed18282612921565b9150506060830151151560608501528091505092915050565b8481526001600160a01b03848116602083015283166040820152608060608201819052600090612f1c90830184612e89565b9695505050505050565b60ff84168152606060208201526000612f426060830185612e1d565b905060ff83166040830152949350505050565b634e487b7160e01b600052602160045260246000fd5b600060208284031215612f7d57600080fd5b81518015158114610aa257600080fd5b60008251612f9f8184602087016128fd565b919091019291505056fea2646970667358221220a0d2253f036a2db8c37455811b80b752418ee5ae1117e7e34b857e0a608b26c664736f6c63430008110033",
    "linkReferences": {}
  },
  "methodIdentifiers": {
    "allowance(address,address)": "dd62ed3e",
    "approve(address,uint256)": "095ea7b3",
    "asset()": "38d52e0f",
    "balanceOf(address)": "70a08231",
    "balancerPool()": "776da470",
    "balancerPoolCreationHelper()": "68753753",
    "balancerVault()": "158274a5",
    "claimRewardsFromDelegate()": "c7c90d61",
    "convertToAssets(uint256)": "07a2d13a",
    "convertToShares(uint256)": "c6e6f592",
    "decimals()": "313ce567",
    "decreaseAllowance(address,uint256)": "a457c2d7",
    "delegatee()": "1e31d053",
    "deposit(uint256,address)": "6e553f65",
    "endTime()": "3197cbb6",
    "increaseAllowance(address,uint256)": "39509351",
    "initBalancerPool(uint256[])": "72f45051",
    "lastUpdateEndTime()": "d3bdef37",
    "maxDeposit(address)": "402d267d",
    "maxMint(address)": "c63d75b6",
    "maxRedeem(address)": "d905777e",
    "maxWithdraw(address)": "ce96cb77",
    "mint(uint256,address)": "94bf804d",
    "name()": "06fdde03",
    "oneInchToken()": "99c03951",
    "poolAddressSet()": "d9a7f64a",
    "poolEnded()": "93a6e13c",
    "poolInitialDeposit1UP()": "c3d06a25",
    "poolInitialized()": "b98ad255",
    "powerPod()": "f9b86ed4",
    "previewDeposit(uint256)": "ef8b30f7",
    "previewMint(uint256)": "b3d7f6b9",
    "previewRedeem(uint256)": "4cdad506",
    "previewWithdraw(uint256)": "0a28a477",
    "redeem(uint256,address,address)": "ba087652",
    "resolverFarmingPod()": "bf5d6d3e",
    "setBalancerPool(address)": "a88b68b4",
    "stake1inch()": "e2515745",
    "symbol()": "95d89b41",
    "totalAssets()": "01e1d114",
    "totalStaked()": "817b1cd2",
    "totalSupply()": "18160ddd",
    "transfer(address,uint256)": "a9059cbb",
    "transferFrom(address,address,uint256)": "23b872dd",
    "vaultStarted()": "cee73a76",
    "withdraw(uint256,address,address)": "b460af94"
  },
  "id": 0
}