{
  "abi": [
    {
      "inputs": [
        {
          "internalType": "address",
          "name": "_stakingToken",
          "type": "address"
        }
      ],
      "stateMutability": "nonpayable",
      "type": "constructor"
    },
    {
      "anonymous": false,
      "inputs": [
        {
          "indexed": true,
          "internalType": "address",
          "name": "previousOwner",
          "type": "address"
        },
        {
          "indexed": true,
          "internalType": "address",
          "name": "newOwner",
          "type": "address"
        }
      ],
      "name": "OwnershipTransferred",
      "type": "event"
    },
    {
      "anonymous": false,
      "inputs": [
        {
          "indexed": false,
          "internalType": "address",
          "name": "token",
          "type": "address"
        },
        {
          "indexed": false,
          "internalType": "uint256",
          "name": "amount",
          "type": "uint256"
        }
      ],
      "name": "Recovered",
      "type": "event"
    },
    {
      "anonymous": false,
      "inputs": [
        {
          "indexed": false,
          "internalType": "uint256",
          "name": "reward",
          "type": "uint256"
        }
      ],
      "name": "RewardAdded",
      "type": "event"
    },
    {
      "anonymous": false,
      "inputs": [
        {
          "indexed": true,
          "internalType": "address",
          "name": "user",
          "type": "address"
        },
        {
          "indexed": true,
          "internalType": "address",
          "name": "rewardsToken",
          "type": "address"
        },
        {
          "indexed": false,
          "internalType": "uint256",
          "name": "reward",
          "type": "uint256"
        }
      ],
      "name": "RewardPaid",
      "type": "event"
    },
    {
      "anonymous": false,
      "inputs": [
        {
          "indexed": false,
          "internalType": "address",
          "name": "token",
          "type": "address"
        },
        {
          "indexed": false,
          "internalType": "uint256",
          "name": "newDuration",
          "type": "uint256"
        }
      ],
      "name": "RewardsDurationUpdated",
      "type": "event"
    },
    {
      "anonymous": false,
      "inputs": [
        {
          "indexed": true,
          "internalType": "address",
          "name": "user",
          "type": "address"
        },
        {
          "indexed": false,
          "internalType": "uint256",
          "name": "amount",
          "type": "uint256"
        }
      ],
      "name": "Staked",
      "type": "event"
    },
    {
      "anonymous": false,
      "inputs": [
        {
          "indexed": true,
          "internalType": "address",
          "name": "user",
          "type": "address"
        },
        {
          "indexed": false,
          "internalType": "uint256",
          "name": "amount",
          "type": "uint256"
        }
      ],
      "name": "Withdrawn",
      "type": "event"
    },
    {
      "inputs": [
        {
          "internalType": "address",
          "name": "_rewardsToken",
          "type": "address"
        },
        {
          "internalType": "address",
          "name": "_rewardsDistributor",
          "type": "address"
        },
        {
          "internalType": "uint256",
          "name": "_rewardsDuration",
          "type": "uint256"
        }
      ],
      "name": "addReward",
      "outputs": [],
      "stateMutability": "nonpayable",
      "type": "function"
    },
    {
      "inputs": [
        {
          "internalType": "address",
          "name": "account",
          "type": "address"
        }
      ],
      "name": "balanceOf",
      "outputs": [
        {
          "internalType": "uint256",
          "name": "",
          "type": "uint256"
        }
      ],
      "stateMutability": "view",
      "type": "function"
    },
    {
      "inputs": [
        {
          "internalType": "address",
          "name": "account",
          "type": "address"
        },
        {
          "internalType": "address",
          "name": "_rewardsToken",
          "type": "address"
        }
      ],
      "name": "earned",
      "outputs": [
        {
          "internalType": "uint256",
          "name": "",
          "type": "uint256"
        }
      ],
      "stateMutability": "view",
      "type": "function"
    },
    {
      "inputs": [],
      "name": "exit",
      "outputs": [],
      "stateMutability": "nonpayable",
      "type": "function"
    },
    {
      "inputs": [],
      "name": "getReward",
      "outputs": [],
      "stateMutability": "nonpayable",
      "type": "function"
    },
    {
      "inputs": [
        {
          "internalType": "address",
          "name": "_rewardsToken",
          "type": "address"
        }
      ],
      "name": "getRewardForDuration",
      "outputs": [
        {
          "internalType": "uint256",
          "name": "",
          "type": "uint256"
        }
      ],
      "stateMutability": "view",
      "type": "function"
    },
    {
      "inputs": [
        {
          "internalType": "address",
          "name": "_rewardsToken",
          "type": "address"
        }
      ],
      "name": "lastTimeRewardApplicable",
      "outputs": [
        {
          "internalType": "uint256",
          "name": "",
          "type": "uint256"
        }
      ],
      "stateMutability": "view",
      "type": "function"
    },
    {
      "inputs": [
        {
          "internalType": "address",
          "name": "_rewardsToken",
          "type": "address"
        },
        {
          "internalType": "uint256",
          "name": "reward",
          "type": "uint256"
        }
      ],
      "name": "notifyRewardAmount",
      "outputs": [],
      "stateMutability": "nonpayable",
      "type": "function"
    },
    {
      "inputs": [],
      "name": "owner",
      "outputs": [
        {
          "internalType": "address",
          "name": "",
          "type": "address"
        }
      ],
      "stateMutability": "view",
      "type": "function"
    },
    {
      "inputs": [
        {
          "internalType": "address",
          "name": "tokenAddress",
          "type": "address"
        },
        {
          "internalType": "uint256",
          "name": "tokenAmount",
          "type": "uint256"
        }
      ],
      "name": "recoverERC20",
      "outputs": [],
      "stateMutability": "nonpayable",
      "type": "function"
    },
    {
      "inputs": [],
      "name": "renounceOwnership",
      "outputs": [],
      "stateMutability": "nonpayable",
      "type": "function"
    },
    {
      "inputs": [
        {
          "internalType": "address",
          "name": "",
          "type": "address"
        }
      ],
      "name": "rewardData",
      "outputs": [
        {
          "internalType": "address",
          "name": "rewardsDistributor",
          "type": "address"
        },
        {
          "internalType": "uint256",
          "name": "rewardsDuration",
          "type": "uint256"
        },
        {
          "internalType": "uint256",
          "name": "periodFinish",
          "type": "uint256"
        },
        {
          "internalType": "uint256",
          "name": "rewardRate",
          "type": "uint256"
        },
        {
          "internalType": "uint256",
          "name": "lastUpdateTime",
          "type": "uint256"
        },
        {
          "internalType": "uint256",
          "name": "rewardPerTokenStored",
          "type": "uint256"
        }
      ],
      "stateMutability": "view",
      "type": "function"
    },
    {
      "inputs": [
        {
          "internalType": "address",
          "name": "_rewardsToken",
          "type": "address"
        }
      ],
      "name": "rewardPerToken",
      "outputs": [
        {
          "internalType": "uint256",
          "name": "",
          "type": "uint256"
        }
      ],
      "stateMutability": "view",
      "type": "function"
    },
    {
      "inputs": [
        {
          "internalType": "uint256",
          "name": "",
          "type": "uint256"
        }
      ],
      "name": "rewardTokens",
      "outputs": [
        {
          "internalType": "address",
          "name": "",
          "type": "address"
        }
      ],
      "stateMutability": "view",
      "type": "function"
    },
    {
      "inputs": [
        {
          "internalType": "address",
          "name": "",
          "type": "address"
        },
        {
          "internalType": "address",
          "name": "",
          "type": "address"
        }
      ],
      "name": "rewards",
      "outputs": [
        {
          "internalType": "uint256",
          "name": "",
          "type": "uint256"
        }
      ],
      "stateMutability": "view",
      "type": "function"
    },
    {
      "inputs": [
        {
          "internalType": "address",
          "name": "_rewardsToken",
          "type": "address"
        },
        {
          "internalType": "address",
          "name": "_rewardsDistributor",
          "type": "address"
        }
      ],
      "name": "setRewardsDistributor",
      "outputs": [],
      "stateMutability": "nonpayable",
      "type": "function"
    },
    {
      "inputs": [
        {
          "internalType": "address",
          "name": "_rewardsToken",
          "type": "address"
        },
        {
          "internalType": "uint256",
          "name": "_rewardsDuration",
          "type": "uint256"
        }
      ],
      "name": "setRewardsDuration",
      "outputs": [],
      "stateMutability": "nonpayable",
      "type": "function"
    },
    {
      "inputs": [
        {
          "internalType": "uint256",
          "name": "amount",
          "type": "uint256"
        }
      ],
      "name": "stake",
      "outputs": [],
      "stateMutability": "nonpayable",
      "type": "function"
    },
    {
      "inputs": [],
      "name": "stakingToken",
      "outputs": [
        {
          "internalType": "contract IERC20",
          "name": "",
          "type": "address"
        }
      ],
      "stateMutability": "view",
      "type": "function"
    },
    {
      "inputs": [],
      "name": "totalSupply",
      "outputs": [
        {
          "internalType": "uint256",
          "name": "",
          "type": "uint256"
        }
      ],
      "stateMutability": "view",
      "type": "function"
    },
    {
      "inputs": [
        {
          "internalType": "address",
          "name": "newOwner",
          "type": "address"
        }
      ],
      "name": "transferOwnership",
      "outputs": [],
      "stateMutability": "nonpayable",
      "type": "function"
    },
    {
      "inputs": [
        {
          "internalType": "address",
          "name": "",
          "type": "address"
        },
        {
          "internalType": "address",
          "name": "",
          "type": "address"
        }
      ],
      "name": "userRewardPerTokenPaid",
      "outputs": [
        {
          "internalType": "uint256",
          "name": "",
          "type": "uint256"
        }
      ],
      "stateMutability": "view",
      "type": "function"
    },
    {
      "inputs": [
        {
          "internalType": "uint256",
          "name": "amount",
          "type": "uint256"
        }
      ],
      "name": "withdraw",
      "outputs": [],
      "stateMutability": "nonpayable",
      "type": "function"
    }
  ],
  "bytecode": {
    "object": "0x60806040523480156200001157600080fd5b5060405162001a6038038062001a608339810160408190526200003491620001a4565b6001600055620000443362000071565b600280546001600160a01b0319166001600160a01b0383161790556200006a81620000c3565b50620001d6565b600180546001600160a01b038381166001600160a01b0319831681179093556040519116919082907f8be0079c531659141344cd1fd0a4f28419497f9722a3daafe3b4186f6b6457e090600090a35050565b620000cd62000146565b6001600160a01b038116620001385760405162461bcd60e51b815260206004820152602660248201527f4f776e61626c653a206e6577206f776e657220697320746865207a65726f206160448201526564647265737360d01b60648201526084015b60405180910390fd5b620001438162000071565b50565b6001546001600160a01b03163314620001a25760405162461bcd60e51b815260206004820181905260248201527f4f776e61626c653a2063616c6c6572206973206e6f7420746865206f776e657260448201526064016200012f565b565b600060208284031215620001b757600080fd5b81516001600160a01b0381168114620001cf57600080fd5b9392505050565b61187a80620001e66000396000f3fe608060405234801561001057600080fd5b506004361061014d5760003560e01c806372f702f3116100c3578063bcd110141161007c578063bcd110141461033d578063d0ed26ae14610350578063e70b9e2714610363578063e9fad8ee1461038e578063f122977714610396578063f2fde38b146103a957600080fd5b806372f702f3146102b55780637bb7bed1146102e05780638980f11f146102f35780638da5cb5b14610306578063a694fc3a14610317578063b66503cf1461032a57600080fd5b80633f695b45116101155780633f695b45146101ac57806348e5d9f8146101bf578063638634ee146102465780637035ab981461025957806370a0823114610284578063715018a6146102ad57600080fd5b806318160ddd14610152578063211dc32d146101695780632378bea61461017c5780632e1a7d4d146101915780633d18b912146101a4575b600080fd5b6007545b6040519081526020015b60405180910390f35b610156610177366004611637565b6103bc565b61018f61018a36600461166a565b610457565b005b61018f61019f366004611694565b610598565b61018f610778565b61018f6101ba366004611637565b610969565b61020f6101cd3660046116ad565b60036020819052600091825260409091208054600182015460028301549383015460048401546005909401546001600160a01b03909316949193919290919086565b604080516001600160a01b0390971687526020870195909552938501929092526060840152608083015260a082015260c001610160565b6101566102543660046116ad565b61099f565b610156610267366004611637565b600560209081526000928352604080842090915290825290205481565b6101566102923660046116ad565b6001600160a01b031660009081526008602052604090205490565b61018f6109c6565b6002546102c8906001600160a01b031681565b6040516001600160a01b039091168152602001610160565b6102c86102ee366004611694565b6109d8565b61018f61030136600461166a565b610a02565b6001546001600160a01b03166102c8565b61018f610325366004611694565b610b36565b61018f61033836600461166a565b610d02565b61015661034b3660046116ad565b610fc7565b61018f61035e3660046116c8565b610ff2565b610156610371366004611637565b600660209081526000928352604080842090915290825290205481565b61018f61108e565b6101566103a43660046116ad565b6110af565b61018f6103b73660046116ad565b611152565b6001600160a01b03808316600081815260066020908152604080832094861680845294825280832054938352600582528083209483529390529182205461044e919061044890670de0b6b3a764000090610442906104239061041d896110af565b906111c8565b6001600160a01b038916600090815260086020526040902054906111d4565b906111e0565b906111ec565b90505b92915050565b6001600160a01b03821660009081526003602052604090206002015442116104c65760405162461bcd60e51b815260206004820152601a60248201527f52657761726420706572696f64207374696c6c2061637469766500000000000060448201526064015b60405180910390fd5b6001600160a01b038281166000908152600360205260409020541633146104ec57600080fd5b6000811161053c5760405162461bcd60e51b815260206004820181905260248201527f526577617264206475726174696f6e206d757374206265206e6f6e2d7a65726f60448201526064016104bd565b6001600160a01b038216600081815260036020908152604091829020600101849055815192835282018390527fad2f86b01ed93b4b3a150d448c61a4f5d8d38075d3c0c64cc0a26fd6e1f4954591015b60405180910390a15050565b6105a06111f8565b3360005b600454811015610699576000600482815481106105c3576105c3611704565b6000918252602090912001546001600160a01b031690506105e3816110af565b6001600160a01b0382166000908152600360205260409020600501556106088161099f565b6001600160a01b038083166000908152600360205260409020600401919091558316156106865761063983826103bc565b6001600160a01b0380851660008181526006602090815260408083209487168084529482528083209590955560038152848220600590810154938352815284822093825292909252919020555b508061069181611730565b9150506105a4565b50600082116106de5760405162461bcd60e51b8152602060048201526011602482015270043616e6e6f74207769746864726177203607c1b60448201526064016104bd565b6007546106eb90836111c8565b6007553360009081526008602052604090205461070890836111c8565b33600081815260086020526040902091909155600254610734916001600160a01b039091169084611251565b60405182815233907f7084f5476618d8e60b11ef0d7d3f06914655adb8793e28ff7f018d4c76d505d5906020015b60405180910390a2506107756001600055565b50565b6107806111f8565b3360005b600454811015610879576000600482815481106107a3576107a3611704565b6000918252602090912001546001600160a01b031690506107c3816110af565b6001600160a01b0382166000908152600360205260409020600501556107e88161099f565b6001600160a01b038083166000908152600360205260409020600401919091558316156108665761081983826103bc565b6001600160a01b0380851660008181526006602090815260408083209487168084529482528083209590955560038152848220600590810154938352815284822093825292909252919020555b508061087181611730565b915050610784565b5060005b60045481101561095b5760006004828154811061089c5761089c611704565b60009182526020808320909101543383526006825260408084206001600160a01b03909216808552919092529120549091508015610946573360008181526006602090815260408083206001600160a01b03871680855292528220919091556109059183611251565b6040518181526001600160a01b0383169033907f540798df468d7b23d11f156fdb954cb19ad414d150722a7b6d55ba369dea792e9060200160405180910390a35b5050808061095390611730565b91505061087d565b50506109676001600055565b565b6109716112b9565b6001600160a01b03918216600090815260036020526040902080546001600160a01b03191691909216179055565b6001600160a01b038116600090815260036020526040812060020154610451904290611313565b6109ce6112b9565b6109676000611329565b600481815481106109e857600080fd5b6000918252602090912001546001600160a01b0316905081565b610a0a6112b9565b6002546001600160a01b0390811690831603610a685760405162461bcd60e51b815260206004820152601d60248201527f43616e6e6f74207769746864726177207374616b696e6720746f6b656e00000060448201526064016104bd565b6001600160a01b03821660009081526003602052604090206004015415610ad15760405162461bcd60e51b815260206004820152601c60248201527f43616e6e6f742077697468647261772072657761726420746f6b656e0000000060448201526064016104bd565b610af7610ae66001546001600160a01b031690565b6001600160a01b0384169083611251565b604080516001600160a01b0384168152602081018390527f8c1256b8896378cd5044f80c202f9772b9d77dc85c8a6eb51967210b09bfaa28910161058c565b610b3e6111f8565b3360005b600454811015610c3757600060048281548110610b6157610b61611704565b6000918252602090912001546001600160a01b03169050610b81816110af565b6001600160a01b038216600090815260036020526040902060050155610ba68161099f565b6001600160a01b03808316600090815260036020526040902060040191909155831615610c2457610bd783826103bc565b6001600160a01b0380851660008181526006602090815260408083209487168084529482528083209590955560038152848220600590810154938352815284822093825292909252919020555b5080610c2f81611730565b915050610b42565b5060008211610c795760405162461bcd60e51b815260206004820152600e60248201526d043616e6e6f74207374616b6520360941b60448201526064016104bd565b600754610c8690836111ec565b60075533600090815260086020526040902054610ca390836111ec565b33600081815260086020526040902091909155600254610cd0916001600160a01b0390911690308561137b565b60405182815233907f9e71bc8eea02a63969f509818f2dafb9254532904319f9dbda79b67bd34a5f3d90602001610762565b6000805b600454811015610dfb57600060048281548110610d2557610d25611704565b6000918252602090912001546001600160a01b03169050610d45816110af565b6001600160a01b038216600090815260036020526040902060050155610d6a8161099f565b6001600160a01b03808316600090815260036020526040902060040191909155831615610de857610d9b83826103bc565b6001600160a01b0380851660008181526006602090815260408083209487168084529482528083209590955560038152848220600590810154938352815284822093825292909252919020555b5080610df381611730565b915050610d06565b506001600160a01b03838116600090815260036020526040902054163314610e2257600080fd5b610e376001600160a01b03841633308561137b565b6001600160a01b0383166000908152600360205260409020600201544210610ea2576001600160a01b038316600090815260036020526040902060010154610e809083906111e0565b6001600160a01b03841660009081526003602081905260409091200155610f40565b6001600160a01b038316600090815260036020526040812060020154610ec890426111c8565b6001600160a01b03851660009081526003602081905260408220015491925090610ef39083906111d4565b6001600160a01b038616600090815260036020526040902060010154909150610f209061044286846111ec565b6001600160a01b0386166000908152600360208190526040909120015550505b6001600160a01b03831660009081526003602052604090204260048201819055600190910154610f7091906111ec565b6001600160a01b03841660009081526003602090815260409182902060020192909255518381527fde88a922e0d3b88b24e9623efeb464919c6bf9f66857a65e2bfcf2ce87a9433d910160405180910390a1505050565b6001600160a01b038116600090815260036020819052604082206001810154910154610451916111d4565b610ffa6112b9565b6001600160a01b0383166000908152600360205260409020600101541561102057600080fd5b6004805460018181019092557f8a35acfbc15ff81a39ae7d344fd709f28e8600b4aa8c65c6b64bfe7fe36bd19b0180546001600160a01b039586166001600160a01b031991821681179092556000918252600360205260409091208054949095169316929092178355910155565b336000908152600860205260409020546110a790610598565b610967610778565b60006007546000036110da57506001600160a01b031660009081526003602052604090206005015490565b6007546001600160a01b0383166000908152600360208190526040909120908101546004909101546104519261113092909161044291670de0b6b3a76400009161112a9190829061041d8b61099f565b906111d4565b6001600160a01b038416600090815260036020526040902060050154906111ec565b61115a6112b9565b6001600160a01b0381166111bf5760405162461bcd60e51b815260206004820152602660248201527f4f776e61626c653a206e6577206f776e657220697320746865207a65726f206160448201526564647265737360d01b60648201526084016104bd565b61077581611329565b600061044e8284611749565b600061044e828461175c565b600061044e8284611773565b600061044e8284611795565b60026000540361124a5760405162461bcd60e51b815260206004820152601f60248201527f5265656e7472616e637947756172643a207265656e7472616e742063616c6c0060448201526064016104bd565b6002600055565b6040516001600160a01b0383166024820152604481018290526112b490849063a9059cbb60e01b906064015b60408051601f198184030181529190526020810180516001600160e01b03166001600160e01b0319909316929092179091526113b9565b505050565b6001546001600160a01b031633146109675760405162461bcd60e51b815260206004820181905260248201527f4f776e61626c653a2063616c6c6572206973206e6f7420746865206f776e657260448201526064016104bd565b6000818310611322578161044e565b5090919050565b600180546001600160a01b038381166001600160a01b0319831681179093556040519116919082907f8be0079c531659141344cd1fd0a4f28419497f9722a3daafe3b4186f6b6457e090600090a35050565b6040516001600160a01b03808516602483015283166044820152606481018290526113b39085906323b872dd60e01b9060840161127d565b50505050565b600061140e826040518060400160405280602081526020017f5361666545524332303a206c6f772d6c6576656c2063616c6c206661696c6564815250856001600160a01b031661148b9092919063ffffffff16565b8051909150156112b4578080602001905181019061142c91906117a8565b6112b45760405162461bcd60e51b815260206004820152602a60248201527f5361666545524332303a204552433230206f7065726174696f6e20646964206e6044820152691bdd081cdd58d8d9595960b21b60648201526084016104bd565b606061149a84846000856114a2565b949350505050565b6060824710156115035760405162461bcd60e51b815260206004820152602660248201527f416464726573733a20696e73756666696369656e742062616c616e636520666f6044820152651c8818d85b1b60d21b60648201526084016104bd565b600080866001600160a01b0316858760405161151f91906117f5565b60006040518083038185875af1925050503d806000811461155c576040519150601f19603f3d011682016040523d82523d6000602084013e611561565b606091505b50915091506115728783838761157d565b979650505050505050565b606083156115ec5782516000036115e5576001600160a01b0385163b6115e55760405162461bcd60e51b815260206004820152601d60248201527f416464726573733a2063616c6c20746f206e6f6e2d636f6e747261637400000060448201526064016104bd565b508161149a565b61149a83838151156116015781518083602001fd5b8060405162461bcd60e51b81526004016104bd9190611811565b80356001600160a01b038116811461163257600080fd5b919050565b6000806040838503121561164a57600080fd5b6116538361161b565b91506116616020840161161b565b90509250929050565b6000806040838503121561167d57600080fd5b6116868361161b565b946020939093013593505050565b6000602082840312156116a657600080fd5b5035919050565b6000602082840312156116bf57600080fd5b61044e8261161b565b6000806000606084860312156116dd57600080fd5b6116e68461161b565b92506116f46020850161161b565b9150604084013590509250925092565b634e487b7160e01b600052603260045260246000fd5b634e487b7160e01b600052601160045260246000fd5b6000600182016117425761174261171a565b5060010190565b818103818111156104515761045161171a565b80820281158282048414176104515761045161171a565b60008261179057634e487b7160e01b600052601260045260246000fd5b500490565b808201808211156104515761045161171a565b6000602082840312156117ba57600080fd5b815180151581146117ca57600080fd5b9392505050565b60005b838110156117ec5781810151838201526020016117d4565b50506000910152565b600082516118078184602087016117d1565b9190910192915050565b60208152600082518060208401526118308160408501602087016117d1565b601f01601f1916919091016040019291505056fea2646970667358221220c3cd8b61ccdb301b76a502447a790627663bb290c573c58d0874460444c88ccb64736f6c63430008110033",
    "linkReferences": {}
  },
  "methodIdentifiers": {
    "addReward(address,address,uint256)": "d0ed26ae",
    "balanceOf(address)": "70a08231",
    "earned(address,address)": "211dc32d",
    "exit()": "e9fad8ee",
    "getReward()": "3d18b912",
    "getRewardForDuration(address)": "bcd11014",
    "lastTimeRewardApplicable(address)": "638634ee",
    "notifyRewardAmount(address,uint256)": "b66503cf",
    "owner()": "8da5cb5b",
    "recoverERC20(address,uint256)": "8980f11f",
    "renounceOwnership()": "715018a6",
    "rewardData(address)": "48e5d9f8",
    "rewardPerToken(address)": "f1229777",
    "rewardTokens(uint256)": "7bb7bed1",
    "rewards(address,address)": "e70b9e27",
    "setRewardsDistributor(address,address)": "3f695b45",
    "setRewardsDuration(address,uint256)": "2378bea6",
    "stake(uint256)": "a694fc3a",
    "stakingToken()": "72f702f3",
    "totalSupply()": "18160ddd",
    "transferOwnership(address)": "f2fde38b",
    "userRewardPerTokenPaid(address,address)": "7035ab98",
    "withdraw(uint256)": "2e1a7d4d"
  },
  "id": 1
}