{
  "abi": [
    {
      "inputs": [
        {
          "internalType": "address",
          "name": "_stakingToken",
          "type": "address"
        }
      ],
      "stateMutability": "nonpayable",
      "type": "constructor"
    },
    {
      "anonymous": false,
      "inputs": [
        {
          "indexed": true,
          "internalType": "address",
          "name": "previousOwner",
          "type": "address"
        },
        {
          "indexed": true,
          "internalType": "address",
          "name": "newOwner",
          "type": "address"
        }
      ],
      "name": "OwnershipTransferred",
      "type": "event"
    },
    {
      "anonymous": false,
      "inputs": [
        {
          "indexed": false,
          "internalType": "address",
          "name": "token",
          "type": "address"
        },
        {
          "indexed": false,
          "internalType": "uint256",
          "name": "amount",
          "type": "uint256"
        }
      ],
      "name": "Recovered",
      "type": "event"
    },
    {
      "anonymous": false,
      "inputs": [
        {
          "indexed": false,
          "internalType": "uint256",
          "name": "reward",
          "type": "uint256"
        }
      ],
      "name": "RewardAdded",
      "type": "event"
    },
    {
      "anonymous": false,
      "inputs": [
        {
          "indexed": true,
          "internalType": "address",
          "name": "user",
          "type": "address"
        },
        {
          "indexed": true,
          "internalType": "address",
          "name": "rewardsToken",
          "type": "address"
        },
        {
          "indexed": false,
          "internalType": "uint256",
          "name": "reward",
          "type": "uint256"
        }
      ],
      "name": "RewardPaid",
      "type": "event"
    },
    {
      "anonymous": false,
      "inputs": [
        {
          "indexed": false,
          "internalType": "address",
          "name": "token",
          "type": "address"
        },
        {
          "indexed": false,
          "internalType": "uint256",
          "name": "newDuration",
          "type": "uint256"
        }
      ],
      "name": "RewardsDurationUpdated",
      "type": "event"
    },
    {
      "anonymous": false,
      "inputs": [
        {
          "indexed": true,
          "internalType": "address",
          "name": "user",
          "type": "address"
        },
        {
          "indexed": false,
          "internalType": "uint256",
          "name": "amount",
          "type": "uint256"
        }
      ],
      "name": "Staked",
      "type": "event"
    },
    {
      "anonymous": false,
      "inputs": [
        {
          "indexed": true,
          "internalType": "address",
          "name": "user",
          "type": "address"
        },
        {
          "indexed": false,
          "internalType": "uint256",
          "name": "amount",
          "type": "uint256"
        }
      ],
      "name": "Withdrawn",
      "type": "event"
    },
    {
      "inputs": [
        {
          "internalType": "address",
          "name": "_rewardsToken",
          "type": "address"
        },
        {
          "internalType": "address",
          "name": "_rewardsDistributor",
          "type": "address"
        },
        {
          "internalType": "uint256",
          "name": "_rewardsDuration",
          "type": "uint256"
        }
      ],
      "name": "addReward",
      "outputs": [],
      "stateMutability": "nonpayable",
      "type": "function"
    },
    {
      "inputs": [
        {
          "internalType": "address",
          "name": "account",
          "type": "address"
        }
      ],
      "name": "balanceOf",
      "outputs": [
        {
          "internalType": "uint256",
          "name": "",
          "type": "uint256"
        }
      ],
      "stateMutability": "view",
      "type": "function"
    },
    {
      "inputs": [
        {
          "internalType": "address",
          "name": "account",
          "type": "address"
        },
        {
          "internalType": "address",
          "name": "_rewardsToken",
          "type": "address"
        }
      ],
      "name": "earned",
      "outputs": [
        {
          "internalType": "uint256",
          "name": "",
          "type": "uint256"
        }
      ],
      "stateMutability": "view",
      "type": "function"
    },
    {
      "inputs": [],
      "name": "exit",
      "outputs": [],
      "stateMutability": "nonpayable",
      "type": "function"
    },
    {
      "inputs": [],
      "name": "getReward",
      "outputs": [],
      "stateMutability": "nonpayable",
      "type": "function"
    },
    {
      "inputs": [
        {
          "internalType": "address",
          "name": "_rewardsToken",
          "type": "address"
        }
      ],
      "name": "getRewardForDuration",
      "outputs": [
        {
          "internalType": "uint256",
          "name": "",
          "type": "uint256"
        }
      ],
      "stateMutability": "view",
      "type": "function"
    },
    {
      "inputs": [
        {
          "internalType": "address",
          "name": "_rewardsToken",
          "type": "address"
        }
      ],
      "name": "lastTimeRewardApplicable",
      "outputs": [
        {
          "internalType": "uint256",
          "name": "",
          "type": "uint256"
        }
      ],
      "stateMutability": "view",
      "type": "function"
    },
    {
      "inputs": [
        {
          "internalType": "address",
          "name": "_rewardsToken",
          "type": "address"
        },
        {
          "internalType": "uint256",
          "name": "reward",
          "type": "uint256"
        }
      ],
      "name": "notifyRewardAmount",
      "outputs": [],
      "stateMutability": "nonpayable",
      "type": "function"
    },
    {
      "inputs": [],
      "name": "owner",
      "outputs": [
        {
          "internalType": "address",
          "name": "",
          "type": "address"
        }
      ],
      "stateMutability": "view",
      "type": "function"
    },
    {
      "inputs": [
        {
          "internalType": "address",
          "name": "tokenAddress",
          "type": "address"
        },
        {
          "internalType": "uint256",
          "name": "tokenAmount",
          "type": "uint256"
        }
      ],
      "name": "recoverERC20",
      "outputs": [],
      "stateMutability": "nonpayable",
      "type": "function"
    },
    {
      "inputs": [],
      "name": "renounceOwnership",
      "outputs": [],
      "stateMutability": "nonpayable",
      "type": "function"
    },
    {
      "inputs": [
        {
          "internalType": "address",
          "name": "",
          "type": "address"
        }
      ],
      "name": "rewardData",
      "outputs": [
        {
          "internalType": "address",
          "name": "rewardsDistributor",
          "type": "address"
        },
        {
          "internalType": "uint256",
          "name": "rewardsDuration",
          "type": "uint256"
        },
        {
          "internalType": "uint256",
          "name": "periodFinish",
          "type": "uint256"
        },
        {
          "internalType": "uint256",
          "name": "rewardRate",
          "type": "uint256"
        },
        {
          "internalType": "uint256",
          "name": "lastUpdateTime",
          "type": "uint256"
        },
        {
          "internalType": "uint256",
          "name": "rewardPerTokenStored",
          "type": "uint256"
        }
      ],
      "stateMutability": "view",
      "type": "function"
    },
    {
      "inputs": [
        {
          "internalType": "address",
          "name": "_rewardsToken",
          "type": "address"
        }
      ],
      "name": "rewardPerToken",
      "outputs": [
        {
          "internalType": "uint256",
          "name": "",
          "type": "uint256"
        }
      ],
      "stateMutability": "view",
      "type": "function"
    },
    {
      "inputs": [
        {
          "internalType": "uint256",
          "name": "",
          "type": "uint256"
        }
      ],
      "name": "rewardTokens",
      "outputs": [
        {
          "internalType": "address",
          "name": "",
          "type": "address"
        }
      ],
      "stateMutability": "view",
      "type": "function"
    },
    {
      "inputs": [
        {
          "internalType": "address",
          "name": "",
          "type": "address"
        },
        {
          "internalType": "address",
          "name": "",
          "type": "address"
        }
      ],
      "name": "rewards",
      "outputs": [
        {
          "internalType": "uint256",
          "name": "",
          "type": "uint256"
        }
      ],
      "stateMutability": "view",
      "type": "function"
    },
    {
      "inputs": [
        {
          "internalType": "address",
          "name": "_rewardsToken",
          "type": "address"
        },
        {
          "internalType": "address",
          "name": "_rewardsDistributor",
          "type": "address"
        }
      ],
      "name": "setRewardsDistributor",
      "outputs": [],
      "stateMutability": "nonpayable",
      "type": "function"
    },
    {
      "inputs": [
        {
          "internalType": "address",
          "name": "_rewardsToken",
          "type": "address"
        },
        {
          "internalType": "uint256",
          "name": "_rewardsDuration",
          "type": "uint256"
        }
      ],
      "name": "setRewardsDuration",
      "outputs": [],
      "stateMutability": "nonpayable",
      "type": "function"
    },
    {
      "inputs": [
        {
          "internalType": "uint256",
          "name": "amount",
          "type": "uint256"
        }
      ],
      "name": "stake",
      "outputs": [],
      "stateMutability": "nonpayable",
      "type": "function"
    },
    {
      "inputs": [
        {
          "internalType": "uint256",
          "name": "amount",
          "type": "uint256"
        },
        {
          "internalType": "address",
          "name": "account",
          "type": "address"
        }
      ],
      "name": "stakeFor",
      "outputs": [],
      "stateMutability": "nonpayable",
      "type": "function"
    },
    {
      "inputs": [],
      "name": "stakingToken",
      "outputs": [
        {
          "internalType": "contract IERC20",
          "name": "",
          "type": "address"
        }
      ],
      "stateMutability": "view",
      "type": "function"
    },
    {
      "inputs": [],
      "name": "totalSupply",
      "outputs": [
        {
          "internalType": "uint256",
          "name": "",
          "type": "uint256"
        }
      ],
      "stateMutability": "view",
      "type": "function"
    },
    {
      "inputs": [
        {
          "internalType": "address",
          "name": "newOwner",
          "type": "address"
        }
      ],
      "name": "transferOwnership",
      "outputs": [],
      "stateMutability": "nonpayable",
      "type": "function"
    },
    {
      "inputs": [
        {
          "internalType": "address",
          "name": "",
          "type": "address"
        },
        {
          "internalType": "address",
          "name": "",
          "type": "address"
        }
      ],
      "name": "userRewardPerTokenPaid",
      "outputs": [
        {
          "internalType": "uint256",
          "name": "",
          "type": "uint256"
        }
      ],
      "stateMutability": "view",
      "type": "function"
    },
    {
      "inputs": [
        {
          "internalType": "uint256",
          "name": "amount",
          "type": "uint256"
        }
      ],
      "name": "withdraw",
      "outputs": [],
      "stateMutability": "nonpayable",
      "type": "function"
    }
  ],
  "bytecode": {
    "object": "0x60806040523480156200001157600080fd5b5060405162001c9638038062001c968339810160408190526200003491620001a4565b6001600055620000443362000071565b600280546001600160a01b0319166001600160a01b0383161790556200006a81620000c3565b50620001d6565b600180546001600160a01b038381166001600160a01b0319831681179093556040519116919082907f8be0079c531659141344cd1fd0a4f28419497f9722a3daafe3b4186f6b6457e090600090a35050565b620000cd62000146565b6001600160a01b038116620001385760405162461bcd60e51b815260206004820152602660248201527f4f776e61626c653a206e6577206f776e657220697320746865207a65726f206160448201526564647265737360d01b60648201526084015b60405180910390fd5b620001438162000071565b50565b6001546001600160a01b03163314620001a25760405162461bcd60e51b815260206004820181905260248201527f4f776e61626c653a2063616c6c6572206973206e6f7420746865206f776e657260448201526064016200012f565b565b600060208284031215620001b757600080fd5b81516001600160a01b0381168114620001cf57600080fd5b9392505050565b611ab080620001e66000396000f3fe608060405234801561001057600080fd5b50600436106101585760003560e01c806372f702f3116100c3578063bcd110141161007c578063bcd110141461035b578063d0ed26ae1461036e578063e70b9e2714610381578063e9fad8ee146103ac578063f1229777146103b4578063f2fde38b146103c757600080fd5b806372f702f3146102d35780637bb7bed1146102fe5780638980f11f146103115780638da5cb5b14610324578063a694fc3a14610335578063b66503cf1461034857600080fd5b806348e5d9f81161011557806348e5d9f8146101ca57806351746bb214610251578063638634ee146102645780637035ab981461027757806370a08231146102a2578063715018a6146102cb57600080fd5b806318160ddd1461015d578063211dc32d146101745780632378bea6146101875780632e1a7d4d1461019c5780633d18b912146101af5780633f695b45146101b7575b600080fd5b6007545b6040519081526020015b60405180910390f35b61016161018236600461184a565b6103da565b61019a61019536600461187d565b610475565b005b61019a6101aa3660046118a7565b6105b6565b61019a610796565b61019a6101c536600461184a565b610987565b61021a6101d83660046118c0565b60036020819052600091825260409091208054600182015460028301549383015460048401546005909401546001600160a01b03909316949193919290919086565b604080516001600160a01b0390971687526020870195909552938501929092526060840152608083015260a082015260c00161016b565b61019a61025f3660046118db565b6109bd565b6101616102723660046118c0565b610bb2565b61016161028536600461184a565b600560209081526000928352604080842090915290825290205481565b6101616102b03660046118c0565b6001600160a01b031660009081526008602052604090205490565b61019a610bd9565b6002546102e6906001600160a01b031681565b6040516001600160a01b03909116815260200161016b565b6102e661030c3660046118a7565b610beb565b61019a61031f36600461187d565b610c15565b6001546001600160a01b03166102e6565b61019a6103433660046118a7565b610d49565b61019a61035636600461187d565b610f15565b6101616103693660046118c0565b6111da565b61019a61037c3660046118fe565b611205565b61016161038f36600461184a565b600660209081526000928352604080842090915290825290205481565b61019a6112a1565b6101616103c23660046118c0565b6112c2565b61019a6103d53660046118c0565b611365565b6001600160a01b03808316600081815260066020908152604080832094861680845294825280832054938352600582528083209483529390529182205461046c919061046690670de0b6b3a764000090610460906104419061043b896112c2565b906113db565b6001600160a01b038916600090815260086020526040902054906113e7565b906113f3565b906113ff565b90505b92915050565b6001600160a01b03821660009081526003602052604090206002015442116104e45760405162461bcd60e51b815260206004820152601a60248201527f52657761726420706572696f64207374696c6c2061637469766500000000000060448201526064015b60405180910390fd5b6001600160a01b0382811660009081526003602052604090205416331461050a57600080fd5b6000811161055a5760405162461bcd60e51b815260206004820181905260248201527f526577617264206475726174696f6e206d757374206265206e6f6e2d7a65726f60448201526064016104db565b6001600160a01b038216600081815260036020908152604091829020600101849055815192835282018390527fad2f86b01ed93b4b3a150d448c61a4f5d8d38075d3c0c64cc0a26fd6e1f4954591015b60405180910390a15050565b6105be61140b565b3360005b6004548110156106b7576000600482815481106105e1576105e161193a565b6000918252602090912001546001600160a01b03169050610601816112c2565b6001600160a01b03821660009081526003602052604090206005015561062681610bb2565b6001600160a01b038083166000908152600360205260409020600401919091558316156106a45761065783826103da565b6001600160a01b0380851660008181526006602090815260408083209487168084529482528083209590955560038152848220600590810154938352815284822093825292909252919020555b50806106af81611966565b9150506105c2565b50600082116106fc5760405162461bcd60e51b8152602060048201526011602482015270043616e6e6f74207769746864726177203607c1b60448201526064016104db565b60075461070990836113db565b6007553360009081526008602052604090205461072690836113db565b33600081815260086020526040902091909155600254610752916001600160a01b039091169084611464565b60405182815233907f7084f5476618d8e60b11ef0d7d3f06914655adb8793e28ff7f018d4c76d505d5906020015b60405180910390a2506107936001600055565b50565b61079e61140b565b3360005b600454811015610897576000600482815481106107c1576107c161193a565b6000918252602090912001546001600160a01b031690506107e1816112c2565b6001600160a01b03821660009081526003602052604090206005015561080681610bb2565b6001600160a01b038083166000908152600360205260409020600401919091558316156108845761083783826103da565b6001600160a01b0380851660008181526006602090815260408083209487168084529482528083209590955560038152848220600590810154938352815284822093825292909252919020555b508061088f81611966565b9150506107a2565b5060005b600454811015610979576000600482815481106108ba576108ba61193a565b60009182526020808320909101543383526006825260408084206001600160a01b03909216808552919092529120549091508015610964573360008181526006602090815260408083206001600160a01b03871680855292528220919091556109239183611464565b6040518181526001600160a01b0383169033907f540798df468d7b23d11f156fdb954cb19ad414d150722a7b6d55ba369dea792e9060200160405180910390a35b5050808061097190611966565b91505061089b565b50506109856001600055565b565b61098f6114cc565b6001600160a01b03918216600090815260036020526040902080546001600160a01b03191691909216179055565b6109c561140b565b8060005b600454811015610abe576000600482815481106109e8576109e861193a565b6000918252602090912001546001600160a01b03169050610a08816112c2565b6001600160a01b038216600090815260036020526040902060050155610a2d81610bb2565b6001600160a01b03808316600090815260036020526040902060040191909155831615610aab57610a5e83826103da565b6001600160a01b0380851660008181526006602090815260408083209487168084529482528083209590955560038152848220600590810154938352815284822093825292909252919020555b5080610ab681611966565b9150506109c9565b5060008311610b005760405162461bcd60e51b815260206004820152600e60248201526d043616e6e6f74207374616b6520360941b60448201526064016104db565b600754610b0d90846113ff565b6007556001600160a01b038216600090815260086020526040902054610b3390846113ff565b6001600160a01b03808416600090815260086020526040902091909155600254610b609116333086611526565b816001600160a01b03167f9e71bc8eea02a63969f509818f2dafb9254532904319f9dbda79b67bd34a5f3d84604051610b9b91815260200190565b60405180910390a250610bae6001600055565b5050565b6001600160a01b03811660009081526003602052604081206002015461046f904290611564565b610be16114cc565b610985600061157a565b60048181548110610bfb57600080fd5b6000918252602090912001546001600160a01b0316905081565b610c1d6114cc565b6002546001600160a01b0390811690831603610c7b5760405162461bcd60e51b815260206004820152601d60248201527f43616e6e6f74207769746864726177207374616b696e6720746f6b656e00000060448201526064016104db565b6001600160a01b03821660009081526003602052604090206004015415610ce45760405162461bcd60e51b815260206004820152601c60248201527f43616e6e6f742077697468647261772072657761726420746f6b656e0000000060448201526064016104db565b610d0a610cf96001546001600160a01b031690565b6001600160a01b0384169083611464565b604080516001600160a01b0384168152602081018390527f8c1256b8896378cd5044f80c202f9772b9d77dc85c8a6eb51967210b09bfaa2891016105aa565b610d5161140b565b3360005b600454811015610e4a57600060048281548110610d7457610d7461193a565b6000918252602090912001546001600160a01b03169050610d94816112c2565b6001600160a01b038216600090815260036020526040902060050155610db981610bb2565b6001600160a01b03808316600090815260036020526040902060040191909155831615610e3757610dea83826103da565b6001600160a01b0380851660008181526006602090815260408083209487168084529482528083209590955560038152848220600590810154938352815284822093825292909252919020555b5080610e4281611966565b915050610d55565b5060008211610e8c5760405162461bcd60e51b815260206004820152600e60248201526d043616e6e6f74207374616b6520360941b60448201526064016104db565b600754610e9990836113ff565b60075533600090815260086020526040902054610eb690836113ff565b33600081815260086020526040902091909155600254610ee3916001600160a01b03909116903085611526565b60405182815233907f9e71bc8eea02a63969f509818f2dafb9254532904319f9dbda79b67bd34a5f3d90602001610780565b6000805b60045481101561100e57600060048281548110610f3857610f3861193a565b6000918252602090912001546001600160a01b03169050610f58816112c2565b6001600160a01b038216600090815260036020526040902060050155610f7d81610bb2565b6001600160a01b03808316600090815260036020526040902060040191909155831615610ffb57610fae83826103da565b6001600160a01b0380851660008181526006602090815260408083209487168084529482528083209590955560038152848220600590810154938352815284822093825292909252919020555b508061100681611966565b915050610f19565b506001600160a01b0383811660009081526003602052604090205416331461103557600080fd5b61104a6001600160a01b038416333085611526565b6001600160a01b03831660009081526003602052604090206002015442106110b5576001600160a01b0383166000908152600360205260409020600101546110939083906113f3565b6001600160a01b03841660009081526003602081905260409091200155611153565b6001600160a01b0383166000908152600360205260408120600201546110db90426113db565b6001600160a01b038516600090815260036020819052604082200154919250906111069083906113e7565b6001600160a01b0386166000908152600360205260409020600101549091506111339061046086846113ff565b6001600160a01b0386166000908152600360208190526040909120015550505b6001600160a01b0383166000908152600360205260409020426004820181905560019091015461118391906113ff565b6001600160a01b03841660009081526003602090815260409182902060020192909255518381527fde88a922e0d3b88b24e9623efeb464919c6bf9f66857a65e2bfcf2ce87a9433d910160405180910390a1505050565b6001600160a01b03811660009081526003602081905260408220600181015491015461046f916113e7565b61120d6114cc565b6001600160a01b0383166000908152600360205260409020600101541561123357600080fd5b6004805460018181019092557f8a35acfbc15ff81a39ae7d344fd709f28e8600b4aa8c65c6b64bfe7fe36bd19b0180546001600160a01b039586166001600160a01b031991821681179092556000918252600360205260409091208054949095169316929092178355910155565b336000908152600860205260409020546112ba906105b6565b610985610796565b60006007546000036112ed57506001600160a01b031660009081526003602052604090206005015490565b6007546001600160a01b03831660009081526003602081905260409091209081015460049091015461046f9261134392909161046091670de0b6b3a76400009161133d9190829061043b8b610bb2565b906113e7565b6001600160a01b038416600090815260036020526040902060050154906113ff565b61136d6114cc565b6001600160a01b0381166113d25760405162461bcd60e51b815260206004820152602660248201527f4f776e61626c653a206e6577206f776e657220697320746865207a65726f206160448201526564647265737360d01b60648201526084016104db565b6107938161157a565b600061046c828461197f565b600061046c8284611992565b600061046c82846119a9565b600061046c82846119cb565b60026000540361145d5760405162461bcd60e51b815260206004820152601f60248201527f5265656e7472616e637947756172643a207265656e7472616e742063616c6c0060448201526064016104db565b6002600055565b6040516001600160a01b0383166024820152604481018290526114c790849063a9059cbb60e01b906064015b60408051601f198184030181529190526020810180516001600160e01b03166001600160e01b0319909316929092179091526115cc565b505050565b6001546001600160a01b031633146109855760405162461bcd60e51b815260206004820181905260248201527f4f776e61626c653a2063616c6c6572206973206e6f7420746865206f776e657260448201526064016104db565b6040516001600160a01b038085166024830152831660448201526064810182905261155e9085906323b872dd60e01b90608401611490565b50505050565b6000818310611573578161046c565b5090919050565b600180546001600160a01b038381166001600160a01b0319831681179093556040519116919082907f8be0079c531659141344cd1fd0a4f28419497f9722a3daafe3b4186f6b6457e090600090a35050565b6000611621826040518060400160405280602081526020017f5361666545524332303a206c6f772d6c6576656c2063616c6c206661696c6564815250856001600160a01b031661169e9092919063ffffffff16565b8051909150156114c7578080602001905181019061163f91906119de565b6114c75760405162461bcd60e51b815260206004820152602a60248201527f5361666545524332303a204552433230206f7065726174696f6e20646964206e6044820152691bdd081cdd58d8d9595960b21b60648201526084016104db565b60606116ad84846000856116b5565b949350505050565b6060824710156117165760405162461bcd60e51b815260206004820152602660248201527f416464726573733a20696e73756666696369656e742062616c616e636520666f6044820152651c8818d85b1b60d21b60648201526084016104db565b600080866001600160a01b031685876040516117329190611a2b565b60006040518083038185875af1925050503d806000811461176f576040519150601f19603f3d011682016040523d82523d6000602084013e611774565b606091505b509150915061178587838387611790565b979650505050505050565b606083156117ff5782516000036117f8576001600160a01b0385163b6117f85760405162461bcd60e51b815260206004820152601d60248201527f416464726573733a2063616c6c20746f206e6f6e2d636f6e747261637400000060448201526064016104db565b50816116ad565b6116ad83838151156118145781518083602001fd5b8060405162461bcd60e51b81526004016104db9190611a47565b80356001600160a01b038116811461184557600080fd5b919050565b6000806040838503121561185d57600080fd5b6118668361182e565b91506118746020840161182e565b90509250929050565b6000806040838503121561189057600080fd5b6118998361182e565b946020939093013593505050565b6000602082840312156118b957600080fd5b5035919050565b6000602082840312156118d257600080fd5b61046c8261182e565b600080604083850312156118ee57600080fd5b823591506118746020840161182e565b60008060006060848603121561191357600080fd5b61191c8461182e565b925061192a6020850161182e565b9150604084013590509250925092565b634e487b7160e01b600052603260045260246000fd5b634e487b7160e01b600052601160045260246000fd5b60006001820161197857611978611950565b5060010190565b8181038181111561046f5761046f611950565b808202811582820484141761046f5761046f611950565b6000826119c657634e487b7160e01b600052601260045260246000fd5b500490565b8082018082111561046f5761046f611950565b6000602082840312156119f057600080fd5b81518015158114611a0057600080fd5b9392505050565b60005b83811015611a22578181015183820152602001611a0a565b50506000910152565b60008251611a3d818460208701611a07565b9190910192915050565b6020815260008251806020840152611a66816040850160208701611a07565b601f01601f1916919091016040019291505056fea2646970667358221220e405f9f388364adbf3572b6ebdbae2cf8e494acc729469ca5d7d668c9ec5980664736f6c63430008110033",
    "linkReferences": {}
  },
  "methodIdentifiers": {
    "addReward(address,address,uint256)": "d0ed26ae",
    "balanceOf(address)": "70a08231",
    "earned(address,address)": "211dc32d",
    "exit()": "e9fad8ee",
    "getReward()": "3d18b912",
    "getRewardForDuration(address)": "bcd11014",
    "lastTimeRewardApplicable(address)": "638634ee",
    "notifyRewardAmount(address,uint256)": "b66503cf",
    "owner()": "8da5cb5b",
    "recoverERC20(address,uint256)": "8980f11f",
    "renounceOwnership()": "715018a6",
    "rewardData(address)": "48e5d9f8",
    "rewardPerToken(address)": "f1229777",
    "rewardTokens(uint256)": "7bb7bed1",
    "rewards(address,address)": "e70b9e27",
    "setRewardsDistributor(address,address)": "3f695b45",
    "setRewardsDuration(address,uint256)": "2378bea6",
    "stake(uint256)": "a694fc3a",
    "stakeFor(uint256,address)": "51746bb2",
    "stakingToken()": "72f702f3",
    "totalSupply()": "18160ddd",
    "transferOwnership(address)": "f2fde38b",
    "userRewardPerTokenPaid(address,address)": "7035ab98",
    "withdraw(uint256)": "2e1a7d4d"
  },
  "id": 0
}